{
	"data": {
		"bytecode": {
			"linkReferences": {},
			"object": "60c0604052611388600055611388600155620151806005553480156200002457600080fd5b5060405162004b6438038062004b64833981016040819052620000479162000115565b600680546001600160a01b031916331790556001600160601b0319606082901b1660805260408051808201909152600a815269476f7665726e616e636560b01b6020909101527f8cad95687ba82c2ce50e74f7b754645e5117c3a5bec8151c0726d5857980a8667f9409903de1e6fd852dfc61c9dacb48196c48535b60e25abf92acc92dd689078d620000d962000111565b30604051602001620000ef949392919062000145565b60408051601f19818403018152919052805160209091012060a0525062000169565b4690565b60006020828403121562000127578081fd5b81516001600160a01b03811681146200013e578182fd5b9392505050565b938452602084019290925260408301526001600160a01b0316606082015260800190565b60805160601c60a05161496162000203600039806109a452806112bc525080610a315280610ab45280610f555280610fa2528061139652806113f952806114a4528061152652806115b75280611679528061178352806117cf5280611867528061193052806119de5280611a545280611aa55280611c825280611cc3528061204952806121e152806122ad52806125f352506149616000f3fe6080604052600436106103035760003560e01c8063945dd26e11610190578063da35c664116100dc578063e177246e11610095578063ec342ad01161006f578063ec342ad014610899578063f2b06537146108ae578063f75f9f7b146108db578063fe0d94c1146108fb5761030a565b8063e177246e1461082c578063e23a9a521461084c578063e74f8239146108795761030a565b8063da35c66414610782578063da95691a14610797578063dc380cbb146107b7578063ddf0b009146107d7578063de63298d146107f7578063deaaa7cc146108175761030a565b8063b600702a11610149578063c1ba4e5911610123578063c1ba4e5914610702578063c3fc0e1d14610722578063c5198abc14610742578063ce6a0880146107625761030a565b8063b600702a146106b8578063be4a66b6146106d8578063c1a287e2146106ed5761030a565b8063945dd26e14610619578063960bfe0414610639578063995e617a14610659578063ab033ea91461066e578063b1b43ae51461068e578063b58131b0146106a35761030a565b8063452a93201161024f5780636e3827b7116102085780637bdbe4d0116101e25780637bdbe4d0146105af5780637d645fab146105c457806380711989146105d95780638a0dac4a146105f95761030a565b80636e3827b71461056557806374a8f1031461057a578063762c31ba1461059a5761030a565b8063452a9320146104b95780634634c61f146104db5780634d8ea0de146104fb57806355ea6c471461051057806364bb43ee146105305780636a42b8f8146105505761030a565b806320606b70116102bc578063328dd98211610296578063328dd982146104275780633932abb1146104575780633e4f49e61461046c57806340e58ee5146104995761030a565b806320606b70146103e8578063238efcbc146103fd57806324bc1a64146104125761030a565b8063013cf08b1461030f57806302a251a31461034d57806306fdde031461036f57806315373e3d146103915780631778e29c146103b357806317977c61146103c85761030a565b3661030a57005b600080fd5b34801561031b57600080fd5b5061032f61032a3660046134df565b61090e565b604051610344999897969594939291906147de565b60405180910390f35b34801561035957600080fd5b50610362610967565b6040516103449190613879565b34801561037b57600080fd5b5061038461096d565b60405161034491906138cc565b34801561039d57600080fd5b506103b16103ac36600461353b565b610993565b005b3480156103bf57600080fd5b506103626109a2565b3480156103d457600080fd5b506103626103e336600461338e565b6109c6565b3480156103f457600080fd5b506103626109d8565b34801561040957600080fd5b506103b16109fc565b34801561041e57600080fd5b50610362610aa4565b34801561043357600080fd5b506104476104423660046134df565b610b54565b6040516103449493929190613821565b34801561046357600080fd5b50610362610de3565b34801561047857600080fd5b5061048c6104873660046134df565b610de8565b60405161034491906138b8565b3480156104a557600080fd5b506103b16104b43660046134df565b610f07565b3480156104c557600080fd5b506104ce61125a565b604051610344919061375c565b3480156104e757600080fd5b506103b16104f636600461356a565b611269565b34801561050757600080fd5b506104ce611394565b34801561051c57600080fd5b506103b161052b36600461338e565b6113b8565b34801561053c57600080fd5b506103b161054b36600461338e565b611463565b34801561055c57600080fd5b506103626114d9565b34801561057157600080fd5b506103626114df565b34801561058657600080fd5b506103b161059536600461338e565b6114e5565b3480156105a657600080fd5b506104ce61155b565b3480156105bb57600080fd5b5061036261156a565b3480156105d057600080fd5b5061036261156f565b3480156105e557600080fd5b506103b16105f436600461338e565b611576565b34801561060557600080fd5b506103b161061436600461338e565b6115ec565b34801561062557600080fd5b506103b161063436600461338e565b611638565b34801561064557600080fd5b506103b16106543660046134df565b6116ae565b34801561066557600080fd5b506103b16116f4565b34801561067a57600080fd5b506103b161068936600461338e565b611742565b34801561069a57600080fd5b506103626117b8565b3480156106af57600080fd5b506103626117bf565b3480156106c457600080fd5b506103b16106d336600461338e565b611826565b3480156106e457600080fd5b5061036261189c565b3480156106f957600080fd5b506103626118a2565b34801561070e57600080fd5b506103b161071d3660046134df565b6118a9565b34801561072e57600080fd5b506103b161073d3660046133e9565b6118ef565b34801561074e57600080fd5b506103b161075d36600461338e565b61199d565b34801561076e57600080fd5b506103b161077d3660046133e9565b611a13565b34801561078e57600080fd5b50610362611a8b565b3480156107a357600080fd5b506103626107b2366004613413565b611a91565b3480156107c357600080fd5b506103b16107d236600461338e565b611c77565b3480156107e357600080fd5b506103b16107f23660046134df565b611dd4565b34801561080357600080fd5b506103b16108123660046133e9565b612008565b34801561082357600080fd5b50610362612080565b34801561083857600080fd5b506103b16108473660046134df565b6120a4565b34801561085857600080fd5b5061086c61086736600461350f565b61213c565b6040516103449190614721565b34801561088557600080fd5b506103b16108943660046133a9565b6121a0565b3480156108a557600080fd5b50610362612251565b3480156108ba57600080fd5b506108ce6108c93660046134df565b612257565b604051610344919061386e565b3480156108e757600080fd5b506103b16108f636600461338e565b61226c565b6103b16109093660046134df565b6122e2565b6003602052600090815260409020805460018201546002830154600784015460088501546009860154600a870154600b9097015495966001600160a01b0390951695939492939192909160ff8082169161010090041689565b619d8090565b6040518060400160405280600a815260200169476f7665726e616e636560b01b81525081565b61099e338383612558565b5050565b7f000000000000000000000000000000000000000000000000000000000000000081565b60046020526000908152604090205481565b7f8cad95687ba82c2ce50e74f7b754645e5117c3a5bec8151c0726d5857980a86681565b6006546001600160a01b03163314610a2f5760405162461bcd60e51b8152600401610a2690614445565b60405180910390fd5b7f00000000000000000000000000000000000000000000000000000000000000006001600160a01b031663238efcbc6040518163ffffffff1660e01b8152600401600060405180830381600087803b158015610a8a57600080fd5b505af1158015610a9e573d6000803e3d6000fd5b50505050565b6000610b4f612710610b496000547f00000000000000000000000000000000000000000000000000000000000000006001600160a01b03166344d96e956040518163ffffffff1660e01b815260040160206040518083038186803b158015610b0b57600080fd5b505afa158015610b1f573d6000803e3d6000fd5b505050506040513d601f19601f82011682018060405250810190610b4391906134f7565b90612715565b90612756565b905090565b60608060608060006003600087815260200190815260200160002090508060030181600401826005018360060183805480602002602001604051908101604052809291908181526020018280548015610bd657602002820191906000526020600020905b81546001600160a01b03168152600190910190602001808311610bb8575b5050505050935082805480602002602001604051908101604052809291908181526020018280548015610c2857602002820191906000526020600020905b815481526020019060010190808311610c14575b5050505050925081805480602002602001604051908101604052809291908181526020016000905b82821015610cfb5760008481526020908190208301805460408051601f6002600019610100600187161502019094169390930492830185900485028101850190915281815292830182828015610ce75780601f10610cbc57610100808354040283529160200191610ce7565b820191906000526020600020905b815481529060010190602001808311610cca57829003601f168201915b505050505081526020019060010190610c50565b50505050915080805480602002602001604051908101604052809291908181526020016000905b82821015610dcd5760008481526020908190208301805460408051601f6002600019610100600187161502019094169390930492830185900485028101850190915281815292830182828015610db95780601f10610d8e57610100808354040283529160200191610db9565b820191906000526020600020905b815481529060010190602001808311610d9c57829003601f168201915b505050505081526020019060010190610d22565b5050505090509450945094509450509193509193565b600190565b60008160025410158015610dfc5750600082115b610e185760405162461bcd60e51b8152600401610a26906143ff565b6000828152600360205260409020600b81015460ff1615610e3d576002915050610f02565b80600701544311610e52576000915050610f02565b80600801544311610e67576001915050610f02565b610e6f610aa4565b600a8201546009830154610e8291612798565b1015610e92576003915050610f02565b80600a0154816009015411610eab576003915050610f02565b6002810154610ebe576004915050610f02565b600b810154610100900460ff1615610eda576007915050610f02565b6002810154610eec9062127500612798565b4210610efc576006915050610f02565b60059150505b919050565b6000610f1282610de8565b90506007816007811115610f2257fe5b1415610f405760405162461bcd60e51b8152600401610a2690613e50565b600082815260036020526040902060018101547f00000000000000000000000000000000000000000000000000000000000000006001600160a01b039081169116148015906110485750610f926117bf565b6001808301546001600160a01b037f000000000000000000000000000000000000000000000000000000000000000081169263782d6fe19290911690610fd99043906127bd565b6040518363ffffffff1660e01b8152600401610ff6929190613770565b60206040518083038186803b15801561100e57600080fd5b505afa158015611022573d6000803e3d6000fd5b505050506040513d601f19601f8201168201806040525081019061104691906134f7565b105b6110645760405162461bcd60e51b8152600401610a269061429d565b600b8101805460ff1916600117905560005b600382015481101561121d5761121582600301828154811061109457fe5b6000918252602090912001546004840180546001600160a01b0390921691849081106110bc57fe5b90600052602060002001548460050184815481106110d657fe5b600091825260209182902001805460408051601f60026000196101006001871615020190941693909304928301859004850281018501909152818152928301828280156111645780601f1061113957610100808354040283529160200191611164565b820191906000526020600020905b81548152906001019060200180831161114757829003601f168201915b505050505085600601858154811061117857fe5b600091825260209182902001805460408051601f60026000196101006001871615020190941693909304928301859004850281018501909152818152928301828280156112065780601f106111db57610100808354040283529160200191611206565b820191906000526020600020905b8154815290600101906020018083116111e957829003601f168201915b505050505086600201546127ff565b600101611076565b507f789cf55be980739dad1d0699b93b58e806b51c9d96619bfa8fe0a28abaa7b30c8360405161124d9190613879565b60405180910390a1505050565b6006546001600160a01b031681565b60007f8e25870c07e0b0b3884c78da52790939a455c275406c44ae8b434b692fb916ee86866040516020016112a093929190613882565b60405160208183030381529060405280519060200120905060007f0000000000000000000000000000000000000000000000000000000000000000826040516020016112ed9291906136fe565b60405160208183030381529060405280519060200120905060006001828787876040516000815260200160405260405161132a949392919061389a565b6020604051602081039080840390855afa15801561134c573d6000803e3d6000fd5b5050604051601f1901519150506001600160a01b03811661137f5760405162461bcd60e51b8152600401610a2690613f0a565b61138a818989612558565b5050505050505050565b7f000000000000000000000000000000000000000000000000000000000000000081565b6006546001600160a01b031633146113e25760405162461bcd60e51b8152600401610a269061396a565b6040516355ea6c4760e01b81526001600160a01b037f000000000000000000000000000000000000000000000000000000000000000016906355ea6c479061142e90849060040161375c565b600060405180830381600087803b15801561144857600080fd5b505af115801561145c573d6000803e3d6000fd5b5050505050565b6006546001600160a01b0316331461148d5760405162461bcd60e51b8152600401610a2690613bf6565b60405163325da1f760e11b81526001600160a01b037f000000000000000000000000000000000000000000000000000000000000000016906364bb43ee9061142e90849060040161375c565b60055481565b60015481565b6006546001600160a01b0316331461150f5760405162461bcd60e51b8152600401610a26906138df565b6040516374a8f10360e01b81526001600160a01b037f000000000000000000000000000000000000000000000000000000000000000016906374a8f1039061142e90849060040161375c565b6007546001600160a01b031681565b600a90565b62278d0081565b6006546001600160a01b031633146115a05760405162461bcd60e51b8152600401610a2690613a6d565b604051638071198960e01b81526001600160a01b037f0000000000000000000000000000000000000000000000000000000000000000169063807119899061142e90849060040161375c565b6006546001600160a01b031633146116165760405162461bcd60e51b8152600401610a2690613922565b600780546001600160a01b0319166001600160a01b0392909216919091179055565b6006546001600160a01b031633146116625760405162461bcd60e51b8152600401610a2690614492565b604051634a2ee93760e11b81526001600160a01b037f0000000000000000000000000000000000000000000000000000000000000000169063945dd26e9061142e90849060040161375c565b3330146116cd5760405162461bcd60e51b8152600401610a26906146dd565b6127108111156116ef5760405162461bcd60e51b8152600401610a2690613b1a565b600155565b6007546001600160a01b0316331461171e5760405162461bcd60e51b8152600401610a2690614365565b600754600680546001600160a01b0319166001600160a01b03909216919091179055565b6006546001600160a01b0316331461176c5760405162461bcd60e51b8152600401610a2690613b65565b60405163ab033ea960e01b81526001600160a01b037f0000000000000000000000000000000000000000000000000000000000000000169063ab033ea99061142e90849060040161375c565b6201518081565b6000610b4f612710610b496001547f00000000000000000000000000000000000000000000000000000000000000006001600160a01b03166344d96e956040518163ffffffff1660e01b815260040160206040518083038186803b158015610b0b57600080fd5b6006546001600160a01b031633146118505760405162461bcd60e51b8152600401610a26906144de565b604051635b00381560e11b81526001600160a01b037f0000000000000000000000000000000000000000000000000000000000000000169063b600702a9061142e90849060040161375c565b60005481565b6212750081565b3330146118c85760405162461bcd60e51b8152600401610a26906146dd565b6127108111156118ea5760405162461bcd60e51b8152600401610a26906140af565b600055565b6006546001600160a01b031633146119195760405162461bcd60e51b8152600401610a2690614253565b60405163c3fc0e1d60e01b81526001600160a01b037f0000000000000000000000000000000000000000000000000000000000000000169063c3fc0e1d906119679085908590600401613770565b600060405180830381600087803b15801561198157600080fd5b505af1158015611995573d6000803e3d6000fd5b505050505050565b6006546001600160a01b031633146119c75760405162461bcd60e51b8152600401610a2690613ce0565b60405163314662af60e21b81526001600160a01b037f0000000000000000000000000000000000000000000000000000000000000000169063c5198abc9061142e90849060040161375c565b6006546001600160a01b03163314611a3d5760405162461bcd60e51b8152600401610a2690614602565b60405163019cd41160e71b81526001600160a01b037f0000000000000000000000000000000000000000000000000000000000000000169063ce6a0880906119679085908590600401613770565b60025481565b6000611a9b6117bf565b6001600160a01b037f00000000000000000000000000000000000000000000000000000000000000001663782d6fe133611ad64360016127bd565b6040518363ffffffff1660e01b8152600401611af3929190613770565b60206040518083038186803b158015611b0b57600080fd5b505afa158015611b1f573d6000803e3d6000fd5b505050506040513d601f19601f82011682018060405250810190611b4391906134f7565b1015611b615760405162461bcd60e51b8152600401610a2690613c83565b84518651148015611b73575083518651145b8015611b80575082518651145b611b9c5760405162461bcd60e51b8152600401610a2690613ab3565b8551611bba5760405162461bcd60e51b8152600401610a2690613d5a565b611bc261156a565b86511115611be25760405162461bcd60e51b8152600401610a26906142e9565b336000908152600460205260409020548015611c5f576000611c0382610de8565b90506001816007811115611c1357fe5b1415611c315760405162461bcd60e51b8152600401610a26906139f2565b6000816007811115611c3f57fe5b1415611c5d5760405162461bcd60e51b8152600401610a26906140f4565b505b611c6c8787878787612899565b979650505050505050565b336001600160a01b037f00000000000000000000000000000000000000000000000000000000000000001614611cbf5760405162461bcd60e51b8152600401610a2690614170565b60607f000000000000000000000000000000000000000000000000000000000000000081600081518110611cef57fe5b60200260200101906001600160a01b031690816001600160a01b03168152505060606040518060400160405280600f81526020016e6164644a6f6228616464726573732960881b81525081600081518110611d4657fe5b6020026020010181905250606083604051602001611d64919061375c565b60405160208183030381529060405281600081518110611d8057fe5b60200260200101819052506060600081600081518110611d9c57fe5b6020026020010181815250506119958482858589604051602001611dc09190613719565b604051602081830303815290604052612899565b6004611ddf82610de8565b6007811115611dea57fe5b14611e075760405162461bcd60e51b8152600401610a2690613ea3565b6000818152600360205260408120600554909190611e26904290612798565b905060005b6003830154811015611fce57611fc6836003018281548110611e4957fe5b6000918252602090912001546004850180546001600160a01b039092169184908110611e7157fe5b9060005260206000200154856005018481548110611e8b57fe5b600091825260209182902001805460408051601f6002600019610100600187161502019094169390930492830185900485028101850190915281815292830182828015611f195780601f10611eee57610100808354040283529160200191611f19565b820191906000526020600020905b815481529060010190602001808311611efc57829003601f168201915b5050505050866006018581548110611f2d57fe5b600091825260209182902001805460408051601f6002600019610100600187161502019094169390930492830185900485028101850190915281815292830182828015611fbb5780601f10611f9057610100808354040283529160200191611fbb565b820191906000526020600020905b815481529060010190602001808311611f9e57829003601f168201915b505050505086612ae4565b600101611e2b565b50600282018190556040517f9a2e42fd6722813d69113e7d0079d3d940171428df7373df9c7f7617cfda28929061124d9085908490614867565b6006546001600160a01b031633146120325760405162461bcd60e51b8152600401610a26906141cd565b60405163de63298d60e01b81526001600160a01b037f0000000000000000000000000000000000000000000000000000000000000000169063de63298d906119679085908590600401613770565b7f8e25870c07e0b0b3884c78da52790939a455c275406c44ae8b434b692fb916ee81565b3330146120c35760405162461bcd60e51b8152600401610a269061464a565b620151808110156120e65760405162461bcd60e51b8152600401610a2690613dfc565b62278d008111156121095760405162461bcd60e51b8152600401610a2690613fbd565b600581905560405181907f948b1f6a42ee138b7e34058ba85a37f716d55ff25ff05a763f15bed6a04c8d2c90600090a250565b612144612e75565b5060008281526003602090815260408083206001600160a01b0385168452600c018252918290208251606081018452815460ff808216151583526101009091041615159281019290925260010154918101919091525b92915050565b6006546001600160a01b031633146121ca5760405162461bcd60e51b8152600401610a269061469b565b60405163e74f823960e01b81526001600160a01b037f0000000000000000000000000000000000000000000000000000000000000000169063e74f82399061221a90869086908690600401613789565b600060405180830381600087803b15801561223457600080fd5b505af1158015612248573d6000803e3d6000fd5b50505050505050565b61271081565b60086020526000908152604090205460ff1681565b6006546001600160a01b031633146122965760405162461bcd60e51b8152600401610a26906139ae565b60405163f75f9f7b60e01b81526001600160a01b037f0000000000000000000000000000000000000000000000000000000000000000169063f75f9f7b9061142e90849060040161375c565b6006546001600160a01b0316158061230457506006546001600160a01b031633145b6123205760405162461bcd60e51b8152600401610a269061432e565b600561232b82610de8565b600781111561233657fe5b146123535760405162461bcd60e51b8152600401610a269061459a565b6000818152600360205260408120600b8101805461ff001916610100179055905b600382015481101561251c5761251382600301828154811061239257fe5b6000918252602090912001546004840180546001600160a01b0390921691849081106123ba57fe5b90600052602060002001548460050184815481106123d457fe5b600091825260209182902001805460408051601f60026000196101006001871615020190941693909304928301859004850281018501909152818152928301828280156124625780601f1061243757610100808354040283529160200191612462565b820191906000526020600020905b81548152906001019060200180831161244557829003601f168201915b505050505085600601858154811061247657fe5b600091825260209182902001805460408051601f60026000196101006001871615020190941693909304928301859004850281018501909152818152928301828280156125045780601f106124d957610100808354040283529160200191612504565b820191906000526020600020905b8154815290600101906020018083116124e757829003601f168201915b50505050508660020154612b54565b50600101612374565b507f712ae1383f79ac853f8d882153778e0260ef8f03b504e2866e0593e04d2b291f8260405161254c9190613879565b60405180910390a15050565b600161256383610de8565b600781111561256e57fe5b1461258b5760405162461bcd60e51b8152600401610a2690613baf565b60008281526003602090815260408083206001600160a01b0387168452600c8101909252909120805460ff16156125d45760405162461bcd60e51b8152600401610a269061401a565b600782015460405163782d6fe160e01b81526000916001600160a01b037f0000000000000000000000000000000000000000000000000000000000000000169163782d6fe191612629918a9190600401613770565b60206040518083038186803b15801561264157600080fd5b505afa158015612655573d6000803e3d6000fd5b505050506040513d601f19601f8201168201806040525081019061267991906134f7565b9050831561269a5760098301546126909082612798565b60098401556126af565b600a8301546126a99082612798565b600a8401555b8154600160ff19909116811761ff0019166101008615150217835582018190556040517f877856338e13f63d0c36822ff0ef736b80934cd90574a3a5bc9262c39d217c46906127059088908890889086906137ad565b60405180910390a1505050505050565b6000826127245750600061219a565b8282028284828161273157fe5b041461274f5760405162461bcd60e51b8152600401610a2690614212565b9392505050565b600061274f83836040518060400160405280601a81526020017f536166654d6174683a206469766973696f6e206279207a65726f000000000000815250612d3a565b60008282018381101561274f5760405162461bcd60e51b8152600401610a2690613d23565b600061274f83836040518060400160405280601e81526020017f536166654d6174683a207375627472616374696f6e206f766572666c6f770000815250612d71565b6000858585858560405160200161281a9594939291906137d5565b60408051601f19818403018152828252805160209182012060008181526008909252919020805460ff1916905591506001600160a01b0387169082907f2fffc091a501fd91bfbff27141450d3acb40fb8e6d8382b243ec7a812a3aaf879061288990899089908990899061482a565b60405180910390a3505050505050565b6000806128ae6128a7610de3565b4390612798565b905060006128c46128bd610967565b8390612798565b60028054600101905590506128d7612e95565b604051806101a001604052806002548152602001336001600160a01b03168152602001600081526020018a815260200189815260200188815260200187815260200184815260200183815260200160008152602001600081526020016000151581526020016000151581525090508060036000836000015181526020019081526020016000206000820151816000015560208201518160010160006101000a8154816001600160a01b0302191690836001600160a01b031602179055506040820151816002015560608201518160030190805190602001906129ba929190612f0a565b50608082015180516129d6916004840191602090910190612f6f565b5060a082015180516129f2916005840191602090910190612fb6565b5060c08201518051612a0e91600684019160209091019061300f565b5060e082015160078201556101008083015160088301556101208301516009830155610140830151600a830155610160830151600b90920180546101809094015160ff199094169215159290921761ff0019169215150291909117905580516020808301516001600160a01b03166000908152600490915260409081902091909155815190517f7d84a6263ae0d98d3329bd7b46bb4e8d6f98cd35a7adb45c274c8b7fd5ebd5e091612acf9133908d908d908d908d908b908b908f90614746565b60405180910390a15198975050505050505050565b600860008686868686604051602001612b019594939291906137d5565b60408051601f198184030181529181528151602092830120835290820192909252016000205460ff1615612b475760405162461bcd60e51b8152600401610a2690613f56565b6119958585858585612d9d565b606060008686868686604051602001612b719594939291906137d5565b60408051601f1981840301815291815281516020928301206000818152600890935291205490915060ff16612bb85760405162461bcd60e51b8152600401610a2690614064565b82612bc1612e71565b1015612bdf5760405162461bcd60e51b8152600401610a2690613da3565b612bec8362127500612798565b612bf4612e71565b1115612c125760405162461bcd60e51b8152600401610a2690613c42565b6000818152600860205260409020805460ff191690558451606090612c38575083612c64565b858051906020012085604051602001612c529291906136b1565b60405160208183030381529060405290505b60006060896001600160a01b03168984604051612c8191906136e2565b60006040518083038185875af1925050503d8060008114612cbe576040519150601f19603f3d011682016040523d82523d6000602084013e612cc3565b606091505b509150915081612ce55760405162461bcd60e51b8152600401610a26906143b4565b896001600160a01b0316847fa560e3198060a2f10670c1ec5b403077ea6ae93ca8de1c32b451dc1a943cd6e78b8b8b8b604051612d25949392919061482a565b60405180910390a39998505050505050505050565b60008183612d5b5760405162461bcd60e51b8152600401610a2691906138cc565b506000838581612d6757fe5b0495945050505050565b60008184841115612d955760405162461bcd60e51b8152600401610a2691906138cc565b505050900390565b6000612db3600554612dad612e71565b90612798565b821015612dd25760405162461bcd60e51b8152600401610a269061452b565b60008686868686604051602001612ded9594939291906137d5565b60408051601f19818403018152828252805160209182012060008181526008909252919020805460ff1916600117905591506001600160a01b0388169082907f76e2796dc3a81d57b0e8504b647febcbeeb5f4af818e164f11eef8131a6a763f90612e5f908a908a908a908a9061482a565b60405180910390a39695505050505050565b4290565b604080516060810182526000808252602082018190529181019190915290565b604051806101a001604052806000815260200160006001600160a01b031681526020016000815260200160608152602001606081526020016060815260200160608152602001600081526020016000815260200160008152602001600081526020016000151581526020016000151581525090565b828054828255906000526020600020908101928215612f5f579160200282015b82811115612f5f57825182546001600160a01b0319166001600160a01b03909116178255602090920191600190910190612f2a565b50612f6b929150613068565b5090565b828054828255906000526020600020908101928215612faa579160200282015b82811115612faa578251825591602001919060010190612f8f565b50612f6b929150613087565b828054828255906000526020600020908101928215613003579160200282015b828111156130035782518051612ff391849160209091019061309c565b5091602001919060010190612fd6565b50612f6b929150613109565b82805482825590600052602060002090810192821561305c579160200282015b8281111561305c578251805161304c91849160209091019061309c565b509160200191906001019061302f565b50612f6b929150613126565b5b80821115612f6b5780546001600160a01b0319168155600101613069565b5b80821115612f6b5760008155600101613088565b828054600181600116156101000203166002900490600052602060002090601f016020900481019282601f106130dd57805160ff1916838001178555612faa565b82800160010185558215612faa5791820182811115612faa578251825591602001919060010190612f8f565b80821115612f6b57600061311d8282613143565b50600101613109565b80821115612f6b57600061313a8282613143565b50600101613126565b50805460018160011615610100020316600290046000825580601f106131695750613187565b601f0160209004906000526020600020908101906131879190613087565b50565b80356001600160a01b038116811461219a57600080fd5b600082601f8301126131b1578081fd5b81356131c46131bf8261489c565b614875565b8181529150602080830190848101818402860182018710156131e557600080fd5b60005b8481101561320c576131fa888361318a565b845292820192908201906001016131e8565b505050505092915050565b600082601f830112613227578081fd5b81356132356131bf8261489c565b818152915060208083019084810160005b8481101561320c5761325d888484358a0101613325565b84529282019290820190600101613246565b600082601f83011261327f578081fd5b813561328d6131bf8261489c565b818152915060208083019084810160005b8481101561320c576132b5888484358a0101613325565b8452928201929082019060010161329e565b600082601f8301126132d7578081fd5b81356132e56131bf8261489c565b81815291506020808301908481018184028601820187101561330657600080fd5b60005b8481101561320c57813584529282019290820190600101613309565b600082601f830112613335578081fd5b813567ffffffffffffffff81111561334b578182fd5b61335e601f8201601f1916602001614875565b915080825283602082850101111561337557600080fd5b8060208401602084013760009082016020015292915050565b60006020828403121561339f578081fd5b61274f838361318a565b6000806000606084860312156133bd578182fd5b83356133c8816148e8565b925060208401356133d8816148e8565b929592945050506040919091013590565b600080604083850312156133fb578182fd5b613405848461318a565b946020939093013593505050565b600080600080600060a0868803121561342a578081fd5b853567ffffffffffffffff80821115613441578283fd5b61344d89838a016131a1565b96506020880135915080821115613462578283fd5b61346e89838a016132c7565b95506040880135915080821115613483578283fd5b61348f89838a0161326f565b945060608801359150808211156134a4578283fd5b6134b089838a01613217565b935060808801359150808211156134c5578283fd5b506134d288828901613325565b9150509295509295909350565b6000602082840312156134f0578081fd5b5035919050565b600060208284031215613508578081fd5b5051919050565b60008060408385031215613521578182fd5b82359150613532846020850161318a565b90509250929050565b6000806040838503121561354d578182fd5b82359150602083013561355f816148fd565b809150509250929050565b600080600080600060a08688031215613581578283fd5b853594506020860135613593816148fd565b9350604086013560ff811681146135a8578384fd5b94979396509394606081013594506080013592915050565b6000815180845260208085019450808401835b838110156135f85781516001600160a01b0316875295820195908201906001016135d3565b509495945050505050565b6000815180845260208085018081965082840281019150828601855b85811015613649578284038952613637848351613685565b9885019893509084019060010161361f565b5091979650505050505050565b6000815180845260208085019450808401835b838110156135f857815187529582019590820190600101613669565b6000815180845261369d8160208601602086016148bc565b601f01601f19169290920160200192915050565b6001600160e01b03198316815281516000906136d48160048501602087016148bc565b919091016004019392505050565b600082516136f48184602087016148bc565b9190910192915050565b61190160f01b81526002810192909252602282015260420190565b7f476f7665726e616e63653a3a70726f706f73654a6f6228293a20000000000000815260609190911b6bffffffffffffffffffffffff1916601a820152602e0190565b6001600160a01b0391909116815260200190565b6001600160a01b03929092168252602082015260400190565b6001600160a01b039384168152919092166020820152604081019190915260600190565b6001600160a01b03949094168452602084019290925215156040830152606082015260800190565b600060018060a01b038716825285602083015260a060408301526137fc60a0830186613685565b828103606084015261380e8186613685565b9150508260808301529695505050505050565b60006080825261383460808301876135c0565b82810360208401526138468187613656565b9050828103604084015261385a8186613603565b90508281036060840152611c6c8185613603565b901515815260200190565b90815260200190565b92835260208301919091521515604082015260600190565b93845260ff9290921660208401526040830152606082015260800190565b60208101600883106138c657fe5b91905290565b60006020825261274f6020830184613685565b60208082526023908201527f4c6f636b3372476f7665726e616e63653a3a7265766f6b653a2021677561726460408201526234b0b760e91b606082015260800190565b60208082526028908201527f4c6f636b3372476f7665726e616e63653a3a736574477561726469616e3a202160408201526733bab0b93234b0b760c11b606082015260800190565b60208082526024908201527f4c6f636b3372476f7665726e616e63653a3a7265736f6c76653a2021677561726040820152633234b0b760e11b606082015260800190565b60208082526024908201527f4c6f636b3372476f7665726e616e63653a3a646973707574653a2021677561726040820152633234b0b760e11b606082015260800190565b60208082526055908201527f476f7665726e616e63653a3a70726f706f73653a206f6e65206c69766520707260408201527f6f706f73616c207065722070726f706f7365722c20666f756e6420616e20616c6060820152741c9958591e481858dd1a5d99481c1c9bdc1bdcd85b605a1b608082015260a00190565b60208082526026908201527f4c6f636b3372476f7665726e616e63653a3a72656d6f76654a6f623a2021677560408201526530b93234b0b760d11b606082015260800190565b60208082526041908201527f476f7665726e616e63653a3a70726f706f73653a2070726f706f73616c20667560408201527f6e6374696f6e20696e666f726d6174696f6e206172697479206d69736d6174636060820152600d60fb1b608082015260a00190565b6020808252602b908201527f476f7665726e616e63653a3a7365745468726573686f6c643a2074687265736860408201526a6f6c645f203e204241534560a81b606082015260800190565b6020808252602a908201527f4c6f636b3372476f7665726e616e63653a3a736574476f7665726e616e63653a6040820152691010b3bab0b93234b0b760b11b606082015260800190565b60208082526027908201527f476f7665726e616e63653a3a5f63617374566f74653a20766f74696e672069736040820152660818db1bdcd95960ca1b606082015260800190565b6020808252602c908201527f4c6f636b3372476f7665726e616e63653a3a7265766f6b654c6971756964697460408201526b3c9d1010b3bab0b93234b0b760a11b606082015260800190565b602080825260339082015260008051602061490c83398151915260408201527230b739b0b1ba34b7b71034b99039ba30b6329760691b606082015260800190565b6020808252603c908201527f476f7665726e616e63653a3a70726f706f73653a2070726f706f73657220766f60408201527f7465732062656c6f772070726f706f73616c207468726573686f6c6400000000606082015260800190565b60208082526023908201527f4c6f636b3372476f7665726e616e63653a3a6164644a6f623a2021677561726460408201526234b0b760e91b606082015260800190565b6020808252601b908201527f536166654d6174683a206164646974696f6e206f766572666c6f770000000000604082015260600190565b60208082526029908201527f476f7665726e616e63653a3a70726f706f73653a206d7573742070726f7669646040820152686520616374696f6e7360b81b606082015260800190565b602080825260459082015260008051602061490c83398151915260408201527f616e73616374696f6e206861736e2774207375727061737365642074696d65206060820152643637b1b59760d91b608082015260a00190565b60208082526034908201527f54696d656c6f636b3a3a73657444656c61793a2044656c6179206d75737420656040820152733c31b2b2b21036b4b734b6bab6903232b630bc9760611b606082015260800190565b60208082526033908201527f476f7665726e616e63653a3a63616e63656c3a2063616e6e6f742063616e63656040820152721b08195e1958dd5d1959081c1c9bdc1bdcd85b606a1b606082015260800190565b60208082526041908201527f476f7665726e616e63653a3a71756575653a2070726f706f73616c2063616e2060408201527f6f6e6c79206265207175657565642069662069742069732073756363656564656060820152601960fa1b608082015260a00190565b6020808252602c908201527f476f7665726e616e63653a3a63617374566f746542795369673a20696e76616c60408201526b6964207369676e617475726560a01b606082015260800190565b60208082526041908201527f476f7665726e616e63653a3a5f71756575654f725265766572743a2070726f7060408201527f6f73616c20616374696f6e20616c7265616479207175657565642061742065746060820152606160f81b608082015260a00190565b60208082526038908201527f54696d656c6f636b3a3a73657444656c61793a2044656c6179206d757374206e60408201527f6f7420657863656564206d6178696d756d2064656c61792e0000000000000000606082015260800190565b6020808252602a908201527f476f7665726e616e63653a3a5f63617374566f74653a20766f74657220616c726040820152691958591e481d9bdd195960b21b606082015260800190565b6020808252603d9082015260008051602061490c83398151915260408201527f616e73616374696f6e206861736e2774206265656e207175657565642e000000606082015260800190565b60208082526025908201527f476f7665726e616e63653a3a73657451756f72756d3a2071756f72756d5f203e604082015264204241534560d81b606082015260800190565b60208082526056908201527f476f7665726e616e63653a3a70726f706f73653a206f6e65206c69766520707260408201527f6f706f73616c207065722070726f706f7365722c20666f756e6420616e20616c6060820152751c9958591e481c195b991a5b99c81c1c9bdc1bdcd85b60521b608082015260a00190565b60208082526037908201527f476f7665726e616e63653a3a70726f706f73654a6f623a206f6e6c7920564f5460408201527f45522063616e2070726f706f7365206e6577206a6f6273000000000000000000606082015260800190565b60208082526025908201527f4c6f636b3372476f7665726e616e63653a3a616464566f7465733a2021677561604082015264393234b0b760d91b606082015260800190565b60208082526021908201527f536166654d6174683a206d756c7469706c69636174696f6e206f766572666c6f6040820152607760f81b606082015260800190565b6020808252602a908201527f4c6f636b3372476f7665726e616e63653a3a6164644c4b33524372656469743a6040820152691010b3bab0b93234b0b760b11b606082015260800190565b6020808252602c908201527f476f7665726e616e63653a3a63616e63656c3a2070726f706f7365722061626f60408201526b1d99481d1a1c995cda1bdb1960a21b606082015260800190565b60208082526025908201527f476f7665726e616e63653a3a70726f706f73653a20746f6f206d616e7920616360408201526474696f6e7360d81b606082015260800190565b6020808252601d908201527f476f7665726e616e63653a657865637574653a2021677561726469616e000000604082015260600190565b6020808252602f908201527f4c6f636b3372476f7665726e616e63653a3a736574477561726469616e3a202160408201526e3832b73234b733a3bab0b93234b0b760891b606082015260800190565b6020808252603d9082015260008051602061490c83398151915260408201527f616e73616374696f6e20657865637574696f6e2072657665727465642e000000606082015260800190565b60208082526026908201527f476f7665726e616e63653a3a73746174653a20696e76616c69642070726f706f6040820152651cd85b081a5960d21b606082015260800190565b6020808252602d908201527f4c6f636b3372476f7665726e616e63653a3a616363657074476f7665726e616e60408201526c31b29d1010b3bab0b93234b0b760991b606082015260800190565b6020808252602c908201527f4c6f636b3372476f7665726e616e63653a3a7365744c6f636b337248656c706560408201526b391d1010b3bab0b93234b0b760a11b606082015260800190565b6020808252602d908201527f4c6f636b3372476f7665726e616e63653a3a617070726f76654c69717569646960408201526c3a3c9d1010b3bab0b93234b0b760991b606082015260800190565b60208082526049908201527f54696d656c6f636b3a3a71756575655472616e73616374696f6e3a204573746960408201527f6d6174656420657865637574696f6e20626c6f636b206d757374207361746973606082015268333c903232b630bc9760b91b608082015260a00190565b60208082526042908201527f476f7665726e616e63653a3a657865637574653a2070726f706f73616c20636160408201527f6e206f6e6c792062652065786563757465642069662069742069732071756575606082015261195960f21b608082015260a00190565b60208082526028908201527f4c6f636b3372476f7665726e616e63653a3a72656d6f7665566f7465733a202160408201526733bab0b93234b0b760c11b606082015260800190565b60208082526031908201527f54696d656c6f636b3a3a73657444656c61793a2043616c6c206d75737420636f60408201527036b290333937b6902a34b6b2b637b1b59760791b606082015260800190565b60208082526022908201527f4c6f636b3372476f7665726e616e63653a3a736c6173683a202167756172646960408201526130b760f11b606082015260800190565b60208082526024908201527f476f7665726e616e63653a3a73657451756f72756d3a2074696d656c6f636b206040820152636f6e6c7960e01b606082015260800190565b8151151581526020808301511515908201526040918201519181019190915260600190565b8981526001600160a01b0389166020820152610120604082018190526000906147718382018b6135c0565b90508281036060840152614785818a613656565b905082810360808401526147998189613603565b905082810360a08401526147ad8188613603565b90508560c08401528460e08401528281036101008401526147ce8185613685565b9c9b505050505050505050505050565b9889526001600160a01b0397909716602089015260408801959095526060870193909352608086019190915260a085015260c0840152151560e083015215156101008201526101200190565b6000858252608060208301526148436080830186613685565b82810360408401526148558186613685565b91505082606083015295945050505050565b918252602082015260400190565b60405181810167ffffffffffffffff8111828210171561489457600080fd5b604052919050565b600067ffffffffffffffff8211156148b2578081fd5b5060209081020190565b60005b838110156148d75781810151838201526020016148bf565b83811115610a9e5750506000910152565b6001600160a01b038116811461318757600080fd5b801515811461318757600080fdfe54696d656c6f636b3a3a657865637574655472616e73616374696f6e3a205472a264697066735822122026ac4874a2b28ad31453ab1e1f28ad65273a0f003d94d7e5d27c76ed0523823f64736f6c634300060c0033",
			"opcodes": "PUSH1 0xC0 PUSH1 0x40 MSTORE PUSH2 0x1388 PUSH1 0x0 SSTORE PUSH2 0x1388 PUSH1 0x1 SSTORE PUSH3 0x15180 PUSH1 0x5 SSTORE CALLVALUE DUP1 ISZERO PUSH3 0x24 JUMPI PUSH1 0x0 DUP1 REVERT JUMPDEST POP PUSH1 0x40 MLOAD PUSH3 0x4B64 CODESIZE SUB DUP1 PUSH3 0x4B64 DUP4 CODECOPY DUP2 ADD PUSH1 0x40 DUP2 SWAP1 MSTORE PUSH3 0x47 SWAP2 PUSH3 0x115 JUMP JUMPDEST PUSH1 0x6 DUP1 SLOAD PUSH1 0x1 PUSH1 0x1 PUSH1 0xA0 SHL SUB NOT AND CALLER OR SWAP1 SSTORE PUSH1 0x1 PUSH1 0x1 PUSH1 0x60 SHL SUB NOT PUSH1 0x60 DUP3 SWAP1 SHL AND PUSH1 0x80 MSTORE PUSH1 0x40 DUP1 MLOAD DUP1 DUP3 ADD SWAP1 SWAP2 MSTORE PUSH1 0xA DUP2 MSTORE PUSH10 0x476F7665726E616E6365 PUSH1 0xB0 SHL PUSH1 0x20 SWAP1 SWAP2 ADD MSTORE PUSH32 0x8CAD95687BA82C2CE50E74F7B754645E5117C3A5BEC8151C0726D5857980A866 PUSH32 0x9409903DE1E6FD852DFC61C9DACB48196C48535B60E25ABF92ACC92DD689078D PUSH3 0xD9 PUSH3 0x111 JUMP JUMPDEST ADDRESS PUSH1 0x40 MLOAD PUSH1 0x20 ADD PUSH3 0xEF SWAP5 SWAP4 SWAP3 SWAP2 SWAP1 PUSH3 0x145 JUMP JUMPDEST PUSH1 0x40 DUP1 MLOAD PUSH1 0x1F NOT DUP2 DUP5 SUB ADD DUP2 MSTORE SWAP2 SWAP1 MSTORE DUP1 MLOAD PUSH1 0x20 SWAP1 SWAP2 ADD KECCAK256 PUSH1 0xA0 MSTORE POP PUSH3 0x169 JUMP JUMPDEST CHAINID SWAP1 JUMP JUMPDEST PUSH1 0x0 PUSH1 0x20 DUP3 DUP5 SUB SLT ISZERO PUSH3 0x127 JUMPI DUP1 DUP2 REVERT JUMPDEST DUP2 MLOAD PUSH1 0x1 PUSH1 0x1 PUSH1 0xA0 SHL SUB DUP2 AND DUP2 EQ PUSH3 0x13E JUMPI DUP2 DUP3 REVERT JUMPDEST SWAP4 SWAP3 POP POP POP JUMP JUMPDEST SWAP4 DUP5 MSTORE PUSH1 0x20 DUP5 ADD SWAP3 SWAP1 SWAP3 MSTORE PUSH1 0x40 DUP4 ADD MSTORE PUSH1 0x1 PUSH1 0x1 PUSH1 0xA0 SHL SUB AND PUSH1 0x60 DUP3 ADD MSTORE PUSH1 0x80 ADD SWAP1 JUMP JUMPDEST PUSH1 0x80 MLOAD PUSH1 0x60 SHR PUSH1 0xA0 MLOAD PUSH2 0x4961 PUSH3 0x203 PUSH1 0x0 CODECOPY DUP1 PUSH2 0x9A4 MSTORE DUP1 PUSH2 0x12BC MSTORE POP DUP1 PUSH2 0xA31 MSTORE DUP1 PUSH2 0xAB4 MSTORE DUP1 PUSH2 0xF55 MSTORE DUP1 PUSH2 0xFA2 MSTORE DUP1 PUSH2 0x1396 MSTORE DUP1 PUSH2 0x13F9 MSTORE DUP1 PUSH2 0x14A4 MSTORE DUP1 PUSH2 0x1526 MSTORE DUP1 PUSH2 0x15B7 MSTORE DUP1 PUSH2 0x1679 MSTORE DUP1 PUSH2 0x1783 MSTORE DUP1 PUSH2 0x17CF MSTORE DUP1 PUSH2 0x1867 MSTORE DUP1 PUSH2 0x1930 MSTORE DUP1 PUSH2 0x19DE MSTORE DUP1 PUSH2 0x1A54 MSTORE DUP1 PUSH2 0x1AA5 MSTORE DUP1 PUSH2 0x1C82 MSTORE DUP1 PUSH2 0x1CC3 MSTORE DUP1 PUSH2 0x2049 MSTORE DUP1 PUSH2 0x21E1 MSTORE DUP1 PUSH2 0x22AD MSTORE DUP1 PUSH2 0x25F3 MSTORE POP PUSH2 0x4961 PUSH1 0x0 RETURN INVALID PUSH1 0x80 PUSH1 0x40 MSTORE PUSH1 0x4 CALLDATASIZE LT PUSH2 0x303 JUMPI PUSH1 0x0 CALLDATALOAD PUSH1 0xE0 SHR DUP1 PUSH4 0x945DD26E GT PUSH2 0x190 JUMPI DUP1 PUSH4 0xDA35C664 GT PUSH2 0xDC JUMPI DUP1 PUSH4 0xE177246E GT PUSH2 0x95 JUMPI DUP1 PUSH4 0xEC342AD0 GT PUSH2 0x6F JUMPI DUP1 PUSH4 0xEC342AD0 EQ PUSH2 0x899 JUMPI DUP1 PUSH4 0xF2B06537 EQ PUSH2 0x8AE JUMPI DUP1 PUSH4 0xF75F9F7B EQ PUSH2 0x8DB JUMPI DUP1 PUSH4 0xFE0D94C1 EQ PUSH2 0x8FB JUMPI PUSH2 0x30A JUMP JUMPDEST DUP1 PUSH4 0xE177246E EQ PUSH2 0x82C JUMPI DUP1 PUSH4 0xE23A9A52 EQ PUSH2 0x84C JUMPI DUP1 PUSH4 0xE74F8239 EQ PUSH2 0x879 JUMPI PUSH2 0x30A JUMP JUMPDEST DUP1 PUSH4 0xDA35C664 EQ PUSH2 0x782 JUMPI DUP1 PUSH4 0xDA95691A EQ PUSH2 0x797 JUMPI DUP1 PUSH4 0xDC380CBB EQ PUSH2 0x7B7 JUMPI DUP1 PUSH4 0xDDF0B009 EQ PUSH2 0x7D7 JUMPI DUP1 PUSH4 0xDE63298D EQ PUSH2 0x7F7 JUMPI DUP1 PUSH4 0xDEAAA7CC EQ PUSH2 0x817 JUMPI PUSH2 0x30A JUMP JUMPDEST DUP1 PUSH4 0xB600702A GT PUSH2 0x149 JUMPI DUP1 PUSH4 0xC1BA4E59 GT PUSH2 0x123 JUMPI DUP1 PUSH4 0xC1BA4E59 EQ PUSH2 0x702 JUMPI DUP1 PUSH4 0xC3FC0E1D EQ PUSH2 0x722 JUMPI DUP1 PUSH4 0xC5198ABC EQ PUSH2 0x742 JUMPI DUP1 PUSH4 0xCE6A0880 EQ PUSH2 0x762 JUMPI PUSH2 0x30A JUMP JUMPDEST DUP1 PUSH4 0xB600702A EQ PUSH2 0x6B8 JUMPI DUP1 PUSH4 0xBE4A66B6 EQ PUSH2 0x6D8 JUMPI DUP1 PUSH4 0xC1A287E2 EQ PUSH2 0x6ED JUMPI PUSH2 0x30A JUMP JUMPDEST DUP1 PUSH4 0x945DD26E EQ PUSH2 0x619 JUMPI DUP1 PUSH4 0x960BFE04 EQ PUSH2 0x639 JUMPI DUP1 PUSH4 0x995E617A EQ PUSH2 0x659 JUMPI DUP1 PUSH4 0xAB033EA9 EQ PUSH2 0x66E JUMPI DUP1 PUSH4 0xB1B43AE5 EQ PUSH2 0x68E JUMPI DUP1 PUSH4 0xB58131B0 EQ PUSH2 0x6A3 JUMPI PUSH2 0x30A JUMP JUMPDEST DUP1 PUSH4 0x452A9320 GT PUSH2 0x24F JUMPI DUP1 PUSH4 0x6E3827B7 GT PUSH2 0x208 JUMPI DUP1 PUSH4 0x7BDBE4D0 GT PUSH2 0x1E2 JUMPI DUP1 PUSH4 0x7BDBE4D0 EQ PUSH2 0x5AF JUMPI DUP1 PUSH4 0x7D645FAB EQ PUSH2 0x5C4 JUMPI DUP1 PUSH4 0x80711989 EQ PUSH2 0x5D9 JUMPI DUP1 PUSH4 0x8A0DAC4A EQ PUSH2 0x5F9 JUMPI PUSH2 0x30A JUMP JUMPDEST DUP1 PUSH4 0x6E3827B7 EQ PUSH2 0x565 JUMPI DUP1 PUSH4 0x74A8F103 EQ PUSH2 0x57A JUMPI DUP1 PUSH4 0x762C31BA EQ PUSH2 0x59A JUMPI PUSH2 0x30A JUMP JUMPDEST DUP1 PUSH4 0x452A9320 EQ PUSH2 0x4B9 JUMPI DUP1 PUSH4 0x4634C61F EQ PUSH2 0x4DB JUMPI DUP1 PUSH4 0x4D8EA0DE EQ PUSH2 0x4FB JUMPI DUP1 PUSH4 0x55EA6C47 EQ PUSH2 0x510 JUMPI DUP1 PUSH4 0x64BB43EE EQ PUSH2 0x530 JUMPI DUP1 PUSH4 0x6A42B8F8 EQ PUSH2 0x550 JUMPI PUSH2 0x30A JUMP JUMPDEST DUP1 PUSH4 0x20606B70 GT PUSH2 0x2BC JUMPI DUP1 PUSH4 0x328DD982 GT PUSH2 0x296 JUMPI DUP1 PUSH4 0x328DD982 EQ PUSH2 0x427 JUMPI DUP1 PUSH4 0x3932ABB1 EQ PUSH2 0x457 JUMPI DUP1 PUSH4 0x3E4F49E6 EQ PUSH2 0x46C JUMPI DUP1 PUSH4 0x40E58EE5 EQ PUSH2 0x499 JUMPI PUSH2 0x30A JUMP JUMPDEST DUP1 PUSH4 0x20606B70 EQ PUSH2 0x3E8 JUMPI DUP1 PUSH4 0x238EFCBC EQ PUSH2 0x3FD JUMPI DUP1 PUSH4 0x24BC1A64 EQ PUSH2 0x412 JUMPI PUSH2 0x30A JUMP JUMPDEST DUP1 PUSH4 0x13CF08B EQ PUSH2 0x30F JUMPI DUP1 PUSH4 0x2A251A3 EQ PUSH2 0x34D JUMPI DUP1 PUSH4 0x6FDDE03 EQ PUSH2 0x36F JUMPI DUP1 PUSH4 0x15373E3D EQ PUSH2 0x391 JUMPI DUP1 PUSH4 0x1778E29C EQ PUSH2 0x3B3 JUMPI DUP1 PUSH4 0x17977C61 EQ PUSH2 0x3C8 JUMPI PUSH2 0x30A JUMP JUMPDEST CALLDATASIZE PUSH2 0x30A JUMPI STOP JUMPDEST PUSH1 0x0 DUP1 REVERT JUMPDEST CALLVALUE DUP1 ISZERO PUSH2 0x31B JUMPI PUSH1 0x0 DUP1 REVERT JUMPDEST POP PUSH2 0x32F PUSH2 0x32A CALLDATASIZE PUSH1 0x4 PUSH2 0x34DF JUMP JUMPDEST PUSH2 0x90E JUMP JUMPDEST PUSH1 0x40 MLOAD PUSH2 0x344 SWAP10 SWAP9 SWAP8 SWAP7 SWAP6 SWAP5 SWAP4 SWAP3 SWAP2 SWAP1 PUSH2 0x47DE JUMP JUMPDEST PUSH1 0x40 MLOAD DUP1 SWAP2 SUB SWAP1 RETURN JUMPDEST CALLVALUE DUP1 ISZERO PUSH2 0x359 JUMPI PUSH1 0x0 DUP1 REVERT JUMPDEST POP PUSH2 0x362 PUSH2 0x967 JUMP JUMPDEST PUSH1 0x40 MLOAD PUSH2 0x344 SWAP2 SWAP1 PUSH2 0x3879 JUMP JUMPDEST CALLVALUE DUP1 ISZERO PUSH2 0x37B JUMPI PUSH1 0x0 DUP1 REVERT JUMPDEST POP PUSH2 0x384 PUSH2 0x96D JUMP JUMPDEST PUSH1 0x40 MLOAD PUSH2 0x344 SWAP2 SWAP1 PUSH2 0x38CC JUMP JUMPDEST CALLVALUE DUP1 ISZERO PUSH2 0x39D JUMPI PUSH1 0x0 DUP1 REVERT JUMPDEST POP PUSH2 0x3B1 PUSH2 0x3AC CALLDATASIZE PUSH1 0x4 PUSH2 0x353B JUMP JUMPDEST PUSH2 0x993 JUMP JUMPDEST STOP JUMPDEST CALLVALUE DUP1 ISZERO PUSH2 0x3BF JUMPI PUSH1 0x0 DUP1 REVERT JUMPDEST POP PUSH2 0x362 PUSH2 0x9A2 JUMP JUMPDEST CALLVALUE DUP1 ISZERO PUSH2 0x3D4 JUMPI PUSH1 0x0 DUP1 REVERT JUMPDEST POP PUSH2 0x362 PUSH2 0x3E3 CALLDATASIZE PUSH1 0x4 PUSH2 0x338E JUMP JUMPDEST PUSH2 0x9C6 JUMP JUMPDEST CALLVALUE DUP1 ISZERO PUSH2 0x3F4 JUMPI PUSH1 0x0 DUP1 REVERT JUMPDEST POP PUSH2 0x362 PUSH2 0x9D8 JUMP JUMPDEST CALLVALUE DUP1 ISZERO PUSH2 0x409 JUMPI PUSH1 0x0 DUP1 REVERT JUMPDEST POP PUSH2 0x3B1 PUSH2 0x9FC JUMP JUMPDEST CALLVALUE DUP1 ISZERO PUSH2 0x41E JUMPI PUSH1 0x0 DUP1 REVERT JUMPDEST POP PUSH2 0x362 PUSH2 0xAA4 JUMP JUMPDEST CALLVALUE DUP1 ISZERO PUSH2 0x433 JUMPI PUSH1 0x0 DUP1 REVERT JUMPDEST POP PUSH2 0x447 PUSH2 0x442 CALLDATASIZE PUSH1 0x4 PUSH2 0x34DF JUMP JUMPDEST PUSH2 0xB54 JUMP JUMPDEST PUSH1 0x40 MLOAD PUSH2 0x344 SWAP5 SWAP4 SWAP3 SWAP2 SWAP1 PUSH2 0x3821 JUMP JUMPDEST CALLVALUE DUP1 ISZERO PUSH2 0x463 JUMPI PUSH1 0x0 DUP1 REVERT JUMPDEST POP PUSH2 0x362 PUSH2 0xDE3 JUMP JUMPDEST CALLVALUE DUP1 ISZERO PUSH2 0x478 JUMPI PUSH1 0x0 DUP1 REVERT JUMPDEST POP PUSH2 0x48C PUSH2 0x487 CALLDATASIZE PUSH1 0x4 PUSH2 0x34DF JUMP JUMPDEST PUSH2 0xDE8 JUMP JUMPDEST PUSH1 0x40 MLOAD PUSH2 0x344 SWAP2 SWAP1 PUSH2 0x38B8 JUMP JUMPDEST CALLVALUE DUP1 ISZERO PUSH2 0x4A5 JUMPI PUSH1 0x0 DUP1 REVERT JUMPDEST POP PUSH2 0x3B1 PUSH2 0x4B4 CALLDATASIZE PUSH1 0x4 PUSH2 0x34DF JUMP JUMPDEST PUSH2 0xF07 JUMP JUMPDEST CALLVALUE DUP1 ISZERO PUSH2 0x4C5 JUMPI PUSH1 0x0 DUP1 REVERT JUMPDEST POP PUSH2 0x4CE PUSH2 0x125A JUMP JUMPDEST PUSH1 0x40 MLOAD PUSH2 0x344 SWAP2 SWAP1 PUSH2 0x375C JUMP JUMPDEST CALLVALUE DUP1 ISZERO PUSH2 0x4E7 JUMPI PUSH1 0x0 DUP1 REVERT JUMPDEST POP PUSH2 0x3B1 PUSH2 0x4F6 CALLDATASIZE PUSH1 0x4 PUSH2 0x356A JUMP JUMPDEST PUSH2 0x1269 JUMP JUMPDEST CALLVALUE DUP1 ISZERO PUSH2 0x507 JUMPI PUSH1 0x0 DUP1 REVERT JUMPDEST POP PUSH2 0x4CE PUSH2 0x1394 JUMP JUMPDEST CALLVALUE DUP1 ISZERO PUSH2 0x51C JUMPI PUSH1 0x0 DUP1 REVERT JUMPDEST POP PUSH2 0x3B1 PUSH2 0x52B CALLDATASIZE PUSH1 0x4 PUSH2 0x338E JUMP JUMPDEST PUSH2 0x13B8 JUMP JUMPDEST CALLVALUE DUP1 ISZERO PUSH2 0x53C JUMPI PUSH1 0x0 DUP1 REVERT JUMPDEST POP PUSH2 0x3B1 PUSH2 0x54B CALLDATASIZE PUSH1 0x4 PUSH2 0x338E JUMP JUMPDEST PUSH2 0x1463 JUMP JUMPDEST CALLVALUE DUP1 ISZERO PUSH2 0x55C JUMPI PUSH1 0x0 DUP1 REVERT JUMPDEST POP PUSH2 0x362 PUSH2 0x14D9 JUMP JUMPDEST CALLVALUE DUP1 ISZERO PUSH2 0x571 JUMPI PUSH1 0x0 DUP1 REVERT JUMPDEST POP PUSH2 0x362 PUSH2 0x14DF JUMP JUMPDEST CALLVALUE DUP1 ISZERO PUSH2 0x586 JUMPI PUSH1 0x0 DUP1 REVERT JUMPDEST POP PUSH2 0x3B1 PUSH2 0x595 CALLDATASIZE PUSH1 0x4 PUSH2 0x338E JUMP JUMPDEST PUSH2 0x14E5 JUMP JUMPDEST CALLVALUE DUP1 ISZERO PUSH2 0x5A6 JUMPI PUSH1 0x0 DUP1 REVERT JUMPDEST POP PUSH2 0x4CE PUSH2 0x155B JUMP JUMPDEST CALLVALUE DUP1 ISZERO PUSH2 0x5BB JUMPI PUSH1 0x0 DUP1 REVERT JUMPDEST POP PUSH2 0x362 PUSH2 0x156A JUMP JUMPDEST CALLVALUE DUP1 ISZERO PUSH2 0x5D0 JUMPI PUSH1 0x0 DUP1 REVERT JUMPDEST POP PUSH2 0x362 PUSH2 0x156F JUMP JUMPDEST CALLVALUE DUP1 ISZERO PUSH2 0x5E5 JUMPI PUSH1 0x0 DUP1 REVERT JUMPDEST POP PUSH2 0x3B1 PUSH2 0x5F4 CALLDATASIZE PUSH1 0x4 PUSH2 0x338E JUMP JUMPDEST PUSH2 0x1576 JUMP JUMPDEST CALLVALUE DUP1 ISZERO PUSH2 0x605 JUMPI PUSH1 0x0 DUP1 REVERT JUMPDEST POP PUSH2 0x3B1 PUSH2 0x614 CALLDATASIZE PUSH1 0x4 PUSH2 0x338E JUMP JUMPDEST PUSH2 0x15EC JUMP JUMPDEST CALLVALUE DUP1 ISZERO PUSH2 0x625 JUMPI PUSH1 0x0 DUP1 REVERT JUMPDEST POP PUSH2 0x3B1 PUSH2 0x634 CALLDATASIZE PUSH1 0x4 PUSH2 0x338E JUMP JUMPDEST PUSH2 0x1638 JUMP JUMPDEST CALLVALUE DUP1 ISZERO PUSH2 0x645 JUMPI PUSH1 0x0 DUP1 REVERT JUMPDEST POP PUSH2 0x3B1 PUSH2 0x654 CALLDATASIZE PUSH1 0x4 PUSH2 0x34DF JUMP JUMPDEST PUSH2 0x16AE JUMP JUMPDEST CALLVALUE DUP1 ISZERO PUSH2 0x665 JUMPI PUSH1 0x0 DUP1 REVERT JUMPDEST POP PUSH2 0x3B1 PUSH2 0x16F4 JUMP JUMPDEST CALLVALUE DUP1 ISZERO PUSH2 0x67A JUMPI PUSH1 0x0 DUP1 REVERT JUMPDEST POP PUSH2 0x3B1 PUSH2 0x689 CALLDATASIZE PUSH1 0x4 PUSH2 0x338E JUMP JUMPDEST PUSH2 0x1742 JUMP JUMPDEST CALLVALUE DUP1 ISZERO PUSH2 0x69A JUMPI PUSH1 0x0 DUP1 REVERT JUMPDEST POP PUSH2 0x362 PUSH2 0x17B8 JUMP JUMPDEST CALLVALUE DUP1 ISZERO PUSH2 0x6AF JUMPI PUSH1 0x0 DUP1 REVERT JUMPDEST POP PUSH2 0x362 PUSH2 0x17BF JUMP JUMPDEST CALLVALUE DUP1 ISZERO PUSH2 0x6C4 JUMPI PUSH1 0x0 DUP1 REVERT JUMPDEST POP PUSH2 0x3B1 PUSH2 0x6D3 CALLDATASIZE PUSH1 0x4 PUSH2 0x338E JUMP JUMPDEST PUSH2 0x1826 JUMP JUMPDEST CALLVALUE DUP1 ISZERO PUSH2 0x6E4 JUMPI PUSH1 0x0 DUP1 REVERT JUMPDEST POP PUSH2 0x362 PUSH2 0x189C JUMP JUMPDEST CALLVALUE DUP1 ISZERO PUSH2 0x6F9 JUMPI PUSH1 0x0 DUP1 REVERT JUMPDEST POP PUSH2 0x362 PUSH2 0x18A2 JUMP JUMPDEST CALLVALUE DUP1 ISZERO PUSH2 0x70E JUMPI PUSH1 0x0 DUP1 REVERT JUMPDEST POP PUSH2 0x3B1 PUSH2 0x71D CALLDATASIZE PUSH1 0x4 PUSH2 0x34DF JUMP JUMPDEST PUSH2 0x18A9 JUMP JUMPDEST CALLVALUE DUP1 ISZERO PUSH2 0x72E JUMPI PUSH1 0x0 DUP1 REVERT JUMPDEST POP PUSH2 0x3B1 PUSH2 0x73D CALLDATASIZE PUSH1 0x4 PUSH2 0x33E9 JUMP JUMPDEST PUSH2 0x18EF JUMP JUMPDEST CALLVALUE DUP1 ISZERO PUSH2 0x74E JUMPI PUSH1 0x0 DUP1 REVERT JUMPDEST POP PUSH2 0x3B1 PUSH2 0x75D CALLDATASIZE PUSH1 0x4 PUSH2 0x338E JUMP JUMPDEST PUSH2 0x199D JUMP JUMPDEST CALLVALUE DUP1 ISZERO PUSH2 0x76E JUMPI PUSH1 0x0 DUP1 REVERT JUMPDEST POP PUSH2 0x3B1 PUSH2 0x77D CALLDATASIZE PUSH1 0x4 PUSH2 0x33E9 JUMP JUMPDEST PUSH2 0x1A13 JUMP JUMPDEST CALLVALUE DUP1 ISZERO PUSH2 0x78E JUMPI PUSH1 0x0 DUP1 REVERT JUMPDEST POP PUSH2 0x362 PUSH2 0x1A8B JUMP JUMPDEST CALLVALUE DUP1 ISZERO PUSH2 0x7A3 JUMPI PUSH1 0x0 DUP1 REVERT JUMPDEST POP PUSH2 0x362 PUSH2 0x7B2 CALLDATASIZE PUSH1 0x4 PUSH2 0x3413 JUMP JUMPDEST PUSH2 0x1A91 JUMP JUMPDEST CALLVALUE DUP1 ISZERO PUSH2 0x7C3 JUMPI PUSH1 0x0 DUP1 REVERT JUMPDEST POP PUSH2 0x3B1 PUSH2 0x7D2 CALLDATASIZE PUSH1 0x4 PUSH2 0x338E JUMP JUMPDEST PUSH2 0x1C77 JUMP JUMPDEST CALLVALUE DUP1 ISZERO PUSH2 0x7E3 JUMPI PUSH1 0x0 DUP1 REVERT JUMPDEST POP PUSH2 0x3B1 PUSH2 0x7F2 CALLDATASIZE PUSH1 0x4 PUSH2 0x34DF JUMP JUMPDEST PUSH2 0x1DD4 JUMP JUMPDEST CALLVALUE DUP1 ISZERO PUSH2 0x803 JUMPI PUSH1 0x0 DUP1 REVERT JUMPDEST POP PUSH2 0x3B1 PUSH2 0x812 CALLDATASIZE PUSH1 0x4 PUSH2 0x33E9 JUMP JUMPDEST PUSH2 0x2008 JUMP JUMPDEST CALLVALUE DUP1 ISZERO PUSH2 0x823 JUMPI PUSH1 0x0 DUP1 REVERT JUMPDEST POP PUSH2 0x362 PUSH2 0x2080 JUMP JUMPDEST CALLVALUE DUP1 ISZERO PUSH2 0x838 JUMPI PUSH1 0x0 DUP1 REVERT JUMPDEST POP PUSH2 0x3B1 PUSH2 0x847 CALLDATASIZE PUSH1 0x4 PUSH2 0x34DF JUMP JUMPDEST PUSH2 0x20A4 JUMP JUMPDEST CALLVALUE DUP1 ISZERO PUSH2 0x858 JUMPI PUSH1 0x0 DUP1 REVERT JUMPDEST POP PUSH2 0x86C PUSH2 0x867 CALLDATASIZE PUSH1 0x4 PUSH2 0x350F JUMP JUMPDEST PUSH2 0x213C JUMP JUMPDEST PUSH1 0x40 MLOAD PUSH2 0x344 SWAP2 SWAP1 PUSH2 0x4721 JUMP JUMPDEST CALLVALUE DUP1 ISZERO PUSH2 0x885 JUMPI PUSH1 0x0 DUP1 REVERT JUMPDEST POP PUSH2 0x3B1 PUSH2 0x894 CALLDATASIZE PUSH1 0x4 PUSH2 0x33A9 JUMP JUMPDEST PUSH2 0x21A0 JUMP JUMPDEST CALLVALUE DUP1 ISZERO PUSH2 0x8A5 JUMPI PUSH1 0x0 DUP1 REVERT JUMPDEST POP PUSH2 0x362 PUSH2 0x2251 JUMP JUMPDEST CALLVALUE DUP1 ISZERO PUSH2 0x8BA JUMPI PUSH1 0x0 DUP1 REVERT JUMPDEST POP PUSH2 0x8CE PUSH2 0x8C9 CALLDATASIZE PUSH1 0x4 PUSH2 0x34DF JUMP JUMPDEST PUSH2 0x2257 JUMP JUMPDEST PUSH1 0x40 MLOAD PUSH2 0x344 SWAP2 SWAP1 PUSH2 0x386E JUMP JUMPDEST CALLVALUE DUP1 ISZERO PUSH2 0x8E7 JUMPI PUSH1 0x0 DUP1 REVERT JUMPDEST POP PUSH2 0x3B1 PUSH2 0x8F6 CALLDATASIZE PUSH1 0x4 PUSH2 0x338E JUMP JUMPDEST PUSH2 0x226C JUMP JUMPDEST PUSH2 0x3B1 PUSH2 0x909 CALLDATASIZE PUSH1 0x4 PUSH2 0x34DF JUMP JUMPDEST PUSH2 0x22E2 JUMP JUMPDEST PUSH1 0x3 PUSH1 0x20 MSTORE PUSH1 0x0 SWAP1 DUP2 MSTORE PUSH1 0x40 SWAP1 KECCAK256 DUP1 SLOAD PUSH1 0x1 DUP3 ADD SLOAD PUSH1 0x2 DUP4 ADD SLOAD PUSH1 0x7 DUP5 ADD SLOAD PUSH1 0x8 DUP6 ADD SLOAD PUSH1 0x9 DUP7 ADD SLOAD PUSH1 0xA DUP8 ADD SLOAD PUSH1 0xB SWAP1 SWAP8 ADD SLOAD SWAP6 SWAP7 PUSH1 0x1 PUSH1 0x1 PUSH1 0xA0 SHL SUB SWAP1 SWAP6 AND SWAP6 SWAP4 SWAP5 SWAP3 SWAP4 SWAP2 SWAP3 SWAP1 SWAP2 PUSH1 0xFF DUP1 DUP3 AND SWAP2 PUSH2 0x100 SWAP1 DIV AND DUP10 JUMP JUMPDEST PUSH2 0x9D80 SWAP1 JUMP JUMPDEST PUSH1 0x40 MLOAD DUP1 PUSH1 0x40 ADD PUSH1 0x40 MSTORE DUP1 PUSH1 0xA DUP2 MSTORE PUSH1 0x20 ADD PUSH10 0x476F7665726E616E6365 PUSH1 0xB0 SHL DUP2 MSTORE POP DUP2 JUMP JUMPDEST PUSH2 0x99E CALLER DUP4 DUP4 PUSH2 0x2558 JUMP JUMPDEST POP POP JUMP JUMPDEST PUSH32 0x0 DUP2 JUMP JUMPDEST PUSH1 0x4 PUSH1 0x20 MSTORE PUSH1 0x0 SWAP1 DUP2 MSTORE PUSH1 0x40 SWAP1 KECCAK256 SLOAD DUP2 JUMP JUMPDEST PUSH32 0x8CAD95687BA82C2CE50E74F7B754645E5117C3A5BEC8151C0726D5857980A866 DUP2 JUMP JUMPDEST PUSH1 0x6 SLOAD PUSH1 0x1 PUSH1 0x1 PUSH1 0xA0 SHL SUB AND CALLER EQ PUSH2 0xA2F JUMPI PUSH1 0x40 MLOAD PUSH3 0x461BCD PUSH1 0xE5 SHL DUP2 MSTORE PUSH1 0x4 ADD PUSH2 0xA26 SWAP1 PUSH2 0x4445 JUMP JUMPDEST PUSH1 0x40 MLOAD DUP1 SWAP2 SUB SWAP1 REVERT JUMPDEST PUSH32 0x0 PUSH1 0x1 PUSH1 0x1 PUSH1 0xA0 SHL SUB AND PUSH4 0x238EFCBC PUSH1 0x40 MLOAD DUP2 PUSH4 0xFFFFFFFF AND PUSH1 0xE0 SHL DUP2 MSTORE PUSH1 0x4 ADD PUSH1 0x0 PUSH1 0x40 MLOAD DUP1 DUP4 SUB DUP2 PUSH1 0x0 DUP8 DUP1 EXTCODESIZE ISZERO DUP1 ISZERO PUSH2 0xA8A JUMPI PUSH1 0x0 DUP1 REVERT JUMPDEST POP GAS CALL ISZERO DUP1 ISZERO PUSH2 0xA9E JUMPI RETURNDATASIZE PUSH1 0x0 DUP1 RETURNDATACOPY RETURNDATASIZE PUSH1 0x0 REVERT JUMPDEST POP POP POP POP JUMP JUMPDEST PUSH1 0x0 PUSH2 0xB4F PUSH2 0x2710 PUSH2 0xB49 PUSH1 0x0 SLOAD PUSH32 0x0 PUSH1 0x1 PUSH1 0x1 PUSH1 0xA0 SHL SUB AND PUSH4 0x44D96E95 PUSH1 0x40 MLOAD DUP2 PUSH4 0xFFFFFFFF AND PUSH1 0xE0 SHL DUP2 MSTORE PUSH1 0x4 ADD PUSH1 0x20 PUSH1 0x40 MLOAD DUP1 DUP4 SUB DUP2 DUP7 DUP1 EXTCODESIZE ISZERO DUP1 ISZERO PUSH2 0xB0B JUMPI PUSH1 0x0 DUP1 REVERT JUMPDEST POP GAS STATICCALL ISZERO DUP1 ISZERO PUSH2 0xB1F JUMPI RETURNDATASIZE PUSH1 0x0 DUP1 RETURNDATACOPY RETURNDATASIZE PUSH1 0x0 REVERT JUMPDEST POP POP POP POP PUSH1 0x40 MLOAD RETURNDATASIZE PUSH1 0x1F NOT PUSH1 0x1F DUP3 ADD AND DUP3 ADD DUP1 PUSH1 0x40 MSTORE POP DUP2 ADD SWAP1 PUSH2 0xB43 SWAP2 SWAP1 PUSH2 0x34F7 JUMP JUMPDEST SWAP1 PUSH2 0x2715 JUMP JUMPDEST SWAP1 PUSH2 0x2756 JUMP JUMPDEST SWAP1 POP SWAP1 JUMP JUMPDEST PUSH1 0x60 DUP1 PUSH1 0x60 DUP1 PUSH1 0x0 PUSH1 0x3 PUSH1 0x0 DUP8 DUP2 MSTORE PUSH1 0x20 ADD SWAP1 DUP2 MSTORE PUSH1 0x20 ADD PUSH1 0x0 KECCAK256 SWAP1 POP DUP1 PUSH1 0x3 ADD DUP2 PUSH1 0x4 ADD DUP3 PUSH1 0x5 ADD DUP4 PUSH1 0x6 ADD DUP4 DUP1 SLOAD DUP1 PUSH1 0x20 MUL PUSH1 0x20 ADD PUSH1 0x40 MLOAD SWAP1 DUP2 ADD PUSH1 0x40 MSTORE DUP1 SWAP3 SWAP2 SWAP1 DUP2 DUP2 MSTORE PUSH1 0x20 ADD DUP3 DUP1 SLOAD DUP1 ISZERO PUSH2 0xBD6 JUMPI PUSH1 0x20 MUL DUP3 ADD SWAP2 SWAP1 PUSH1 0x0 MSTORE PUSH1 0x20 PUSH1 0x0 KECCAK256 SWAP1 JUMPDEST DUP2 SLOAD PUSH1 0x1 PUSH1 0x1 PUSH1 0xA0 SHL SUB AND DUP2 MSTORE PUSH1 0x1 SWAP1 SWAP2 ADD SWAP1 PUSH1 0x20 ADD DUP1 DUP4 GT PUSH2 0xBB8 JUMPI JUMPDEST POP POP POP POP POP SWAP4 POP DUP3 DUP1 SLOAD DUP1 PUSH1 0x20 MUL PUSH1 0x20 ADD PUSH1 0x40 MLOAD SWAP1 DUP2 ADD PUSH1 0x40 MSTORE DUP1 SWAP3 SWAP2 SWAP1 DUP2 DUP2 MSTORE PUSH1 0x20 ADD DUP3 DUP1 SLOAD DUP1 ISZERO PUSH2 0xC28 JUMPI PUSH1 0x20 MUL DUP3 ADD SWAP2 SWAP1 PUSH1 0x0 MSTORE PUSH1 0x20 PUSH1 0x0 KECCAK256 SWAP1 JUMPDEST DUP2 SLOAD DUP2 MSTORE PUSH1 0x20 ADD SWAP1 PUSH1 0x1 ADD SWAP1 DUP1 DUP4 GT PUSH2 0xC14 JUMPI JUMPDEST POP POP POP POP POP SWAP3 POP DUP2 DUP1 SLOAD DUP1 PUSH1 0x20 MUL PUSH1 0x20 ADD PUSH1 0x40 MLOAD SWAP1 DUP2 ADD PUSH1 0x40 MSTORE DUP1 SWAP3 SWAP2 SWAP1 DUP2 DUP2 MSTORE PUSH1 0x20 ADD PUSH1 0x0 SWAP1 JUMPDEST DUP3 DUP3 LT ISZERO PUSH2 0xCFB JUMPI PUSH1 0x0 DUP5 DUP2 MSTORE PUSH1 0x20 SWAP1 DUP2 SWAP1 KECCAK256 DUP4 ADD DUP1 SLOAD PUSH1 0x40 DUP1 MLOAD PUSH1 0x1F PUSH1 0x2 PUSH1 0x0 NOT PUSH2 0x100 PUSH1 0x1 DUP8 AND ISZERO MUL ADD SWAP1 SWAP5 AND SWAP4 SWAP1 SWAP4 DIV SWAP3 DUP4 ADD DUP6 SWAP1 DIV DUP6 MUL DUP2 ADD DUP6 ADD SWAP1 SWAP2 MSTORE DUP2 DUP2 MSTORE SWAP3 DUP4 ADD DUP3 DUP3 DUP1 ISZERO PUSH2 0xCE7 JUMPI DUP1 PUSH1 0x1F LT PUSH2 0xCBC JUMPI PUSH2 0x100 DUP1 DUP4 SLOAD DIV MUL DUP4 MSTORE SWAP2 PUSH1 0x20 ADD SWAP2 PUSH2 0xCE7 JUMP JUMPDEST DUP3 ADD SWAP2 SWAP1 PUSH1 0x0 MSTORE PUSH1 0x20 PUSH1 0x0 KECCAK256 SWAP1 JUMPDEST DUP2 SLOAD DUP2 MSTORE SWAP1 PUSH1 0x1 ADD SWAP1 PUSH1 0x20 ADD DUP1 DUP4 GT PUSH2 0xCCA JUMPI DUP3 SWAP1 SUB PUSH1 0x1F AND DUP3 ADD SWAP2 JUMPDEST POP POP POP POP POP DUP2 MSTORE PUSH1 0x20 ADD SWAP1 PUSH1 0x1 ADD SWAP1 PUSH2 0xC50 JUMP JUMPDEST POP POP POP POP SWAP2 POP DUP1 DUP1 SLOAD DUP1 PUSH1 0x20 MUL PUSH1 0x20 ADD PUSH1 0x40 MLOAD SWAP1 DUP2 ADD PUSH1 0x40 MSTORE DUP1 SWAP3 SWAP2 SWAP1 DUP2 DUP2 MSTORE PUSH1 0x20 ADD PUSH1 0x0 SWAP1 JUMPDEST DUP3 DUP3 LT ISZERO PUSH2 0xDCD JUMPI PUSH1 0x0 DUP5 DUP2 MSTORE PUSH1 0x20 SWAP1 DUP2 SWAP1 KECCAK256 DUP4 ADD DUP1 SLOAD PUSH1 0x40 DUP1 MLOAD PUSH1 0x1F PUSH1 0x2 PUSH1 0x0 NOT PUSH2 0x100 PUSH1 0x1 DUP8 AND ISZERO MUL ADD SWAP1 SWAP5 AND SWAP4 SWAP1 SWAP4 DIV SWAP3 DUP4 ADD DUP6 SWAP1 DIV DUP6 MUL DUP2 ADD DUP6 ADD SWAP1 SWAP2 MSTORE DUP2 DUP2 MSTORE SWAP3 DUP4 ADD DUP3 DUP3 DUP1 ISZERO PUSH2 0xDB9 JUMPI DUP1 PUSH1 0x1F LT PUSH2 0xD8E JUMPI PUSH2 0x100 DUP1 DUP4 SLOAD DIV MUL DUP4 MSTORE SWAP2 PUSH1 0x20 ADD SWAP2 PUSH2 0xDB9 JUMP JUMPDEST DUP3 ADD SWAP2 SWAP1 PUSH1 0x0 MSTORE PUSH1 0x20 PUSH1 0x0 KECCAK256 SWAP1 JUMPDEST DUP2 SLOAD DUP2 MSTORE SWAP1 PUSH1 0x1 ADD SWAP1 PUSH1 0x20 ADD DUP1 DUP4 GT PUSH2 0xD9C JUMPI DUP3 SWAP1 SUB PUSH1 0x1F AND DUP3 ADD SWAP2 JUMPDEST POP POP POP POP POP DUP2 MSTORE PUSH1 0x20 ADD SWAP1 PUSH1 0x1 ADD SWAP1 PUSH2 0xD22 JUMP JUMPDEST POP POP POP POP SWAP1 POP SWAP5 POP SWAP5 POP SWAP5 POP SWAP5 POP POP SWAP2 SWAP4 POP SWAP2 SWAP4 JUMP JUMPDEST PUSH1 0x1 SWAP1 JUMP JUMPDEST PUSH1 0x0 DUP2 PUSH1 0x2 SLOAD LT ISZERO DUP1 ISZERO PUSH2 0xDFC JUMPI POP PUSH1 0x0 DUP3 GT JUMPDEST PUSH2 0xE18 JUMPI PUSH1 0x40 MLOAD PUSH3 0x461BCD PUSH1 0xE5 SHL DUP2 MSTORE PUSH1 0x4 ADD PUSH2 0xA26 SWAP1 PUSH2 0x43FF JUMP JUMPDEST PUSH1 0x0 DUP3 DUP2 MSTORE PUSH1 0x3 PUSH1 0x20 MSTORE PUSH1 0x40 SWAP1 KECCAK256 PUSH1 0xB DUP2 ADD SLOAD PUSH1 0xFF AND ISZERO PUSH2 0xE3D JUMPI PUSH1 0x2 SWAP2 POP POP PUSH2 0xF02 JUMP JUMPDEST DUP1 PUSH1 0x7 ADD SLOAD NUMBER GT PUSH2 0xE52 JUMPI PUSH1 0x0 SWAP2 POP POP PUSH2 0xF02 JUMP JUMPDEST DUP1 PUSH1 0x8 ADD SLOAD NUMBER GT PUSH2 0xE67 JUMPI PUSH1 0x1 SWAP2 POP POP PUSH2 0xF02 JUMP JUMPDEST PUSH2 0xE6F PUSH2 0xAA4 JUMP JUMPDEST PUSH1 0xA DUP3 ADD SLOAD PUSH1 0x9 DUP4 ADD SLOAD PUSH2 0xE82 SWAP2 PUSH2 0x2798 JUMP JUMPDEST LT ISZERO PUSH2 0xE92 JUMPI PUSH1 0x3 SWAP2 POP POP PUSH2 0xF02 JUMP JUMPDEST DUP1 PUSH1 0xA ADD SLOAD DUP2 PUSH1 0x9 ADD SLOAD GT PUSH2 0xEAB JUMPI PUSH1 0x3 SWAP2 POP POP PUSH2 0xF02 JUMP JUMPDEST PUSH1 0x2 DUP2 ADD SLOAD PUSH2 0xEBE JUMPI PUSH1 0x4 SWAP2 POP POP PUSH2 0xF02 JUMP JUMPDEST PUSH1 0xB DUP2 ADD SLOAD PUSH2 0x100 SWAP1 DIV PUSH1 0xFF AND ISZERO PUSH2 0xEDA JUMPI PUSH1 0x7 SWAP2 POP POP PUSH2 0xF02 JUMP JUMPDEST PUSH1 0x2 DUP2 ADD SLOAD PUSH2 0xEEC SWAP1 PUSH3 0x127500 PUSH2 0x2798 JUMP JUMPDEST TIMESTAMP LT PUSH2 0xEFC JUMPI PUSH1 0x6 SWAP2 POP POP PUSH2 0xF02 JUMP JUMPDEST PUSH1 0x5 SWAP2 POP POP JUMPDEST SWAP2 SWAP1 POP JUMP JUMPDEST PUSH1 0x0 PUSH2 0xF12 DUP3 PUSH2 0xDE8 JUMP JUMPDEST SWAP1 POP PUSH1 0x7 DUP2 PUSH1 0x7 DUP2 GT ISZERO PUSH2 0xF22 JUMPI INVALID JUMPDEST EQ ISZERO PUSH2 0xF40 JUMPI PUSH1 0x40 MLOAD PUSH3 0x461BCD PUSH1 0xE5 SHL DUP2 MSTORE PUSH1 0x4 ADD PUSH2 0xA26 SWAP1 PUSH2 0x3E50 JUMP JUMPDEST PUSH1 0x0 DUP3 DUP2 MSTORE PUSH1 0x3 PUSH1 0x20 MSTORE PUSH1 0x40 SWAP1 KECCAK256 PUSH1 0x1 DUP2 ADD SLOAD PUSH32 0x0 PUSH1 0x1 PUSH1 0x1 PUSH1 0xA0 SHL SUB SWAP1 DUP2 AND SWAP2 AND EQ DUP1 ISZERO SWAP1 PUSH2 0x1048 JUMPI POP PUSH2 0xF92 PUSH2 0x17BF JUMP JUMPDEST PUSH1 0x1 DUP1 DUP4 ADD SLOAD PUSH1 0x1 PUSH1 0x1 PUSH1 0xA0 SHL SUB PUSH32 0x0 DUP2 AND SWAP3 PUSH4 0x782D6FE1 SWAP3 SWAP1 SWAP2 AND SWAP1 PUSH2 0xFD9 SWAP1 NUMBER SWAP1 PUSH2 0x27BD JUMP JUMPDEST PUSH1 0x40 MLOAD DUP4 PUSH4 0xFFFFFFFF AND PUSH1 0xE0 SHL DUP2 MSTORE PUSH1 0x4 ADD PUSH2 0xFF6 SWAP3 SWAP2 SWAP1 PUSH2 0x3770 JUMP JUMPDEST PUSH1 0x20 PUSH1 0x40 MLOAD DUP1 DUP4 SUB DUP2 DUP7 DUP1 EXTCODESIZE ISZERO DUP1 ISZERO PUSH2 0x100E JUMPI PUSH1 0x0 DUP1 REVERT JUMPDEST POP GAS STATICCALL ISZERO DUP1 ISZERO PUSH2 0x1022 JUMPI RETURNDATASIZE PUSH1 0x0 DUP1 RETURNDATACOPY RETURNDATASIZE PUSH1 0x0 REVERT JUMPDEST POP POP POP POP PUSH1 0x40 MLOAD RETURNDATASIZE PUSH1 0x1F NOT PUSH1 0x1F DUP3 ADD AND DUP3 ADD DUP1 PUSH1 0x40 MSTORE POP DUP2 ADD SWAP1 PUSH2 0x1046 SWAP2 SWAP1 PUSH2 0x34F7 JUMP JUMPDEST LT JUMPDEST PUSH2 0x1064 JUMPI PUSH1 0x40 MLOAD PUSH3 0x461BCD PUSH1 0xE5 SHL DUP2 MSTORE PUSH1 0x4 ADD PUSH2 0xA26 SWAP1 PUSH2 0x429D JUMP JUMPDEST PUSH1 0xB DUP2 ADD DUP1 SLOAD PUSH1 0xFF NOT AND PUSH1 0x1 OR SWAP1 SSTORE PUSH1 0x0 JUMPDEST PUSH1 0x3 DUP3 ADD SLOAD DUP2 LT ISZERO PUSH2 0x121D JUMPI PUSH2 0x1215 DUP3 PUSH1 0x3 ADD DUP3 DUP2 SLOAD DUP2 LT PUSH2 0x1094 JUMPI INVALID JUMPDEST PUSH1 0x0 SWAP2 DUP3 MSTORE PUSH1 0x20 SWAP1 SWAP2 KECCAK256 ADD SLOAD PUSH1 0x4 DUP5 ADD DUP1 SLOAD PUSH1 0x1 PUSH1 0x1 PUSH1 0xA0 SHL SUB SWAP1 SWAP3 AND SWAP2 DUP5 SWAP1 DUP2 LT PUSH2 0x10BC JUMPI INVALID JUMPDEST SWAP1 PUSH1 0x0 MSTORE PUSH1 0x20 PUSH1 0x0 KECCAK256 ADD SLOAD DUP5 PUSH1 0x5 ADD DUP5 DUP2 SLOAD DUP2 LT PUSH2 0x10D6 JUMPI INVALID JUMPDEST PUSH1 0x0 SWAP2 DUP3 MSTORE PUSH1 0x20 SWAP2 DUP3 SWAP1 KECCAK256 ADD DUP1 SLOAD PUSH1 0x40 DUP1 MLOAD PUSH1 0x1F PUSH1 0x2 PUSH1 0x0 NOT PUSH2 0x100 PUSH1 0x1 DUP8 AND ISZERO MUL ADD SWAP1 SWAP5 AND SWAP4 SWAP1 SWAP4 DIV SWAP3 DUP4 ADD DUP6 SWAP1 DIV DUP6 MUL DUP2 ADD DUP6 ADD SWAP1 SWAP2 MSTORE DUP2 DUP2 MSTORE SWAP3 DUP4 ADD DUP3 DUP3 DUP1 ISZERO PUSH2 0x1164 JUMPI DUP1 PUSH1 0x1F LT PUSH2 0x1139 JUMPI PUSH2 0x100 DUP1 DUP4 SLOAD DIV MUL DUP4 MSTORE SWAP2 PUSH1 0x20 ADD SWAP2 PUSH2 0x1164 JUMP JUMPDEST DUP3 ADD SWAP2 SWAP1 PUSH1 0x0 MSTORE PUSH1 0x20 PUSH1 0x0 KECCAK256 SWAP1 JUMPDEST DUP2 SLOAD DUP2 MSTORE SWAP1 PUSH1 0x1 ADD SWAP1 PUSH1 0x20 ADD DUP1 DUP4 GT PUSH2 0x1147 JUMPI DUP3 SWAP1 SUB PUSH1 0x1F AND DUP3 ADD SWAP2 JUMPDEST POP POP POP POP POP DUP6 PUSH1 0x6 ADD DUP6 DUP2 SLOAD DUP2 LT PUSH2 0x1178 JUMPI INVALID JUMPDEST PUSH1 0x0 SWAP2 DUP3 MSTORE PUSH1 0x20 SWAP2 DUP3 SWAP1 KECCAK256 ADD DUP1 SLOAD PUSH1 0x40 DUP1 MLOAD PUSH1 0x1F PUSH1 0x2 PUSH1 0x0 NOT PUSH2 0x100 PUSH1 0x1 DUP8 AND ISZERO MUL ADD SWAP1 SWAP5 AND SWAP4 SWAP1 SWAP4 DIV SWAP3 DUP4 ADD DUP6 SWAP1 DIV DUP6 MUL DUP2 ADD DUP6 ADD SWAP1 SWAP2 MSTORE DUP2 DUP2 MSTORE SWAP3 DUP4 ADD DUP3 DUP3 DUP1 ISZERO PUSH2 0x1206 JUMPI DUP1 PUSH1 0x1F LT PUSH2 0x11DB JUMPI PUSH2 0x100 DUP1 DUP4 SLOAD DIV MUL DUP4 MSTORE SWAP2 PUSH1 0x20 ADD SWAP2 PUSH2 0x1206 JUMP JUMPDEST DUP3 ADD SWAP2 SWAP1 PUSH1 0x0 MSTORE PUSH1 0x20 PUSH1 0x0 KECCAK256 SWAP1 JUMPDEST DUP2 SLOAD DUP2 MSTORE SWAP1 PUSH1 0x1 ADD SWAP1 PUSH1 0x20 ADD DUP1 DUP4 GT PUSH2 0x11E9 JUMPI DUP3 SWAP1 SUB PUSH1 0x1F AND DUP3 ADD SWAP2 JUMPDEST POP POP POP POP POP DUP7 PUSH1 0x2 ADD SLOAD PUSH2 0x27FF JUMP JUMPDEST PUSH1 0x1 ADD PUSH2 0x1076 JUMP JUMPDEST POP PUSH32 0x789CF55BE980739DAD1D0699B93B58E806B51C9D96619BFA8FE0A28ABAA7B30C DUP4 PUSH1 0x40 MLOAD PUSH2 0x124D SWAP2 SWAP1 PUSH2 0x3879 JUMP JUMPDEST PUSH1 0x40 MLOAD DUP1 SWAP2 SUB SWAP1 LOG1 POP POP POP JUMP JUMPDEST PUSH1 0x6 SLOAD PUSH1 0x1 PUSH1 0x1 PUSH1 0xA0 SHL SUB AND DUP2 JUMP JUMPDEST PUSH1 0x0 PUSH32 0x8E25870C07E0B0B3884C78DA52790939A455C275406C44AE8B434B692FB916EE DUP7 DUP7 PUSH1 0x40 MLOAD PUSH1 0x20 ADD PUSH2 0x12A0 SWAP4 SWAP3 SWAP2 SWAP1 PUSH2 0x3882 JUMP JUMPDEST PUSH1 0x40 MLOAD PUSH1 0x20 DUP2 DUP4 SUB SUB DUP2 MSTORE SWAP1 PUSH1 0x40 MSTORE DUP1 MLOAD SWAP1 PUSH1 0x20 ADD KECCAK256 SWAP1 POP PUSH1 0x0 PUSH32 0x0 DUP3 PUSH1 0x40 MLOAD PUSH1 0x20 ADD PUSH2 0x12ED SWAP3 SWAP2 SWAP1 PUSH2 0x36FE JUMP JUMPDEST PUSH1 0x40 MLOAD PUSH1 0x20 DUP2 DUP4 SUB SUB DUP2 MSTORE SWAP1 PUSH1 0x40 MSTORE DUP1 MLOAD SWAP1 PUSH1 0x20 ADD KECCAK256 SWAP1 POP PUSH1 0x0 PUSH1 0x1 DUP3 DUP8 DUP8 DUP8 PUSH1 0x40 MLOAD PUSH1 0x0 DUP2 MSTORE PUSH1 0x20 ADD PUSH1 0x40 MSTORE PUSH1 0x40 MLOAD PUSH2 0x132A SWAP5 SWAP4 SWAP3 SWAP2 SWAP1 PUSH2 0x389A JUMP JUMPDEST PUSH1 0x20 PUSH1 0x40 MLOAD PUSH1 0x20 DUP2 SUB SWAP1 DUP1 DUP5 SUB SWAP1 DUP6 GAS STATICCALL ISZERO DUP1 ISZERO PUSH2 0x134C JUMPI RETURNDATASIZE PUSH1 0x0 DUP1 RETURNDATACOPY RETURNDATASIZE PUSH1 0x0 REVERT JUMPDEST POP POP PUSH1 0x40 MLOAD PUSH1 0x1F NOT ADD MLOAD SWAP2 POP POP PUSH1 0x1 PUSH1 0x1 PUSH1 0xA0 SHL SUB DUP2 AND PUSH2 0x137F JUMPI PUSH1 0x40 MLOAD PUSH3 0x461BCD PUSH1 0xE5 SHL DUP2 MSTORE PUSH1 0x4 ADD PUSH2 0xA26 SWAP1 PUSH2 0x3F0A JUMP JUMPDEST PUSH2 0x138A DUP2 DUP10 DUP10 PUSH2 0x2558 JUMP JUMPDEST POP POP POP POP POP POP POP POP JUMP JUMPDEST PUSH32 0x0 DUP2 JUMP JUMPDEST PUSH1 0x6 SLOAD PUSH1 0x1 PUSH1 0x1 PUSH1 0xA0 SHL SUB AND CALLER EQ PUSH2 0x13E2 JUMPI PUSH1 0x40 MLOAD PUSH3 0x461BCD PUSH1 0xE5 SHL DUP2 MSTORE PUSH1 0x4 ADD PUSH2 0xA26 SWAP1 PUSH2 0x396A JUMP JUMPDEST PUSH1 0x40 MLOAD PUSH4 0x55EA6C47 PUSH1 0xE0 SHL DUP2 MSTORE PUSH1 0x1 PUSH1 0x1 PUSH1 0xA0 SHL SUB PUSH32 0x0 AND SWAP1 PUSH4 0x55EA6C47 SWAP1 PUSH2 0x142E SWAP1 DUP5 SWAP1 PUSH1 0x4 ADD PUSH2 0x375C JUMP JUMPDEST PUSH1 0x0 PUSH1 0x40 MLOAD DUP1 DUP4 SUB DUP2 PUSH1 0x0 DUP8 DUP1 EXTCODESIZE ISZERO DUP1 ISZERO PUSH2 0x1448 JUMPI PUSH1 0x0 DUP1 REVERT JUMPDEST POP GAS CALL ISZERO DUP1 ISZERO PUSH2 0x145C JUMPI RETURNDATASIZE PUSH1 0x0 DUP1 RETURNDATACOPY RETURNDATASIZE PUSH1 0x0 REVERT JUMPDEST POP POP POP POP POP JUMP JUMPDEST PUSH1 0x6 SLOAD PUSH1 0x1 PUSH1 0x1 PUSH1 0xA0 SHL SUB AND CALLER EQ PUSH2 0x148D JUMPI PUSH1 0x40 MLOAD PUSH3 0x461BCD PUSH1 0xE5 SHL DUP2 MSTORE PUSH1 0x4 ADD PUSH2 0xA26 SWAP1 PUSH2 0x3BF6 JUMP JUMPDEST PUSH1 0x40 MLOAD PUSH4 0x325DA1F7 PUSH1 0xE1 SHL DUP2 MSTORE PUSH1 0x1 PUSH1 0x1 PUSH1 0xA0 SHL SUB PUSH32 0x0 AND SWAP1 PUSH4 0x64BB43EE SWAP1 PUSH2 0x142E SWAP1 DUP5 SWAP1 PUSH1 0x4 ADD PUSH2 0x375C JUMP JUMPDEST PUSH1 0x5 SLOAD DUP2 JUMP JUMPDEST PUSH1 0x1 SLOAD DUP2 JUMP JUMPDEST PUSH1 0x6 SLOAD PUSH1 0x1 PUSH1 0x1 PUSH1 0xA0 SHL SUB AND CALLER EQ PUSH2 0x150F JUMPI PUSH1 0x40 MLOAD PUSH3 0x461BCD PUSH1 0xE5 SHL DUP2 MSTORE PUSH1 0x4 ADD PUSH2 0xA26 SWAP1 PUSH2 0x38DF JUMP JUMPDEST PUSH1 0x40 MLOAD PUSH4 0x74A8F103 PUSH1 0xE0 SHL DUP2 MSTORE PUSH1 0x1 PUSH1 0x1 PUSH1 0xA0 SHL SUB PUSH32 0x0 AND SWAP1 PUSH4 0x74A8F103 SWAP1 PUSH2 0x142E SWAP1 DUP5 SWAP1 PUSH1 0x4 ADD PUSH2 0x375C JUMP JUMPDEST PUSH1 0x7 SLOAD PUSH1 0x1 PUSH1 0x1 PUSH1 0xA0 SHL SUB AND DUP2 JUMP JUMPDEST PUSH1 0xA SWAP1 JUMP JUMPDEST PUSH3 0x278D00 DUP2 JUMP JUMPDEST PUSH1 0x6 SLOAD PUSH1 0x1 PUSH1 0x1 PUSH1 0xA0 SHL SUB AND CALLER EQ PUSH2 0x15A0 JUMPI PUSH1 0x40 MLOAD PUSH3 0x461BCD PUSH1 0xE5 SHL DUP2 MSTORE PUSH1 0x4 ADD PUSH2 0xA26 SWAP1 PUSH2 0x3A6D JUMP JUMPDEST PUSH1 0x40 MLOAD PUSH4 0x80711989 PUSH1 0xE0 SHL DUP2 MSTORE PUSH1 0x1 PUSH1 0x1 PUSH1 0xA0 SHL SUB PUSH32 0x0 AND SWAP1 PUSH4 0x80711989 SWAP1 PUSH2 0x142E SWAP1 DUP5 SWAP1 PUSH1 0x4 ADD PUSH2 0x375C JUMP JUMPDEST PUSH1 0x6 SLOAD PUSH1 0x1 PUSH1 0x1 PUSH1 0xA0 SHL SUB AND CALLER EQ PUSH2 0x1616 JUMPI PUSH1 0x40 MLOAD PUSH3 0x461BCD PUSH1 0xE5 SHL DUP2 MSTORE PUSH1 0x4 ADD PUSH2 0xA26 SWAP1 PUSH2 0x3922 JUMP JUMPDEST PUSH1 0x7 DUP1 SLOAD PUSH1 0x1 PUSH1 0x1 PUSH1 0xA0 SHL SUB NOT AND PUSH1 0x1 PUSH1 0x1 PUSH1 0xA0 SHL SUB SWAP3 SWAP1 SWAP3 AND SWAP2 SWAP1 SWAP2 OR SWAP1 SSTORE JUMP JUMPDEST PUSH1 0x6 SLOAD PUSH1 0x1 PUSH1 0x1 PUSH1 0xA0 SHL SUB AND CALLER EQ PUSH2 0x1662 JUMPI PUSH1 0x40 MLOAD PUSH3 0x461BCD PUSH1 0xE5 SHL DUP2 MSTORE PUSH1 0x4 ADD PUSH2 0xA26 SWAP1 PUSH2 0x4492 JUMP JUMPDEST PUSH1 0x40 MLOAD PUSH4 0x4A2EE937 PUSH1 0xE1 SHL DUP2 MSTORE PUSH1 0x1 PUSH1 0x1 PUSH1 0xA0 SHL SUB PUSH32 0x0 AND SWAP1 PUSH4 0x945DD26E SWAP1 PUSH2 0x142E SWAP1 DUP5 SWAP1 PUSH1 0x4 ADD PUSH2 0x375C JUMP JUMPDEST CALLER ADDRESS EQ PUSH2 0x16CD JUMPI PUSH1 0x40 MLOAD PUSH3 0x461BCD PUSH1 0xE5 SHL DUP2 MSTORE PUSH1 0x4 ADD PUSH2 0xA26 SWAP1 PUSH2 0x46DD JUMP JUMPDEST PUSH2 0x2710 DUP2 GT ISZERO PUSH2 0x16EF JUMPI PUSH1 0x40 MLOAD PUSH3 0x461BCD PUSH1 0xE5 SHL DUP2 MSTORE PUSH1 0x4 ADD PUSH2 0xA26 SWAP1 PUSH2 0x3B1A JUMP JUMPDEST PUSH1 0x1 SSTORE JUMP JUMPDEST PUSH1 0x7 SLOAD PUSH1 0x1 PUSH1 0x1 PUSH1 0xA0 SHL SUB AND CALLER EQ PUSH2 0x171E JUMPI PUSH1 0x40 MLOAD PUSH3 0x461BCD PUSH1 0xE5 SHL DUP2 MSTORE PUSH1 0x4 ADD PUSH2 0xA26 SWAP1 PUSH2 0x4365 JUMP JUMPDEST PUSH1 0x7 SLOAD PUSH1 0x6 DUP1 SLOAD PUSH1 0x1 PUSH1 0x1 PUSH1 0xA0 SHL SUB NOT AND PUSH1 0x1 PUSH1 0x1 PUSH1 0xA0 SHL SUB SWAP1 SWAP3 AND SWAP2 SWAP1 SWAP2 OR SWAP1 SSTORE JUMP JUMPDEST PUSH1 0x6 SLOAD PUSH1 0x1 PUSH1 0x1 PUSH1 0xA0 SHL SUB AND CALLER EQ PUSH2 0x176C JUMPI PUSH1 0x40 MLOAD PUSH3 0x461BCD PUSH1 0xE5 SHL DUP2 MSTORE PUSH1 0x4 ADD PUSH2 0xA26 SWAP1 PUSH2 0x3B65 JUMP JUMPDEST PUSH1 0x40 MLOAD PUSH4 0xAB033EA9 PUSH1 0xE0 SHL DUP2 MSTORE PUSH1 0x1 PUSH1 0x1 PUSH1 0xA0 SHL SUB PUSH32 0x0 AND SWAP1 PUSH4 0xAB033EA9 SWAP1 PUSH2 0x142E SWAP1 DUP5 SWAP1 PUSH1 0x4 ADD PUSH2 0x375C JUMP JUMPDEST PUSH3 0x15180 DUP2 JUMP JUMPDEST PUSH1 0x0 PUSH2 0xB4F PUSH2 0x2710 PUSH2 0xB49 PUSH1 0x1 SLOAD PUSH32 0x0 PUSH1 0x1 PUSH1 0x1 PUSH1 0xA0 SHL SUB AND PUSH4 0x44D96E95 PUSH1 0x40 MLOAD DUP2 PUSH4 0xFFFFFFFF AND PUSH1 0xE0 SHL DUP2 MSTORE PUSH1 0x4 ADD PUSH1 0x20 PUSH1 0x40 MLOAD DUP1 DUP4 SUB DUP2 DUP7 DUP1 EXTCODESIZE ISZERO DUP1 ISZERO PUSH2 0xB0B JUMPI PUSH1 0x0 DUP1 REVERT JUMPDEST PUSH1 0x6 SLOAD PUSH1 0x1 PUSH1 0x1 PUSH1 0xA0 SHL SUB AND CALLER EQ PUSH2 0x1850 JUMPI PUSH1 0x40 MLOAD PUSH3 0x461BCD PUSH1 0xE5 SHL DUP2 MSTORE PUSH1 0x4 ADD PUSH2 0xA26 SWAP1 PUSH2 0x44DE JUMP JUMPDEST PUSH1 0x40 MLOAD PUSH4 0x5B003815 PUSH1 0xE1 SHL DUP2 MSTORE PUSH1 0x1 PUSH1 0x1 PUSH1 0xA0 SHL SUB PUSH32 0x0 AND SWAP1 PUSH4 0xB600702A SWAP1 PUSH2 0x142E SWAP1 DUP5 SWAP1 PUSH1 0x4 ADD PUSH2 0x375C JUMP JUMPDEST PUSH1 0x0 SLOAD DUP2 JUMP JUMPDEST PUSH3 0x127500 DUP2 JUMP JUMPDEST CALLER ADDRESS EQ PUSH2 0x18C8 JUMPI PUSH1 0x40 MLOAD PUSH3 0x461BCD PUSH1 0xE5 SHL DUP2 MSTORE PUSH1 0x4 ADD PUSH2 0xA26 SWAP1 PUSH2 0x46DD JUMP JUMPDEST PUSH2 0x2710 DUP2 GT ISZERO PUSH2 0x18EA JUMPI PUSH1 0x40 MLOAD PUSH3 0x461BCD PUSH1 0xE5 SHL DUP2 MSTORE PUSH1 0x4 ADD PUSH2 0xA26 SWAP1 PUSH2 0x40AF JUMP JUMPDEST PUSH1 0x0 SSTORE JUMP JUMPDEST PUSH1 0x6 SLOAD PUSH1 0x1 PUSH1 0x1 PUSH1 0xA0 SHL SUB AND CALLER EQ PUSH2 0x1919 JUMPI PUSH1 0x40 MLOAD PUSH3 0x461BCD PUSH1 0xE5 SHL DUP2 MSTORE PUSH1 0x4 ADD PUSH2 0xA26 SWAP1 PUSH2 0x4253 JUMP JUMPDEST PUSH1 0x40 MLOAD PUSH4 0xC3FC0E1D PUSH1 0xE0 SHL DUP2 MSTORE PUSH1 0x1 PUSH1 0x1 PUSH1 0xA0 SHL SUB PUSH32 0x0 AND SWAP1 PUSH4 0xC3FC0E1D SWAP1 PUSH2 0x1967 SWAP1 DUP6 SWAP1 DUP6 SWAP1 PUSH1 0x4 ADD PUSH2 0x3770 JUMP JUMPDEST PUSH1 0x0 PUSH1 0x40 MLOAD DUP1 DUP4 SUB DUP2 PUSH1 0x0 DUP8 DUP1 EXTCODESIZE ISZERO DUP1 ISZERO PUSH2 0x1981 JUMPI PUSH1 0x0 DUP1 REVERT JUMPDEST POP GAS CALL ISZERO DUP1 ISZERO PUSH2 0x1995 JUMPI RETURNDATASIZE PUSH1 0x0 DUP1 RETURNDATACOPY RETURNDATASIZE PUSH1 0x0 REVERT JUMPDEST POP POP POP POP POP POP JUMP JUMPDEST PUSH1 0x6 SLOAD PUSH1 0x1 PUSH1 0x1 PUSH1 0xA0 SHL SUB AND CALLER EQ PUSH2 0x19C7 JUMPI PUSH1 0x40 MLOAD PUSH3 0x461BCD PUSH1 0xE5 SHL DUP2 MSTORE PUSH1 0x4 ADD PUSH2 0xA26 SWAP1 PUSH2 0x3CE0 JUMP JUMPDEST PUSH1 0x40 MLOAD PUSH4 0x314662AF PUSH1 0xE2 SHL DUP2 MSTORE PUSH1 0x1 PUSH1 0x1 PUSH1 0xA0 SHL SUB PUSH32 0x0 AND SWAP1 PUSH4 0xC5198ABC SWAP1 PUSH2 0x142E SWAP1 DUP5 SWAP1 PUSH1 0x4 ADD PUSH2 0x375C JUMP JUMPDEST PUSH1 0x6 SLOAD PUSH1 0x1 PUSH1 0x1 PUSH1 0xA0 SHL SUB AND CALLER EQ PUSH2 0x1A3D JUMPI PUSH1 0x40 MLOAD PUSH3 0x461BCD PUSH1 0xE5 SHL DUP2 MSTORE PUSH1 0x4 ADD PUSH2 0xA26 SWAP1 PUSH2 0x4602 JUMP JUMPDEST PUSH1 0x40 MLOAD PUSH4 0x19CD411 PUSH1 0xE7 SHL DUP2 MSTORE PUSH1 0x1 PUSH1 0x1 PUSH1 0xA0 SHL SUB PUSH32 0x0 AND SWAP1 PUSH4 0xCE6A0880 SWAP1 PUSH2 0x1967 SWAP1 DUP6 SWAP1 DUP6 SWAP1 PUSH1 0x4 ADD PUSH2 0x3770 JUMP JUMPDEST PUSH1 0x2 SLOAD DUP2 JUMP JUMPDEST PUSH1 0x0 PUSH2 0x1A9B PUSH2 0x17BF JUMP JUMPDEST PUSH1 0x1 PUSH1 0x1 PUSH1 0xA0 SHL SUB PUSH32 0x0 AND PUSH4 0x782D6FE1 CALLER PUSH2 0x1AD6 NUMBER PUSH1 0x1 PUSH2 0x27BD JUMP JUMPDEST PUSH1 0x40 MLOAD DUP4 PUSH4 0xFFFFFFFF AND PUSH1 0xE0 SHL DUP2 MSTORE PUSH1 0x4 ADD PUSH2 0x1AF3 SWAP3 SWAP2 SWAP1 PUSH2 0x3770 JUMP JUMPDEST PUSH1 0x20 PUSH1 0x40 MLOAD DUP1 DUP4 SUB DUP2 DUP7 DUP1 EXTCODESIZE ISZERO DUP1 ISZERO PUSH2 0x1B0B JUMPI PUSH1 0x0 DUP1 REVERT JUMPDEST POP GAS STATICCALL ISZERO DUP1 ISZERO PUSH2 0x1B1F JUMPI RETURNDATASIZE PUSH1 0x0 DUP1 RETURNDATACOPY RETURNDATASIZE PUSH1 0x0 REVERT JUMPDEST POP POP POP POP PUSH1 0x40 MLOAD RETURNDATASIZE PUSH1 0x1F NOT PUSH1 0x1F DUP3 ADD AND DUP3 ADD DUP1 PUSH1 0x40 MSTORE POP DUP2 ADD SWAP1 PUSH2 0x1B43 SWAP2 SWAP1 PUSH2 0x34F7 JUMP JUMPDEST LT ISZERO PUSH2 0x1B61 JUMPI PUSH1 0x40 MLOAD PUSH3 0x461BCD PUSH1 0xE5 SHL DUP2 MSTORE PUSH1 0x4 ADD PUSH2 0xA26 SWAP1 PUSH2 0x3C83 JUMP JUMPDEST DUP5 MLOAD DUP7 MLOAD EQ DUP1 ISZERO PUSH2 0x1B73 JUMPI POP DUP4 MLOAD DUP7 MLOAD EQ JUMPDEST DUP1 ISZERO PUSH2 0x1B80 JUMPI POP DUP3 MLOAD DUP7 MLOAD EQ JUMPDEST PUSH2 0x1B9C JUMPI PUSH1 0x40 MLOAD PUSH3 0x461BCD PUSH1 0xE5 SHL DUP2 MSTORE PUSH1 0x4 ADD PUSH2 0xA26 SWAP1 PUSH2 0x3AB3 JUMP JUMPDEST DUP6 MLOAD PUSH2 0x1BBA JUMPI PUSH1 0x40 MLOAD PUSH3 0x461BCD PUSH1 0xE5 SHL DUP2 MSTORE PUSH1 0x4 ADD PUSH2 0xA26 SWAP1 PUSH2 0x3D5A JUMP JUMPDEST PUSH2 0x1BC2 PUSH2 0x156A JUMP JUMPDEST DUP7 MLOAD GT ISZERO PUSH2 0x1BE2 JUMPI PUSH1 0x40 MLOAD PUSH3 0x461BCD PUSH1 0xE5 SHL DUP2 MSTORE PUSH1 0x4 ADD PUSH2 0xA26 SWAP1 PUSH2 0x42E9 JUMP JUMPDEST CALLER PUSH1 0x0 SWAP1 DUP2 MSTORE PUSH1 0x4 PUSH1 0x20 MSTORE PUSH1 0x40 SWAP1 KECCAK256 SLOAD DUP1 ISZERO PUSH2 0x1C5F JUMPI PUSH1 0x0 PUSH2 0x1C03 DUP3 PUSH2 0xDE8 JUMP JUMPDEST SWAP1 POP PUSH1 0x1 DUP2 PUSH1 0x7 DUP2 GT ISZERO PUSH2 0x1C13 JUMPI INVALID JUMPDEST EQ ISZERO PUSH2 0x1C31 JUMPI PUSH1 0x40 MLOAD PUSH3 0x461BCD PUSH1 0xE5 SHL DUP2 MSTORE PUSH1 0x4 ADD PUSH2 0xA26 SWAP1 PUSH2 0x39F2 JUMP JUMPDEST PUSH1 0x0 DUP2 PUSH1 0x7 DUP2 GT ISZERO PUSH2 0x1C3F JUMPI INVALID JUMPDEST EQ ISZERO PUSH2 0x1C5D JUMPI PUSH1 0x40 MLOAD PUSH3 0x461BCD PUSH1 0xE5 SHL DUP2 MSTORE PUSH1 0x4 ADD PUSH2 0xA26 SWAP1 PUSH2 0x40F4 JUMP JUMPDEST POP JUMPDEST PUSH2 0x1C6C DUP8 DUP8 DUP8 DUP8 DUP8 PUSH2 0x2899 JUMP JUMPDEST SWAP8 SWAP7 POP POP POP POP POP POP POP JUMP JUMPDEST CALLER PUSH1 0x1 PUSH1 0x1 PUSH1 0xA0 SHL SUB PUSH32 0x0 AND EQ PUSH2 0x1CBF JUMPI PUSH1 0x40 MLOAD PUSH3 0x461BCD PUSH1 0xE5 SHL DUP2 MSTORE PUSH1 0x4 ADD PUSH2 0xA26 SWAP1 PUSH2 0x4170 JUMP JUMPDEST PUSH1 0x60 PUSH32 0x0 DUP2 PUSH1 0x0 DUP2 MLOAD DUP2 LT PUSH2 0x1CEF JUMPI INVALID JUMPDEST PUSH1 0x20 MUL PUSH1 0x20 ADD ADD SWAP1 PUSH1 0x1 PUSH1 0x1 PUSH1 0xA0 SHL SUB AND SWAP1 DUP2 PUSH1 0x1 PUSH1 0x1 PUSH1 0xA0 SHL SUB AND DUP2 MSTORE POP POP PUSH1 0x60 PUSH1 0x40 MLOAD DUP1 PUSH1 0x40 ADD PUSH1 0x40 MSTORE DUP1 PUSH1 0xF DUP2 MSTORE PUSH1 0x20 ADD PUSH15 0x6164644A6F62286164647265737329 PUSH1 0x88 SHL DUP2 MSTORE POP DUP2 PUSH1 0x0 DUP2 MLOAD DUP2 LT PUSH2 0x1D46 JUMPI INVALID JUMPDEST PUSH1 0x20 MUL PUSH1 0x20 ADD ADD DUP2 SWAP1 MSTORE POP PUSH1 0x60 DUP4 PUSH1 0x40 MLOAD PUSH1 0x20 ADD PUSH2 0x1D64 SWAP2 SWAP1 PUSH2 0x375C JUMP JUMPDEST PUSH1 0x40 MLOAD PUSH1 0x20 DUP2 DUP4 SUB SUB DUP2 MSTORE SWAP1 PUSH1 0x40 MSTORE DUP2 PUSH1 0x0 DUP2 MLOAD DUP2 LT PUSH2 0x1D80 JUMPI INVALID JUMPDEST PUSH1 0x20 MUL PUSH1 0x20 ADD ADD DUP2 SWAP1 MSTORE POP PUSH1 0x60 PUSH1 0x0 DUP2 PUSH1 0x0 DUP2 MLOAD DUP2 LT PUSH2 0x1D9C JUMPI INVALID JUMPDEST PUSH1 0x20 MUL PUSH1 0x20 ADD ADD DUP2 DUP2 MSTORE POP POP PUSH2 0x1995 DUP5 DUP3 DUP6 DUP6 DUP10 PUSH1 0x40 MLOAD PUSH1 0x20 ADD PUSH2 0x1DC0 SWAP2 SWAP1 PUSH2 0x3719 JUMP JUMPDEST PUSH1 0x40 MLOAD PUSH1 0x20 DUP2 DUP4 SUB SUB DUP2 MSTORE SWAP1 PUSH1 0x40 MSTORE PUSH2 0x2899 JUMP JUMPDEST PUSH1 0x4 PUSH2 0x1DDF DUP3 PUSH2 0xDE8 JUMP JUMPDEST PUSH1 0x7 DUP2 GT ISZERO PUSH2 0x1DEA JUMPI INVALID JUMPDEST EQ PUSH2 0x1E07 JUMPI PUSH1 0x40 MLOAD PUSH3 0x461BCD PUSH1 0xE5 SHL DUP2 MSTORE PUSH1 0x4 ADD PUSH2 0xA26 SWAP1 PUSH2 0x3EA3 JUMP JUMPDEST PUSH1 0x0 DUP2 DUP2 MSTORE PUSH1 0x3 PUSH1 0x20 MSTORE PUSH1 0x40 DUP2 KECCAK256 PUSH1 0x5 SLOAD SWAP1 SWAP2 SWAP1 PUSH2 0x1E26 SWAP1 TIMESTAMP SWAP1 PUSH2 0x2798 JUMP JUMPDEST SWAP1 POP PUSH1 0x0 JUMPDEST PUSH1 0x3 DUP4 ADD SLOAD DUP2 LT ISZERO PUSH2 0x1FCE JUMPI PUSH2 0x1FC6 DUP4 PUSH1 0x3 ADD DUP3 DUP2 SLOAD DUP2 LT PUSH2 0x1E49 JUMPI INVALID JUMPDEST PUSH1 0x0 SWAP2 DUP3 MSTORE PUSH1 0x20 SWAP1 SWAP2 KECCAK256 ADD SLOAD PUSH1 0x4 DUP6 ADD DUP1 SLOAD PUSH1 0x1 PUSH1 0x1 PUSH1 0xA0 SHL SUB SWAP1 SWAP3 AND SWAP2 DUP5 SWAP1 DUP2 LT PUSH2 0x1E71 JUMPI INVALID JUMPDEST SWAP1 PUSH1 0x0 MSTORE PUSH1 0x20 PUSH1 0x0 KECCAK256 ADD SLOAD DUP6 PUSH1 0x5 ADD DUP5 DUP2 SLOAD DUP2 LT PUSH2 0x1E8B JUMPI INVALID JUMPDEST PUSH1 0x0 SWAP2 DUP3 MSTORE PUSH1 0x20 SWAP2 DUP3 SWAP1 KECCAK256 ADD DUP1 SLOAD PUSH1 0x40 DUP1 MLOAD PUSH1 0x1F PUSH1 0x2 PUSH1 0x0 NOT PUSH2 0x100 PUSH1 0x1 DUP8 AND ISZERO MUL ADD SWAP1 SWAP5 AND SWAP4 SWAP1 SWAP4 DIV SWAP3 DUP4 ADD DUP6 SWAP1 DIV DUP6 MUL DUP2 ADD DUP6 ADD SWAP1 SWAP2 MSTORE DUP2 DUP2 MSTORE SWAP3 DUP4 ADD DUP3 DUP3 DUP1 ISZERO PUSH2 0x1F19 JUMPI DUP1 PUSH1 0x1F LT PUSH2 0x1EEE JUMPI PUSH2 0x100 DUP1 DUP4 SLOAD DIV MUL DUP4 MSTORE SWAP2 PUSH1 0x20 ADD SWAP2 PUSH2 0x1F19 JUMP JUMPDEST DUP3 ADD SWAP2 SWAP1 PUSH1 0x0 MSTORE PUSH1 0x20 PUSH1 0x0 KECCAK256 SWAP1 JUMPDEST DUP2 SLOAD DUP2 MSTORE SWAP1 PUSH1 0x1 ADD SWAP1 PUSH1 0x20 ADD DUP1 DUP4 GT PUSH2 0x1EFC JUMPI DUP3 SWAP1 SUB PUSH1 0x1F AND DUP3 ADD SWAP2 JUMPDEST POP POP POP POP POP DUP7 PUSH1 0x6 ADD DUP6 DUP2 SLOAD DUP2 LT PUSH2 0x1F2D JUMPI INVALID JUMPDEST PUSH1 0x0 SWAP2 DUP3 MSTORE PUSH1 0x20 SWAP2 DUP3 SWAP1 KECCAK256 ADD DUP1 SLOAD PUSH1 0x40 DUP1 MLOAD PUSH1 0x1F PUSH1 0x2 PUSH1 0x0 NOT PUSH2 0x100 PUSH1 0x1 DUP8 AND ISZERO MUL ADD SWAP1 SWAP5 AND SWAP4 SWAP1 SWAP4 DIV SWAP3 DUP4 ADD DUP6 SWAP1 DIV DUP6 MUL DUP2 ADD DUP6 ADD SWAP1 SWAP2 MSTORE DUP2 DUP2 MSTORE SWAP3 DUP4 ADD DUP3 DUP3 DUP1 ISZERO PUSH2 0x1FBB JUMPI DUP1 PUSH1 0x1F LT PUSH2 0x1F90 JUMPI PUSH2 0x100 DUP1 DUP4 SLOAD DIV MUL DUP4 MSTORE SWAP2 PUSH1 0x20 ADD SWAP2 PUSH2 0x1FBB JUMP JUMPDEST DUP3 ADD SWAP2 SWAP1 PUSH1 0x0 MSTORE PUSH1 0x20 PUSH1 0x0 KECCAK256 SWAP1 JUMPDEST DUP2 SLOAD DUP2 MSTORE SWAP1 PUSH1 0x1 ADD SWAP1 PUSH1 0x20 ADD DUP1 DUP4 GT PUSH2 0x1F9E JUMPI DUP3 SWAP1 SUB PUSH1 0x1F AND DUP3 ADD SWAP2 JUMPDEST POP POP POP POP POP DUP7 PUSH2 0x2AE4 JUMP JUMPDEST PUSH1 0x1 ADD PUSH2 0x1E2B JUMP JUMPDEST POP PUSH1 0x2 DUP3 ADD DUP2 SWAP1 SSTORE PUSH1 0x40 MLOAD PUSH32 0x9A2E42FD6722813D69113E7D0079D3D940171428DF7373DF9C7F7617CFDA2892 SWAP1 PUSH2 0x124D SWAP1 DUP6 SWAP1 DUP5 SWAP1 PUSH2 0x4867 JUMP JUMPDEST PUSH1 0x6 SLOAD PUSH1 0x1 PUSH1 0x1 PUSH1 0xA0 SHL SUB AND CALLER EQ PUSH2 0x2032 JUMPI PUSH1 0x40 MLOAD PUSH3 0x461BCD PUSH1 0xE5 SHL DUP2 MSTORE PUSH1 0x4 ADD PUSH2 0xA26 SWAP1 PUSH2 0x41CD JUMP JUMPDEST PUSH1 0x40 MLOAD PUSH4 0xDE63298D PUSH1 0xE0 SHL DUP2 MSTORE PUSH1 0x1 PUSH1 0x1 PUSH1 0xA0 SHL SUB PUSH32 0x0 AND SWAP1 PUSH4 0xDE63298D SWAP1 PUSH2 0x1967 SWAP1 DUP6 SWAP1 DUP6 SWAP1 PUSH1 0x4 ADD PUSH2 0x3770 JUMP JUMPDEST PUSH32 0x8E25870C07E0B0B3884C78DA52790939A455C275406C44AE8B434B692FB916EE DUP2 JUMP JUMPDEST CALLER ADDRESS EQ PUSH2 0x20C3 JUMPI PUSH1 0x40 MLOAD PUSH3 0x461BCD PUSH1 0xE5 SHL DUP2 MSTORE PUSH1 0x4 ADD PUSH2 0xA26 SWAP1 PUSH2 0x464A JUMP JUMPDEST PUSH3 0x15180 DUP2 LT ISZERO PUSH2 0x20E6 JUMPI PUSH1 0x40 MLOAD PUSH3 0x461BCD PUSH1 0xE5 SHL DUP2 MSTORE PUSH1 0x4 ADD PUSH2 0xA26 SWAP1 PUSH2 0x3DFC JUMP JUMPDEST PUSH3 0x278D00 DUP2 GT ISZERO PUSH2 0x2109 JUMPI PUSH1 0x40 MLOAD PUSH3 0x461BCD PUSH1 0xE5 SHL DUP2 MSTORE PUSH1 0x4 ADD PUSH2 0xA26 SWAP1 PUSH2 0x3FBD JUMP JUMPDEST PUSH1 0x5 DUP2 SWAP1 SSTORE PUSH1 0x40 MLOAD DUP2 SWAP1 PUSH32 0x948B1F6A42EE138B7E34058BA85A37F716D55FF25FF05A763F15BED6A04C8D2C SWAP1 PUSH1 0x0 SWAP1 LOG2 POP JUMP JUMPDEST PUSH2 0x2144 PUSH2 0x2E75 JUMP JUMPDEST POP PUSH1 0x0 DUP3 DUP2 MSTORE PUSH1 0x3 PUSH1 0x20 SWAP1 DUP2 MSTORE PUSH1 0x40 DUP1 DUP4 KECCAK256 PUSH1 0x1 PUSH1 0x1 PUSH1 0xA0 SHL SUB DUP6 AND DUP5 MSTORE PUSH1 0xC ADD DUP3 MSTORE SWAP2 DUP3 SWAP1 KECCAK256 DUP3 MLOAD PUSH1 0x60 DUP2 ADD DUP5 MSTORE DUP2 SLOAD PUSH1 0xFF DUP1 DUP3 AND ISZERO ISZERO DUP4 MSTORE PUSH2 0x100 SWAP1 SWAP2 DIV AND ISZERO ISZERO SWAP3 DUP2 ADD SWAP3 SWAP1 SWAP3 MSTORE PUSH1 0x1 ADD SLOAD SWAP2 DUP2 ADD SWAP2 SWAP1 SWAP2 MSTORE JUMPDEST SWAP3 SWAP2 POP POP JUMP JUMPDEST PUSH1 0x6 SLOAD PUSH1 0x1 PUSH1 0x1 PUSH1 0xA0 SHL SUB AND CALLER EQ PUSH2 0x21CA JUMPI PUSH1 0x40 MLOAD PUSH3 0x461BCD PUSH1 0xE5 SHL DUP2 MSTORE PUSH1 0x4 ADD PUSH2 0xA26 SWAP1 PUSH2 0x469B JUMP JUMPDEST PUSH1 0x40 MLOAD PUSH4 0xE74F8239 PUSH1 0xE0 SHL DUP2 MSTORE PUSH1 0x1 PUSH1 0x1 PUSH1 0xA0 SHL SUB PUSH32 0x0 AND SWAP1 PUSH4 0xE74F8239 SWAP1 PUSH2 0x221A SWAP1 DUP7 SWAP1 DUP7 SWAP1 DUP7 SWAP1 PUSH1 0x4 ADD PUSH2 0x3789 JUMP JUMPDEST PUSH1 0x0 PUSH1 0x40 MLOAD DUP1 DUP4 SUB DUP2 PUSH1 0x0 DUP8 DUP1 EXTCODESIZE ISZERO DUP1 ISZERO PUSH2 0x2234 JUMPI PUSH1 0x0 DUP1 REVERT JUMPDEST POP GAS CALL ISZERO DUP1 ISZERO PUSH2 0x2248 JUMPI RETURNDATASIZE PUSH1 0x0 DUP1 RETURNDATACOPY RETURNDATASIZE PUSH1 0x0 REVERT JUMPDEST POP POP POP POP POP POP POP JUMP JUMPDEST PUSH2 0x2710 DUP2 JUMP JUMPDEST PUSH1 0x8 PUSH1 0x20 MSTORE PUSH1 0x0 SWAP1 DUP2 MSTORE PUSH1 0x40 SWAP1 KECCAK256 SLOAD PUSH1 0xFF AND DUP2 JUMP JUMPDEST PUSH1 0x6 SLOAD PUSH1 0x1 PUSH1 0x1 PUSH1 0xA0 SHL SUB AND CALLER EQ PUSH2 0x2296 JUMPI PUSH1 0x40 MLOAD PUSH3 0x461BCD PUSH1 0xE5 SHL DUP2 MSTORE PUSH1 0x4 ADD PUSH2 0xA26 SWAP1 PUSH2 0x39AE JUMP JUMPDEST PUSH1 0x40 MLOAD PUSH4 0xF75F9F7B PUSH1 0xE0 SHL DUP2 MSTORE PUSH1 0x1 PUSH1 0x1 PUSH1 0xA0 SHL SUB PUSH32 0x0 AND SWAP1 PUSH4 0xF75F9F7B SWAP1 PUSH2 0x142E SWAP1 DUP5 SWAP1 PUSH1 0x4 ADD PUSH2 0x375C JUMP JUMPDEST PUSH1 0x6 SLOAD PUSH1 0x1 PUSH1 0x1 PUSH1 0xA0 SHL SUB AND ISZERO DUP1 PUSH2 0x2304 JUMPI POP PUSH1 0x6 SLOAD PUSH1 0x1 PUSH1 0x1 PUSH1 0xA0 SHL SUB AND CALLER EQ JUMPDEST PUSH2 0x2320 JUMPI PUSH1 0x40 MLOAD PUSH3 0x461BCD PUSH1 0xE5 SHL DUP2 MSTORE PUSH1 0x4 ADD PUSH2 0xA26 SWAP1 PUSH2 0x432E JUMP JUMPDEST PUSH1 0x5 PUSH2 0x232B DUP3 PUSH2 0xDE8 JUMP JUMPDEST PUSH1 0x7 DUP2 GT ISZERO PUSH2 0x2336 JUMPI INVALID JUMPDEST EQ PUSH2 0x2353 JUMPI PUSH1 0x40 MLOAD PUSH3 0x461BCD PUSH1 0xE5 SHL DUP2 MSTORE PUSH1 0x4 ADD PUSH2 0xA26 SWAP1 PUSH2 0x459A JUMP JUMPDEST PUSH1 0x0 DUP2 DUP2 MSTORE PUSH1 0x3 PUSH1 0x20 MSTORE PUSH1 0x40 DUP2 KECCAK256 PUSH1 0xB DUP2 ADD DUP1 SLOAD PUSH2 0xFF00 NOT AND PUSH2 0x100 OR SWAP1 SSTORE SWAP1 JUMPDEST PUSH1 0x3 DUP3 ADD SLOAD DUP2 LT ISZERO PUSH2 0x251C JUMPI PUSH2 0x2513 DUP3 PUSH1 0x3 ADD DUP3 DUP2 SLOAD DUP2 LT PUSH2 0x2392 JUMPI INVALID JUMPDEST PUSH1 0x0 SWAP2 DUP3 MSTORE PUSH1 0x20 SWAP1 SWAP2 KECCAK256 ADD SLOAD PUSH1 0x4 DUP5 ADD DUP1 SLOAD PUSH1 0x1 PUSH1 0x1 PUSH1 0xA0 SHL SUB SWAP1 SWAP3 AND SWAP2 DUP5 SWAP1 DUP2 LT PUSH2 0x23BA JUMPI INVALID JUMPDEST SWAP1 PUSH1 0x0 MSTORE PUSH1 0x20 PUSH1 0x0 KECCAK256 ADD SLOAD DUP5 PUSH1 0x5 ADD DUP5 DUP2 SLOAD DUP2 LT PUSH2 0x23D4 JUMPI INVALID JUMPDEST PUSH1 0x0 SWAP2 DUP3 MSTORE PUSH1 0x20 SWAP2 DUP3 SWAP1 KECCAK256 ADD DUP1 SLOAD PUSH1 0x40 DUP1 MLOAD PUSH1 0x1F PUSH1 0x2 PUSH1 0x0 NOT PUSH2 0x100 PUSH1 0x1 DUP8 AND ISZERO MUL ADD SWAP1 SWAP5 AND SWAP4 SWAP1 SWAP4 DIV SWAP3 DUP4 ADD DUP6 SWAP1 DIV DUP6 MUL DUP2 ADD DUP6 ADD SWAP1 SWAP2 MSTORE DUP2 DUP2 MSTORE SWAP3 DUP4 ADD DUP3 DUP3 DUP1 ISZERO PUSH2 0x2462 JUMPI DUP1 PUSH1 0x1F LT PUSH2 0x2437 JUMPI PUSH2 0x100 DUP1 DUP4 SLOAD DIV MUL DUP4 MSTORE SWAP2 PUSH1 0x20 ADD SWAP2 PUSH2 0x2462 JUMP JUMPDEST DUP3 ADD SWAP2 SWAP1 PUSH1 0x0 MSTORE PUSH1 0x20 PUSH1 0x0 KECCAK256 SWAP1 JUMPDEST DUP2 SLOAD DUP2 MSTORE SWAP1 PUSH1 0x1 ADD SWAP1 PUSH1 0x20 ADD DUP1 DUP4 GT PUSH2 0x2445 JUMPI DUP3 SWAP1 SUB PUSH1 0x1F AND DUP3 ADD SWAP2 JUMPDEST POP POP POP POP POP DUP6 PUSH1 0x6 ADD DUP6 DUP2 SLOAD DUP2 LT PUSH2 0x2476 JUMPI INVALID JUMPDEST PUSH1 0x0 SWAP2 DUP3 MSTORE PUSH1 0x20 SWAP2 DUP3 SWAP1 KECCAK256 ADD DUP1 SLOAD PUSH1 0x40 DUP1 MLOAD PUSH1 0x1F PUSH1 0x2 PUSH1 0x0 NOT PUSH2 0x100 PUSH1 0x1 DUP8 AND ISZERO MUL ADD SWAP1 SWAP5 AND SWAP4 SWAP1 SWAP4 DIV SWAP3 DUP4 ADD DUP6 SWAP1 DIV DUP6 MUL DUP2 ADD DUP6 ADD SWAP1 SWAP2 MSTORE DUP2 DUP2 MSTORE SWAP3 DUP4 ADD DUP3 DUP3 DUP1 ISZERO PUSH2 0x2504 JUMPI DUP1 PUSH1 0x1F LT PUSH2 0x24D9 JUMPI PUSH2 0x100 DUP1 DUP4 SLOAD DIV MUL DUP4 MSTORE SWAP2 PUSH1 0x20 ADD SWAP2 PUSH2 0x2504 JUMP JUMPDEST DUP3 ADD SWAP2 SWAP1 PUSH1 0x0 MSTORE PUSH1 0x20 PUSH1 0x0 KECCAK256 SWAP1 JUMPDEST DUP2 SLOAD DUP2 MSTORE SWAP1 PUSH1 0x1 ADD SWAP1 PUSH1 0x20 ADD DUP1 DUP4 GT PUSH2 0x24E7 JUMPI DUP3 SWAP1 SUB PUSH1 0x1F AND DUP3 ADD SWAP2 JUMPDEST POP POP POP POP POP DUP7 PUSH1 0x2 ADD SLOAD PUSH2 0x2B54 JUMP JUMPDEST POP PUSH1 0x1 ADD PUSH2 0x2374 JUMP JUMPDEST POP PUSH32 0x712AE1383F79AC853F8D882153778E0260EF8F03B504E2866E0593E04D2B291F DUP3 PUSH1 0x40 MLOAD PUSH2 0x254C SWAP2 SWAP1 PUSH2 0x3879 JUMP JUMPDEST PUSH1 0x40 MLOAD DUP1 SWAP2 SUB SWAP1 LOG1 POP POP JUMP JUMPDEST PUSH1 0x1 PUSH2 0x2563 DUP4 PUSH2 0xDE8 JUMP JUMPDEST PUSH1 0x7 DUP2 GT ISZERO PUSH2 0x256E JUMPI INVALID JUMPDEST EQ PUSH2 0x258B JUMPI PUSH1 0x40 MLOAD PUSH3 0x461BCD PUSH1 0xE5 SHL DUP2 MSTORE PUSH1 0x4 ADD PUSH2 0xA26 SWAP1 PUSH2 0x3BAF JUMP JUMPDEST PUSH1 0x0 DUP3 DUP2 MSTORE PUSH1 0x3 PUSH1 0x20 SWAP1 DUP2 MSTORE PUSH1 0x40 DUP1 DUP4 KECCAK256 PUSH1 0x1 PUSH1 0x1 PUSH1 0xA0 SHL SUB DUP8 AND DUP5 MSTORE PUSH1 0xC DUP2 ADD SWAP1 SWAP3 MSTORE SWAP1 SWAP2 KECCAK256 DUP1 SLOAD PUSH1 0xFF AND ISZERO PUSH2 0x25D4 JUMPI PUSH1 0x40 MLOAD PUSH3 0x461BCD PUSH1 0xE5 SHL DUP2 MSTORE PUSH1 0x4 ADD PUSH2 0xA26 SWAP1 PUSH2 0x401A JUMP JUMPDEST PUSH1 0x7 DUP3 ADD SLOAD PUSH1 0x40 MLOAD PUSH4 0x782D6FE1 PUSH1 0xE0 SHL DUP2 MSTORE PUSH1 0x0 SWAP2 PUSH1 0x1 PUSH1 0x1 PUSH1 0xA0 SHL SUB PUSH32 0x0 AND SWAP2 PUSH4 0x782D6FE1 SWAP2 PUSH2 0x2629 SWAP2 DUP11 SWAP2 SWAP1 PUSH1 0x4 ADD PUSH2 0x3770 JUMP JUMPDEST PUSH1 0x20 PUSH1 0x40 MLOAD DUP1 DUP4 SUB DUP2 DUP7 DUP1 EXTCODESIZE ISZERO DUP1 ISZERO PUSH2 0x2641 JUMPI PUSH1 0x0 DUP1 REVERT JUMPDEST POP GAS STATICCALL ISZERO DUP1 ISZERO PUSH2 0x2655 JUMPI RETURNDATASIZE PUSH1 0x0 DUP1 RETURNDATACOPY RETURNDATASIZE PUSH1 0x0 REVERT JUMPDEST POP POP POP POP PUSH1 0x40 MLOAD RETURNDATASIZE PUSH1 0x1F NOT PUSH1 0x1F DUP3 ADD AND DUP3 ADD DUP1 PUSH1 0x40 MSTORE POP DUP2 ADD SWAP1 PUSH2 0x2679 SWAP2 SWAP1 PUSH2 0x34F7 JUMP JUMPDEST SWAP1 POP DUP4 ISZERO PUSH2 0x269A JUMPI PUSH1 0x9 DUP4 ADD SLOAD PUSH2 0x2690 SWAP1 DUP3 PUSH2 0x2798 JUMP JUMPDEST PUSH1 0x9 DUP5 ADD SSTORE PUSH2 0x26AF JUMP JUMPDEST PUSH1 0xA DUP4 ADD SLOAD PUSH2 0x26A9 SWAP1 DUP3 PUSH2 0x2798 JUMP JUMPDEST PUSH1 0xA DUP5 ADD SSTORE JUMPDEST DUP2 SLOAD PUSH1 0x1 PUSH1 0xFF NOT SWAP1 SWAP2 AND DUP2 OR PUSH2 0xFF00 NOT AND PUSH2 0x100 DUP7 ISZERO ISZERO MUL OR DUP4 SSTORE DUP3 ADD DUP2 SWAP1 SSTORE PUSH1 0x40 MLOAD PUSH32 0x877856338E13F63D0C36822FF0EF736B80934CD90574A3A5BC9262C39D217C46 SWAP1 PUSH2 0x2705 SWAP1 DUP9 SWAP1 DUP9 SWAP1 DUP9 SWAP1 DUP7 SWAP1 PUSH2 0x37AD JUMP JUMPDEST PUSH1 0x40 MLOAD DUP1 SWAP2 SUB SWAP1 LOG1 POP POP POP POP POP POP JUMP JUMPDEST PUSH1 0x0 DUP3 PUSH2 0x2724 JUMPI POP PUSH1 0x0 PUSH2 0x219A JUMP JUMPDEST DUP3 DUP3 MUL DUP3 DUP5 DUP3 DUP2 PUSH2 0x2731 JUMPI INVALID JUMPDEST DIV EQ PUSH2 0x274F JUMPI PUSH1 0x40 MLOAD PUSH3 0x461BCD PUSH1 0xE5 SHL DUP2 MSTORE PUSH1 0x4 ADD PUSH2 0xA26 SWAP1 PUSH2 0x4212 JUMP JUMPDEST SWAP4 SWAP3 POP POP POP JUMP JUMPDEST PUSH1 0x0 PUSH2 0x274F DUP4 DUP4 PUSH1 0x40 MLOAD DUP1 PUSH1 0x40 ADD PUSH1 0x40 MSTORE DUP1 PUSH1 0x1A DUP2 MSTORE PUSH1 0x20 ADD PUSH32 0x536166654D6174683A206469766973696F6E206279207A65726F000000000000 DUP2 MSTORE POP PUSH2 0x2D3A JUMP JUMPDEST PUSH1 0x0 DUP3 DUP3 ADD DUP4 DUP2 LT ISZERO PUSH2 0x274F JUMPI PUSH1 0x40 MLOAD PUSH3 0x461BCD PUSH1 0xE5 SHL DUP2 MSTORE PUSH1 0x4 ADD PUSH2 0xA26 SWAP1 PUSH2 0x3D23 JUMP JUMPDEST PUSH1 0x0 PUSH2 0x274F DUP4 DUP4 PUSH1 0x40 MLOAD DUP1 PUSH1 0x40 ADD PUSH1 0x40 MSTORE DUP1 PUSH1 0x1E DUP2 MSTORE PUSH1 0x20 ADD PUSH32 0x536166654D6174683A207375627472616374696F6E206F766572666C6F770000 DUP2 MSTORE POP PUSH2 0x2D71 JUMP JUMPDEST PUSH1 0x0 DUP6 DUP6 DUP6 DUP6 DUP6 PUSH1 0x40 MLOAD PUSH1 0x20 ADD PUSH2 0x281A SWAP6 SWAP5 SWAP4 SWAP3 SWAP2 SWAP1 PUSH2 0x37D5 JUMP JUMPDEST PUSH1 0x40 DUP1 MLOAD PUSH1 0x1F NOT DUP2 DUP5 SUB ADD DUP2 MSTORE DUP3 DUP3 MSTORE DUP1 MLOAD PUSH1 0x20 SWAP2 DUP3 ADD KECCAK256 PUSH1 0x0 DUP2 DUP2 MSTORE PUSH1 0x8 SWAP1 SWAP3 MSTORE SWAP2 SWAP1 KECCAK256 DUP1 SLOAD PUSH1 0xFF NOT AND SWAP1 SSTORE SWAP2 POP PUSH1 0x1 PUSH1 0x1 PUSH1 0xA0 SHL SUB DUP8 AND SWAP1 DUP3 SWAP1 PUSH32 0x2FFFC091A501FD91BFBFF27141450D3ACB40FB8E6D8382B243EC7A812A3AAF87 SWAP1 PUSH2 0x2889 SWAP1 DUP10 SWAP1 DUP10 SWAP1 DUP10 SWAP1 DUP10 SWAP1 PUSH2 0x482A JUMP JUMPDEST PUSH1 0x40 MLOAD DUP1 SWAP2 SUB SWAP1 LOG3 POP POP POP POP POP POP JUMP JUMPDEST PUSH1 0x0 DUP1 PUSH2 0x28AE PUSH2 0x28A7 PUSH2 0xDE3 JUMP JUMPDEST NUMBER SWAP1 PUSH2 0x2798 JUMP JUMPDEST SWAP1 POP PUSH1 0x0 PUSH2 0x28C4 PUSH2 0x28BD PUSH2 0x967 JUMP JUMPDEST DUP4 SWAP1 PUSH2 0x2798 JUMP JUMPDEST PUSH1 0x2 DUP1 SLOAD PUSH1 0x1 ADD SWAP1 SSTORE SWAP1 POP PUSH2 0x28D7 PUSH2 0x2E95 JUMP JUMPDEST PUSH1 0x40 MLOAD DUP1 PUSH2 0x1A0 ADD PUSH1 0x40 MSTORE DUP1 PUSH1 0x2 SLOAD DUP2 MSTORE PUSH1 0x20 ADD CALLER PUSH1 0x1 PUSH1 0x1 PUSH1 0xA0 SHL SUB AND DUP2 MSTORE PUSH1 0x20 ADD PUSH1 0x0 DUP2 MSTORE PUSH1 0x20 ADD DUP11 DUP2 MSTORE PUSH1 0x20 ADD DUP10 DUP2 MSTORE PUSH1 0x20 ADD DUP9 DUP2 MSTORE PUSH1 0x20 ADD DUP8 DUP2 MSTORE PUSH1 0x20 ADD DUP5 DUP2 MSTORE PUSH1 0x20 ADD DUP4 DUP2 MSTORE PUSH1 0x20 ADD PUSH1 0x0 DUP2 MSTORE PUSH1 0x20 ADD PUSH1 0x0 DUP2 MSTORE PUSH1 0x20 ADD PUSH1 0x0 ISZERO ISZERO DUP2 MSTORE PUSH1 0x20 ADD PUSH1 0x0 ISZERO ISZERO DUP2 MSTORE POP SWAP1 POP DUP1 PUSH1 0x3 PUSH1 0x0 DUP4 PUSH1 0x0 ADD MLOAD DUP2 MSTORE PUSH1 0x20 ADD SWAP1 DUP2 MSTORE PUSH1 0x20 ADD PUSH1 0x0 KECCAK256 PUSH1 0x0 DUP3 ADD MLOAD DUP2 PUSH1 0x0 ADD SSTORE PUSH1 0x20 DUP3 ADD MLOAD DUP2 PUSH1 0x1 ADD PUSH1 0x0 PUSH2 0x100 EXP DUP2 SLOAD DUP2 PUSH1 0x1 PUSH1 0x1 PUSH1 0xA0 SHL SUB MUL NOT AND SWAP1 DUP4 PUSH1 0x1 PUSH1 0x1 PUSH1 0xA0 SHL SUB AND MUL OR SWAP1 SSTORE POP PUSH1 0x40 DUP3 ADD MLOAD DUP2 PUSH1 0x2 ADD SSTORE PUSH1 0x60 DUP3 ADD MLOAD DUP2 PUSH1 0x3 ADD SWAP1 DUP1 MLOAD SWAP1 PUSH1 0x20 ADD SWAP1 PUSH2 0x29BA SWAP3 SWAP2 SWAP1 PUSH2 0x2F0A JUMP JUMPDEST POP PUSH1 0x80 DUP3 ADD MLOAD DUP1 MLOAD PUSH2 0x29D6 SWAP2 PUSH1 0x4 DUP5 ADD SWAP2 PUSH1 0x20 SWAP1 SWAP2 ADD SWAP1 PUSH2 0x2F6F JUMP JUMPDEST POP PUSH1 0xA0 DUP3 ADD MLOAD DUP1 MLOAD PUSH2 0x29F2 SWAP2 PUSH1 0x5 DUP5 ADD SWAP2 PUSH1 0x20 SWAP1 SWAP2 ADD SWAP1 PUSH2 0x2FB6 JUMP JUMPDEST POP PUSH1 0xC0 DUP3 ADD MLOAD DUP1 MLOAD PUSH2 0x2A0E SWAP2 PUSH1 0x6 DUP5 ADD SWAP2 PUSH1 0x20 SWAP1 SWAP2 ADD SWAP1 PUSH2 0x300F JUMP JUMPDEST POP PUSH1 0xE0 DUP3 ADD MLOAD PUSH1 0x7 DUP3 ADD SSTORE PUSH2 0x100 DUP1 DUP4 ADD MLOAD PUSH1 0x8 DUP4 ADD SSTORE PUSH2 0x120 DUP4 ADD MLOAD PUSH1 0x9 DUP4 ADD SSTORE PUSH2 0x140 DUP4 ADD MLOAD PUSH1 0xA DUP4 ADD SSTORE PUSH2 0x160 DUP4 ADD MLOAD PUSH1 0xB SWAP1 SWAP3 ADD DUP1 SLOAD PUSH2 0x180 SWAP1 SWAP5 ADD MLOAD PUSH1 0xFF NOT SWAP1 SWAP5 AND SWAP3 ISZERO ISZERO SWAP3 SWAP1 SWAP3 OR PUSH2 0xFF00 NOT AND SWAP3 ISZERO ISZERO MUL SWAP2 SWAP1 SWAP2 OR SWAP1 SSTORE DUP1 MLOAD PUSH1 0x20 DUP1 DUP4 ADD MLOAD PUSH1 0x1 PUSH1 0x1 PUSH1 0xA0 SHL SUB AND PUSH1 0x0 SWAP1 DUP2 MSTORE PUSH1 0x4 SWAP1 SWAP2 MSTORE PUSH1 0x40 SWAP1 DUP2 SWAP1 KECCAK256 SWAP2 SWAP1 SWAP2 SSTORE DUP2 MLOAD SWAP1 MLOAD PUSH32 0x7D84A6263AE0D98D3329BD7B46BB4E8D6F98CD35A7ADB45C274C8B7FD5EBD5E0 SWAP2 PUSH2 0x2ACF SWAP2 CALLER SWAP1 DUP14 SWAP1 DUP14 SWAP1 DUP14 SWAP1 DUP14 SWAP1 DUP12 SWAP1 DUP12 SWAP1 DUP16 SWAP1 PUSH2 0x4746 JUMP JUMPDEST PUSH1 0x40 MLOAD DUP1 SWAP2 SUB SWAP1 LOG1 MLOAD SWAP9 SWAP8 POP POP POP POP POP POP POP POP JUMP JUMPDEST PUSH1 0x8 PUSH1 0x0 DUP7 DUP7 DUP7 DUP7 DUP7 PUSH1 0x40 MLOAD PUSH1 0x20 ADD PUSH2 0x2B01 SWAP6 SWAP5 SWAP4 SWAP3 SWAP2 SWAP1 PUSH2 0x37D5 JUMP JUMPDEST PUSH1 0x40 DUP1 MLOAD PUSH1 0x1F NOT DUP2 DUP5 SUB ADD DUP2 MSTORE SWAP2 DUP2 MSTORE DUP2 MLOAD PUSH1 0x20 SWAP3 DUP4 ADD KECCAK256 DUP4 MSTORE SWAP1 DUP3 ADD SWAP3 SWAP1 SWAP3 MSTORE ADD PUSH1 0x0 KECCAK256 SLOAD PUSH1 0xFF AND ISZERO PUSH2 0x2B47 JUMPI PUSH1 0x40 MLOAD PUSH3 0x461BCD PUSH1 0xE5 SHL DUP2 MSTORE PUSH1 0x4 ADD PUSH2 0xA26 SWAP1 PUSH2 0x3F56 JUMP JUMPDEST PUSH2 0x1995 DUP6 DUP6 DUP6 DUP6 DUP6 PUSH2 0x2D9D JUMP JUMPDEST PUSH1 0x60 PUSH1 0x0 DUP7 DUP7 DUP7 DUP7 DUP7 PUSH1 0x40 MLOAD PUSH1 0x20 ADD PUSH2 0x2B71 SWAP6 SWAP5 SWAP4 SWAP3 SWAP2 SWAP1 PUSH2 0x37D5 JUMP JUMPDEST PUSH1 0x40 DUP1 MLOAD PUSH1 0x1F NOT DUP2 DUP5 SUB ADD DUP2 MSTORE SWAP2 DUP2 MSTORE DUP2 MLOAD PUSH1 0x20 SWAP3 DUP4 ADD KECCAK256 PUSH1 0x0 DUP2 DUP2 MSTORE PUSH1 0x8 SWAP1 SWAP4 MSTORE SWAP2 KECCAK256 SLOAD SWAP1 SWAP2 POP PUSH1 0xFF AND PUSH2 0x2BB8 JUMPI PUSH1 0x40 MLOAD PUSH3 0x461BCD PUSH1 0xE5 SHL DUP2 MSTORE PUSH1 0x4 ADD PUSH2 0xA26 SWAP1 PUSH2 0x4064 JUMP JUMPDEST DUP3 PUSH2 0x2BC1 PUSH2 0x2E71 JUMP JUMPDEST LT ISZERO PUSH2 0x2BDF JUMPI PUSH1 0x40 MLOAD PUSH3 0x461BCD PUSH1 0xE5 SHL DUP2 MSTORE PUSH1 0x4 ADD PUSH2 0xA26 SWAP1 PUSH2 0x3DA3 JUMP JUMPDEST PUSH2 0x2BEC DUP4 PUSH3 0x127500 PUSH2 0x2798 JUMP JUMPDEST PUSH2 0x2BF4 PUSH2 0x2E71 JUMP JUMPDEST GT ISZERO PUSH2 0x2C12 JUMPI PUSH1 0x40 MLOAD PUSH3 0x461BCD PUSH1 0xE5 SHL DUP2 MSTORE PUSH1 0x4 ADD PUSH2 0xA26 SWAP1 PUSH2 0x3C42 JUMP JUMPDEST PUSH1 0x0 DUP2 DUP2 MSTORE PUSH1 0x8 PUSH1 0x20 MSTORE PUSH1 0x40 SWAP1 KECCAK256 DUP1 SLOAD PUSH1 0xFF NOT AND SWAP1 SSTORE DUP5 MLOAD PUSH1 0x60 SWAP1 PUSH2 0x2C38 JUMPI POP DUP4 PUSH2 0x2C64 JUMP JUMPDEST DUP6 DUP1 MLOAD SWAP1 PUSH1 0x20 ADD KECCAK256 DUP6 PUSH1 0x40 MLOAD PUSH1 0x20 ADD PUSH2 0x2C52 SWAP3 SWAP2 SWAP1 PUSH2 0x36B1 JUMP JUMPDEST PUSH1 0x40 MLOAD PUSH1 0x20 DUP2 DUP4 SUB SUB DUP2 MSTORE SWAP1 PUSH1 0x40 MSTORE SWAP1 POP JUMPDEST PUSH1 0x0 PUSH1 0x60 DUP10 PUSH1 0x1 PUSH1 0x1 PUSH1 0xA0 SHL SUB AND DUP10 DUP5 PUSH1 0x40 MLOAD PUSH2 0x2C81 SWAP2 SWAP1 PUSH2 0x36E2 JUMP JUMPDEST PUSH1 0x0 PUSH1 0x40 MLOAD DUP1 DUP4 SUB DUP2 DUP6 DUP8 GAS CALL SWAP3 POP POP POP RETURNDATASIZE DUP1 PUSH1 0x0 DUP2 EQ PUSH2 0x2CBE JUMPI PUSH1 0x40 MLOAD SWAP2 POP PUSH1 0x1F NOT PUSH1 0x3F RETURNDATASIZE ADD AND DUP3 ADD PUSH1 0x40 MSTORE RETURNDATASIZE DUP3 MSTORE RETURNDATASIZE PUSH1 0x0 PUSH1 0x20 DUP5 ADD RETURNDATACOPY PUSH2 0x2CC3 JUMP JUMPDEST PUSH1 0x60 SWAP2 POP JUMPDEST POP SWAP2 POP SWAP2 POP DUP2 PUSH2 0x2CE5 JUMPI PUSH1 0x40 MLOAD PUSH3 0x461BCD PUSH1 0xE5 SHL DUP2 MSTORE PUSH1 0x4 ADD PUSH2 0xA26 SWAP1 PUSH2 0x43B4 JUMP JUMPDEST DUP10 PUSH1 0x1 PUSH1 0x1 PUSH1 0xA0 SHL SUB AND DUP5 PUSH32 0xA560E3198060A2F10670C1EC5B403077EA6AE93CA8DE1C32B451DC1A943CD6E7 DUP12 DUP12 DUP12 DUP12 PUSH1 0x40 MLOAD PUSH2 0x2D25 SWAP5 SWAP4 SWAP3 SWAP2 SWAP1 PUSH2 0x482A JUMP JUMPDEST PUSH1 0x40 MLOAD DUP1 SWAP2 SUB SWAP1 LOG3 SWAP10 SWAP9 POP POP POP POP POP POP POP POP POP JUMP JUMPDEST PUSH1 0x0 DUP2 DUP4 PUSH2 0x2D5B JUMPI PUSH1 0x40 MLOAD PUSH3 0x461BCD PUSH1 0xE5 SHL DUP2 MSTORE PUSH1 0x4 ADD PUSH2 0xA26 SWAP2 SWAP1 PUSH2 0x38CC JUMP JUMPDEST POP PUSH1 0x0 DUP4 DUP6 DUP2 PUSH2 0x2D67 JUMPI INVALID JUMPDEST DIV SWAP6 SWAP5 POP POP POP POP POP JUMP JUMPDEST PUSH1 0x0 DUP2 DUP5 DUP5 GT ISZERO PUSH2 0x2D95 JUMPI PUSH1 0x40 MLOAD PUSH3 0x461BCD PUSH1 0xE5 SHL DUP2 MSTORE PUSH1 0x4 ADD PUSH2 0xA26 SWAP2 SWAP1 PUSH2 0x38CC JUMP JUMPDEST POP POP POP SWAP1 SUB SWAP1 JUMP JUMPDEST PUSH1 0x0 PUSH2 0x2DB3 PUSH1 0x5 SLOAD PUSH2 0x2DAD PUSH2 0x2E71 JUMP JUMPDEST SWAP1 PUSH2 0x2798 JUMP JUMPDEST DUP3 LT ISZERO PUSH2 0x2DD2 JUMPI PUSH1 0x40 MLOAD PUSH3 0x461BCD PUSH1 0xE5 SHL DUP2 MSTORE PUSH1 0x4 ADD PUSH2 0xA26 SWAP1 PUSH2 0x452B JUMP JUMPDEST PUSH1 0x0 DUP7 DUP7 DUP7 DUP7 DUP7 PUSH1 0x40 MLOAD PUSH1 0x20 ADD PUSH2 0x2DED SWAP6 SWAP5 SWAP4 SWAP3 SWAP2 SWAP1 PUSH2 0x37D5 JUMP JUMPDEST PUSH1 0x40 DUP1 MLOAD PUSH1 0x1F NOT DUP2 DUP5 SUB ADD DUP2 MSTORE DUP3 DUP3 MSTORE DUP1 MLOAD PUSH1 0x20 SWAP2 DUP3 ADD KECCAK256 PUSH1 0x0 DUP2 DUP2 MSTORE PUSH1 0x8 SWAP1 SWAP3 MSTORE SWAP2 SWAP1 KECCAK256 DUP1 SLOAD PUSH1 0xFF NOT AND PUSH1 0x1 OR SWAP1 SSTORE SWAP2 POP PUSH1 0x1 PUSH1 0x1 PUSH1 0xA0 SHL SUB DUP9 AND SWAP1 DUP3 SWAP1 PUSH32 0x76E2796DC3A81D57B0E8504B647FEBCBEEB5F4AF818E164F11EEF8131A6A763F SWAP1 PUSH2 0x2E5F SWAP1 DUP11 SWAP1 DUP11 SWAP1 DUP11 SWAP1 DUP11 SWAP1 PUSH2 0x482A JUMP JUMPDEST PUSH1 0x40 MLOAD DUP1 SWAP2 SUB SWAP1 LOG3 SWAP7 SWAP6 POP POP POP POP POP POP JUMP JUMPDEST TIMESTAMP SWAP1 JUMP JUMPDEST PUSH1 0x40 DUP1 MLOAD PUSH1 0x60 DUP2 ADD DUP3 MSTORE PUSH1 0x0 DUP1 DUP3 MSTORE PUSH1 0x20 DUP3 ADD DUP2 SWAP1 MSTORE SWAP2 DUP2 ADD SWAP2 SWAP1 SWAP2 MSTORE SWAP1 JUMP JUMPDEST PUSH1 0x40 MLOAD DUP1 PUSH2 0x1A0 ADD PUSH1 0x40 MSTORE DUP1 PUSH1 0x0 DUP2 MSTORE PUSH1 0x20 ADD PUSH1 0x0 PUSH1 0x1 PUSH1 0x1 PUSH1 0xA0 SHL SUB AND DUP2 MSTORE PUSH1 0x20 ADD PUSH1 0x0 DUP2 MSTORE PUSH1 0x20 ADD PUSH1 0x60 DUP2 MSTORE PUSH1 0x20 ADD PUSH1 0x60 DUP2 MSTORE PUSH1 0x20 ADD PUSH1 0x60 DUP2 MSTORE PUSH1 0x20 ADD PUSH1 0x60 DUP2 MSTORE PUSH1 0x20 ADD PUSH1 0x0 DUP2 MSTORE PUSH1 0x20 ADD PUSH1 0x0 DUP2 MSTORE PUSH1 0x20 ADD PUSH1 0x0 DUP2 MSTORE PUSH1 0x20 ADD PUSH1 0x0 DUP2 MSTORE PUSH1 0x20 ADD PUSH1 0x0 ISZERO ISZERO DUP2 MSTORE PUSH1 0x20 ADD PUSH1 0x0 ISZERO ISZERO DUP2 MSTORE POP SWAP1 JUMP JUMPDEST DUP3 DUP1 SLOAD DUP3 DUP3 SSTORE SWAP1 PUSH1 0x0 MSTORE PUSH1 0x20 PUSH1 0x0 KECCAK256 SWAP1 DUP2 ADD SWAP3 DUP3 ISZERO PUSH2 0x2F5F JUMPI SWAP2 PUSH1 0x20 MUL DUP3 ADD JUMPDEST DUP3 DUP2 GT ISZERO PUSH2 0x2F5F JUMPI DUP3 MLOAD DUP3 SLOAD PUSH1 0x1 PUSH1 0x1 PUSH1 0xA0 SHL SUB NOT AND PUSH1 0x1 PUSH1 0x1 PUSH1 0xA0 SHL SUB SWAP1 SWAP2 AND OR DUP3 SSTORE PUSH1 0x20 SWAP1 SWAP3 ADD SWAP2 PUSH1 0x1 SWAP1 SWAP2 ADD SWAP1 PUSH2 0x2F2A JUMP JUMPDEST POP PUSH2 0x2F6B SWAP3 SWAP2 POP PUSH2 0x3068 JUMP JUMPDEST POP SWAP1 JUMP JUMPDEST DUP3 DUP1 SLOAD DUP3 DUP3 SSTORE SWAP1 PUSH1 0x0 MSTORE PUSH1 0x20 PUSH1 0x0 KECCAK256 SWAP1 DUP2 ADD SWAP3 DUP3 ISZERO PUSH2 0x2FAA JUMPI SWAP2 PUSH1 0x20 MUL DUP3 ADD JUMPDEST DUP3 DUP2 GT ISZERO PUSH2 0x2FAA JUMPI DUP3 MLOAD DUP3 SSTORE SWAP2 PUSH1 0x20 ADD SWAP2 SWAP1 PUSH1 0x1 ADD SWAP1 PUSH2 0x2F8F JUMP JUMPDEST POP PUSH2 0x2F6B SWAP3 SWAP2 POP PUSH2 0x3087 JUMP JUMPDEST DUP3 DUP1 SLOAD DUP3 DUP3 SSTORE SWAP1 PUSH1 0x0 MSTORE PUSH1 0x20 PUSH1 0x0 KECCAK256 SWAP1 DUP2 ADD SWAP3 DUP3 ISZERO PUSH2 0x3003 JUMPI SWAP2 PUSH1 0x20 MUL DUP3 ADD JUMPDEST DUP3 DUP2 GT ISZERO PUSH2 0x3003 JUMPI DUP3 MLOAD DUP1 MLOAD PUSH2 0x2FF3 SWAP2 DUP5 SWAP2 PUSH1 0x20 SWAP1 SWAP2 ADD SWAP1 PUSH2 0x309C JUMP JUMPDEST POP SWAP2 PUSH1 0x20 ADD SWAP2 SWAP1 PUSH1 0x1 ADD SWAP1 PUSH2 0x2FD6 JUMP JUMPDEST POP PUSH2 0x2F6B SWAP3 SWAP2 POP PUSH2 0x3109 JUMP JUMPDEST DUP3 DUP1 SLOAD DUP3 DUP3 SSTORE SWAP1 PUSH1 0x0 MSTORE PUSH1 0x20 PUSH1 0x0 KECCAK256 SWAP1 DUP2 ADD SWAP3 DUP3 ISZERO PUSH2 0x305C JUMPI SWAP2 PUSH1 0x20 MUL DUP3 ADD JUMPDEST DUP3 DUP2 GT ISZERO PUSH2 0x305C JUMPI DUP3 MLOAD DUP1 MLOAD PUSH2 0x304C SWAP2 DUP5 SWAP2 PUSH1 0x20 SWAP1 SWAP2 ADD SWAP1 PUSH2 0x309C JUMP JUMPDEST POP SWAP2 PUSH1 0x20 ADD SWAP2 SWAP1 PUSH1 0x1 ADD SWAP1 PUSH2 0x302F JUMP JUMPDEST POP PUSH2 0x2F6B SWAP3 SWAP2 POP PUSH2 0x3126 JUMP JUMPDEST JUMPDEST DUP1 DUP3 GT ISZERO PUSH2 0x2F6B JUMPI DUP1 SLOAD PUSH1 0x1 PUSH1 0x1 PUSH1 0xA0 SHL SUB NOT AND DUP2 SSTORE PUSH1 0x1 ADD PUSH2 0x3069 JUMP JUMPDEST JUMPDEST DUP1 DUP3 GT ISZERO PUSH2 0x2F6B JUMPI PUSH1 0x0 DUP2 SSTORE PUSH1 0x1 ADD PUSH2 0x3088 JUMP JUMPDEST DUP3 DUP1 SLOAD PUSH1 0x1 DUP2 PUSH1 0x1 AND ISZERO PUSH2 0x100 MUL SUB AND PUSH1 0x2 SWAP1 DIV SWAP1 PUSH1 0x0 MSTORE PUSH1 0x20 PUSH1 0x0 KECCAK256 SWAP1 PUSH1 0x1F ADD PUSH1 0x20 SWAP1 DIV DUP2 ADD SWAP3 DUP3 PUSH1 0x1F LT PUSH2 0x30DD JUMPI DUP1 MLOAD PUSH1 0xFF NOT AND DUP4 DUP1 ADD OR DUP6 SSTORE PUSH2 0x2FAA JUMP JUMPDEST DUP3 DUP1 ADD PUSH1 0x1 ADD DUP6 SSTORE DUP3 ISZERO PUSH2 0x2FAA JUMPI SWAP2 DUP3 ADD DUP3 DUP2 GT ISZERO PUSH2 0x2FAA JUMPI DUP3 MLOAD DUP3 SSTORE SWAP2 PUSH1 0x20 ADD SWAP2 SWAP1 PUSH1 0x1 ADD SWAP1 PUSH2 0x2F8F JUMP JUMPDEST DUP1 DUP3 GT ISZERO PUSH2 0x2F6B JUMPI PUSH1 0x0 PUSH2 0x311D DUP3 DUP3 PUSH2 0x3143 JUMP JUMPDEST POP PUSH1 0x1 ADD PUSH2 0x3109 JUMP JUMPDEST DUP1 DUP3 GT ISZERO PUSH2 0x2F6B JUMPI PUSH1 0x0 PUSH2 0x313A DUP3 DUP3 PUSH2 0x3143 JUMP JUMPDEST POP PUSH1 0x1 ADD PUSH2 0x3126 JUMP JUMPDEST POP DUP1 SLOAD PUSH1 0x1 DUP2 PUSH1 0x1 AND ISZERO PUSH2 0x100 MUL SUB AND PUSH1 0x2 SWAP1 DIV PUSH1 0x0 DUP3 SSTORE DUP1 PUSH1 0x1F LT PUSH2 0x3169 JUMPI POP PUSH2 0x3187 JUMP JUMPDEST PUSH1 0x1F ADD PUSH1 0x20 SWAP1 DIV SWAP1 PUSH1 0x0 MSTORE PUSH1 0x20 PUSH1 0x0 KECCAK256 SWAP1 DUP2 ADD SWAP1 PUSH2 0x3187 SWAP2 SWAP1 PUSH2 0x3087 JUMP JUMPDEST POP JUMP JUMPDEST DUP1 CALLDATALOAD PUSH1 0x1 PUSH1 0x1 PUSH1 0xA0 SHL SUB DUP2 AND DUP2 EQ PUSH2 0x219A JUMPI PUSH1 0x0 DUP1 REVERT JUMPDEST PUSH1 0x0 DUP3 PUSH1 0x1F DUP4 ADD SLT PUSH2 0x31B1 JUMPI DUP1 DUP2 REVERT JUMPDEST DUP2 CALLDATALOAD PUSH2 0x31C4 PUSH2 0x31BF DUP3 PUSH2 0x489C JUMP JUMPDEST PUSH2 0x4875 JUMP JUMPDEST DUP2 DUP2 MSTORE SWAP2 POP PUSH1 0x20 DUP1 DUP4 ADD SWAP1 DUP5 DUP2 ADD DUP2 DUP5 MUL DUP7 ADD DUP3 ADD DUP8 LT ISZERO PUSH2 0x31E5 JUMPI PUSH1 0x0 DUP1 REVERT JUMPDEST PUSH1 0x0 JUMPDEST DUP5 DUP2 LT ISZERO PUSH2 0x320C JUMPI PUSH2 0x31FA DUP9 DUP4 PUSH2 0x318A JUMP JUMPDEST DUP5 MSTORE SWAP3 DUP3 ADD SWAP3 SWAP1 DUP3 ADD SWAP1 PUSH1 0x1 ADD PUSH2 0x31E8 JUMP JUMPDEST POP POP POP POP POP SWAP3 SWAP2 POP POP JUMP JUMPDEST PUSH1 0x0 DUP3 PUSH1 0x1F DUP4 ADD SLT PUSH2 0x3227 JUMPI DUP1 DUP2 REVERT JUMPDEST DUP2 CALLDATALOAD PUSH2 0x3235 PUSH2 0x31BF DUP3 PUSH2 0x489C JUMP JUMPDEST DUP2 DUP2 MSTORE SWAP2 POP PUSH1 0x20 DUP1 DUP4 ADD SWAP1 DUP5 DUP2 ADD PUSH1 0x0 JUMPDEST DUP5 DUP2 LT ISZERO PUSH2 0x320C JUMPI PUSH2 0x325D DUP9 DUP5 DUP5 CALLDATALOAD DUP11 ADD ADD PUSH2 0x3325 JUMP JUMPDEST DUP5 MSTORE SWAP3 DUP3 ADD SWAP3 SWAP1 DUP3 ADD SWAP1 PUSH1 0x1 ADD PUSH2 0x3246 JUMP JUMPDEST PUSH1 0x0 DUP3 PUSH1 0x1F DUP4 ADD SLT PUSH2 0x327F JUMPI DUP1 DUP2 REVERT JUMPDEST DUP2 CALLDATALOAD PUSH2 0x328D PUSH2 0x31BF DUP3 PUSH2 0x489C JUMP JUMPDEST DUP2 DUP2 MSTORE SWAP2 POP PUSH1 0x20 DUP1 DUP4 ADD SWAP1 DUP5 DUP2 ADD PUSH1 0x0 JUMPDEST DUP5 DUP2 LT ISZERO PUSH2 0x320C JUMPI PUSH2 0x32B5 DUP9 DUP5 DUP5 CALLDATALOAD DUP11 ADD ADD PUSH2 0x3325 JUMP JUMPDEST DUP5 MSTORE SWAP3 DUP3 ADD SWAP3 SWAP1 DUP3 ADD SWAP1 PUSH1 0x1 ADD PUSH2 0x329E JUMP JUMPDEST PUSH1 0x0 DUP3 PUSH1 0x1F DUP4 ADD SLT PUSH2 0x32D7 JUMPI DUP1 DUP2 REVERT JUMPDEST DUP2 CALLDATALOAD PUSH2 0x32E5 PUSH2 0x31BF DUP3 PUSH2 0x489C JUMP JUMPDEST DUP2 DUP2 MSTORE SWAP2 POP PUSH1 0x20 DUP1 DUP4 ADD SWAP1 DUP5 DUP2 ADD DUP2 DUP5 MUL DUP7 ADD DUP3 ADD DUP8 LT ISZERO PUSH2 0x3306 JUMPI PUSH1 0x0 DUP1 REVERT JUMPDEST PUSH1 0x0 JUMPDEST DUP5 DUP2 LT ISZERO PUSH2 0x320C JUMPI DUP2 CALLDATALOAD DUP5 MSTORE SWAP3 DUP3 ADD SWAP3 SWAP1 DUP3 ADD SWAP1 PUSH1 0x1 ADD PUSH2 0x3309 JUMP JUMPDEST PUSH1 0x0 DUP3 PUSH1 0x1F DUP4 ADD SLT PUSH2 0x3335 JUMPI DUP1 DUP2 REVERT JUMPDEST DUP2 CALLDATALOAD PUSH8 0xFFFFFFFFFFFFFFFF DUP2 GT ISZERO PUSH2 0x334B JUMPI DUP2 DUP3 REVERT JUMPDEST PUSH2 0x335E PUSH1 0x1F DUP3 ADD PUSH1 0x1F NOT AND PUSH1 0x20 ADD PUSH2 0x4875 JUMP JUMPDEST SWAP2 POP DUP1 DUP3 MSTORE DUP4 PUSH1 0x20 DUP3 DUP6 ADD ADD GT ISZERO PUSH2 0x3375 JUMPI PUSH1 0x0 DUP1 REVERT JUMPDEST DUP1 PUSH1 0x20 DUP5 ADD PUSH1 0x20 DUP5 ADD CALLDATACOPY PUSH1 0x0 SWAP1 DUP3 ADD PUSH1 0x20 ADD MSTORE SWAP3 SWAP2 POP POP JUMP JUMPDEST PUSH1 0x0 PUSH1 0x20 DUP3 DUP5 SUB SLT ISZERO PUSH2 0x339F JUMPI DUP1 DUP2 REVERT JUMPDEST PUSH2 0x274F DUP4 DUP4 PUSH2 0x318A JUMP JUMPDEST PUSH1 0x0 DUP1 PUSH1 0x0 PUSH1 0x60 DUP5 DUP7 SUB SLT ISZERO PUSH2 0x33BD JUMPI DUP2 DUP3 REVERT JUMPDEST DUP4 CALLDATALOAD PUSH2 0x33C8 DUP2 PUSH2 0x48E8 JUMP JUMPDEST SWAP3 POP PUSH1 0x20 DUP5 ADD CALLDATALOAD PUSH2 0x33D8 DUP2 PUSH2 0x48E8 JUMP JUMPDEST SWAP3 SWAP6 SWAP3 SWAP5 POP POP POP PUSH1 0x40 SWAP2 SWAP1 SWAP2 ADD CALLDATALOAD SWAP1 JUMP JUMPDEST PUSH1 0x0 DUP1 PUSH1 0x40 DUP4 DUP6 SUB SLT ISZERO PUSH2 0x33FB JUMPI DUP2 DUP3 REVERT JUMPDEST PUSH2 0x3405 DUP5 DUP5 PUSH2 0x318A JUMP JUMPDEST SWAP5 PUSH1 0x20 SWAP4 SWAP1 SWAP4 ADD CALLDATALOAD SWAP4 POP POP POP JUMP JUMPDEST PUSH1 0x0 DUP1 PUSH1 0x0 DUP1 PUSH1 0x0 PUSH1 0xA0 DUP7 DUP9 SUB SLT ISZERO PUSH2 0x342A JUMPI DUP1 DUP2 REVERT JUMPDEST DUP6 CALLDATALOAD PUSH8 0xFFFFFFFFFFFFFFFF DUP1 DUP3 GT ISZERO PUSH2 0x3441 JUMPI DUP3 DUP4 REVERT JUMPDEST PUSH2 0x344D DUP10 DUP4 DUP11 ADD PUSH2 0x31A1 JUMP JUMPDEST SWAP7 POP PUSH1 0x20 DUP9 ADD CALLDATALOAD SWAP2 POP DUP1 DUP3 GT ISZERO PUSH2 0x3462 JUMPI DUP3 DUP4 REVERT JUMPDEST PUSH2 0x346E DUP10 DUP4 DUP11 ADD PUSH2 0x32C7 JUMP JUMPDEST SWAP6 POP PUSH1 0x40 DUP9 ADD CALLDATALOAD SWAP2 POP DUP1 DUP3 GT ISZERO PUSH2 0x3483 JUMPI DUP3 DUP4 REVERT JUMPDEST PUSH2 0x348F DUP10 DUP4 DUP11 ADD PUSH2 0x326F JUMP JUMPDEST SWAP5 POP PUSH1 0x60 DUP9 ADD CALLDATALOAD SWAP2 POP DUP1 DUP3 GT ISZERO PUSH2 0x34A4 JUMPI DUP3 DUP4 REVERT JUMPDEST PUSH2 0x34B0 DUP10 DUP4 DUP11 ADD PUSH2 0x3217 JUMP JUMPDEST SWAP4 POP PUSH1 0x80 DUP9 ADD CALLDATALOAD SWAP2 POP DUP1 DUP3 GT ISZERO PUSH2 0x34C5 JUMPI DUP3 DUP4 REVERT JUMPDEST POP PUSH2 0x34D2 DUP9 DUP3 DUP10 ADD PUSH2 0x3325 JUMP JUMPDEST SWAP2 POP POP SWAP3 SWAP6 POP SWAP3 SWAP6 SWAP1 SWAP4 POP JUMP JUMPDEST PUSH1 0x0 PUSH1 0x20 DUP3 DUP5 SUB SLT ISZERO PUSH2 0x34F0 JUMPI DUP1 DUP2 REVERT JUMPDEST POP CALLDATALOAD SWAP2 SWAP1 POP JUMP JUMPDEST PUSH1 0x0 PUSH1 0x20 DUP3 DUP5 SUB SLT ISZERO PUSH2 0x3508 JUMPI DUP1 DUP2 REVERT JUMPDEST POP MLOAD SWAP2 SWAP1 POP JUMP JUMPDEST PUSH1 0x0 DUP1 PUSH1 0x40 DUP4 DUP6 SUB SLT ISZERO PUSH2 0x3521 JUMPI DUP2 DUP3 REVERT JUMPDEST DUP3 CALLDATALOAD SWAP2 POP PUSH2 0x3532 DUP5 PUSH1 0x20 DUP6 ADD PUSH2 0x318A JUMP JUMPDEST SWAP1 POP SWAP3 POP SWAP3 SWAP1 POP JUMP JUMPDEST PUSH1 0x0 DUP1 PUSH1 0x40 DUP4 DUP6 SUB SLT ISZERO PUSH2 0x354D JUMPI DUP2 DUP3 REVERT JUMPDEST DUP3 CALLDATALOAD SWAP2 POP PUSH1 0x20 DUP4 ADD CALLDATALOAD PUSH2 0x355F DUP2 PUSH2 0x48FD JUMP JUMPDEST DUP1 SWAP2 POP POP SWAP3 POP SWAP3 SWAP1 POP JUMP JUMPDEST PUSH1 0x0 DUP1 PUSH1 0x0 DUP1 PUSH1 0x0 PUSH1 0xA0 DUP7 DUP9 SUB SLT ISZERO PUSH2 0x3581 JUMPI DUP3 DUP4 REVERT JUMPDEST DUP6 CALLDATALOAD SWAP5 POP PUSH1 0x20 DUP7 ADD CALLDATALOAD PUSH2 0x3593 DUP2 PUSH2 0x48FD JUMP JUMPDEST SWAP4 POP PUSH1 0x40 DUP7 ADD CALLDATALOAD PUSH1 0xFF DUP2 AND DUP2 EQ PUSH2 0x35A8 JUMPI DUP4 DUP5 REVERT JUMPDEST SWAP5 SWAP8 SWAP4 SWAP7 POP SWAP4 SWAP5 PUSH1 0x60 DUP2 ADD CALLDATALOAD SWAP5 POP PUSH1 0x80 ADD CALLDATALOAD SWAP3 SWAP2 POP POP JUMP JUMPDEST PUSH1 0x0 DUP2 MLOAD DUP1 DUP5 MSTORE PUSH1 0x20 DUP1 DUP6 ADD SWAP5 POP DUP1 DUP5 ADD DUP4 JUMPDEST DUP4 DUP2 LT ISZERO PUSH2 0x35F8 JUMPI DUP2 MLOAD PUSH1 0x1 PUSH1 0x1 PUSH1 0xA0 SHL SUB AND DUP8 MSTORE SWAP6 DUP3 ADD SWAP6 SWAP1 DUP3 ADD SWAP1 PUSH1 0x1 ADD PUSH2 0x35D3 JUMP JUMPDEST POP SWAP5 SWAP6 SWAP5 POP POP POP POP POP JUMP JUMPDEST PUSH1 0x0 DUP2 MLOAD DUP1 DUP5 MSTORE PUSH1 0x20 DUP1 DUP6 ADD DUP1 DUP2 SWAP7 POP DUP3 DUP5 MUL DUP2 ADD SWAP2 POP DUP3 DUP7 ADD DUP6 JUMPDEST DUP6 DUP2 LT ISZERO PUSH2 0x3649 JUMPI DUP3 DUP5 SUB DUP10 MSTORE PUSH2 0x3637 DUP5 DUP4 MLOAD PUSH2 0x3685 JUMP JUMPDEST SWAP9 DUP6 ADD SWAP9 SWAP4 POP SWAP1 DUP5 ADD SWAP1 PUSH1 0x1 ADD PUSH2 0x361F JUMP JUMPDEST POP SWAP2 SWAP8 SWAP7 POP POP POP POP POP POP POP JUMP JUMPDEST PUSH1 0x0 DUP2 MLOAD DUP1 DUP5 MSTORE PUSH1 0x20 DUP1 DUP6 ADD SWAP5 POP DUP1 DUP5 ADD DUP4 JUMPDEST DUP4 DUP2 LT ISZERO PUSH2 0x35F8 JUMPI DUP2 MLOAD DUP8 MSTORE SWAP6 DUP3 ADD SWAP6 SWAP1 DUP3 ADD SWAP1 PUSH1 0x1 ADD PUSH2 0x3669 JUMP JUMPDEST PUSH1 0x0 DUP2 MLOAD DUP1 DUP5 MSTORE PUSH2 0x369D DUP2 PUSH1 0x20 DUP7 ADD PUSH1 0x20 DUP7 ADD PUSH2 0x48BC JUMP JUMPDEST PUSH1 0x1F ADD PUSH1 0x1F NOT AND SWAP3 SWAP1 SWAP3 ADD PUSH1 0x20 ADD SWAP3 SWAP2 POP POP JUMP JUMPDEST PUSH1 0x1 PUSH1 0x1 PUSH1 0xE0 SHL SUB NOT DUP4 AND DUP2 MSTORE DUP2 MLOAD PUSH1 0x0 SWAP1 PUSH2 0x36D4 DUP2 PUSH1 0x4 DUP6 ADD PUSH1 0x20 DUP8 ADD PUSH2 0x48BC JUMP JUMPDEST SWAP2 SWAP1 SWAP2 ADD PUSH1 0x4 ADD SWAP4 SWAP3 POP POP POP JUMP JUMPDEST PUSH1 0x0 DUP3 MLOAD PUSH2 0x36F4 DUP2 DUP5 PUSH1 0x20 DUP8 ADD PUSH2 0x48BC JUMP JUMPDEST SWAP2 SWAP1 SWAP2 ADD SWAP3 SWAP2 POP POP JUMP JUMPDEST PUSH2 0x1901 PUSH1 0xF0 SHL DUP2 MSTORE PUSH1 0x2 DUP2 ADD SWAP3 SWAP1 SWAP3 MSTORE PUSH1 0x22 DUP3 ADD MSTORE PUSH1 0x42 ADD SWAP1 JUMP JUMPDEST PUSH32 0x476F7665726E616E63653A3A70726F706F73654A6F6228293A20000000000000 DUP2 MSTORE PUSH1 0x60 SWAP2 SWAP1 SWAP2 SHL PUSH12 0xFFFFFFFFFFFFFFFFFFFFFFFF NOT AND PUSH1 0x1A DUP3 ADD MSTORE PUSH1 0x2E ADD SWAP1 JUMP JUMPDEST PUSH1 0x1 PUSH1 0x1 PUSH1 0xA0 SHL SUB SWAP2 SWAP1 SWAP2 AND DUP2 MSTORE PUSH1 0x20 ADD SWAP1 JUMP JUMPDEST PUSH1 0x1 PUSH1 0x1 PUSH1 0xA0 SHL SUB SWAP3 SWAP1 SWAP3 AND DUP3 MSTORE PUSH1 0x20 DUP3 ADD MSTORE PUSH1 0x40 ADD SWAP1 JUMP JUMPDEST PUSH1 0x1 PUSH1 0x1 PUSH1 0xA0 SHL SUB SWAP4 DUP5 AND DUP2 MSTORE SWAP2 SWAP1 SWAP3 AND PUSH1 0x20 DUP3 ADD MSTORE PUSH1 0x40 DUP2 ADD SWAP2 SWAP1 SWAP2 MSTORE PUSH1 0x60 ADD SWAP1 JUMP JUMPDEST PUSH1 0x1 PUSH1 0x1 PUSH1 0xA0 SHL SUB SWAP5 SWAP1 SWAP5 AND DUP5 MSTORE PUSH1 0x20 DUP5 ADD SWAP3 SWAP1 SWAP3 MSTORE ISZERO ISZERO PUSH1 0x40 DUP4 ADD MSTORE PUSH1 0x60 DUP3 ADD MSTORE PUSH1 0x80 ADD SWAP1 JUMP JUMPDEST PUSH1 0x0 PUSH1 0x1 DUP1 PUSH1 0xA0 SHL SUB DUP8 AND DUP3 MSTORE DUP6 PUSH1 0x20 DUP4 ADD MSTORE PUSH1 0xA0 PUSH1 0x40 DUP4 ADD MSTORE PUSH2 0x37FC PUSH1 0xA0 DUP4 ADD DUP7 PUSH2 0x3685 JUMP JUMPDEST DUP3 DUP2 SUB PUSH1 0x60 DUP5 ADD MSTORE PUSH2 0x380E DUP2 DUP7 PUSH2 0x3685 JUMP JUMPDEST SWAP2 POP POP DUP3 PUSH1 0x80 DUP4 ADD MSTORE SWAP7 SWAP6 POP POP POP POP POP POP JUMP JUMPDEST PUSH1 0x0 PUSH1 0x80 DUP3 MSTORE PUSH2 0x3834 PUSH1 0x80 DUP4 ADD DUP8 PUSH2 0x35C0 JUMP JUMPDEST DUP3 DUP2 SUB PUSH1 0x20 DUP5 ADD MSTORE PUSH2 0x3846 DUP2 DUP8 PUSH2 0x3656 JUMP JUMPDEST SWAP1 POP DUP3 DUP2 SUB PUSH1 0x40 DUP5 ADD MSTORE PUSH2 0x385A DUP2 DUP7 PUSH2 0x3603 JUMP JUMPDEST SWAP1 POP DUP3 DUP2 SUB PUSH1 0x60 DUP5 ADD MSTORE PUSH2 0x1C6C DUP2 DUP6 PUSH2 0x3603 JUMP JUMPDEST SWAP1 ISZERO ISZERO DUP2 MSTORE PUSH1 0x20 ADD SWAP1 JUMP JUMPDEST SWAP1 DUP2 MSTORE PUSH1 0x20 ADD SWAP1 JUMP JUMPDEST SWAP3 DUP4 MSTORE PUSH1 0x20 DUP4 ADD SWAP2 SWAP1 SWAP2 MSTORE ISZERO ISZERO PUSH1 0x40 DUP3 ADD MSTORE PUSH1 0x60 ADD SWAP1 JUMP JUMPDEST SWAP4 DUP5 MSTORE PUSH1 0xFF SWAP3 SWAP1 SWAP3 AND PUSH1 0x20 DUP5 ADD MSTORE PUSH1 0x40 DUP4 ADD MSTORE PUSH1 0x60 DUP3 ADD MSTORE PUSH1 0x80 ADD SWAP1 JUMP JUMPDEST PUSH1 0x20 DUP2 ADD PUSH1 0x8 DUP4 LT PUSH2 0x38C6 JUMPI INVALID JUMPDEST SWAP2 SWAP1 MSTORE SWAP1 JUMP JUMPDEST PUSH1 0x0 PUSH1 0x20 DUP3 MSTORE PUSH2 0x274F PUSH1 0x20 DUP4 ADD DUP5 PUSH2 0x3685 JUMP JUMPDEST PUSH1 0x20 DUP1 DUP3 MSTORE PUSH1 0x23 SWAP1 DUP3 ADD MSTORE PUSH32 0x4C6F636B3372476F7665726E616E63653A3A7265766F6B653A20216775617264 PUSH1 0x40 DUP3 ADD MSTORE PUSH3 0x34B0B7 PUSH1 0xE9 SHL PUSH1 0x60 DUP3 ADD MSTORE PUSH1 0x80 ADD SWAP1 JUMP JUMPDEST PUSH1 0x20 DUP1 DUP3 MSTORE PUSH1 0x28 SWAP1 DUP3 ADD MSTORE PUSH32 0x4C6F636B3372476F7665726E616E63653A3A736574477561726469616E3A2021 PUSH1 0x40 DUP3 ADD MSTORE PUSH8 0x33BAB0B93234B0B7 PUSH1 0xC1 SHL PUSH1 0x60 DUP3 ADD MSTORE PUSH1 0x80 ADD SWAP1 JUMP JUMPDEST PUSH1 0x20 DUP1 DUP3 MSTORE PUSH1 0x24 SWAP1 DUP3 ADD MSTORE PUSH32 0x4C6F636B3372476F7665726E616E63653A3A7265736F6C76653A202167756172 PUSH1 0x40 DUP3 ADD MSTORE PUSH4 0x3234B0B7 PUSH1 0xE1 SHL PUSH1 0x60 DUP3 ADD MSTORE PUSH1 0x80 ADD SWAP1 JUMP JUMPDEST PUSH1 0x20 DUP1 DUP3 MSTORE PUSH1 0x24 SWAP1 DUP3 ADD MSTORE PUSH32 0x4C6F636B3372476F7665726E616E63653A3A646973707574653A202167756172 PUSH1 0x40 DUP3 ADD MSTORE PUSH4 0x3234B0B7 PUSH1 0xE1 SHL PUSH1 0x60 DUP3 ADD MSTORE PUSH1 0x80 ADD SWAP1 JUMP JUMPDEST PUSH1 0x20 DUP1 DUP3 MSTORE PUSH1 0x55 SWAP1 DUP3 ADD MSTORE PUSH32 0x476F7665726E616E63653A3A70726F706F73653A206F6E65206C697665207072 PUSH1 0x40 DUP3 ADD MSTORE PUSH32 0x6F706F73616C207065722070726F706F7365722C20666F756E6420616E20616C PUSH1 0x60 DUP3 ADD MSTORE PUSH21 0x1C9958591E481858DD1A5D99481C1C9BDC1BDCD85B PUSH1 0x5A SHL PUSH1 0x80 DUP3 ADD MSTORE PUSH1 0xA0 ADD SWAP1 JUMP JUMPDEST PUSH1 0x20 DUP1 DUP3 MSTORE PUSH1 0x26 SWAP1 DUP3 ADD MSTORE PUSH32 0x4C6F636B3372476F7665726E616E63653A3A72656D6F76654A6F623A20216775 PUSH1 0x40 DUP3 ADD MSTORE PUSH6 0x30B93234B0B7 PUSH1 0xD1 SHL PUSH1 0x60 DUP3 ADD MSTORE PUSH1 0x80 ADD SWAP1 JUMP JUMPDEST PUSH1 0x20 DUP1 DUP3 MSTORE PUSH1 0x41 SWAP1 DUP3 ADD MSTORE PUSH32 0x476F7665726E616E63653A3A70726F706F73653A2070726F706F73616C206675 PUSH1 0x40 DUP3 ADD MSTORE PUSH32 0x6E6374696F6E20696E666F726D6174696F6E206172697479206D69736D617463 PUSH1 0x60 DUP3 ADD MSTORE PUSH1 0xD PUSH1 0xFB SHL PUSH1 0x80 DUP3 ADD MSTORE PUSH1 0xA0 ADD SWAP1 JUMP JUMPDEST PUSH1 0x20 DUP1 DUP3 MSTORE PUSH1 0x2B SWAP1 DUP3 ADD MSTORE PUSH32 0x476F7665726E616E63653A3A7365745468726573686F6C643A20746872657368 PUSH1 0x40 DUP3 ADD MSTORE PUSH11 0x6F6C645F203E2042415345 PUSH1 0xA8 SHL PUSH1 0x60 DUP3 ADD MSTORE PUSH1 0x80 ADD SWAP1 JUMP JUMPDEST PUSH1 0x20 DUP1 DUP3 MSTORE PUSH1 0x2A SWAP1 DUP3 ADD MSTORE PUSH32 0x4C6F636B3372476F7665726E616E63653A3A736574476F7665726E616E63653A PUSH1 0x40 DUP3 ADD MSTORE PUSH10 0x1010B3BAB0B93234B0B7 PUSH1 0xB1 SHL PUSH1 0x60 DUP3 ADD MSTORE PUSH1 0x80 ADD SWAP1 JUMP JUMPDEST PUSH1 0x20 DUP1 DUP3 MSTORE PUSH1 0x27 SWAP1 DUP3 ADD MSTORE PUSH32 0x476F7665726E616E63653A3A5F63617374566F74653A20766F74696E67206973 PUSH1 0x40 DUP3 ADD MSTORE PUSH7 0x818DB1BDCD959 PUSH1 0xCA SHL PUSH1 0x60 DUP3 ADD MSTORE PUSH1 0x80 ADD SWAP1 JUMP JUMPDEST PUSH1 0x20 DUP1 DUP3 MSTORE PUSH1 0x2C SWAP1 DUP3 ADD MSTORE PUSH32 0x4C6F636B3372476F7665726E616E63653A3A7265766F6B654C69717569646974 PUSH1 0x40 DUP3 ADD MSTORE PUSH12 0x3C9D1010B3BAB0B93234B0B7 PUSH1 0xA1 SHL PUSH1 0x60 DUP3 ADD MSTORE PUSH1 0x80 ADD SWAP1 JUMP JUMPDEST PUSH1 0x20 DUP1 DUP3 MSTORE PUSH1 0x33 SWAP1 DUP3 ADD MSTORE PUSH1 0x0 DUP1 MLOAD PUSH1 0x20 PUSH2 0x490C DUP4 CODECOPY DUP2 MLOAD SWAP2 MSTORE PUSH1 0x40 DUP3 ADD MSTORE PUSH19 0x30B739B0B1BA34B7B71034B99039BA30B63297 PUSH1 0x69 SHL PUSH1 0x60 DUP3 ADD MSTORE PUSH1 0x80 ADD SWAP1 JUMP JUMPDEST PUSH1 0x20 DUP1 DUP3 MSTORE PUSH1 0x3C SWAP1 DUP3 ADD MSTORE PUSH32 0x476F7665726E616E63653A3A70726F706F73653A2070726F706F73657220766F PUSH1 0x40 DUP3 ADD MSTORE PUSH32 0x7465732062656C6F772070726F706F73616C207468726573686F6C6400000000 PUSH1 0x60 DUP3 ADD MSTORE PUSH1 0x80 ADD SWAP1 JUMP JUMPDEST PUSH1 0x20 DUP1 DUP3 MSTORE PUSH1 0x23 SWAP1 DUP3 ADD MSTORE PUSH32 0x4C6F636B3372476F7665726E616E63653A3A6164644A6F623A20216775617264 PUSH1 0x40 DUP3 ADD MSTORE PUSH3 0x34B0B7 PUSH1 0xE9 SHL PUSH1 0x60 DUP3 ADD MSTORE PUSH1 0x80 ADD SWAP1 JUMP JUMPDEST PUSH1 0x20 DUP1 DUP3 MSTORE PUSH1 0x1B SWAP1 DUP3 ADD MSTORE PUSH32 0x536166654D6174683A206164646974696F6E206F766572666C6F770000000000 PUSH1 0x40 DUP3 ADD MSTORE PUSH1 0x60 ADD SWAP1 JUMP JUMPDEST PUSH1 0x20 DUP1 DUP3 MSTORE PUSH1 0x29 SWAP1 DUP3 ADD MSTORE PUSH32 0x476F7665726E616E63653A3A70726F706F73653A206D7573742070726F766964 PUSH1 0x40 DUP3 ADD MSTORE PUSH9 0x6520616374696F6E73 PUSH1 0xB8 SHL PUSH1 0x60 DUP3 ADD MSTORE PUSH1 0x80 ADD SWAP1 JUMP JUMPDEST PUSH1 0x20 DUP1 DUP3 MSTORE PUSH1 0x45 SWAP1 DUP3 ADD MSTORE PUSH1 0x0 DUP1 MLOAD PUSH1 0x20 PUSH2 0x490C DUP4 CODECOPY DUP2 MLOAD SWAP2 MSTORE PUSH1 0x40 DUP3 ADD MSTORE PUSH32 0x616E73616374696F6E206861736E2774207375727061737365642074696D6520 PUSH1 0x60 DUP3 ADD MSTORE PUSH5 0x3637B1B597 PUSH1 0xD9 SHL PUSH1 0x80 DUP3 ADD MSTORE PUSH1 0xA0 ADD SWAP1 JUMP JUMPDEST PUSH1 0x20 DUP1 DUP3 MSTORE PUSH1 0x34 SWAP1 DUP3 ADD MSTORE PUSH32 0x54696D656C6F636B3A3A73657444656C61793A2044656C6179206D7573742065 PUSH1 0x40 DUP3 ADD MSTORE PUSH20 0x3C31B2B2B21036B4B734B6BAB6903232B630BC97 PUSH1 0x61 SHL PUSH1 0x60 DUP3 ADD MSTORE PUSH1 0x80 ADD SWAP1 JUMP JUMPDEST PUSH1 0x20 DUP1 DUP3 MSTORE PUSH1 0x33 SWAP1 DUP3 ADD MSTORE PUSH32 0x476F7665726E616E63653A3A63616E63656C3A2063616E6E6F742063616E6365 PUSH1 0x40 DUP3 ADD MSTORE PUSH19 0x1B08195E1958DD5D1959081C1C9BDC1BDCD85B PUSH1 0x6A SHL PUSH1 0x60 DUP3 ADD MSTORE PUSH1 0x80 ADD SWAP1 JUMP JUMPDEST PUSH1 0x20 DUP1 DUP3 MSTORE PUSH1 0x41 SWAP1 DUP3 ADD MSTORE PUSH32 0x476F7665726E616E63653A3A71756575653A2070726F706F73616C2063616E20 PUSH1 0x40 DUP3 ADD MSTORE PUSH32 0x6F6E6C7920626520717565756564206966206974206973207375636365656465 PUSH1 0x60 DUP3 ADD MSTORE PUSH1 0x19 PUSH1 0xFA SHL PUSH1 0x80 DUP3 ADD MSTORE PUSH1 0xA0 ADD SWAP1 JUMP JUMPDEST PUSH1 0x20 DUP1 DUP3 MSTORE PUSH1 0x2C SWAP1 DUP3 ADD MSTORE PUSH32 0x476F7665726E616E63653A3A63617374566F746542795369673A20696E76616C PUSH1 0x40 DUP3 ADD MSTORE PUSH12 0x6964207369676E6174757265 PUSH1 0xA0 SHL PUSH1 0x60 DUP3 ADD MSTORE PUSH1 0x80 ADD SWAP1 JUMP JUMPDEST PUSH1 0x20 DUP1 DUP3 MSTORE PUSH1 0x41 SWAP1 DUP3 ADD MSTORE PUSH32 0x476F7665726E616E63653A3A5F71756575654F725265766572743A2070726F70 PUSH1 0x40 DUP3 ADD MSTORE PUSH32 0x6F73616C20616374696F6E20616C726561647920717565756564206174206574 PUSH1 0x60 DUP3 ADD MSTORE PUSH1 0x61 PUSH1 0xF8 SHL PUSH1 0x80 DUP3 ADD MSTORE PUSH1 0xA0 ADD SWAP1 JUMP JUMPDEST PUSH1 0x20 DUP1 DUP3 MSTORE PUSH1 0x38 SWAP1 DUP3 ADD MSTORE PUSH32 0x54696D656C6F636B3A3A73657444656C61793A2044656C6179206D757374206E PUSH1 0x40 DUP3 ADD MSTORE PUSH32 0x6F7420657863656564206D6178696D756D2064656C61792E0000000000000000 PUSH1 0x60 DUP3 ADD MSTORE PUSH1 0x80 ADD SWAP1 JUMP JUMPDEST PUSH1 0x20 DUP1 DUP3 MSTORE PUSH1 0x2A SWAP1 DUP3 ADD MSTORE PUSH32 0x476F7665726E616E63653A3A5F63617374566F74653A20766F74657220616C72 PUSH1 0x40 DUP3 ADD MSTORE PUSH10 0x1958591E481D9BDD1959 PUSH1 0xB2 SHL PUSH1 0x60 DUP3 ADD MSTORE PUSH1 0x80 ADD SWAP1 JUMP JUMPDEST PUSH1 0x20 DUP1 DUP3 MSTORE PUSH1 0x3D SWAP1 DUP3 ADD MSTORE PUSH1 0x0 DUP1 MLOAD PUSH1 0x20 PUSH2 0x490C DUP4 CODECOPY DUP2 MLOAD SWAP2 MSTORE PUSH1 0x40 DUP3 ADD MSTORE PUSH32 0x616E73616374696F6E206861736E2774206265656E207175657565642E000000 PUSH1 0x60 DUP3 ADD MSTORE PUSH1 0x80 ADD SWAP1 JUMP JUMPDEST PUSH1 0x20 DUP1 DUP3 MSTORE PUSH1 0x25 SWAP1 DUP3 ADD MSTORE PUSH32 0x476F7665726E616E63653A3A73657451756F72756D3A2071756F72756D5F203E PUSH1 0x40 DUP3 ADD MSTORE PUSH5 0x2042415345 PUSH1 0xD8 SHL PUSH1 0x60 DUP3 ADD MSTORE PUSH1 0x80 ADD SWAP1 JUMP JUMPDEST PUSH1 0x20 DUP1 DUP3 MSTORE PUSH1 0x56 SWAP1 DUP3 ADD MSTORE PUSH32 0x476F7665726E616E63653A3A70726F706F73653A206F6E65206C697665207072 PUSH1 0x40 DUP3 ADD MSTORE PUSH32 0x6F706F73616C207065722070726F706F7365722C20666F756E6420616E20616C PUSH1 0x60 DUP3 ADD MSTORE PUSH22 0x1C9958591E481C195B991A5B99C81C1C9BDC1BDCD85B PUSH1 0x52 SHL PUSH1 0x80 DUP3 ADD MSTORE PUSH1 0xA0 ADD SWAP1 JUMP JUMPDEST PUSH1 0x20 DUP1 DUP3 MSTORE PUSH1 0x37 SWAP1 DUP3 ADD MSTORE PUSH32 0x476F7665726E616E63653A3A70726F706F73654A6F623A206F6E6C7920564F54 PUSH1 0x40 DUP3 ADD MSTORE PUSH32 0x45522063616E2070726F706F7365206E6577206A6F6273000000000000000000 PUSH1 0x60 DUP3 ADD MSTORE PUSH1 0x80 ADD SWAP1 JUMP JUMPDEST PUSH1 0x20 DUP1 DUP3 MSTORE PUSH1 0x25 SWAP1 DUP3 ADD MSTORE PUSH32 0x4C6F636B3372476F7665726E616E63653A3A616464566F7465733A2021677561 PUSH1 0x40 DUP3 ADD MSTORE PUSH5 0x393234B0B7 PUSH1 0xD9 SHL PUSH1 0x60 DUP3 ADD MSTORE PUSH1 0x80 ADD SWAP1 JUMP JUMPDEST PUSH1 0x20 DUP1 DUP3 MSTORE PUSH1 0x21 SWAP1 DUP3 ADD MSTORE PUSH32 0x536166654D6174683A206D756C7469706C69636174696F6E206F766572666C6F PUSH1 0x40 DUP3 ADD MSTORE PUSH1 0x77 PUSH1 0xF8 SHL PUSH1 0x60 DUP3 ADD MSTORE PUSH1 0x80 ADD SWAP1 JUMP JUMPDEST PUSH1 0x20 DUP1 DUP3 MSTORE PUSH1 0x2A SWAP1 DUP3 ADD MSTORE PUSH32 0x4C6F636B3372476F7665726E616E63653A3A6164644C4B33524372656469743A PUSH1 0x40 DUP3 ADD MSTORE PUSH10 0x1010B3BAB0B93234B0B7 PUSH1 0xB1 SHL PUSH1 0x60 DUP3 ADD MSTORE PUSH1 0x80 ADD SWAP1 JUMP JUMPDEST PUSH1 0x20 DUP1 DUP3 MSTORE PUSH1 0x2C SWAP1 DUP3 ADD MSTORE PUSH32 0x476F7665726E616E63653A3A63616E63656C3A2070726F706F7365722061626F PUSH1 0x40 DUP3 ADD MSTORE PUSH12 0x1D99481D1A1C995CDA1BDB19 PUSH1 0xA2 SHL PUSH1 0x60 DUP3 ADD MSTORE PUSH1 0x80 ADD SWAP1 JUMP JUMPDEST PUSH1 0x20 DUP1 DUP3 MSTORE PUSH1 0x25 SWAP1 DUP3 ADD MSTORE PUSH32 0x476F7665726E616E63653A3A70726F706F73653A20746F6F206D616E79206163 PUSH1 0x40 DUP3 ADD MSTORE PUSH5 0x74696F6E73 PUSH1 0xD8 SHL PUSH1 0x60 DUP3 ADD MSTORE PUSH1 0x80 ADD SWAP1 JUMP JUMPDEST PUSH1 0x20 DUP1 DUP3 MSTORE PUSH1 0x1D SWAP1 DUP3 ADD MSTORE PUSH32 0x476F7665726E616E63653A657865637574653A2021677561726469616E000000 PUSH1 0x40 DUP3 ADD MSTORE PUSH1 0x60 ADD SWAP1 JUMP JUMPDEST PUSH1 0x20 DUP1 DUP3 MSTORE PUSH1 0x2F SWAP1 DUP3 ADD MSTORE PUSH32 0x4C6F636B3372476F7665726E616E63653A3A736574477561726469616E3A2021 PUSH1 0x40 DUP3 ADD MSTORE PUSH15 0x3832B73234B733A3BAB0B93234B0B7 PUSH1 0x89 SHL PUSH1 0x60 DUP3 ADD MSTORE PUSH1 0x80 ADD SWAP1 JUMP JUMPDEST PUSH1 0x20 DUP1 DUP3 MSTORE PUSH1 0x3D SWAP1 DUP3 ADD MSTORE PUSH1 0x0 DUP1 MLOAD PUSH1 0x20 PUSH2 0x490C DUP4 CODECOPY DUP2 MLOAD SWAP2 MSTORE PUSH1 0x40 DUP3 ADD MSTORE PUSH32 0x616E73616374696F6E20657865637574696F6E2072657665727465642E000000 PUSH1 0x60 DUP3 ADD MSTORE PUSH1 0x80 ADD SWAP1 JUMP JUMPDEST PUSH1 0x20 DUP1 DUP3 MSTORE PUSH1 0x26 SWAP1 DUP3 ADD MSTORE PUSH32 0x476F7665726E616E63653A3A73746174653A20696E76616C69642070726F706F PUSH1 0x40 DUP3 ADD MSTORE PUSH6 0x1CD85B081A59 PUSH1 0xD2 SHL PUSH1 0x60 DUP3 ADD MSTORE PUSH1 0x80 ADD SWAP1 JUMP JUMPDEST PUSH1 0x20 DUP1 DUP3 MSTORE PUSH1 0x2D SWAP1 DUP3 ADD MSTORE PUSH32 0x4C6F636B3372476F7665726E616E63653A3A616363657074476F7665726E616E PUSH1 0x40 DUP3 ADD MSTORE PUSH13 0x31B29D1010B3BAB0B93234B0B7 PUSH1 0x99 SHL PUSH1 0x60 DUP3 ADD MSTORE PUSH1 0x80 ADD SWAP1 JUMP JUMPDEST PUSH1 0x20 DUP1 DUP3 MSTORE PUSH1 0x2C SWAP1 DUP3 ADD MSTORE PUSH32 0x4C6F636B3372476F7665726E616E63653A3A7365744C6F636B337248656C7065 PUSH1 0x40 DUP3 ADD MSTORE PUSH12 0x391D1010B3BAB0B93234B0B7 PUSH1 0xA1 SHL PUSH1 0x60 DUP3 ADD MSTORE PUSH1 0x80 ADD SWAP1 JUMP JUMPDEST PUSH1 0x20 DUP1 DUP3 MSTORE PUSH1 0x2D SWAP1 DUP3 ADD MSTORE PUSH32 0x4C6F636B3372476F7665726E616E63653A3A617070726F76654C697175696469 PUSH1 0x40 DUP3 ADD MSTORE PUSH13 0x3A3C9D1010B3BAB0B93234B0B7 PUSH1 0x99 SHL PUSH1 0x60 DUP3 ADD MSTORE PUSH1 0x80 ADD SWAP1 JUMP JUMPDEST PUSH1 0x20 DUP1 DUP3 MSTORE PUSH1 0x49 SWAP1 DUP3 ADD MSTORE PUSH32 0x54696D656C6F636B3A3A71756575655472616E73616374696F6E3A2045737469 PUSH1 0x40 DUP3 ADD MSTORE PUSH32 0x6D6174656420657865637574696F6E20626C6F636B206D757374207361746973 PUSH1 0x60 DUP3 ADD MSTORE PUSH9 0x333C903232B630BC97 PUSH1 0xB9 SHL PUSH1 0x80 DUP3 ADD MSTORE PUSH1 0xA0 ADD SWAP1 JUMP JUMPDEST PUSH1 0x20 DUP1 DUP3 MSTORE PUSH1 0x42 SWAP1 DUP3 ADD MSTORE PUSH32 0x476F7665726E616E63653A3A657865637574653A2070726F706F73616C206361 PUSH1 0x40 DUP3 ADD MSTORE PUSH32 0x6E206F6E6C792062652065786563757465642069662069742069732071756575 PUSH1 0x60 DUP3 ADD MSTORE PUSH2 0x1959 PUSH1 0xF2 SHL PUSH1 0x80 DUP3 ADD MSTORE PUSH1 0xA0 ADD SWAP1 JUMP JUMPDEST PUSH1 0x20 DUP1 DUP3 MSTORE PUSH1 0x28 SWAP1 DUP3 ADD MSTORE PUSH32 0x4C6F636B3372476F7665726E616E63653A3A72656D6F7665566F7465733A2021 PUSH1 0x40 DUP3 ADD MSTORE PUSH8 0x33BAB0B93234B0B7 PUSH1 0xC1 SHL PUSH1 0x60 DUP3 ADD MSTORE PUSH1 0x80 ADD SWAP1 JUMP JUMPDEST PUSH1 0x20 DUP1 DUP3 MSTORE PUSH1 0x31 SWAP1 DUP3 ADD MSTORE PUSH32 0x54696D656C6F636B3A3A73657444656C61793A2043616C6C206D75737420636F PUSH1 0x40 DUP3 ADD MSTORE PUSH17 0x36B290333937B6902A34B6B2B637B1B597 PUSH1 0x79 SHL PUSH1 0x60 DUP3 ADD MSTORE PUSH1 0x80 ADD SWAP1 JUMP JUMPDEST PUSH1 0x20 DUP1 DUP3 MSTORE PUSH1 0x22 SWAP1 DUP3 ADD MSTORE PUSH32 0x4C6F636B3372476F7665726E616E63653A3A736C6173683A2021677561726469 PUSH1 0x40 DUP3 ADD MSTORE PUSH2 0x30B7 PUSH1 0xF1 SHL PUSH1 0x60 DUP3 ADD MSTORE PUSH1 0x80 ADD SWAP1 JUMP JUMPDEST PUSH1 0x20 DUP1 DUP3 MSTORE PUSH1 0x24 SWAP1 DUP3 ADD MSTORE PUSH32 0x476F7665726E616E63653A3A73657451756F72756D3A2074696D656C6F636B20 PUSH1 0x40 DUP3 ADD MSTORE PUSH4 0x6F6E6C79 PUSH1 0xE0 SHL PUSH1 0x60 DUP3 ADD MSTORE PUSH1 0x80 ADD SWAP1 JUMP JUMPDEST DUP2 MLOAD ISZERO ISZERO DUP2 MSTORE PUSH1 0x20 DUP1 DUP4 ADD MLOAD ISZERO ISZERO SWAP1 DUP3 ADD MSTORE PUSH1 0x40 SWAP2 DUP3 ADD MLOAD SWAP2 DUP2 ADD SWAP2 SWAP1 SWAP2 MSTORE PUSH1 0x60 ADD SWAP1 JUMP JUMPDEST DUP10 DUP2 MSTORE PUSH1 0x1 PUSH1 0x1 PUSH1 0xA0 SHL SUB DUP10 AND PUSH1 0x20 DUP3 ADD MSTORE PUSH2 0x120 PUSH1 0x40 DUP3 ADD DUP2 SWAP1 MSTORE PUSH1 0x0 SWAP1 PUSH2 0x4771 DUP4 DUP3 ADD DUP12 PUSH2 0x35C0 JUMP JUMPDEST SWAP1 POP DUP3 DUP2 SUB PUSH1 0x60 DUP5 ADD MSTORE PUSH2 0x4785 DUP2 DUP11 PUSH2 0x3656 JUMP JUMPDEST SWAP1 POP DUP3 DUP2 SUB PUSH1 0x80 DUP5 ADD MSTORE PUSH2 0x4799 DUP2 DUP10 PUSH2 0x3603 JUMP JUMPDEST SWAP1 POP DUP3 DUP2 SUB PUSH1 0xA0 DUP5 ADD MSTORE PUSH2 0x47AD DUP2 DUP9 PUSH2 0x3603 JUMP JUMPDEST SWAP1 POP DUP6 PUSH1 0xC0 DUP5 ADD MSTORE DUP5 PUSH1 0xE0 DUP5 ADD MSTORE DUP3 DUP2 SUB PUSH2 0x100 DUP5 ADD MSTORE PUSH2 0x47CE DUP2 DUP6 PUSH2 0x3685 JUMP JUMPDEST SWAP13 SWAP12 POP POP POP POP POP POP POP POP POP POP POP POP JUMP JUMPDEST SWAP9 DUP10 MSTORE PUSH1 0x1 PUSH1 0x1 PUSH1 0xA0 SHL SUB SWAP8 SWAP1 SWAP8 AND PUSH1 0x20 DUP10 ADD MSTORE PUSH1 0x40 DUP9 ADD SWAP6 SWAP1 SWAP6 MSTORE PUSH1 0x60 DUP8 ADD SWAP4 SWAP1 SWAP4 MSTORE PUSH1 0x80 DUP7 ADD SWAP2 SWAP1 SWAP2 MSTORE PUSH1 0xA0 DUP6 ADD MSTORE PUSH1 0xC0 DUP5 ADD MSTORE ISZERO ISZERO PUSH1 0xE0 DUP4 ADD MSTORE ISZERO ISZERO PUSH2 0x100 DUP3 ADD MSTORE PUSH2 0x120 ADD SWAP1 JUMP JUMPDEST PUSH1 0x0 DUP6 DUP3 MSTORE PUSH1 0x80 PUSH1 0x20 DUP4 ADD MSTORE PUSH2 0x4843 PUSH1 0x80 DUP4 ADD DUP7 PUSH2 0x3685 JUMP JUMPDEST DUP3 DUP2 SUB PUSH1 0x40 DUP5 ADD MSTORE PUSH2 0x4855 DUP2 DUP7 PUSH2 0x3685 JUMP JUMPDEST SWAP2 POP POP DUP3 PUSH1 0x60 DUP4 ADD MSTORE SWAP6 SWAP5 POP POP POP POP POP JUMP JUMPDEST SWAP2 DUP3 MSTORE PUSH1 0x20 DUP3 ADD MSTORE PUSH1 0x40 ADD SWAP1 JUMP JUMPDEST PUSH1 0x40 MLOAD DUP2 DUP2 ADD PUSH8 0xFFFFFFFFFFFFFFFF DUP2 GT DUP3 DUP3 LT OR ISZERO PUSH2 0x4894 JUMPI PUSH1 0x0 DUP1 REVERT JUMPDEST PUSH1 0x40 MSTORE SWAP2 SWAP1 POP JUMP JUMPDEST PUSH1 0x0 PUSH8 0xFFFFFFFFFFFFFFFF DUP3 GT ISZERO PUSH2 0x48B2 JUMPI DUP1 DUP2 REVERT JUMPDEST POP PUSH1 0x20 SWAP1 DUP2 MUL ADD SWAP1 JUMP JUMPDEST PUSH1 0x0 JUMPDEST DUP4 DUP2 LT ISZERO PUSH2 0x48D7 JUMPI DUP2 DUP2 ADD MLOAD DUP4 DUP3 ADD MSTORE PUSH1 0x20 ADD PUSH2 0x48BF JUMP JUMPDEST DUP4 DUP2 GT ISZERO PUSH2 0xA9E JUMPI POP POP PUSH1 0x0 SWAP2 ADD MSTORE JUMP JUMPDEST PUSH1 0x1 PUSH1 0x1 PUSH1 0xA0 SHL SUB DUP2 AND DUP2 EQ PUSH2 0x3187 JUMPI PUSH1 0x0 DUP1 REVERT JUMPDEST DUP1 ISZERO ISZERO DUP2 EQ PUSH2 0x3187 JUMPI PUSH1 0x0 DUP1 REVERT INVALID SLOAD PUSH10 0x6D656C6F636B3A3A6578 PUSH6 0x637574655472 PUSH2 0x6E73 PUSH2 0x6374 PUSH10 0x6F6E3A205472A2646970 PUSH7 0x735822122026AC 0x48 PUSH21 0xA2B28AD31453AB1E1F28AD65273A0F003D94D7E5D2 PUSH29 0x76ED0523823F64736F6C634300060C0033000000000000000000000000 "
		},
		"gasEstimates": {
			"creation": {
				"codeDepositCost": "3757000",
				"executionCost": "infinite",
				"totalCost": "infinite"
			},
			"external": {
				"BALLOT_TYPEHASH()": "383",
				"BASE()": "294",
				"DOMAINSEPARATOR()": "infinite",
				"DOMAIN_TYPEHASH()": "297",
				"GRACE_PERIOD()": "340",
				"LK3R()": "infinite",
				"MAXIMUM_DELAY()": "317",
				"MINIMUM_DELAY()": "362",
				"_proposalThreshold()": "1096",
				"_quorumVotes()": "1118",
				"acceptGovernance()": "infinite",
				"acceptGuardianship()": "22743",
				"addJob(address)": "infinite",
				"addLK3RCredit(address,uint256)": "infinite",
				"addVotes(address,uint256)": "infinite",
				"approveLiquidity(address)": "infinite",
				"cancel(uint256)": "infinite",
				"castVote(uint256,bool)": "infinite",
				"castVoteBySig(uint256,bool,uint8,bytes32,bytes32)": "infinite",
				"delay()": "1184",
				"dispute(address)": "infinite",
				"execute(uint256)": "infinite",
				"getActions(uint256)": "infinite",
				"getReceipt(uint256,address)": "infinite",
				"guardian()": "1116",
				"latestProposalIds(address)": "1414",
				"name()": "infinite",
				"pendingGuardian()": "1182",
				"proposalCount()": "1073",
				"proposalMaxOperations()": "295",
				"proposalThreshold()": "infinite",
				"proposals(uint256)": "7183",
				"propose(address[],uint256[],string[],bytes[],string)": "infinite",
				"proposeJob(address)": "infinite",
				"queue(uint256)": "infinite",
				"queuedTransactions(bytes32)": "1271",
				"quorumVotes()": "infinite",
				"removeJob(address)": "infinite",
				"removeVotes(address,uint256)": "infinite",
				"resolve(address)": "infinite",
				"revoke(address)": "infinite",
				"revokeLiquidity(address)": "infinite",
				"setDelay(uint256)": "21521",
				"setGovernance(address)": "infinite",
				"setGuardian(address)": "22149",
				"setLock3rHelper(address)": "infinite",
				"setQuorum(uint256)": "20338",
				"setThreshold(uint256)": "20339",
				"slash(address,address,uint256)": "infinite",
				"state(uint256)": "infinite",
				"votingDelay()": "318",
				"votingPeriod()": "297"
			},
			"internal": {
				"_cancelTransaction(address,uint256,string memory,bytes memory,uint256)": "infinite",
				"_castVote(address,uint256,bool)": "infinite",
				"_executeTransaction(address,uint256,string memory,bytes memory,uint256)": "infinite",
				"_propose(address[] memory,uint256[] memory,string memory[] memory,bytes memory[] memory,string memory)": "infinite",
				"_queueOrRevert(address,uint256,string memory,bytes memory,uint256)": "infinite",
				"_queueTransaction(address,uint256,string memory,bytes memory,uint256)": "infinite",
				"getBlockTimestamp()": "14",
				"getChainId()": "infinite"
			}
		},
		"methodIdentifiers": {
			"BALLOT_TYPEHASH()": "deaaa7cc",
			"BASE()": "ec342ad0",
			"DOMAINSEPARATOR()": "1778e29c",
			"DOMAIN_TYPEHASH()": "20606b70",
			"GRACE_PERIOD()": "c1a287e2",
			"LK3R()": "4d8ea0de",
			"MAXIMUM_DELAY()": "7d645fab",
			"MINIMUM_DELAY()": "b1b43ae5",
			"_proposalThreshold()": "6e3827b7",
			"_quorumVotes()": "be4a66b6",
			"acceptGovernance()": "238efcbc",
			"acceptGuardianship()": "995e617a",
			"addJob(address)": "c5198abc",
			"addLK3RCredit(address,uint256)": "c3fc0e1d",
			"addVotes(address,uint256)": "de63298d",
			"approveLiquidity(address)": "b600702a",
			"cancel(uint256)": "40e58ee5",
			"castVote(uint256,bool)": "15373e3d",
			"castVoteBySig(uint256,bool,uint8,bytes32,bytes32)": "4634c61f",
			"delay()": "6a42b8f8",
			"dispute(address)": "f75f9f7b",
			"execute(uint256)": "fe0d94c1",
			"getActions(uint256)": "328dd982",
			"getReceipt(uint256,address)": "e23a9a52",
			"guardian()": "452a9320",
			"latestProposalIds(address)": "17977c61",
			"name()": "06fdde03",
			"pendingGuardian()": "762c31ba",
			"proposalCount()": "da35c664",
			"proposalMaxOperations()": "7bdbe4d0",
			"proposalThreshold()": "b58131b0",
			"proposals(uint256)": "013cf08b",
			"propose(address[],uint256[],string[],bytes[],string)": "da95691a",
			"proposeJob(address)": "dc380cbb",
			"queue(uint256)": "ddf0b009",
			"queuedTransactions(bytes32)": "f2b06537",
			"quorumVotes()": "24bc1a64",
			"removeJob(address)": "80711989",
			"removeVotes(address,uint256)": "ce6a0880",
			"resolve(address)": "55ea6c47",
			"revoke(address)": "74a8f103",
			"revokeLiquidity(address)": "64bb43ee",
			"setDelay(uint256)": "e177246e",
			"setGovernance(address)": "ab033ea9",
			"setGuardian(address)": "8a0dac4a",
			"setLock3rHelper(address)": "945dd26e",
			"setQuorum(uint256)": "c1ba4e59",
			"setThreshold(uint256)": "960bfe04",
			"slash(address,address,uint256)": "e74f8239",
			"state(uint256)": "3e4f49e6",
			"votingDelay()": "3932abb1",
			"votingPeriod()": "02a251a3"
		}
	},
	"abi": [
		{
			"inputs": [
				{
					"internalType": "address",
					"name": "token_",
					"type": "address"
				}
			],
			"stateMutability": "nonpayable",
			"type": "constructor"
		},
		{
			"anonymous": false,
			"inputs": [
				{
					"indexed": true,
					"internalType": "bytes32",
					"name": "txHash",
					"type": "bytes32"
				},
				{
					"indexed": true,
					"internalType": "address",
					"name": "target",
					"type": "address"
				},
				{
					"indexed": false,
					"internalType": "uint256",
					"name": "value",
					"type": "uint256"
				},
				{
					"indexed": false,
					"internalType": "string",
					"name": "signature",
					"type": "string"
				},
				{
					"indexed": false,
					"internalType": "bytes",
					"name": "data",
					"type": "bytes"
				},
				{
					"indexed": false,
					"internalType": "uint256",
					"name": "eta",
					"type": "uint256"
				}
			],
			"name": "CancelTransaction",
			"type": "event"
		},
		{
			"anonymous": false,
			"inputs": [
				{
					"indexed": true,
					"internalType": "bytes32",
					"name": "txHash",
					"type": "bytes32"
				},
				{
					"indexed": true,
					"internalType": "address",
					"name": "target",
					"type": "address"
				},
				{
					"indexed": false,
					"internalType": "uint256",
					"name": "value",
					"type": "uint256"
				},
				{
					"indexed": false,
					"internalType": "string",
					"name": "signature",
					"type": "string"
				},
				{
					"indexed": false,
					"internalType": "bytes",
					"name": "data",
					"type": "bytes"
				},
				{
					"indexed": false,
					"internalType": "uint256",
					"name": "eta",
					"type": "uint256"
				}
			],
			"name": "ExecuteTransaction",
			"type": "event"
		},
		{
			"anonymous": false,
			"inputs": [
				{
					"indexed": true,
					"internalType": "uint256",
					"name": "newDelay",
					"type": "uint256"
				}
			],
			"name": "NewDelay",
			"type": "event"
		},
		{
			"anonymous": false,
			"inputs": [
				{
					"indexed": false,
					"internalType": "uint256",
					"name": "id",
					"type": "uint256"
				}
			],
			"name": "ProposalCanceled",
			"type": "event"
		},
		{
			"anonymous": false,
			"inputs": [
				{
					"indexed": false,
					"internalType": "uint256",
					"name": "id",
					"type": "uint256"
				},
				{
					"indexed": false,
					"internalType": "address",
					"name": "proposer",
					"type": "address"
				},
				{
					"indexed": false,
					"internalType": "address[]",
					"name": "targets",
					"type": "address[]"
				},
				{
					"indexed": false,
					"internalType": "uint256[]",
					"name": "values",
					"type": "uint256[]"
				},
				{
					"indexed": false,
					"internalType": "string[]",
					"name": "signatures",
					"type": "string[]"
				},
				{
					"indexed": false,
					"internalType": "bytes[]",
					"name": "calldatas",
					"type": "bytes[]"
				},
				{
					"indexed": false,
					"internalType": "uint256",
					"name": "startBlock",
					"type": "uint256"
				},
				{
					"indexed": false,
					"internalType": "uint256",
					"name": "endBlock",
					"type": "uint256"
				},
				{
					"indexed": false,
					"internalType": "string",
					"name": "description",
					"type": "string"
				}
			],
			"name": "ProposalCreated",
			"type": "event"
		},
		{
			"anonymous": false,
			"inputs": [
				{
					"indexed": false,
					"internalType": "uint256",
					"name": "id",
					"type": "uint256"
				}
			],
			"name": "ProposalExecuted",
			"type": "event"
		},
		{
			"anonymous": false,
			"inputs": [
				{
					"indexed": false,
					"internalType": "uint256",
					"name": "id",
					"type": "uint256"
				},
				{
					"indexed": false,
					"internalType": "uint256",
					"name": "eta",
					"type": "uint256"
				}
			],
			"name": "ProposalQueued",
			"type": "event"
		},
		{
			"anonymous": false,
			"inputs": [
				{
					"indexed": true,
					"internalType": "bytes32",
					"name": "txHash",
					"type": "bytes32"
				},
				{
					"indexed": true,
					"internalType": "address",
					"name": "target",
					"type": "address"
				},
				{
					"indexed": false,
					"internalType": "uint256",
					"name": "value",
					"type": "uint256"
				},
				{
					"indexed": false,
					"internalType": "string",
					"name": "signature",
					"type": "string"
				},
				{
					"indexed": false,
					"internalType": "bytes",
					"name": "data",
					"type": "bytes"
				},
				{
					"indexed": false,
					"internalType": "uint256",
					"name": "eta",
					"type": "uint256"
				}
			],
			"name": "QueueTransaction",
			"type": "event"
		},
		{
			"anonymous": false,
			"inputs": [
				{
					"indexed": false,
					"internalType": "address",
					"name": "voter",
					"type": "address"
				},
				{
					"indexed": false,
					"internalType": "uint256",
					"name": "proposalId",
					"type": "uint256"
				},
				{
					"indexed": false,
					"internalType": "bool",
					"name": "support",
					"type": "bool"
				},
				{
					"indexed": false,
					"internalType": "uint256",
					"name": "votes",
					"type": "uint256"
				}
			],
			"name": "VoteCast",
			"type": "event"
		},
		{
			"inputs": [],
			"name": "BALLOT_TYPEHASH",
			"outputs": [
				{
					"internalType": "bytes32",
					"name": "",
					"type": "bytes32"
				}
			],
			"stateMutability": "view",
			"type": "function"
		},
		{
			"inputs": [],
			"name": "BASE",
			"outputs": [
				{
					"internalType": "uint256",
					"name": "",
					"type": "uint256"
				}
			],
			"stateMutability": "view",
			"type": "function"
		},
		{
			"inputs": [],
			"name": "DOMAINSEPARATOR",
			"outputs": [
				{
					"internalType": "bytes32",
					"name": "",
					"type": "bytes32"
				}
			],
			"stateMutability": "view",
			"type": "function"
		},
		{
			"inputs": [],
			"name": "DOMAIN_TYPEHASH",
			"outputs": [
				{
					"internalType": "bytes32",
					"name": "",
					"type": "bytes32"
				}
			],
			"stateMutability": "view",
			"type": "function"
		},
		{
			"inputs": [],
			"name": "GRACE_PERIOD",
			"outputs": [
				{
					"internalType": "uint256",
					"name": "",
					"type": "uint256"
				}
			],
			"stateMutability": "view",
			"type": "function"
		},
		{
			"inputs": [],
			"name": "LK3R",
			"outputs": [
				{
					"internalType": "contract ILock3rV1",
					"name": "",
					"type": "address"
				}
			],
			"stateMutability": "view",
			"type": "function"
		},
		{
			"inputs": [],
			"name": "MAXIMUM_DELAY",
			"outputs": [
				{
					"internalType": "uint256",
					"name": "",
					"type": "uint256"
				}
			],
			"stateMutability": "view",
			"type": "function"
		},
		{
			"inputs": [],
			"name": "MINIMUM_DELAY",
			"outputs": [
				{
					"internalType": "uint256",
					"name": "",
					"type": "uint256"
				}
			],
			"stateMutability": "view",
			"type": "function"
		},
		{
			"inputs": [],
			"name": "_proposalThreshold",
			"outputs": [
				{
					"internalType": "uint256",
					"name": "",
					"type": "uint256"
				}
			],
			"stateMutability": "view",
			"type": "function"
		},
		{
			"inputs": [],
			"name": "_quorumVotes",
			"outputs": [
				{
					"internalType": "uint256",
					"name": "",
					"type": "uint256"
				}
			],
			"stateMutability": "view",
			"type": "function"
		},
		{
			"inputs": [],
			"name": "acceptGovernance",
			"outputs": [],
			"stateMutability": "nonpayable",
			"type": "function"
		},
		{
			"inputs": [],
			"name": "acceptGuardianship",
			"outputs": [],
			"stateMutability": "nonpayable",
			"type": "function"
		},
		{
			"inputs": [
				{
					"internalType": "address",
					"name": "job",
					"type": "address"
				}
			],
			"name": "addJob",
			"outputs": [],
			"stateMutability": "nonpayable",
			"type": "function"
		},
		{
			"inputs": [
				{
					"internalType": "address",
					"name": "job",
					"type": "address"
				},
				{
					"internalType": "uint256",
					"name": "amount",
					"type": "uint256"
				}
			],
			"name": "addLK3RCredit",
			"outputs": [],
			"stateMutability": "nonpayable",
			"type": "function"
		},
		{
			"inputs": [
				{
					"internalType": "address",
					"name": "voter",
					"type": "address"
				},
				{
					"internalType": "uint256",
					"name": "amount",
					"type": "uint256"
				}
			],
			"name": "addVotes",
			"outputs": [],
			"stateMutability": "nonpayable",
			"type": "function"
		},
		{
			"inputs": [
				{
					"internalType": "address",
					"name": "liquidity",
					"type": "address"
				}
			],
			"name": "approveLiquidity",
			"outputs": [],
			"stateMutability": "nonpayable",
			"type": "function"
		},
		{
			"inputs": [
				{
					"internalType": "uint256",
					"name": "proposalId",
					"type": "uint256"
				}
			],
			"name": "cancel",
			"outputs": [],
			"stateMutability": "nonpayable",
			"type": "function"
		},
		{
			"inputs": [
				{
					"internalType": "uint256",
					"name": "proposalId",
					"type": "uint256"
				},
				{
					"internalType": "bool",
					"name": "support",
					"type": "bool"
				}
			],
			"name": "castVote",
			"outputs": [],
			"stateMutability": "nonpayable",
			"type": "function"
		},
		{
			"inputs": [
				{
					"internalType": "uint256",
					"name": "proposalId",
					"type": "uint256"
				},
				{
					"internalType": "bool",
					"name": "support",
					"type": "bool"
				},
				{
					"internalType": "uint8",
					"name": "v",
					"type": "uint8"
				},
				{
					"internalType": "bytes32",
					"name": "r",
					"type": "bytes32"
				},
				{
					"internalType": "bytes32",
					"name": "s",
					"type": "bytes32"
				}
			],
			"name": "castVoteBySig",
			"outputs": [],
			"stateMutability": "nonpayable",
			"type": "function"
		},
		{
			"inputs": [],
			"name": "delay",
			"outputs": [
				{
					"internalType": "uint256",
					"name": "",
					"type": "uint256"
				}
			],
			"stateMutability": "view",
			"type": "function"
		},
		{
			"inputs": [
				{
					"internalType": "address",
					"name": "Locker",
					"type": "address"
				}
			],
			"name": "dispute",
			"outputs": [],
			"stateMutability": "nonpayable",
			"type": "function"
		},
		{
			"inputs": [
				{
					"internalType": "uint256",
					"name": "proposalId",
					"type": "uint256"
				}
			],
			"name": "execute",
			"outputs": [],
			"stateMutability": "payable",
			"type": "function"
		},
		{
			"inputs": [
				{
					"internalType": "uint256",
					"name": "proposalId",
					"type": "uint256"
				}
			],
			"name": "getActions",
			"outputs": [
				{
					"internalType": "address[]",
					"name": "targets",
					"type": "address[]"
				},
				{
					"internalType": "uint256[]",
					"name": "values",
					"type": "uint256[]"
				},
				{
					"internalType": "string[]",
					"name": "signatures",
					"type": "string[]"
				},
				{
					"internalType": "bytes[]",
					"name": "calldatas",
					"type": "bytes[]"
				}
			],
			"stateMutability": "view",
			"type": "function"
		},
		{
			"inputs": [
				{
					"internalType": "uint256",
					"name": "proposalId",
					"type": "uint256"
				},
				{
					"internalType": "address",
					"name": "voter",
					"type": "address"
				}
			],
			"name": "getReceipt",
			"outputs": [
				{
					"components": [
						{
							"internalType": "bool",
							"name": "hasVoted",
							"type": "bool"
						},
						{
							"internalType": "bool",
							"name": "support",
							"type": "bool"
						},
						{
							"internalType": "uint256",
							"name": "votes",
							"type": "uint256"
						}
					],
					"internalType": "struct Governance.Receipt",
					"name": "",
					"type": "tuple"
				}
			],
			"stateMutability": "view",
			"type": "function"
		},
		{
			"inputs": [],
			"name": "guardian",
			"outputs": [
				{
					"internalType": "address",
					"name": "",
					"type": "address"
				}
			],
			"stateMutability": "view",
			"type": "function"
		},
		{
			"inputs": [
				{
					"internalType": "address",
					"name": "",
					"type": "address"
				}
			],
			"name": "latestProposalIds",
			"outputs": [
				{
					"internalType": "uint256",
					"name": "",
					"type": "uint256"
				}
			],
			"stateMutability": "view",
			"type": "function"
		},
		{
			"inputs": [],
			"name": "name",
			"outputs": [
				{
					"internalType": "string",
					"name": "",
					"type": "string"
				}
			],
			"stateMutability": "view",
			"type": "function"
		},
		{
			"inputs": [],
			"name": "pendingGuardian",
			"outputs": [
				{
					"internalType": "address",
					"name": "",
					"type": "address"
				}
			],
			"stateMutability": "view",
			"type": "function"
		},
		{
			"inputs": [],
			"name": "proposalCount",
			"outputs": [
				{
					"internalType": "uint256",
					"name": "",
					"type": "uint256"
				}
			],
			"stateMutability": "view",
			"type": "function"
		},
		{
			"inputs": [],
			"name": "proposalMaxOperations",
			"outputs": [
				{
					"internalType": "uint256",
					"name": "",
					"type": "uint256"
				}
			],
			"stateMutability": "pure",
			"type": "function"
		},
		{
			"inputs": [],
			"name": "proposalThreshold",
			"outputs": [
				{
					"internalType": "uint256",
					"name": "",
					"type": "uint256"
				}
			],
			"stateMutability": "view",
			"type": "function"
		},
		{
			"inputs": [
				{
					"internalType": "uint256",
					"name": "",
					"type": "uint256"
				}
			],
			"name": "proposals",
			"outputs": [
				{
					"internalType": "uint256",
					"name": "id",
					"type": "uint256"
				},
				{
					"internalType": "address",
					"name": "proposer",
					"type": "address"
				},
				{
					"internalType": "uint256",
					"name": "eta",
					"type": "uint256"
				},
				{
					"internalType": "uint256",
					"name": "startBlock",
					"type": "uint256"
				},
				{
					"internalType": "uint256",
					"name": "endBlock",
					"type": "uint256"
				},
				{
					"internalType": "uint256",
					"name": "forVotes",
					"type": "uint256"
				},
				{
					"internalType": "uint256",
					"name": "againstVotes",
					"type": "uint256"
				},
				{
					"internalType": "bool",
					"name": "canceled",
					"type": "bool"
				},
				{
					"internalType": "bool",
					"name": "executed",
					"type": "bool"
				}
			],
			"stateMutability": "view",
			"type": "function"
		},
		{
			"inputs": [
				{
					"internalType": "address[]",
					"name": "targets",
					"type": "address[]"
				},
				{
					"internalType": "uint256[]",
					"name": "values",
					"type": "uint256[]"
				},
				{
					"internalType": "string[]",
					"name": "signatures",
					"type": "string[]"
				},
				{
					"internalType": "bytes[]",
					"name": "calldatas",
					"type": "bytes[]"
				},
				{
					"internalType": "string",
					"name": "description",
					"type": "string"
				}
			],
			"name": "propose",
			"outputs": [
				{
					"internalType": "uint256",
					"name": "",
					"type": "uint256"
				}
			],
			"stateMutability": "nonpayable",
			"type": "function"
		},
		{
			"inputs": [
				{
					"internalType": "address",
					"name": "job",
					"type": "address"
				}
			],
			"name": "proposeJob",
			"outputs": [],
			"stateMutability": "nonpayable",
			"type": "function"
		},
		{
			"inputs": [
				{
					"internalType": "uint256",
					"name": "proposalId",
					"type": "uint256"
				}
			],
			"name": "queue",
			"outputs": [],
			"stateMutability": "nonpayable",
			"type": "function"
		},
		{
			"inputs": [
				{
					"internalType": "bytes32",
					"name": "",
					"type": "bytes32"
				}
			],
			"name": "queuedTransactions",
			"outputs": [
				{
					"internalType": "bool",
					"name": "",
					"type": "bool"
				}
			],
			"stateMutability": "view",
			"type": "function"
		},
		{
			"inputs": [],
			"name": "quorumVotes",
			"outputs": [
				{
					"internalType": "uint256",
					"name": "",
					"type": "uint256"
				}
			],
			"stateMutability": "view",
			"type": "function"
		},
		{
			"inputs": [
				{
					"internalType": "address",
					"name": "job",
					"type": "address"
				}
			],
			"name": "removeJob",
			"outputs": [],
			"stateMutability": "nonpayable",
			"type": "function"
		},
		{
			"inputs": [
				{
					"internalType": "address",
					"name": "voter",
					"type": "address"
				},
				{
					"internalType": "uint256",
					"name": "amount",
					"type": "uint256"
				}
			],
			"name": "removeVotes",
			"outputs": [],
			"stateMutability": "nonpayable",
			"type": "function"
		},
		{
			"inputs": [
				{
					"internalType": "address",
					"name": "Locker",
					"type": "address"
				}
			],
			"name": "resolve",
			"outputs": [],
			"stateMutability": "nonpayable",
			"type": "function"
		},
		{
			"inputs": [
				{
					"internalType": "address",
					"name": "Locker",
					"type": "address"
				}
			],
			"name": "revoke",
			"outputs": [],
			"stateMutability": "nonpayable",
			"type": "function"
		},
		{
			"inputs": [
				{
					"internalType": "address",
					"name": "liquidity",
					"type": "address"
				}
			],
			"name": "revokeLiquidity",
			"outputs": [],
			"stateMutability": "nonpayable",
			"type": "function"
		},
		{
			"inputs": [
				{
					"internalType": "uint256",
					"name": "delay_",
					"type": "uint256"
				}
			],
			"name": "setDelay",
			"outputs": [],
			"stateMutability": "nonpayable",
			"type": "function"
		},
		{
			"inputs": [
				{
					"internalType": "address",
					"name": "_governance",
					"type": "address"
				}
			],
			"name": "setGovernance",
			"outputs": [],
			"stateMutability": "nonpayable",
			"type": "function"
		},
		{
			"inputs": [
				{
					"internalType": "address",
					"name": "_guardian",
					"type": "address"
				}
			],
			"name": "setGuardian",
			"outputs": [],
			"stateMutability": "nonpayable",
			"type": "function"
		},
		{
			"inputs": [
				{
					"internalType": "address",
					"name": "Lk3rh",
					"type": "address"
				}
			],
			"name": "setLock3rHelper",
			"outputs": [],
			"stateMutability": "nonpayable",
			"type": "function"
		},
		{
			"inputs": [
				{
					"internalType": "uint256",
					"name": "quorum_",
					"type": "uint256"
				}
			],
			"name": "setQuorum",
			"outputs": [],
			"stateMutability": "nonpayable",
			"type": "function"
		},
		{
			"inputs": [
				{
					"internalType": "uint256",
					"name": "threshold_",
					"type": "uint256"
				}
			],
			"name": "setThreshold",
			"outputs": [],
			"stateMutability": "nonpayable",
			"type": "function"
		},
		{
			"inputs": [
				{
					"internalType": "address",
					"name": "bonded",
					"type": "address"
				},
				{
					"internalType": "address",
					"name": "Locker",
					"type": "address"
				},
				{
					"internalType": "uint256",
					"name": "amount",
					"type": "uint256"
				}
			],
			"name": "slash",
			"outputs": [],
			"stateMutability": "nonpayable",
			"type": "function"
		},
		{
			"inputs": [
				{
					"internalType": "uint256",
					"name": "proposalId",
					"type": "uint256"
				}
			],
			"name": "state",
			"outputs": [
				{
					"internalType": "enum Governance.ProposalState",
					"name": "",
					"type": "uint8"
				}
			],
			"stateMutability": "view",
			"type": "function"
		},
		{
			"inputs": [],
			"name": "votingDelay",
			"outputs": [
				{
					"internalType": "uint256",
					"name": "",
					"type": "uint256"
				}
			],
			"stateMutability": "pure",
			"type": "function"
		},
		{
			"inputs": [],
			"name": "votingPeriod",
			"outputs": [
				{
					"internalType": "uint256",
					"name": "",
					"type": "uint256"
				}
			],
			"stateMutability": "pure",
			"type": "function"
		},
		{
			"stateMutability": "payable",
			"type": "receive"
		}
	]
}