{
	"data": {
		"bytecode": {
			"linkReferences": {},
			"object": "6080604052680821ab0d441498000060005534801561001d57600080fd5b50600180546001600160a01b03191633179055612d388061003f6000396000f3fe60806040526004361061023f5760003560e01c80638373a7ab1161012e578063bc9c5941116100ab578063de4b5e071161006f578063de4b5e0714610698578063e4463eb2146106b8578063efa7dbbd146106cd578063f39c38a0146106ed578063ffb0a4a01461070257610246565b8063bc9c594114610603578063c45a015514610623578063c640752d14610638578063c88fa15914610658578063c9ff6f4d1461067857610246565b8063a75d39c2116100f2578063a75d39c21461056e578063ab033ea91461058e578063ad5c4648146105ae578063ae6ec9b7146105c3578063b1f0cad1146105e357610246565b80638373a7ab146104ce5780639119a8d5146104ee57806396ed28f91461050e5780639f4713031461052e578063a10d04381461054e57610246565b8063470838a0116101bc578063541bcb7611610180578063541bcb761461044f5780635aa6e67514610464578063677342ce1461047957806380bb2bac1461049957806381bfb885146104ae57610246565b8063470838a0146103ad5780634761703c146103da5780634b71c33c146103fa5780634d8ea0de1461041a57806352c28fab1461042f57610246565b8063202e1e4311610203578063202e1e4314610321578063238efcbc1461034e578063322e9f0414610363578063399b2fb9146103785780634411935e1461038d57610246565b8063024599661461024b578063064141e5146102835780630a793398146102a557806311a9b128146102d25780631b56bbf9146102f457610246565b3661024657005b600080fd5b34801561025757600080fd5b5061026b610266366004612435565b610724565b60405161027a93929190612c7b565b60405180910390f35b34801561028f57600080fd5b506102a361029e3660046125fc565b610763565b005b3480156102b157600080fd5b506102c56102c03660046124e8565b610782565b60405161027a9190612893565b3480156102de57600080fd5b506102e7610a67565b60405161027a9190612c36565b34801561030057600080fd5b5061031461030f3660046123e1565b610a6d565b60405161027a91906128d7565b34801561032d57600080fd5b5061034161033c3660046123e1565b610b34565b60405161027a9190612c15565b34801561035a57600080fd5b506102a3610ba2565b34801561036f57600080fd5b506102a3610bf0565b34801561038457600080fd5b506102a3610e88565b34801561039957600080fd5b506102e76103a836600461271e565b610f60565b3480156103b957600080fd5b506103cd6103c83660046123e1565b610f7c565b60405161027a9190612809565b3480156103e657600080fd5b506102c56103f53660046124a1565b610fb1565b34801561040657600080fd5b506102c56104153660046124a1565b610fcb565b34801561042657600080fd5b506103cd610fdb565b34801561043b57600080fd5b506102a361044a3660046123fd565b610ff3565b34801561045b57600080fd5b506103cd61114f565b34801561047057600080fd5b506103cd611167565b34801561048557600080fd5b506102e76104943660046126cd565b611176565b3480156104a557600080fd5b506103146111a8565b3480156104ba57600080fd5b506102e76104c93660046123e1565b611200565b3480156104da57600080fd5b506102e76104e9366004612539565b61121b565b3480156104fa57600080fd5b506102e7610509366004612460565b6112ae565b34801561051a57600080fd5b506103cd6105293660046123fd565b6112ca565b34801561053a57600080fd5b506103146105493660046123e1565b6112f4565b34801561055a57600080fd5b506102e7610569366004612460565b61130c565b34801561057a57600080fd5b506102e7610589366004612460565b611320565b34801561059a57600080fd5b506102a36105a93660046123e1565b611471565b3480156105ba57600080fd5b506103cd6114bd565b3480156105cf57600080fd5b506102e76105de3660046124a1565b6114d5565b3480156105ef57600080fd5b506102e76105fe3660046124e8565b61177b565b34801561060f57600080fd5b506102c561061e3660046124a1565b611797565b34801561062f57600080fd5b506103cd6117a7565b34801561064457600080fd5b506103146106533660046123fd565b6117bf565b34801561066457600080fd5b506102a36106733660046126cd565b611898565b34801561068457600080fd5b506103146106933660046126fd565b6118c7565b3480156106a457600080fd5b506102e76106b3366004612460565b6119ba565b3480156106c457600080fd5b506102e76119cf565b3480156106d957600080fd5b506102c56106e83660046124a1565b6119d5565b3480156106f957600080fd5b506103cd6119e5565b34801561070e57600080fd5b506107176119f4565b60405161027a9190612880565b6005602052816000526040600020818154811061073d57fe5b600091825260209091206003909102018054600182015460029092015490935090915083565b600061076e8461121b565b905061077b818484610f60565b5050505050565b606060006107a5735c69bee701ef814a2b6a3edd4b1652cb9cc5aa6f8887611a56565b905060006107b38887611ac6565b50905060608567ffffffffffffffff811180156107cf57600080fd5b506040519080825280602002602001820160405280156107f9578160200160208202803683370190505b506001600160a01b0384166000908152600560205260408120549192506000199091019061082982898902611b50565b90506000808c6001600160a01b0316866001600160a01b03161415610979575b83831015610974576001600160a01b03871660009081526005602052604090208054848b01935061095191908590811061087f57fe5b906000526020600020906003020160010154600560008a6001600160a01b03166001600160a01b0316815260200190815260200160002084815481106108c157fe5b906000526020600020906003020160010154600560008b6001600160a01b03166001600160a01b03168152602001908152602001600020868154811061090357fe5b600091825260208083206003909202909101546001600160a01b038d1683526005909152604090912080548790811061093857fe5b906000526020600020906003020160000154038f611b92565b85828151811061095d57fe5b602090810291909101015291880191600101610849565b610a56565b83831015610a56576001600160a01b03871660009081526005602052604090208054848b019350610a339190859081106109af57fe5b906000526020600020906003020160020154600560008a6001600160a01b03166001600160a01b0316815260200190815260200160002084815481106109f157fe5b906000526020600020906003020160020154600560008b6001600160a01b03166001600160a01b03168152602001908152602001600020868154811061090357fe5b858281518110610a3f57fe5b602090810291909101015291880191600101610979565b50929b9a5050505050505050505050565b60005481565b60008054604051630e4b131b60e21b815273e3f3869ddd41c23eff3630f58e5bfa584c770d679163392c4c6c91610aac9133918690819060040161281d565b602060405180830381600087803b158015610ac657600080fd5b505af1158015610ada573d6000803e3d6000fd5b505050506040513d601f19601f82011682018060405250810190610afe9190612648565b610b235760405162461bcd60e51b8152600401610b1a90612a9a565b60405180910390fd5b610b2c82611bf0565b90505b919050565b610b3c61232d565b6001600160a01b038216600090815260056020526040902080546000198101908110610b6457fe5b906000526020600020906003020160405180606001604052908160008201548152602001600182015481526020016002820154815250509050919050565b6002546001600160a01b03163314610bcc5760405162461bcd60e51b8152600401610b1a90612afd565b600254600180546001600160a01b0319166001600160a01b03909216919091179055565b60005a60008054604051630e4b131b60e21b815292935073e3f3869ddd41c23eff3630f58e5bfa584c770d679263392c4c6c92610c36923392909190819060040161281d565b602060405180830381600087803b158015610c5057600080fd5b505af1158015610c64573d6000803e3d6000fd5b505050506040513d601f19601f82011682018060405250810190610c889190612648565b610ca45760405162461bcd60e51b8152600401610b1a90612a9a565b6000610cae611c95565b905080610ccd5760405162461bcd60e51b8152600401610b1a90612be5565b50600073e3f3869ddd41c23eff3630f58e5bfa584c770d676001600160a01b031663f57cb3826040518163ffffffff1660e01b815260040160206040518083038186803b158015610d1d57600080fd5b505afa158015610d31573d6000803e3d6000fd5b505050506040513d601f19601f82011682018060405250810190610d559190612668565b6001600160a01b031663525ea631610d6e5a8590611b50565b6040518263ffffffff1660e01b8152600401610d8a9190612c36565b60206040518083038186803b158015610da257600080fd5b505afa158015610db6573d6000803e3d6000fd5b505050506040513d601f19601f82011682018060405250810190610dda91906126e5565b6040516346cd669760e11b815290915073e3f3869ddd41c23eff3630f58e5bfa584c770d6790638d9acd2e90610e1890839030908690600401612843565b600060405180830381600087803b158015610e3257600080fd5b505af1158015610e46573d6000803e3d6000fd5b50505050610e5381611cc9565b604051909150339082156108fc029083906000818181858888f19350505050158015610e83573d6000803e3d6000fd5b505050565b60008054604051630e4b131b60e21b815273e3f3869ddd41c23eff3630f58e5bfa584c770d679263392c4c6c92610ec692339290819060040161281d565b602060405180830381600087803b158015610ee057600080fd5b505af1158015610ef4573d6000803e3d6000fd5b505050506040513d601f19601f82011682018060405250810190610f189190612648565b610f345760405162461bcd60e51b8152600401610b1a90612a9a565b6000610f3e611c95565b905080610f5d5760405162461bcd60e51b8152600401610b1a90612be5565b50565b6000610f6b82611176565b8385602802020290505b9392505050565b6000610b2c735c69bee701ef814a2b6a3edd4b1652cb9cc5aa6f8373c02aaa39b223fe8d0a0e5c4f27ead9083c756cc2611a56565b6060610fc285858585610150610782565b95945050505050565b6060610fc2858585856030610782565b73e3f3869ddd41c23eff3630f58e5bfa584c770d6781565b6001546001600160a01b0316331461101d5760405162461bcd60e51b8152600401610b1a9061296c565b600061103e735c69bee701ef814a2b6a3edd4b1652cb9cc5aa6f8484611a56565b6001600160a01b03811660009081526004602052604090205490915060ff161561107a5760405162461bcd60e51b8152600401610b1a90612ade565b6001600160a01b0381166000818152600460205260408120805460ff1916600190811790915560038054918201815582527fc2575a0e9e593c00f959f8c92f12db2869c3395a3b0502d05e2516446f71f85b0180546001600160a01b031916909217909155806110e983611f51565b506001600160a01b0390941660009081526005602090815260408083208151606081018352428152808401958652918201978852805460018181018355918552929093209051600390920201908155915190820155925160029093019290925550505050565b737a250d5630b4cf539739df2c5dacb4c659f2488d81565b6001546001600160a01b031681565b600060026001830104825b80821015610f7557508060028180868161119757fe5b0401816111a057fe5b049150611181565b6000805b6003548110156111f7576111e0600382815481106111c657fe5b6000918252602090912001546001600160a01b03166112f4565b156111ef5760019150506111fd565b6001016111ac565b50600090505b90565b6001600160a01b031660009081526005602052604090205490565b600080805b835181101561124e5783818151811061123557fe5b6020026020010151820191508080600101915050611220565b5060008351828161125b57fe5b0490506000915060005b84518110156112985760028286838151811061127d57fe5b6020026020010151030a830192508080600101915050611265565b610fc2600186510384816112a857fe5b04611176565b60006112c26104e985858560016030610782565b949350505050565b60006112eb735c69bee701ef814a2b6a3edd4b1652cb9cc5aa6f8484611a56565b90505b92915050565b600061070861130283610b34565b5142031192915050565b60006112c26104e985858560016002610782565b600080611342735c69bee701ef814a2b6a3edd4b1652cb9cc5aa6f8685611a56565b905061135a816113556107086002612126565b612160565b6113765760405162461bcd60e51b8152600401610b1a90612a15565b60006113828685611ac6565b50905061138d61232d565b61139683610b34565b90506000806113a485611f51565b5084519193509150421415611415576001600160a01b0385166000908152600560205260409020805460011981019081106113db57fe5b9060005260206000209060030201604051806060016040529081600082015481526020016001820154815260200160028201548152505092505b8251420380156114255780611428565b60015b9050896001600160a01b0316856001600160a01b0316141561146157611454846020015184838c611b92565b9650505050505050610f75565b611454846040015183838c611b92565b6001546001600160a01b0316331461149b5760405162461bcd60e51b8152600401610b1a906129a3565b600280546001600160a01b0319166001600160a01b0392909216919091179055565b73c02aaa39b223fe8d0a0e5c4f27ead9083c756cc281565b6000806114f7735c69bee701ef814a2b6a3edd4b1652cb9cc5aa6f8786611a56565b90506115098161135561070886612126565b6115255760405162461bcd60e51b8152600401610b1a90612a15565b60006115318786611ac6565b506001600160a01b03831660009081526005602052604081205491925090600019018161155e8288611b50565b905060008a6001600160a01b0316856001600160a01b03161415611699575b8282101561169457506001600160a01b03851660009081526005602052604090208054600183019161168591849081106115b357fe5b90600052602060002090600302016001015460056000896001600160a01b03166001600160a01b0316815260200190815260200160002083815481106115f557fe5b906000526020600020906003020160010154600560008a6001600160a01b03166001600160a01b03168152602001908152602001600020858154811061163757fe5b600091825260208083206003909202909101546001600160a01b038c1683526005909152604090912080548690811061166c57fe5b906000526020600020906003020160000154038d611b92565b9093019260019091019061157d565b611762565b8282101561176257506001600160a01b03851660009081526005602052604090208054600183019161175391849081106116cf57fe5b90600052602060002090600302016002015460056000896001600160a01b03166001600160a01b03168152602001908152602001600020838154811061171157fe5b906000526020600020906003020160020154600560008a6001600160a01b03166001600160a01b03168152602001908152602001600020858154811061163757fe5b90930192600190910190611699565b61176c8489612178565b9b9a5050505050505050505050565b600061178d6104e98787878787610782565b9695505050505050565b6060610fc2858585856001610782565b735c69bee701ef814a2b6a3edd4b1652cb9cc5aa6f81565b60008054604051630e4b131b60e21b815273e3f3869ddd41c23eff3630f58e5bfa584c770d679163392c4c6c916117fe9133918690819060040161281d565b602060405180830381600087803b15801561181857600080fd5b505af115801561182c573d6000803e3d6000fd5b505050506040513d601f19601f820116820180604052508101906118509190612648565b61186c5760405162461bcd60e51b8152600401610b1a90612a9a565b600061188d735c69bee701ef814a2b6a3edd4b1652cb9cc5aa6f8585611a56565b90506112c281611bf0565b6001546001600160a01b031633146118c25760405162461bcd60e51b8152600401610b1a906129a3565b600055565b60008054604051630e4b131b60e21b815273e3f3869ddd41c23eff3630f58e5bfa584c770d679163392c4c6c916119069133918690819060040161281d565b602060405180830381600087803b15801561192057600080fd5b505af1158015611934573d6000803e3d6000fd5b505050506040513d601f19601f820116820180604052508101906119589190612648565b6119745760405162461bcd60e51b8152600401610b1a90612a9a565b818310156112ee576119a66003848154811061198c57fe5b6000918252602090912001546001600160a01b0316611bf0565b156119af575060015b600190920191611974565b60006112c26104e98585856001610150610782565b61070881565b6060610fc2858585856002610782565b6002546001600160a01b031681565b60606003805480602002602001604051908101604052809291908181526020018280548015611a4c57602002820191906000526020600020905b81546001600160a01b03168152600190910190602001808311611a2e575b5050505050905090565b6000806000611a658585611ac6565b91509150858282604051602001611a7d92919061278c565b60405160208183030381529060405280519060200120604051602001611aa49291906127b3565b60408051601f1981840301815291905280516020909101209695505050505050565b600080826001600160a01b0316846001600160a01b03161415611afb5760405162461bcd60e51b8152600401610b1a906129d0565b826001600160a01b0316846001600160a01b031610611b1b578284611b1e565b83835b90925090506001600160a01b038216611b495760405162461bcd60e51b8152600401610b1a90612b77565b9250929050565b60006112eb83836040518060400160405280601f81526020017f536166654d6174683a207375627472616374696f6e20756e646572666c6f77008152506121ba565b6000611b9c61234e565b60405180602001604052808588880381611bb257fe5b046001600160e01b031690529050611bd2611bcd82856121e6565b612245565b71ffffffffffffffffffffffffffffffffffff169695505050505050565b6000611bfa61232d565b611c0383610b34565b80519091504203610708811115611c8b57600080611c2086611f51565b506001600160a01b0388166000908152600560209081526040808320815160608101835242815280840196875291820194855280546001818101835591855292909320905160039092020190815592518382015590516002909201919091559450610b2f9350505050565b5060009392505050565b6000805b600354811015611cc557611cb36003828154811061198c57fe5b15611cbd57600191505b600101611c99565b5090565b60405163095ea7b360e01b815260009073e3f3869ddd41c23eff3630f58e5bfa584c770d679063095ea7b390611d1990737a250d5630b4cf539739df2c5dacb4c659f2488d908690600401612867565b602060405180830381600087803b158015611d3357600080fd5b505af1158015611d47573d6000803e3d6000fd5b505050506040513d601f19601f82011682018060405250810190611d6b9190612648565b50604080516002808252606080830184529260208301908036833701905050905073e3f3869ddd41c23eff3630f58e5bfa584c770d6781600081518110611dae57fe5b60200260200101906001600160a01b031690816001600160a01b03168152505073c02aaa39b223fe8d0a0e5c4f27ead9083c756cc281600181518110611df057fe5b6001600160a01b03909216602092830291909101909101526060737a250d5630b4cf539739df2c5dacb4c659f2488d6338ed17398560008530611e354261070861224c565b6040518663ffffffff1660e01b8152600401611e55959493929190612c3f565b600060405180830381600087803b158015611e6f57600080fd5b505af1158015611e83573d6000803e3d6000fd5b505050506040513d6000823e601f3d908101601f19168201604052611eab919081019061256c565b905073c02aaa39b223fe8d0a0e5c4f27ead9083c756cc26001600160a01b0316632e1a7d4d82600181518110611edd57fe5b60200260200101516040518263ffffffff1660e01b8152600401611f019190612c36565b600060405180830381600087803b158015611f1b57600080fd5b505af1158015611f2f573d6000803e3d6000fd5b5050505080600181518110611f4057fe5b602002602001015192505050919050565b6000806000611f5e612271565b9050836001600160a01b0316635909c0d56040518163ffffffff1660e01b815260040160206040518083038186803b158015611f9957600080fd5b505afa158015611fad573d6000803e3d6000fd5b505050506040513d601f19601f82011682018060405250810190611fd191906126e5565b9250836001600160a01b0316635a3d54936040518163ffffffff1660e01b815260040160206040518083038186803b15801561200c57600080fd5b505afa158015612020573d6000803e3d6000fd5b505050506040513d601f19601f8201168201806040525081019061204491906126e5565b91506000806000866001600160a01b0316630902f1ac6040518163ffffffff1660e01b815260040160606040518083038186803b15801561208457600080fd5b505afa158015612098573d6000803e3d6000fd5b505050506040513d601f19601f820116820180604052508101906120bc9190612684565b9250925092508363ffffffff168163ffffffff161461211c5780840363ffffffff81166120e9848661227b565b516001600160e01b031602969096019563ffffffff811661210a858561227b565b516001600160e01b0316029590950194505b5050509193909250565b600082612135575060006112ee565b8282028284828161214257fe5b04146112eb5760405162461bcd60e51b8152600401610b1a90612a59565b60008161216c84610b34565b51420311159392505050565b60006112eb83836040518060400160405280601a81526020017f536166654d6174683a206469766973696f6e206279207a65726f0000000000008152506122f6565b600081848411156121de5760405162461bcd60e51b8152600401610b1a91906128e2565b505050900390565b6121ee612360565b600082158061221457505082516001600160e01b03168281029083828161221157fe5b04145b6122305760405162461bcd60e51b8152600401610b1a90612b34565b60408051602081019091529081529392505050565b5160701c90565b6000828201838110156112eb5760405162461bcd60e51b8152600401610b1a90612935565b63ffffffff421690565b61228361234e565b6000826001600160701b0316116122ac5760405162461bcd60e51b8152600401610b1a90612bae565b6040805160208101909152806001600160701b0384166dffffffffffffffffffffffffffff60701b607087901b16816122e157fe5b046001600160e01b0316815250905092915050565b600081836123175760405162461bcd60e51b8152600401610b1a91906128e2565b50600083858161232357fe5b0495945050505050565b60405180606001604052806000815260200160008152602001600081525090565b60408051602081019091526000815290565b6040518060200160405280600081525090565b600082601f830112612383578081fd5b813561239661239182612cb8565b612c91565b8181529150602080830190848101818402860182018710156123b757600080fd5b60005b848110156123d6578135845292820192908201906001016123ba565b505050505092915050565b6000602082840312156123f2578081fd5b81356112eb81612cd8565b6000806040838503121561240f578081fd5b823561241a81612cd8565b9150602083013561242a81612cd8565b809150509250929050565b60008060408385031215612447578182fd5b823561245281612cd8565b946020939093013593505050565b600080600060608486031215612474578081fd5b833561247f81612cd8565b925060208401359150604084013561249681612cd8565b809150509250925092565b600080600080608085870312156124b6578081fd5b84356124c181612cd8565b93506020850135925060408501356124d881612cd8565b9396929550929360600135925050565b600080600080600060a086880312156124ff578081fd5b853561250a81612cd8565b945060208601359350604086013561252181612cd8565b94979396509394606081013594506080013592915050565b60006020828403121561254a578081fd5b813567ffffffffffffffff811115612560578182fd5b6112c284828501612373565b6000602080838503121561257e578182fd5b825167ffffffffffffffff811115612594578283fd5b8301601f810185136125a4578283fd5b80516125b261239182612cb8565b81815283810190838501858402850186018910156125ce578687fd5b8694505b838510156125f05780518352600194909401939185019185016125d2565b50979650505050505050565b600080600060608486031215612610578283fd5b833567ffffffffffffffff811115612626578384fd5b61263286828701612373565b9660208601359650604090950135949350505050565b600060208284031215612659578081fd5b815180151581146112eb578182fd5b600060208284031215612679578081fd5b81516112eb81612cd8565b600080600060608486031215612698578283fd5b83516126a381612ced565b60208501519093506126b481612ced565b604085015190925063ffffffff81168114612496578182fd5b6000602082840312156126de578081fd5b5035919050565b6000602082840312156126f6578081fd5b5051919050565b6000806040838503121561270f578182fd5b50508035926020909101359150565b600080600060608486031215612732578081fd5b505081359360208301359350604090920135919050565b6000815180845260208085019450808401835b838110156127815781516001600160a01b03168752958201959082019060010161275c565b509495945050505050565b6bffffffffffffffffffffffff19606093841b811682529190921b16601482015260280190565b6001600160f81b0319815260609290921b6bffffffffffffffffffffffff1916600183015260158201527f96e8ac4277198ff8b6f785478aa9a39f403cb768dd02cbee326c3e7da348845f603582015260550190565b6001600160a01b0391909116815260200190565b6001600160a01b0394909416845260208401929092526040830152606082015260800190565b6001600160a01b039384168152919092166020820152604081019190915260600190565b6001600160a01b03929092168252602082015260400190565b6000602082526112eb6020830184612749565b6020808252825182820181905260009190848201906040850190845b818110156128cb578351835292840192918401916001016128af565b50909695505050505050565b901515815260200190565b6000602080835283518082850152825b8181101561290e578581018301518582016040015282016128f2565b8181111561291f5783604083870101525b50601f01601f1916929092016040019392505050565b6020808252601b908201527f536166654d6174683a206164646974696f6e206f766572666c6f770000000000604082015260600190565b6020808252601a908201527f556e697377617056324f7261636c653a3a6164643a2021676f76000000000000604082015260600190565b60208082526013908201527239b2ba23b7bb32b93730b731b29d1010b3b7bb60691b604082015260600190565b60208082526025908201527f556e697377617056324c6962726172793a204944454e544943414c5f41444452604082015264455353455360d81b606082015260800190565b60208082526024908201527f556e697377617056324f7261636c653a3a71756f74653a207374616c652070726040820152636963657360e01b606082015260800190565b60208082526021908201527f536166654d6174683a206d756c7469706c69636174696f6e206f766572666c6f6040820152607760f81b606082015260800190565b60208082526024908201527f3a3a69734c6f636b65723a206c6f636b6572206973206e6f7420726567697374604082015263195c995960e21b606082015260800190565b60208082526005908201526435b737bbb760d91b604082015260600190565b6020808252601d908201527f616363657074476f7665726e616e63653a202170656e64696e67476f76000000604082015260600190565b60208082526023908201527f4669786564506f696e743a204d554c5449504c49434154494f4e5f4f564552466040820152624c4f5760e81b606082015260800190565b6020808252601e908201527f556e697377617056324c6962726172793a205a45524f5f414444524553530000604082015260600190565b60208082526017908201527f4669786564506f696e743a204449565f42595f5a45524f000000000000000000604082015260600190565b602080825260169082015275556e697377617056324f7261636c653a2021776f726b60501b604082015260600190565b81518152602080830151908201526040918201519181019190915260600190565b90815260200190565b600086825285602083015260a06040830152612c5e60a0830186612749565b6001600160a01b0394909416606083015250608001529392505050565b9283526020830191909152604082015260600190565b60405181810167ffffffffffffffff81118282101715612cb057600080fd5b604052919050565b600067ffffffffffffffff821115612cce578081fd5b5060209081020190565b6001600160a01b0381168114610f5d57600080fd5b6001600160701b0381168114610f5d57600080fdfea2646970667358221220528fce22957b62e47c82ade84a5746a42772b4aa1802c77c32e36bc25498347864736f6c634300060c0033",
			"opcodes": "PUSH1 0x80 PUSH1 0x40 MSTORE PUSH9 0x821AB0D4414980000 PUSH1 0x0 SSTORE CALLVALUE DUP1 ISZERO PUSH2 0x1D JUMPI PUSH1 0x0 DUP1 REVERT JUMPDEST POP PUSH1 0x1 DUP1 SLOAD PUSH1 0x1 PUSH1 0x1 PUSH1 0xA0 SHL SUB NOT AND CALLER OR SWAP1 SSTORE PUSH2 0x2D38 DUP1 PUSH2 0x3F PUSH1 0x0 CODECOPY PUSH1 0x0 RETURN INVALID PUSH1 0x80 PUSH1 0x40 MSTORE PUSH1 0x4 CALLDATASIZE LT PUSH2 0x23F JUMPI PUSH1 0x0 CALLDATALOAD PUSH1 0xE0 SHR DUP1 PUSH4 0x8373A7AB GT PUSH2 0x12E JUMPI DUP1 PUSH4 0xBC9C5941 GT PUSH2 0xAB JUMPI DUP1 PUSH4 0xDE4B5E07 GT PUSH2 0x6F JUMPI DUP1 PUSH4 0xDE4B5E07 EQ PUSH2 0x698 JUMPI DUP1 PUSH4 0xE4463EB2 EQ PUSH2 0x6B8 JUMPI DUP1 PUSH4 0xEFA7DBBD EQ PUSH2 0x6CD JUMPI DUP1 PUSH4 0xF39C38A0 EQ PUSH2 0x6ED JUMPI DUP1 PUSH4 0xFFB0A4A0 EQ PUSH2 0x702 JUMPI PUSH2 0x246 JUMP JUMPDEST DUP1 PUSH4 0xBC9C5941 EQ PUSH2 0x603 JUMPI DUP1 PUSH4 0xC45A0155 EQ PUSH2 0x623 JUMPI DUP1 PUSH4 0xC640752D EQ PUSH2 0x638 JUMPI DUP1 PUSH4 0xC88FA159 EQ PUSH2 0x658 JUMPI DUP1 PUSH4 0xC9FF6F4D EQ PUSH2 0x678 JUMPI PUSH2 0x246 JUMP JUMPDEST DUP1 PUSH4 0xA75D39C2 GT PUSH2 0xF2 JUMPI DUP1 PUSH4 0xA75D39C2 EQ PUSH2 0x56E JUMPI DUP1 PUSH4 0xAB033EA9 EQ PUSH2 0x58E JUMPI DUP1 PUSH4 0xAD5C4648 EQ PUSH2 0x5AE JUMPI DUP1 PUSH4 0xAE6EC9B7 EQ PUSH2 0x5C3 JUMPI DUP1 PUSH4 0xB1F0CAD1 EQ PUSH2 0x5E3 JUMPI PUSH2 0x246 JUMP JUMPDEST DUP1 PUSH4 0x8373A7AB EQ PUSH2 0x4CE JUMPI DUP1 PUSH4 0x9119A8D5 EQ PUSH2 0x4EE JUMPI DUP1 PUSH4 0x96ED28F9 EQ PUSH2 0x50E JUMPI DUP1 PUSH4 0x9F471303 EQ PUSH2 0x52E JUMPI DUP1 PUSH4 0xA10D0438 EQ PUSH2 0x54E JUMPI PUSH2 0x246 JUMP JUMPDEST DUP1 PUSH4 0x470838A0 GT PUSH2 0x1BC JUMPI DUP1 PUSH4 0x541BCB76 GT PUSH2 0x180 JUMPI DUP1 PUSH4 0x541BCB76 EQ PUSH2 0x44F JUMPI DUP1 PUSH4 0x5AA6E675 EQ PUSH2 0x464 JUMPI DUP1 PUSH4 0x677342CE EQ PUSH2 0x479 JUMPI DUP1 PUSH4 0x80BB2BAC EQ PUSH2 0x499 JUMPI DUP1 PUSH4 0x81BFB885 EQ PUSH2 0x4AE JUMPI PUSH2 0x246 JUMP JUMPDEST DUP1 PUSH4 0x470838A0 EQ PUSH2 0x3AD JUMPI DUP1 PUSH4 0x4761703C EQ PUSH2 0x3DA JUMPI DUP1 PUSH4 0x4B71C33C EQ PUSH2 0x3FA JUMPI DUP1 PUSH4 0x4D8EA0DE EQ PUSH2 0x41A JUMPI DUP1 PUSH4 0x52C28FAB EQ PUSH2 0x42F JUMPI PUSH2 0x246 JUMP JUMPDEST DUP1 PUSH4 0x202E1E43 GT PUSH2 0x203 JUMPI DUP1 PUSH4 0x202E1E43 EQ PUSH2 0x321 JUMPI DUP1 PUSH4 0x238EFCBC EQ PUSH2 0x34E JUMPI DUP1 PUSH4 0x322E9F04 EQ PUSH2 0x363 JUMPI DUP1 PUSH4 0x399B2FB9 EQ PUSH2 0x378 JUMPI DUP1 PUSH4 0x4411935E EQ PUSH2 0x38D JUMPI PUSH2 0x246 JUMP JUMPDEST DUP1 PUSH4 0x2459966 EQ PUSH2 0x24B JUMPI DUP1 PUSH4 0x64141E5 EQ PUSH2 0x283 JUMPI DUP1 PUSH4 0xA793398 EQ PUSH2 0x2A5 JUMPI DUP1 PUSH4 0x11A9B128 EQ PUSH2 0x2D2 JUMPI DUP1 PUSH4 0x1B56BBF9 EQ PUSH2 0x2F4 JUMPI PUSH2 0x246 JUMP JUMPDEST CALLDATASIZE PUSH2 0x246 JUMPI STOP JUMPDEST PUSH1 0x0 DUP1 REVERT JUMPDEST CALLVALUE DUP1 ISZERO PUSH2 0x257 JUMPI PUSH1 0x0 DUP1 REVERT JUMPDEST POP PUSH2 0x26B PUSH2 0x266 CALLDATASIZE PUSH1 0x4 PUSH2 0x2435 JUMP JUMPDEST PUSH2 0x724 JUMP JUMPDEST PUSH1 0x40 MLOAD PUSH2 0x27A SWAP4 SWAP3 SWAP2 SWAP1 PUSH2 0x2C7B JUMP JUMPDEST PUSH1 0x40 MLOAD DUP1 SWAP2 SUB SWAP1 RETURN JUMPDEST CALLVALUE DUP1 ISZERO PUSH2 0x28F JUMPI PUSH1 0x0 DUP1 REVERT JUMPDEST POP PUSH2 0x2A3 PUSH2 0x29E CALLDATASIZE PUSH1 0x4 PUSH2 0x25FC JUMP JUMPDEST PUSH2 0x763 JUMP JUMPDEST STOP JUMPDEST CALLVALUE DUP1 ISZERO PUSH2 0x2B1 JUMPI PUSH1 0x0 DUP1 REVERT JUMPDEST POP PUSH2 0x2C5 PUSH2 0x2C0 CALLDATASIZE PUSH1 0x4 PUSH2 0x24E8 JUMP JUMPDEST PUSH2 0x782 JUMP JUMPDEST PUSH1 0x40 MLOAD PUSH2 0x27A SWAP2 SWAP1 PUSH2 0x2893 JUMP JUMPDEST CALLVALUE DUP1 ISZERO PUSH2 0x2DE JUMPI PUSH1 0x0 DUP1 REVERT JUMPDEST POP PUSH2 0x2E7 PUSH2 0xA67 JUMP JUMPDEST PUSH1 0x40 MLOAD PUSH2 0x27A SWAP2 SWAP1 PUSH2 0x2C36 JUMP JUMPDEST CALLVALUE DUP1 ISZERO PUSH2 0x300 JUMPI PUSH1 0x0 DUP1 REVERT JUMPDEST POP PUSH2 0x314 PUSH2 0x30F CALLDATASIZE PUSH1 0x4 PUSH2 0x23E1 JUMP JUMPDEST PUSH2 0xA6D JUMP JUMPDEST PUSH1 0x40 MLOAD PUSH2 0x27A SWAP2 SWAP1 PUSH2 0x28D7 JUMP JUMPDEST CALLVALUE DUP1 ISZERO PUSH2 0x32D JUMPI PUSH1 0x0 DUP1 REVERT JUMPDEST POP PUSH2 0x341 PUSH2 0x33C CALLDATASIZE PUSH1 0x4 PUSH2 0x23E1 JUMP JUMPDEST PUSH2 0xB34 JUMP JUMPDEST PUSH1 0x40 MLOAD PUSH2 0x27A SWAP2 SWAP1 PUSH2 0x2C15 JUMP JUMPDEST CALLVALUE DUP1 ISZERO PUSH2 0x35A JUMPI PUSH1 0x0 DUP1 REVERT JUMPDEST POP PUSH2 0x2A3 PUSH2 0xBA2 JUMP JUMPDEST CALLVALUE DUP1 ISZERO PUSH2 0x36F JUMPI PUSH1 0x0 DUP1 REVERT JUMPDEST POP PUSH2 0x2A3 PUSH2 0xBF0 JUMP JUMPDEST CALLVALUE DUP1 ISZERO PUSH2 0x384 JUMPI PUSH1 0x0 DUP1 REVERT JUMPDEST POP PUSH2 0x2A3 PUSH2 0xE88 JUMP JUMPDEST CALLVALUE DUP1 ISZERO PUSH2 0x399 JUMPI PUSH1 0x0 DUP1 REVERT JUMPDEST POP PUSH2 0x2E7 PUSH2 0x3A8 CALLDATASIZE PUSH1 0x4 PUSH2 0x271E JUMP JUMPDEST PUSH2 0xF60 JUMP JUMPDEST CALLVALUE DUP1 ISZERO PUSH2 0x3B9 JUMPI PUSH1 0x0 DUP1 REVERT JUMPDEST POP PUSH2 0x3CD PUSH2 0x3C8 CALLDATASIZE PUSH1 0x4 PUSH2 0x23E1 JUMP JUMPDEST PUSH2 0xF7C JUMP JUMPDEST PUSH1 0x40 MLOAD PUSH2 0x27A SWAP2 SWAP1 PUSH2 0x2809 JUMP JUMPDEST CALLVALUE DUP1 ISZERO PUSH2 0x3E6 JUMPI PUSH1 0x0 DUP1 REVERT JUMPDEST POP PUSH2 0x2C5 PUSH2 0x3F5 CALLDATASIZE PUSH1 0x4 PUSH2 0x24A1 JUMP JUMPDEST PUSH2 0xFB1 JUMP JUMPDEST CALLVALUE DUP1 ISZERO PUSH2 0x406 JUMPI PUSH1 0x0 DUP1 REVERT JUMPDEST POP PUSH2 0x2C5 PUSH2 0x415 CALLDATASIZE PUSH1 0x4 PUSH2 0x24A1 JUMP JUMPDEST PUSH2 0xFCB JUMP JUMPDEST CALLVALUE DUP1 ISZERO PUSH2 0x426 JUMPI PUSH1 0x0 DUP1 REVERT JUMPDEST POP PUSH2 0x3CD PUSH2 0xFDB JUMP JUMPDEST CALLVALUE DUP1 ISZERO PUSH2 0x43B JUMPI PUSH1 0x0 DUP1 REVERT JUMPDEST POP PUSH2 0x2A3 PUSH2 0x44A CALLDATASIZE PUSH1 0x4 PUSH2 0x23FD JUMP JUMPDEST PUSH2 0xFF3 JUMP JUMPDEST CALLVALUE DUP1 ISZERO PUSH2 0x45B JUMPI PUSH1 0x0 DUP1 REVERT JUMPDEST POP PUSH2 0x3CD PUSH2 0x114F JUMP JUMPDEST CALLVALUE DUP1 ISZERO PUSH2 0x470 JUMPI PUSH1 0x0 DUP1 REVERT JUMPDEST POP PUSH2 0x3CD PUSH2 0x1167 JUMP JUMPDEST CALLVALUE DUP1 ISZERO PUSH2 0x485 JUMPI PUSH1 0x0 DUP1 REVERT JUMPDEST POP PUSH2 0x2E7 PUSH2 0x494 CALLDATASIZE PUSH1 0x4 PUSH2 0x26CD JUMP JUMPDEST PUSH2 0x1176 JUMP JUMPDEST CALLVALUE DUP1 ISZERO PUSH2 0x4A5 JUMPI PUSH1 0x0 DUP1 REVERT JUMPDEST POP PUSH2 0x314 PUSH2 0x11A8 JUMP JUMPDEST CALLVALUE DUP1 ISZERO PUSH2 0x4BA JUMPI PUSH1 0x0 DUP1 REVERT JUMPDEST POP PUSH2 0x2E7 PUSH2 0x4C9 CALLDATASIZE PUSH1 0x4 PUSH2 0x23E1 JUMP JUMPDEST PUSH2 0x1200 JUMP JUMPDEST CALLVALUE DUP1 ISZERO PUSH2 0x4DA JUMPI PUSH1 0x0 DUP1 REVERT JUMPDEST POP PUSH2 0x2E7 PUSH2 0x4E9 CALLDATASIZE PUSH1 0x4 PUSH2 0x2539 JUMP JUMPDEST PUSH2 0x121B JUMP JUMPDEST CALLVALUE DUP1 ISZERO PUSH2 0x4FA JUMPI PUSH1 0x0 DUP1 REVERT JUMPDEST POP PUSH2 0x2E7 PUSH2 0x509 CALLDATASIZE PUSH1 0x4 PUSH2 0x2460 JUMP JUMPDEST PUSH2 0x12AE JUMP JUMPDEST CALLVALUE DUP1 ISZERO PUSH2 0x51A JUMPI PUSH1 0x0 DUP1 REVERT JUMPDEST POP PUSH2 0x3CD PUSH2 0x529 CALLDATASIZE PUSH1 0x4 PUSH2 0x23FD JUMP JUMPDEST PUSH2 0x12CA JUMP JUMPDEST CALLVALUE DUP1 ISZERO PUSH2 0x53A JUMPI PUSH1 0x0 DUP1 REVERT JUMPDEST POP PUSH2 0x314 PUSH2 0x549 CALLDATASIZE PUSH1 0x4 PUSH2 0x23E1 JUMP JUMPDEST PUSH2 0x12F4 JUMP JUMPDEST CALLVALUE DUP1 ISZERO PUSH2 0x55A JUMPI PUSH1 0x0 DUP1 REVERT JUMPDEST POP PUSH2 0x2E7 PUSH2 0x569 CALLDATASIZE PUSH1 0x4 PUSH2 0x2460 JUMP JUMPDEST PUSH2 0x130C JUMP JUMPDEST CALLVALUE DUP1 ISZERO PUSH2 0x57A JUMPI PUSH1 0x0 DUP1 REVERT JUMPDEST POP PUSH2 0x2E7 PUSH2 0x589 CALLDATASIZE PUSH1 0x4 PUSH2 0x2460 JUMP JUMPDEST PUSH2 0x1320 JUMP JUMPDEST CALLVALUE DUP1 ISZERO PUSH2 0x59A JUMPI PUSH1 0x0 DUP1 REVERT JUMPDEST POP PUSH2 0x2A3 PUSH2 0x5A9 CALLDATASIZE PUSH1 0x4 PUSH2 0x23E1 JUMP JUMPDEST PUSH2 0x1471 JUMP JUMPDEST CALLVALUE DUP1 ISZERO PUSH2 0x5BA JUMPI PUSH1 0x0 DUP1 REVERT JUMPDEST POP PUSH2 0x3CD PUSH2 0x14BD JUMP JUMPDEST CALLVALUE DUP1 ISZERO PUSH2 0x5CF JUMPI PUSH1 0x0 DUP1 REVERT JUMPDEST POP PUSH2 0x2E7 PUSH2 0x5DE CALLDATASIZE PUSH1 0x4 PUSH2 0x24A1 JUMP JUMPDEST PUSH2 0x14D5 JUMP JUMPDEST CALLVALUE DUP1 ISZERO PUSH2 0x5EF JUMPI PUSH1 0x0 DUP1 REVERT JUMPDEST POP PUSH2 0x2E7 PUSH2 0x5FE CALLDATASIZE PUSH1 0x4 PUSH2 0x24E8 JUMP JUMPDEST PUSH2 0x177B JUMP JUMPDEST CALLVALUE DUP1 ISZERO PUSH2 0x60F JUMPI PUSH1 0x0 DUP1 REVERT JUMPDEST POP PUSH2 0x2C5 PUSH2 0x61E CALLDATASIZE PUSH1 0x4 PUSH2 0x24A1 JUMP JUMPDEST PUSH2 0x1797 JUMP JUMPDEST CALLVALUE DUP1 ISZERO PUSH2 0x62F JUMPI PUSH1 0x0 DUP1 REVERT JUMPDEST POP PUSH2 0x3CD PUSH2 0x17A7 JUMP JUMPDEST CALLVALUE DUP1 ISZERO PUSH2 0x644 JUMPI PUSH1 0x0 DUP1 REVERT JUMPDEST POP PUSH2 0x314 PUSH2 0x653 CALLDATASIZE PUSH1 0x4 PUSH2 0x23FD JUMP JUMPDEST PUSH2 0x17BF JUMP JUMPDEST CALLVALUE DUP1 ISZERO PUSH2 0x664 JUMPI PUSH1 0x0 DUP1 REVERT JUMPDEST POP PUSH2 0x2A3 PUSH2 0x673 CALLDATASIZE PUSH1 0x4 PUSH2 0x26CD JUMP JUMPDEST PUSH2 0x1898 JUMP JUMPDEST CALLVALUE DUP1 ISZERO PUSH2 0x684 JUMPI PUSH1 0x0 DUP1 REVERT JUMPDEST POP PUSH2 0x314 PUSH2 0x693 CALLDATASIZE PUSH1 0x4 PUSH2 0x26FD JUMP JUMPDEST PUSH2 0x18C7 JUMP JUMPDEST CALLVALUE DUP1 ISZERO PUSH2 0x6A4 JUMPI PUSH1 0x0 DUP1 REVERT JUMPDEST POP PUSH2 0x2E7 PUSH2 0x6B3 CALLDATASIZE PUSH1 0x4 PUSH2 0x2460 JUMP JUMPDEST PUSH2 0x19BA JUMP JUMPDEST CALLVALUE DUP1 ISZERO PUSH2 0x6C4 JUMPI PUSH1 0x0 DUP1 REVERT JUMPDEST POP PUSH2 0x2E7 PUSH2 0x19CF JUMP JUMPDEST CALLVALUE DUP1 ISZERO PUSH2 0x6D9 JUMPI PUSH1 0x0 DUP1 REVERT JUMPDEST POP PUSH2 0x2C5 PUSH2 0x6E8 CALLDATASIZE PUSH1 0x4 PUSH2 0x24A1 JUMP JUMPDEST PUSH2 0x19D5 JUMP JUMPDEST CALLVALUE DUP1 ISZERO PUSH2 0x6F9 JUMPI PUSH1 0x0 DUP1 REVERT JUMPDEST POP PUSH2 0x3CD PUSH2 0x19E5 JUMP JUMPDEST CALLVALUE DUP1 ISZERO PUSH2 0x70E JUMPI PUSH1 0x0 DUP1 REVERT JUMPDEST POP PUSH2 0x717 PUSH2 0x19F4 JUMP JUMPDEST PUSH1 0x40 MLOAD PUSH2 0x27A SWAP2 SWAP1 PUSH2 0x2880 JUMP JUMPDEST PUSH1 0x5 PUSH1 0x20 MSTORE DUP2 PUSH1 0x0 MSTORE PUSH1 0x40 PUSH1 0x0 KECCAK256 DUP2 DUP2 SLOAD DUP2 LT PUSH2 0x73D JUMPI INVALID JUMPDEST PUSH1 0x0 SWAP2 DUP3 MSTORE PUSH1 0x20 SWAP1 SWAP2 KECCAK256 PUSH1 0x3 SWAP1 SWAP2 MUL ADD DUP1 SLOAD PUSH1 0x1 DUP3 ADD SLOAD PUSH1 0x2 SWAP1 SWAP3 ADD SLOAD SWAP1 SWAP4 POP SWAP1 SWAP2 POP DUP4 JUMP JUMPDEST PUSH1 0x0 PUSH2 0x76E DUP5 PUSH2 0x121B JUMP JUMPDEST SWAP1 POP PUSH2 0x77B DUP2 DUP5 DUP5 PUSH2 0xF60 JUMP JUMPDEST POP POP POP POP POP JUMP JUMPDEST PUSH1 0x60 PUSH1 0x0 PUSH2 0x7A5 PUSH20 0x5C69BEE701EF814A2B6A3EDD4B1652CB9CC5AA6F DUP9 DUP8 PUSH2 0x1A56 JUMP JUMPDEST SWAP1 POP PUSH1 0x0 PUSH2 0x7B3 DUP9 DUP8 PUSH2 0x1AC6 JUMP JUMPDEST POP SWAP1 POP PUSH1 0x60 DUP6 PUSH8 0xFFFFFFFFFFFFFFFF DUP2 GT DUP1 ISZERO PUSH2 0x7CF JUMPI PUSH1 0x0 DUP1 REVERT JUMPDEST POP PUSH1 0x40 MLOAD SWAP1 DUP1 DUP3 MSTORE DUP1 PUSH1 0x20 MUL PUSH1 0x20 ADD DUP3 ADD PUSH1 0x40 MSTORE DUP1 ISZERO PUSH2 0x7F9 JUMPI DUP2 PUSH1 0x20 ADD PUSH1 0x20 DUP3 MUL DUP1 CALLDATASIZE DUP4 CALLDATACOPY ADD SWAP1 POP JUMPDEST POP PUSH1 0x1 PUSH1 0x1 PUSH1 0xA0 SHL SUB DUP5 AND PUSH1 0x0 SWAP1 DUP2 MSTORE PUSH1 0x5 PUSH1 0x20 MSTORE PUSH1 0x40 DUP2 KECCAK256 SLOAD SWAP2 SWAP3 POP PUSH1 0x0 NOT SWAP1 SWAP2 ADD SWAP1 PUSH2 0x829 DUP3 DUP10 DUP10 MUL PUSH2 0x1B50 JUMP JUMPDEST SWAP1 POP PUSH1 0x0 DUP1 DUP13 PUSH1 0x1 PUSH1 0x1 PUSH1 0xA0 SHL SUB AND DUP7 PUSH1 0x1 PUSH1 0x1 PUSH1 0xA0 SHL SUB AND EQ ISZERO PUSH2 0x979 JUMPI JUMPDEST DUP4 DUP4 LT ISZERO PUSH2 0x974 JUMPI PUSH1 0x1 PUSH1 0x1 PUSH1 0xA0 SHL SUB DUP8 AND PUSH1 0x0 SWAP1 DUP2 MSTORE PUSH1 0x5 PUSH1 0x20 MSTORE PUSH1 0x40 SWAP1 KECCAK256 DUP1 SLOAD DUP5 DUP12 ADD SWAP4 POP PUSH2 0x951 SWAP2 SWAP1 DUP6 SWAP1 DUP2 LT PUSH2 0x87F JUMPI INVALID JUMPDEST SWAP1 PUSH1 0x0 MSTORE PUSH1 0x20 PUSH1 0x0 KECCAK256 SWAP1 PUSH1 0x3 MUL ADD PUSH1 0x1 ADD SLOAD PUSH1 0x5 PUSH1 0x0 DUP11 PUSH1 0x1 PUSH1 0x1 PUSH1 0xA0 SHL SUB AND PUSH1 0x1 PUSH1 0x1 PUSH1 0xA0 SHL SUB AND DUP2 MSTORE PUSH1 0x20 ADD SWAP1 DUP2 MSTORE PUSH1 0x20 ADD PUSH1 0x0 KECCAK256 DUP5 DUP2 SLOAD DUP2 LT PUSH2 0x8C1 JUMPI INVALID JUMPDEST SWAP1 PUSH1 0x0 MSTORE PUSH1 0x20 PUSH1 0x0 KECCAK256 SWAP1 PUSH1 0x3 MUL ADD PUSH1 0x1 ADD SLOAD PUSH1 0x5 PUSH1 0x0 DUP12 PUSH1 0x1 PUSH1 0x1 PUSH1 0xA0 SHL SUB AND PUSH1 0x1 PUSH1 0x1 PUSH1 0xA0 SHL SUB AND DUP2 MSTORE PUSH1 0x20 ADD SWAP1 DUP2 MSTORE PUSH1 0x20 ADD PUSH1 0x0 KECCAK256 DUP7 DUP2 SLOAD DUP2 LT PUSH2 0x903 JUMPI INVALID JUMPDEST PUSH1 0x0 SWAP2 DUP3 MSTORE PUSH1 0x20 DUP1 DUP4 KECCAK256 PUSH1 0x3 SWAP1 SWAP3 MUL SWAP1 SWAP2 ADD SLOAD PUSH1 0x1 PUSH1 0x1 PUSH1 0xA0 SHL SUB DUP14 AND DUP4 MSTORE PUSH1 0x5 SWAP1 SWAP2 MSTORE PUSH1 0x40 SWAP1 SWAP2 KECCAK256 DUP1 SLOAD DUP8 SWAP1 DUP2 LT PUSH2 0x938 JUMPI INVALID JUMPDEST SWAP1 PUSH1 0x0 MSTORE PUSH1 0x20 PUSH1 0x0 KECCAK256 SWAP1 PUSH1 0x3 MUL ADD PUSH1 0x0 ADD SLOAD SUB DUP16 PUSH2 0x1B92 JUMP JUMPDEST DUP6 DUP3 DUP2 MLOAD DUP2 LT PUSH2 0x95D JUMPI INVALID JUMPDEST PUSH1 0x20 SWAP1 DUP2 MUL SWAP2 SWAP1 SWAP2 ADD ADD MSTORE SWAP2 DUP9 ADD SWAP2 PUSH1 0x1 ADD PUSH2 0x849 JUMP JUMPDEST PUSH2 0xA56 JUMP JUMPDEST DUP4 DUP4 LT ISZERO PUSH2 0xA56 JUMPI PUSH1 0x1 PUSH1 0x1 PUSH1 0xA0 SHL SUB DUP8 AND PUSH1 0x0 SWAP1 DUP2 MSTORE PUSH1 0x5 PUSH1 0x20 MSTORE PUSH1 0x40 SWAP1 KECCAK256 DUP1 SLOAD DUP5 DUP12 ADD SWAP4 POP PUSH2 0xA33 SWAP2 SWAP1 DUP6 SWAP1 DUP2 LT PUSH2 0x9AF JUMPI INVALID JUMPDEST SWAP1 PUSH1 0x0 MSTORE PUSH1 0x20 PUSH1 0x0 KECCAK256 SWAP1 PUSH1 0x3 MUL ADD PUSH1 0x2 ADD SLOAD PUSH1 0x5 PUSH1 0x0 DUP11 PUSH1 0x1 PUSH1 0x1 PUSH1 0xA0 SHL SUB AND PUSH1 0x1 PUSH1 0x1 PUSH1 0xA0 SHL SUB AND DUP2 MSTORE PUSH1 0x20 ADD SWAP1 DUP2 MSTORE PUSH1 0x20 ADD PUSH1 0x0 KECCAK256 DUP5 DUP2 SLOAD DUP2 LT PUSH2 0x9F1 JUMPI INVALID JUMPDEST SWAP1 PUSH1 0x0 MSTORE PUSH1 0x20 PUSH1 0x0 KECCAK256 SWAP1 PUSH1 0x3 MUL ADD PUSH1 0x2 ADD SLOAD PUSH1 0x5 PUSH1 0x0 DUP12 PUSH1 0x1 PUSH1 0x1 PUSH1 0xA0 SHL SUB AND PUSH1 0x1 PUSH1 0x1 PUSH1 0xA0 SHL SUB AND DUP2 MSTORE PUSH1 0x20 ADD SWAP1 DUP2 MSTORE PUSH1 0x20 ADD PUSH1 0x0 KECCAK256 DUP7 DUP2 SLOAD DUP2 LT PUSH2 0x903 JUMPI INVALID JUMPDEST DUP6 DUP3 DUP2 MLOAD DUP2 LT PUSH2 0xA3F JUMPI INVALID JUMPDEST PUSH1 0x20 SWAP1 DUP2 MUL SWAP2 SWAP1 SWAP2 ADD ADD MSTORE SWAP2 DUP9 ADD SWAP2 PUSH1 0x1 ADD PUSH2 0x979 JUMP JUMPDEST POP SWAP3 SWAP12 SWAP11 POP POP POP POP POP POP POP POP POP POP POP JUMP JUMPDEST PUSH1 0x0 SLOAD DUP2 JUMP JUMPDEST PUSH1 0x0 DUP1 SLOAD PUSH1 0x40 MLOAD PUSH4 0xE4B131B PUSH1 0xE2 SHL DUP2 MSTORE PUSH20 0xE3F3869DDD41C23EFF3630F58E5BFA584C770D67 SWAP2 PUSH4 0x392C4C6C SWAP2 PUSH2 0xAAC SWAP2 CALLER SWAP2 DUP7 SWAP1 DUP2 SWAP1 PUSH1 0x4 ADD PUSH2 0x281D JUMP JUMPDEST PUSH1 0x20 PUSH1 0x40 MLOAD DUP1 DUP4 SUB DUP2 PUSH1 0x0 DUP8 DUP1 EXTCODESIZE ISZERO DUP1 ISZERO PUSH2 0xAC6 JUMPI PUSH1 0x0 DUP1 REVERT JUMPDEST POP GAS CALL ISZERO DUP1 ISZERO PUSH2 0xADA JUMPI RETURNDATASIZE PUSH1 0x0 DUP1 RETURNDATACOPY RETURNDATASIZE PUSH1 0x0 REVERT JUMPDEST POP POP POP POP PUSH1 0x40 MLOAD RETURNDATASIZE PUSH1 0x1F NOT PUSH1 0x1F DUP3 ADD AND DUP3 ADD DUP1 PUSH1 0x40 MSTORE POP DUP2 ADD SWAP1 PUSH2 0xAFE SWAP2 SWAP1 PUSH2 0x2648 JUMP JUMPDEST PUSH2 0xB23 JUMPI PUSH1 0x40 MLOAD PUSH3 0x461BCD PUSH1 0xE5 SHL DUP2 MSTORE PUSH1 0x4 ADD PUSH2 0xB1A SWAP1 PUSH2 0x2A9A JUMP JUMPDEST PUSH1 0x40 MLOAD DUP1 SWAP2 SUB SWAP1 REVERT JUMPDEST PUSH2 0xB2C DUP3 PUSH2 0x1BF0 JUMP JUMPDEST SWAP1 POP JUMPDEST SWAP2 SWAP1 POP JUMP JUMPDEST PUSH2 0xB3C PUSH2 0x232D JUMP JUMPDEST PUSH1 0x1 PUSH1 0x1 PUSH1 0xA0 SHL SUB DUP3 AND PUSH1 0x0 SWAP1 DUP2 MSTORE PUSH1 0x5 PUSH1 0x20 MSTORE PUSH1 0x40 SWAP1 KECCAK256 DUP1 SLOAD PUSH1 0x0 NOT DUP2 ADD SWAP1 DUP2 LT PUSH2 0xB64 JUMPI INVALID JUMPDEST SWAP1 PUSH1 0x0 MSTORE PUSH1 0x20 PUSH1 0x0 KECCAK256 SWAP1 PUSH1 0x3 MUL ADD PUSH1 0x40 MLOAD DUP1 PUSH1 0x60 ADD PUSH1 0x40 MSTORE SWAP1 DUP2 PUSH1 0x0 DUP3 ADD SLOAD DUP2 MSTORE PUSH1 0x20 ADD PUSH1 0x1 DUP3 ADD SLOAD DUP2 MSTORE PUSH1 0x20 ADD PUSH1 0x2 DUP3 ADD SLOAD DUP2 MSTORE POP POP SWAP1 POP SWAP2 SWAP1 POP JUMP JUMPDEST PUSH1 0x2 SLOAD PUSH1 0x1 PUSH1 0x1 PUSH1 0xA0 SHL SUB AND CALLER EQ PUSH2 0xBCC JUMPI PUSH1 0x40 MLOAD PUSH3 0x461BCD PUSH1 0xE5 SHL DUP2 MSTORE PUSH1 0x4 ADD PUSH2 0xB1A SWAP1 PUSH2 0x2AFD JUMP JUMPDEST PUSH1 0x2 SLOAD PUSH1 0x1 DUP1 SLOAD PUSH1 0x1 PUSH1 0x1 PUSH1 0xA0 SHL SUB NOT AND PUSH1 0x1 PUSH1 0x1 PUSH1 0xA0 SHL SUB SWAP1 SWAP3 AND SWAP2 SWAP1 SWAP2 OR SWAP1 SSTORE JUMP JUMPDEST PUSH1 0x0 GAS PUSH1 0x0 DUP1 SLOAD PUSH1 0x40 MLOAD PUSH4 0xE4B131B PUSH1 0xE2 SHL DUP2 MSTORE SWAP3 SWAP4 POP PUSH20 0xE3F3869DDD41C23EFF3630F58E5BFA584C770D67 SWAP3 PUSH4 0x392C4C6C SWAP3 PUSH2 0xC36 SWAP3 CALLER SWAP3 SWAP1 SWAP2 SWAP1 DUP2 SWAP1 PUSH1 0x4 ADD PUSH2 0x281D JUMP JUMPDEST PUSH1 0x20 PUSH1 0x40 MLOAD DUP1 DUP4 SUB DUP2 PUSH1 0x0 DUP8 DUP1 EXTCODESIZE ISZERO DUP1 ISZERO PUSH2 0xC50 JUMPI PUSH1 0x0 DUP1 REVERT JUMPDEST POP GAS CALL ISZERO DUP1 ISZERO PUSH2 0xC64 JUMPI RETURNDATASIZE PUSH1 0x0 DUP1 RETURNDATACOPY RETURNDATASIZE PUSH1 0x0 REVERT JUMPDEST POP POP POP POP PUSH1 0x40 MLOAD RETURNDATASIZE PUSH1 0x1F NOT PUSH1 0x1F DUP3 ADD AND DUP3 ADD DUP1 PUSH1 0x40 MSTORE POP DUP2 ADD SWAP1 PUSH2 0xC88 SWAP2 SWAP1 PUSH2 0x2648 JUMP JUMPDEST PUSH2 0xCA4 JUMPI PUSH1 0x40 MLOAD PUSH3 0x461BCD PUSH1 0xE5 SHL DUP2 MSTORE PUSH1 0x4 ADD PUSH2 0xB1A SWAP1 PUSH2 0x2A9A JUMP JUMPDEST PUSH1 0x0 PUSH2 0xCAE PUSH2 0x1C95 JUMP JUMPDEST SWAP1 POP DUP1 PUSH2 0xCCD JUMPI PUSH1 0x40 MLOAD PUSH3 0x461BCD PUSH1 0xE5 SHL DUP2 MSTORE PUSH1 0x4 ADD PUSH2 0xB1A SWAP1 PUSH2 0x2BE5 JUMP JUMPDEST POP PUSH1 0x0 PUSH20 0xE3F3869DDD41C23EFF3630F58E5BFA584C770D67 PUSH1 0x1 PUSH1 0x1 PUSH1 0xA0 SHL SUB AND PUSH4 0xF57CB382 PUSH1 0x40 MLOAD DUP2 PUSH4 0xFFFFFFFF AND PUSH1 0xE0 SHL DUP2 MSTORE PUSH1 0x4 ADD PUSH1 0x20 PUSH1 0x40 MLOAD DUP1 DUP4 SUB DUP2 DUP7 DUP1 EXTCODESIZE ISZERO DUP1 ISZERO PUSH2 0xD1D JUMPI PUSH1 0x0 DUP1 REVERT JUMPDEST POP GAS STATICCALL ISZERO DUP1 ISZERO PUSH2 0xD31 JUMPI RETURNDATASIZE PUSH1 0x0 DUP1 RETURNDATACOPY RETURNDATASIZE PUSH1 0x0 REVERT JUMPDEST POP POP POP POP PUSH1 0x40 MLOAD RETURNDATASIZE PUSH1 0x1F NOT PUSH1 0x1F DUP3 ADD AND DUP3 ADD DUP1 PUSH1 0x40 MSTORE POP DUP2 ADD SWAP1 PUSH2 0xD55 SWAP2 SWAP1 PUSH2 0x2668 JUMP JUMPDEST PUSH1 0x1 PUSH1 0x1 PUSH1 0xA0 SHL SUB AND PUSH4 0x525EA631 PUSH2 0xD6E GAS DUP6 SWAP1 PUSH2 0x1B50 JUMP JUMPDEST PUSH1 0x40 MLOAD DUP3 PUSH4 0xFFFFFFFF AND PUSH1 0xE0 SHL DUP2 MSTORE PUSH1 0x4 ADD PUSH2 0xD8A SWAP2 SWAP1 PUSH2 0x2C36 JUMP JUMPDEST PUSH1 0x20 PUSH1 0x40 MLOAD DUP1 DUP4 SUB DUP2 DUP7 DUP1 EXTCODESIZE ISZERO DUP1 ISZERO PUSH2 0xDA2 JUMPI PUSH1 0x0 DUP1 REVERT JUMPDEST POP GAS STATICCALL ISZERO DUP1 ISZERO PUSH2 0xDB6 JUMPI RETURNDATASIZE PUSH1 0x0 DUP1 RETURNDATACOPY RETURNDATASIZE PUSH1 0x0 REVERT JUMPDEST POP POP POP POP PUSH1 0x40 MLOAD RETURNDATASIZE PUSH1 0x1F NOT PUSH1 0x1F DUP3 ADD AND DUP3 ADD DUP1 PUSH1 0x40 MSTORE POP DUP2 ADD SWAP1 PUSH2 0xDDA SWAP2 SWAP1 PUSH2 0x26E5 JUMP JUMPDEST PUSH1 0x40 MLOAD PUSH4 0x46CD6697 PUSH1 0xE1 SHL DUP2 MSTORE SWAP1 SWAP2 POP PUSH20 0xE3F3869DDD41C23EFF3630F58E5BFA584C770D67 SWAP1 PUSH4 0x8D9ACD2E SWAP1 PUSH2 0xE18 SWAP1 DUP4 SWAP1 ADDRESS SWAP1 DUP7 SWAP1 PUSH1 0x4 ADD PUSH2 0x2843 JUMP JUMPDEST PUSH1 0x0 PUSH1 0x40 MLOAD DUP1 DUP4 SUB DUP2 PUSH1 0x0 DUP8 DUP1 EXTCODESIZE ISZERO DUP1 ISZERO PUSH2 0xE32 JUMPI PUSH1 0x0 DUP1 REVERT JUMPDEST POP GAS CALL ISZERO DUP1 ISZERO PUSH2 0xE46 JUMPI RETURNDATASIZE PUSH1 0x0 DUP1 RETURNDATACOPY RETURNDATASIZE PUSH1 0x0 REVERT JUMPDEST POP POP POP POP PUSH2 0xE53 DUP2 PUSH2 0x1CC9 JUMP JUMPDEST PUSH1 0x40 MLOAD SWAP1 SWAP2 POP CALLER SWAP1 DUP3 ISZERO PUSH2 0x8FC MUL SWAP1 DUP4 SWAP1 PUSH1 0x0 DUP2 DUP2 DUP2 DUP6 DUP9 DUP9 CALL SWAP4 POP POP POP POP ISZERO DUP1 ISZERO PUSH2 0xE83 JUMPI RETURNDATASIZE PUSH1 0x0 DUP1 RETURNDATACOPY RETURNDATASIZE PUSH1 0x0 REVERT JUMPDEST POP POP POP JUMP JUMPDEST PUSH1 0x0 DUP1 SLOAD PUSH1 0x40 MLOAD PUSH4 0xE4B131B PUSH1 0xE2 SHL DUP2 MSTORE PUSH20 0xE3F3869DDD41C23EFF3630F58E5BFA584C770D67 SWAP3 PUSH4 0x392C4C6C SWAP3 PUSH2 0xEC6 SWAP3 CALLER SWAP3 SWAP1 DUP2 SWAP1 PUSH1 0x4 ADD PUSH2 0x281D JUMP JUMPDEST PUSH1 0x20 PUSH1 0x40 MLOAD DUP1 DUP4 SUB DUP2 PUSH1 0x0 DUP8 DUP1 EXTCODESIZE ISZERO DUP1 ISZERO PUSH2 0xEE0 JUMPI PUSH1 0x0 DUP1 REVERT JUMPDEST POP GAS CALL ISZERO DUP1 ISZERO PUSH2 0xEF4 JUMPI RETURNDATASIZE PUSH1 0x0 DUP1 RETURNDATACOPY RETURNDATASIZE PUSH1 0x0 REVERT JUMPDEST POP POP POP POP PUSH1 0x40 MLOAD RETURNDATASIZE PUSH1 0x1F NOT PUSH1 0x1F DUP3 ADD AND DUP3 ADD DUP1 PUSH1 0x40 MSTORE POP DUP2 ADD SWAP1 PUSH2 0xF18 SWAP2 SWAP1 PUSH2 0x2648 JUMP JUMPDEST PUSH2 0xF34 JUMPI PUSH1 0x40 MLOAD PUSH3 0x461BCD PUSH1 0xE5 SHL DUP2 MSTORE PUSH1 0x4 ADD PUSH2 0xB1A SWAP1 PUSH2 0x2A9A JUMP JUMPDEST PUSH1 0x0 PUSH2 0xF3E PUSH2 0x1C95 JUMP JUMPDEST SWAP1 POP DUP1 PUSH2 0xF5D JUMPI PUSH1 0x40 MLOAD PUSH3 0x461BCD PUSH1 0xE5 SHL DUP2 MSTORE PUSH1 0x4 ADD PUSH2 0xB1A SWAP1 PUSH2 0x2BE5 JUMP JUMPDEST POP JUMP JUMPDEST PUSH1 0x0 PUSH2 0xF6B DUP3 PUSH2 0x1176 JUMP JUMPDEST DUP4 DUP6 PUSH1 0x28 MUL MUL MUL SWAP1 POP JUMPDEST SWAP4 SWAP3 POP POP POP JUMP JUMPDEST PUSH1 0x0 PUSH2 0xB2C PUSH20 0x5C69BEE701EF814A2B6A3EDD4B1652CB9CC5AA6F DUP4 PUSH20 0xC02AAA39B223FE8D0A0E5C4F27EAD9083C756CC2 PUSH2 0x1A56 JUMP JUMPDEST PUSH1 0x60 PUSH2 0xFC2 DUP6 DUP6 DUP6 DUP6 PUSH2 0x150 PUSH2 0x782 JUMP JUMPDEST SWAP6 SWAP5 POP POP POP POP POP JUMP JUMPDEST PUSH1 0x60 PUSH2 0xFC2 DUP6 DUP6 DUP6 DUP6 PUSH1 0x30 PUSH2 0x782 JUMP JUMPDEST PUSH20 0xE3F3869DDD41C23EFF3630F58E5BFA584C770D67 DUP2 JUMP JUMPDEST PUSH1 0x1 SLOAD PUSH1 0x1 PUSH1 0x1 PUSH1 0xA0 SHL SUB AND CALLER EQ PUSH2 0x101D JUMPI PUSH1 0x40 MLOAD PUSH3 0x461BCD PUSH1 0xE5 SHL DUP2 MSTORE PUSH1 0x4 ADD PUSH2 0xB1A SWAP1 PUSH2 0x296C JUMP JUMPDEST PUSH1 0x0 PUSH2 0x103E PUSH20 0x5C69BEE701EF814A2B6A3EDD4B1652CB9CC5AA6F DUP5 DUP5 PUSH2 0x1A56 JUMP JUMPDEST PUSH1 0x1 PUSH1 0x1 PUSH1 0xA0 SHL SUB DUP2 AND PUSH1 0x0 SWAP1 DUP2 MSTORE PUSH1 0x4 PUSH1 0x20 MSTORE PUSH1 0x40 SWAP1 KECCAK256 SLOAD SWAP1 SWAP2 POP PUSH1 0xFF AND ISZERO PUSH2 0x107A JUMPI PUSH1 0x40 MLOAD PUSH3 0x461BCD PUSH1 0xE5 SHL DUP2 MSTORE PUSH1 0x4 ADD PUSH2 0xB1A SWAP1 PUSH2 0x2ADE JUMP JUMPDEST PUSH1 0x1 PUSH1 0x1 PUSH1 0xA0 SHL SUB DUP2 AND PUSH1 0x0 DUP2 DUP2 MSTORE PUSH1 0x4 PUSH1 0x20 MSTORE PUSH1 0x40 DUP2 KECCAK256 DUP1 SLOAD PUSH1 0xFF NOT AND PUSH1 0x1 SWAP1 DUP2 OR SWAP1 SWAP2 SSTORE PUSH1 0x3 DUP1 SLOAD SWAP2 DUP3 ADD DUP2 SSTORE DUP3 MSTORE PUSH32 0xC2575A0E9E593C00F959F8C92F12DB2869C3395A3B0502D05E2516446F71F85B ADD DUP1 SLOAD PUSH1 0x1 PUSH1 0x1 PUSH1 0xA0 SHL SUB NOT AND SWAP1 SWAP3 OR SWAP1 SWAP2 SSTORE DUP1 PUSH2 0x10E9 DUP4 PUSH2 0x1F51 JUMP JUMPDEST POP PUSH1 0x1 PUSH1 0x1 PUSH1 0xA0 SHL SUB SWAP1 SWAP5 AND PUSH1 0x0 SWAP1 DUP2 MSTORE PUSH1 0x5 PUSH1 0x20 SWAP1 DUP2 MSTORE PUSH1 0x40 DUP1 DUP4 KECCAK256 DUP2 MLOAD PUSH1 0x60 DUP2 ADD DUP4 MSTORE TIMESTAMP DUP2 MSTORE DUP1 DUP5 ADD SWAP6 DUP7 MSTORE SWAP2 DUP3 ADD SWAP8 DUP9 MSTORE DUP1 SLOAD PUSH1 0x1 DUP2 DUP2 ADD DUP4 SSTORE SWAP2 DUP6 MSTORE SWAP3 SWAP1 SWAP4 KECCAK256 SWAP1 MLOAD PUSH1 0x3 SWAP1 SWAP3 MUL ADD SWAP1 DUP2 SSTORE SWAP2 MLOAD SWAP1 DUP3 ADD SSTORE SWAP3 MLOAD PUSH1 0x2 SWAP1 SWAP4 ADD SWAP3 SWAP1 SWAP3 SSTORE POP POP POP POP JUMP JUMPDEST PUSH20 0x7A250D5630B4CF539739DF2C5DACB4C659F2488D DUP2 JUMP JUMPDEST PUSH1 0x1 SLOAD PUSH1 0x1 PUSH1 0x1 PUSH1 0xA0 SHL SUB AND DUP2 JUMP JUMPDEST PUSH1 0x0 PUSH1 0x2 PUSH1 0x1 DUP4 ADD DIV DUP3 JUMPDEST DUP1 DUP3 LT ISZERO PUSH2 0xF75 JUMPI POP DUP1 PUSH1 0x2 DUP2 DUP1 DUP7 DUP2 PUSH2 0x1197 JUMPI INVALID JUMPDEST DIV ADD DUP2 PUSH2 0x11A0 JUMPI INVALID JUMPDEST DIV SWAP2 POP PUSH2 0x1181 JUMP JUMPDEST PUSH1 0x0 DUP1 JUMPDEST PUSH1 0x3 SLOAD DUP2 LT ISZERO PUSH2 0x11F7 JUMPI PUSH2 0x11E0 PUSH1 0x3 DUP3 DUP2 SLOAD DUP2 LT PUSH2 0x11C6 JUMPI INVALID JUMPDEST PUSH1 0x0 SWAP2 DUP3 MSTORE PUSH1 0x20 SWAP1 SWAP2 KECCAK256 ADD SLOAD PUSH1 0x1 PUSH1 0x1 PUSH1 0xA0 SHL SUB AND PUSH2 0x12F4 JUMP JUMPDEST ISZERO PUSH2 0x11EF JUMPI PUSH1 0x1 SWAP2 POP POP PUSH2 0x11FD JUMP JUMPDEST PUSH1 0x1 ADD PUSH2 0x11AC JUMP JUMPDEST POP PUSH1 0x0 SWAP1 POP JUMPDEST SWAP1 JUMP JUMPDEST PUSH1 0x1 PUSH1 0x1 PUSH1 0xA0 SHL SUB AND PUSH1 0x0 SWAP1 DUP2 MSTORE PUSH1 0x5 PUSH1 0x20 MSTORE PUSH1 0x40 SWAP1 KECCAK256 SLOAD SWAP1 JUMP JUMPDEST PUSH1 0x0 DUP1 DUP1 JUMPDEST DUP4 MLOAD DUP2 LT ISZERO PUSH2 0x124E JUMPI DUP4 DUP2 DUP2 MLOAD DUP2 LT PUSH2 0x1235 JUMPI INVALID JUMPDEST PUSH1 0x20 MUL PUSH1 0x20 ADD ADD MLOAD DUP3 ADD SWAP2 POP DUP1 DUP1 PUSH1 0x1 ADD SWAP2 POP POP PUSH2 0x1220 JUMP JUMPDEST POP PUSH1 0x0 DUP4 MLOAD DUP3 DUP2 PUSH2 0x125B JUMPI INVALID JUMPDEST DIV SWAP1 POP PUSH1 0x0 SWAP2 POP PUSH1 0x0 JUMPDEST DUP5 MLOAD DUP2 LT ISZERO PUSH2 0x1298 JUMPI PUSH1 0x2 DUP3 DUP7 DUP4 DUP2 MLOAD DUP2 LT PUSH2 0x127D JUMPI INVALID JUMPDEST PUSH1 0x20 MUL PUSH1 0x20 ADD ADD MLOAD SUB EXP DUP4 ADD SWAP3 POP DUP1 DUP1 PUSH1 0x1 ADD SWAP2 POP POP PUSH2 0x1265 JUMP JUMPDEST PUSH2 0xFC2 PUSH1 0x1 DUP7 MLOAD SUB DUP5 DUP2 PUSH2 0x12A8 JUMPI INVALID JUMPDEST DIV PUSH2 0x1176 JUMP JUMPDEST PUSH1 0x0 PUSH2 0x12C2 PUSH2 0x4E9 DUP6 DUP6 DUP6 PUSH1 0x1 PUSH1 0x30 PUSH2 0x782 JUMP JUMPDEST SWAP5 SWAP4 POP POP POP POP JUMP JUMPDEST PUSH1 0x0 PUSH2 0x12EB PUSH20 0x5C69BEE701EF814A2B6A3EDD4B1652CB9CC5AA6F DUP5 DUP5 PUSH2 0x1A56 JUMP JUMPDEST SWAP1 POP JUMPDEST SWAP3 SWAP2 POP POP JUMP JUMPDEST PUSH1 0x0 PUSH2 0x708 PUSH2 0x1302 DUP4 PUSH2 0xB34 JUMP JUMPDEST MLOAD TIMESTAMP SUB GT SWAP3 SWAP2 POP POP JUMP JUMPDEST PUSH1 0x0 PUSH2 0x12C2 PUSH2 0x4E9 DUP6 DUP6 DUP6 PUSH1 0x1 PUSH1 0x2 PUSH2 0x782 JUMP JUMPDEST PUSH1 0x0 DUP1 PUSH2 0x1342 PUSH20 0x5C69BEE701EF814A2B6A3EDD4B1652CB9CC5AA6F DUP7 DUP6 PUSH2 0x1A56 JUMP JUMPDEST SWAP1 POP PUSH2 0x135A DUP2 PUSH2 0x1355 PUSH2 0x708 PUSH1 0x2 PUSH2 0x2126 JUMP JUMPDEST PUSH2 0x2160 JUMP JUMPDEST PUSH2 0x1376 JUMPI PUSH1 0x40 MLOAD PUSH3 0x461BCD PUSH1 0xE5 SHL DUP2 MSTORE PUSH1 0x4 ADD PUSH2 0xB1A SWAP1 PUSH2 0x2A15 JUMP JUMPDEST PUSH1 0x0 PUSH2 0x1382 DUP7 DUP6 PUSH2 0x1AC6 JUMP JUMPDEST POP SWAP1 POP PUSH2 0x138D PUSH2 0x232D JUMP JUMPDEST PUSH2 0x1396 DUP4 PUSH2 0xB34 JUMP JUMPDEST SWAP1 POP PUSH1 0x0 DUP1 PUSH2 0x13A4 DUP6 PUSH2 0x1F51 JUMP JUMPDEST POP DUP5 MLOAD SWAP2 SWAP4 POP SWAP2 POP TIMESTAMP EQ ISZERO PUSH2 0x1415 JUMPI PUSH1 0x1 PUSH1 0x1 PUSH1 0xA0 SHL SUB DUP6 AND PUSH1 0x0 SWAP1 DUP2 MSTORE PUSH1 0x5 PUSH1 0x20 MSTORE PUSH1 0x40 SWAP1 KECCAK256 DUP1 SLOAD PUSH1 0x1 NOT DUP2 ADD SWAP1 DUP2 LT PUSH2 0x13DB JUMPI INVALID JUMPDEST SWAP1 PUSH1 0x0 MSTORE PUSH1 0x20 PUSH1 0x0 KECCAK256 SWAP1 PUSH1 0x3 MUL ADD PUSH1 0x40 MLOAD DUP1 PUSH1 0x60 ADD PUSH1 0x40 MSTORE SWAP1 DUP2 PUSH1 0x0 DUP3 ADD SLOAD DUP2 MSTORE PUSH1 0x20 ADD PUSH1 0x1 DUP3 ADD SLOAD DUP2 MSTORE PUSH1 0x20 ADD PUSH1 0x2 DUP3 ADD SLOAD DUP2 MSTORE POP POP SWAP3 POP JUMPDEST DUP3 MLOAD TIMESTAMP SUB DUP1 ISZERO PUSH2 0x1425 JUMPI DUP1 PUSH2 0x1428 JUMP JUMPDEST PUSH1 0x1 JUMPDEST SWAP1 POP DUP10 PUSH1 0x1 PUSH1 0x1 PUSH1 0xA0 SHL SUB AND DUP6 PUSH1 0x1 PUSH1 0x1 PUSH1 0xA0 SHL SUB AND EQ ISZERO PUSH2 0x1461 JUMPI PUSH2 0x1454 DUP5 PUSH1 0x20 ADD MLOAD DUP5 DUP4 DUP13 PUSH2 0x1B92 JUMP JUMPDEST SWAP7 POP POP POP POP POP POP POP PUSH2 0xF75 JUMP JUMPDEST PUSH2 0x1454 DUP5 PUSH1 0x40 ADD MLOAD DUP4 DUP4 DUP13 PUSH2 0x1B92 JUMP JUMPDEST PUSH1 0x1 SLOAD PUSH1 0x1 PUSH1 0x1 PUSH1 0xA0 SHL SUB AND CALLER EQ PUSH2 0x149B JUMPI PUSH1 0x40 MLOAD PUSH3 0x461BCD PUSH1 0xE5 SHL DUP2 MSTORE PUSH1 0x4 ADD PUSH2 0xB1A SWAP1 PUSH2 0x29A3 JUMP JUMPDEST PUSH1 0x2 DUP1 SLOAD PUSH1 0x1 PUSH1 0x1 PUSH1 0xA0 SHL SUB NOT AND PUSH1 0x1 PUSH1 0x1 PUSH1 0xA0 SHL SUB SWAP3 SWAP1 SWAP3 AND SWAP2 SWAP1 SWAP2 OR SWAP1 SSTORE JUMP JUMPDEST PUSH20 0xC02AAA39B223FE8D0A0E5C4F27EAD9083C756CC2 DUP2 JUMP JUMPDEST PUSH1 0x0 DUP1 PUSH2 0x14F7 PUSH20 0x5C69BEE701EF814A2B6A3EDD4B1652CB9CC5AA6F DUP8 DUP7 PUSH2 0x1A56 JUMP JUMPDEST SWAP1 POP PUSH2 0x1509 DUP2 PUSH2 0x1355 PUSH2 0x708 DUP7 PUSH2 0x2126 JUMP JUMPDEST PUSH2 0x1525 JUMPI PUSH1 0x40 MLOAD PUSH3 0x461BCD PUSH1 0xE5 SHL DUP2 MSTORE PUSH1 0x4 ADD PUSH2 0xB1A SWAP1 PUSH2 0x2A15 JUMP JUMPDEST PUSH1 0x0 PUSH2 0x1531 DUP8 DUP7 PUSH2 0x1AC6 JUMP JUMPDEST POP PUSH1 0x1 PUSH1 0x1 PUSH1 0xA0 SHL SUB DUP4 AND PUSH1 0x0 SWAP1 DUP2 MSTORE PUSH1 0x5 PUSH1 0x20 MSTORE PUSH1 0x40 DUP2 KECCAK256 SLOAD SWAP2 SWAP3 POP SWAP1 PUSH1 0x0 NOT ADD DUP2 PUSH2 0x155E DUP3 DUP9 PUSH2 0x1B50 JUMP JUMPDEST SWAP1 POP PUSH1 0x0 DUP11 PUSH1 0x1 PUSH1 0x1 PUSH1 0xA0 SHL SUB AND DUP6 PUSH1 0x1 PUSH1 0x1 PUSH1 0xA0 SHL SUB AND EQ ISZERO PUSH2 0x1699 JUMPI JUMPDEST DUP3 DUP3 LT ISZERO PUSH2 0x1694 JUMPI POP PUSH1 0x1 PUSH1 0x1 PUSH1 0xA0 SHL SUB DUP6 AND PUSH1 0x0 SWAP1 DUP2 MSTORE PUSH1 0x5 PUSH1 0x20 MSTORE PUSH1 0x40 SWAP1 KECCAK256 DUP1 SLOAD PUSH1 0x1 DUP4 ADD SWAP2 PUSH2 0x1685 SWAP2 DUP5 SWAP1 DUP2 LT PUSH2 0x15B3 JUMPI INVALID JUMPDEST SWAP1 PUSH1 0x0 MSTORE PUSH1 0x20 PUSH1 0x0 KECCAK256 SWAP1 PUSH1 0x3 MUL ADD PUSH1 0x1 ADD SLOAD PUSH1 0x5 PUSH1 0x0 DUP10 PUSH1 0x1 PUSH1 0x1 PUSH1 0xA0 SHL SUB AND PUSH1 0x1 PUSH1 0x1 PUSH1 0xA0 SHL SUB AND DUP2 MSTORE PUSH1 0x20 ADD SWAP1 DUP2 MSTORE PUSH1 0x20 ADD PUSH1 0x0 KECCAK256 DUP4 DUP2 SLOAD DUP2 LT PUSH2 0x15F5 JUMPI INVALID JUMPDEST SWAP1 PUSH1 0x0 MSTORE PUSH1 0x20 PUSH1 0x0 KECCAK256 SWAP1 PUSH1 0x3 MUL ADD PUSH1 0x1 ADD SLOAD PUSH1 0x5 PUSH1 0x0 DUP11 PUSH1 0x1 PUSH1 0x1 PUSH1 0xA0 SHL SUB AND PUSH1 0x1 PUSH1 0x1 PUSH1 0xA0 SHL SUB AND DUP2 MSTORE PUSH1 0x20 ADD SWAP1 DUP2 MSTORE PUSH1 0x20 ADD PUSH1 0x0 KECCAK256 DUP6 DUP2 SLOAD DUP2 LT PUSH2 0x1637 JUMPI INVALID JUMPDEST PUSH1 0x0 SWAP2 DUP3 MSTORE PUSH1 0x20 DUP1 DUP4 KECCAK256 PUSH1 0x3 SWAP1 SWAP3 MUL SWAP1 SWAP2 ADD SLOAD PUSH1 0x1 PUSH1 0x1 PUSH1 0xA0 SHL SUB DUP13 AND DUP4 MSTORE PUSH1 0x5 SWAP1 SWAP2 MSTORE PUSH1 0x40 SWAP1 SWAP2 KECCAK256 DUP1 SLOAD DUP7 SWAP1 DUP2 LT PUSH2 0x166C JUMPI INVALID JUMPDEST SWAP1 PUSH1 0x0 MSTORE PUSH1 0x20 PUSH1 0x0 KECCAK256 SWAP1 PUSH1 0x3 MUL ADD PUSH1 0x0 ADD SLOAD SUB DUP14 PUSH2 0x1B92 JUMP JUMPDEST SWAP1 SWAP4 ADD SWAP3 PUSH1 0x1 SWAP1 SWAP2 ADD SWAP1 PUSH2 0x157D JUMP JUMPDEST PUSH2 0x1762 JUMP JUMPDEST DUP3 DUP3 LT ISZERO PUSH2 0x1762 JUMPI POP PUSH1 0x1 PUSH1 0x1 PUSH1 0xA0 SHL SUB DUP6 AND PUSH1 0x0 SWAP1 DUP2 MSTORE PUSH1 0x5 PUSH1 0x20 MSTORE PUSH1 0x40 SWAP1 KECCAK256 DUP1 SLOAD PUSH1 0x1 DUP4 ADD SWAP2 PUSH2 0x1753 SWAP2 DUP5 SWAP1 DUP2 LT PUSH2 0x16CF JUMPI INVALID JUMPDEST SWAP1 PUSH1 0x0 MSTORE PUSH1 0x20 PUSH1 0x0 KECCAK256 SWAP1 PUSH1 0x3 MUL ADD PUSH1 0x2 ADD SLOAD PUSH1 0x5 PUSH1 0x0 DUP10 PUSH1 0x1 PUSH1 0x1 PUSH1 0xA0 SHL SUB AND PUSH1 0x1 PUSH1 0x1 PUSH1 0xA0 SHL SUB AND DUP2 MSTORE PUSH1 0x20 ADD SWAP1 DUP2 MSTORE PUSH1 0x20 ADD PUSH1 0x0 KECCAK256 DUP4 DUP2 SLOAD DUP2 LT PUSH2 0x1711 JUMPI INVALID JUMPDEST SWAP1 PUSH1 0x0 MSTORE PUSH1 0x20 PUSH1 0x0 KECCAK256 SWAP1 PUSH1 0x3 MUL ADD PUSH1 0x2 ADD SLOAD PUSH1 0x5 PUSH1 0x0 DUP11 PUSH1 0x1 PUSH1 0x1 PUSH1 0xA0 SHL SUB AND PUSH1 0x1 PUSH1 0x1 PUSH1 0xA0 SHL SUB AND DUP2 MSTORE PUSH1 0x20 ADD SWAP1 DUP2 MSTORE PUSH1 0x20 ADD PUSH1 0x0 KECCAK256 DUP6 DUP2 SLOAD DUP2 LT PUSH2 0x1637 JUMPI INVALID JUMPDEST SWAP1 SWAP4 ADD SWAP3 PUSH1 0x1 SWAP1 SWAP2 ADD SWAP1 PUSH2 0x1699 JUMP JUMPDEST PUSH2 0x176C DUP5 DUP10 PUSH2 0x2178 JUMP JUMPDEST SWAP12 SWAP11 POP POP POP POP POP POP POP POP POP POP POP JUMP JUMPDEST PUSH1 0x0 PUSH2 0x178D PUSH2 0x4E9 DUP8 DUP8 DUP8 DUP8 DUP8 PUSH2 0x782 JUMP JUMPDEST SWAP7 SWAP6 POP POP POP POP POP POP JUMP JUMPDEST PUSH1 0x60 PUSH2 0xFC2 DUP6 DUP6 DUP6 DUP6 PUSH1 0x1 PUSH2 0x782 JUMP JUMPDEST PUSH20 0x5C69BEE701EF814A2B6A3EDD4B1652CB9CC5AA6F DUP2 JUMP JUMPDEST PUSH1 0x0 DUP1 SLOAD PUSH1 0x40 MLOAD PUSH4 0xE4B131B PUSH1 0xE2 SHL DUP2 MSTORE PUSH20 0xE3F3869DDD41C23EFF3630F58E5BFA584C770D67 SWAP2 PUSH4 0x392C4C6C SWAP2 PUSH2 0x17FE SWAP2 CALLER SWAP2 DUP7 SWAP1 DUP2 SWAP1 PUSH1 0x4 ADD PUSH2 0x281D JUMP JUMPDEST PUSH1 0x20 PUSH1 0x40 MLOAD DUP1 DUP4 SUB DUP2 PUSH1 0x0 DUP8 DUP1 EXTCODESIZE ISZERO DUP1 ISZERO PUSH2 0x1818 JUMPI PUSH1 0x0 DUP1 REVERT JUMPDEST POP GAS CALL ISZERO DUP1 ISZERO PUSH2 0x182C JUMPI RETURNDATASIZE PUSH1 0x0 DUP1 RETURNDATACOPY RETURNDATASIZE PUSH1 0x0 REVERT JUMPDEST POP POP POP POP PUSH1 0x40 MLOAD RETURNDATASIZE PUSH1 0x1F NOT PUSH1 0x1F DUP3 ADD AND DUP3 ADD DUP1 PUSH1 0x40 MSTORE POP DUP2 ADD SWAP1 PUSH2 0x1850 SWAP2 SWAP1 PUSH2 0x2648 JUMP JUMPDEST PUSH2 0x186C JUMPI PUSH1 0x40 MLOAD PUSH3 0x461BCD PUSH1 0xE5 SHL DUP2 MSTORE PUSH1 0x4 ADD PUSH2 0xB1A SWAP1 PUSH2 0x2A9A JUMP JUMPDEST PUSH1 0x0 PUSH2 0x188D PUSH20 0x5C69BEE701EF814A2B6A3EDD4B1652CB9CC5AA6F DUP6 DUP6 PUSH2 0x1A56 JUMP JUMPDEST SWAP1 POP PUSH2 0x12C2 DUP2 PUSH2 0x1BF0 JUMP JUMPDEST PUSH1 0x1 SLOAD PUSH1 0x1 PUSH1 0x1 PUSH1 0xA0 SHL SUB AND CALLER EQ PUSH2 0x18C2 JUMPI PUSH1 0x40 MLOAD PUSH3 0x461BCD PUSH1 0xE5 SHL DUP2 MSTORE PUSH1 0x4 ADD PUSH2 0xB1A SWAP1 PUSH2 0x29A3 JUMP JUMPDEST PUSH1 0x0 SSTORE JUMP JUMPDEST PUSH1 0x0 DUP1 SLOAD PUSH1 0x40 MLOAD PUSH4 0xE4B131B PUSH1 0xE2 SHL DUP2 MSTORE PUSH20 0xE3F3869DDD41C23EFF3630F58E5BFA584C770D67 SWAP2 PUSH4 0x392C4C6C SWAP2 PUSH2 0x1906 SWAP2 CALLER SWAP2 DUP7 SWAP1 DUP2 SWAP1 PUSH1 0x4 ADD PUSH2 0x281D JUMP JUMPDEST PUSH1 0x20 PUSH1 0x40 MLOAD DUP1 DUP4 SUB DUP2 PUSH1 0x0 DUP8 DUP1 EXTCODESIZE ISZERO DUP1 ISZERO PUSH2 0x1920 JUMPI PUSH1 0x0 DUP1 REVERT JUMPDEST POP GAS CALL ISZERO DUP1 ISZERO PUSH2 0x1934 JUMPI RETURNDATASIZE PUSH1 0x0 DUP1 RETURNDATACOPY RETURNDATASIZE PUSH1 0x0 REVERT JUMPDEST POP POP POP POP PUSH1 0x40 MLOAD RETURNDATASIZE PUSH1 0x1F NOT PUSH1 0x1F DUP3 ADD AND DUP3 ADD DUP1 PUSH1 0x40 MSTORE POP DUP2 ADD SWAP1 PUSH2 0x1958 SWAP2 SWAP1 PUSH2 0x2648 JUMP JUMPDEST PUSH2 0x1974 JUMPI PUSH1 0x40 MLOAD PUSH3 0x461BCD PUSH1 0xE5 SHL DUP2 MSTORE PUSH1 0x4 ADD PUSH2 0xB1A SWAP1 PUSH2 0x2A9A JUMP JUMPDEST DUP2 DUP4 LT ISZERO PUSH2 0x12EE JUMPI PUSH2 0x19A6 PUSH1 0x3 DUP5 DUP2 SLOAD DUP2 LT PUSH2 0x198C JUMPI INVALID JUMPDEST PUSH1 0x0 SWAP2 DUP3 MSTORE PUSH1 0x20 SWAP1 SWAP2 KECCAK256 ADD SLOAD PUSH1 0x1 PUSH1 0x1 PUSH1 0xA0 SHL SUB AND PUSH2 0x1BF0 JUMP JUMPDEST ISZERO PUSH2 0x19AF JUMPI POP PUSH1 0x1 JUMPDEST PUSH1 0x1 SWAP1 SWAP3 ADD SWAP2 PUSH2 0x1974 JUMP JUMPDEST PUSH1 0x0 PUSH2 0x12C2 PUSH2 0x4E9 DUP6 DUP6 DUP6 PUSH1 0x1 PUSH2 0x150 PUSH2 0x782 JUMP JUMPDEST PUSH2 0x708 DUP2 JUMP JUMPDEST PUSH1 0x60 PUSH2 0xFC2 DUP6 DUP6 DUP6 DUP6 PUSH1 0x2 PUSH2 0x782 JUMP JUMPDEST PUSH1 0x2 SLOAD PUSH1 0x1 PUSH1 0x1 PUSH1 0xA0 SHL SUB AND DUP2 JUMP JUMPDEST PUSH1 0x60 PUSH1 0x3 DUP1 SLOAD DUP1 PUSH1 0x20 MUL PUSH1 0x20 ADD PUSH1 0x40 MLOAD SWAP1 DUP2 ADD PUSH1 0x40 MSTORE DUP1 SWAP3 SWAP2 SWAP1 DUP2 DUP2 MSTORE PUSH1 0x20 ADD DUP3 DUP1 SLOAD DUP1 ISZERO PUSH2 0x1A4C JUMPI PUSH1 0x20 MUL DUP3 ADD SWAP2 SWAP1 PUSH1 0x0 MSTORE PUSH1 0x20 PUSH1 0x0 KECCAK256 SWAP1 JUMPDEST DUP2 SLOAD PUSH1 0x1 PUSH1 0x1 PUSH1 0xA0 SHL SUB AND DUP2 MSTORE PUSH1 0x1 SWAP1 SWAP2 ADD SWAP1 PUSH1 0x20 ADD DUP1 DUP4 GT PUSH2 0x1A2E JUMPI JUMPDEST POP POP POP POP POP SWAP1 POP SWAP1 JUMP JUMPDEST PUSH1 0x0 DUP1 PUSH1 0x0 PUSH2 0x1A65 DUP6 DUP6 PUSH2 0x1AC6 JUMP JUMPDEST SWAP2 POP SWAP2 POP DUP6 DUP3 DUP3 PUSH1 0x40 MLOAD PUSH1 0x20 ADD PUSH2 0x1A7D SWAP3 SWAP2 SWAP1 PUSH2 0x278C JUMP JUMPDEST PUSH1 0x40 MLOAD PUSH1 0x20 DUP2 DUP4 SUB SUB DUP2 MSTORE SWAP1 PUSH1 0x40 MSTORE DUP1 MLOAD SWAP1 PUSH1 0x20 ADD KECCAK256 PUSH1 0x40 MLOAD PUSH1 0x20 ADD PUSH2 0x1AA4 SWAP3 SWAP2 SWAP1 PUSH2 0x27B3 JUMP JUMPDEST PUSH1 0x40 DUP1 MLOAD PUSH1 0x1F NOT DUP2 DUP5 SUB ADD DUP2 MSTORE SWAP2 SWAP1 MSTORE DUP1 MLOAD PUSH1 0x20 SWAP1 SWAP2 ADD KECCAK256 SWAP7 SWAP6 POP POP POP POP POP POP JUMP JUMPDEST PUSH1 0x0 DUP1 DUP3 PUSH1 0x1 PUSH1 0x1 PUSH1 0xA0 SHL SUB AND DUP5 PUSH1 0x1 PUSH1 0x1 PUSH1 0xA0 SHL SUB AND EQ ISZERO PUSH2 0x1AFB JUMPI PUSH1 0x40 MLOAD PUSH3 0x461BCD PUSH1 0xE5 SHL DUP2 MSTORE PUSH1 0x4 ADD PUSH2 0xB1A SWAP1 PUSH2 0x29D0 JUMP JUMPDEST DUP3 PUSH1 0x1 PUSH1 0x1 PUSH1 0xA0 SHL SUB AND DUP5 PUSH1 0x1 PUSH1 0x1 PUSH1 0xA0 SHL SUB AND LT PUSH2 0x1B1B JUMPI DUP3 DUP5 PUSH2 0x1B1E JUMP JUMPDEST DUP4 DUP4 JUMPDEST SWAP1 SWAP3 POP SWAP1 POP PUSH1 0x1 PUSH1 0x1 PUSH1 0xA0 SHL SUB DUP3 AND PUSH2 0x1B49 JUMPI PUSH1 0x40 MLOAD PUSH3 0x461BCD PUSH1 0xE5 SHL DUP2 MSTORE PUSH1 0x4 ADD PUSH2 0xB1A SWAP1 PUSH2 0x2B77 JUMP JUMPDEST SWAP3 POP SWAP3 SWAP1 POP JUMP JUMPDEST PUSH1 0x0 PUSH2 0x12EB DUP4 DUP4 PUSH1 0x40 MLOAD DUP1 PUSH1 0x40 ADD PUSH1 0x40 MSTORE DUP1 PUSH1 0x1F DUP2 MSTORE PUSH1 0x20 ADD PUSH32 0x536166654D6174683A207375627472616374696F6E20756E646572666C6F7700 DUP2 MSTORE POP PUSH2 0x21BA JUMP JUMPDEST PUSH1 0x0 PUSH2 0x1B9C PUSH2 0x234E JUMP JUMPDEST PUSH1 0x40 MLOAD DUP1 PUSH1 0x20 ADD PUSH1 0x40 MSTORE DUP1 DUP6 DUP9 DUP9 SUB DUP2 PUSH2 0x1BB2 JUMPI INVALID JUMPDEST DIV PUSH1 0x1 PUSH1 0x1 PUSH1 0xE0 SHL SUB AND SWAP1 MSTORE SWAP1 POP PUSH2 0x1BD2 PUSH2 0x1BCD DUP3 DUP6 PUSH2 0x21E6 JUMP JUMPDEST PUSH2 0x2245 JUMP JUMPDEST PUSH18 0xFFFFFFFFFFFFFFFFFFFFFFFFFFFFFFFFFFFF AND SWAP7 SWAP6 POP POP POP POP POP POP JUMP JUMPDEST PUSH1 0x0 PUSH2 0x1BFA PUSH2 0x232D JUMP JUMPDEST PUSH2 0x1C03 DUP4 PUSH2 0xB34 JUMP JUMPDEST DUP1 MLOAD SWAP1 SWAP2 POP TIMESTAMP SUB PUSH2 0x708 DUP2 GT ISZERO PUSH2 0x1C8B JUMPI PUSH1 0x0 DUP1 PUSH2 0x1C20 DUP7 PUSH2 0x1F51 JUMP JUMPDEST POP PUSH1 0x1 PUSH1 0x1 PUSH1 0xA0 SHL SUB DUP9 AND PUSH1 0x0 SWAP1 DUP2 MSTORE PUSH1 0x5 PUSH1 0x20 SWAP1 DUP2 MSTORE PUSH1 0x40 DUP1 DUP4 KECCAK256 DUP2 MLOAD PUSH1 0x60 DUP2 ADD DUP4 MSTORE TIMESTAMP DUP2 MSTORE DUP1 DUP5 ADD SWAP7 DUP8 MSTORE SWAP2 DUP3 ADD SWAP5 DUP6 MSTORE DUP1 SLOAD PUSH1 0x1 DUP2 DUP2 ADD DUP4 SSTORE SWAP2 DUP6 MSTORE SWAP3 SWAP1 SWAP4 KECCAK256 SWAP1 MLOAD PUSH1 0x3 SWAP1 SWAP3 MUL ADD SWAP1 DUP2 SSTORE SWAP3 MLOAD DUP4 DUP3 ADD SSTORE SWAP1 MLOAD PUSH1 0x2 SWAP1 SWAP3 ADD SWAP2 SWAP1 SWAP2 SSTORE SWAP5 POP PUSH2 0xB2F SWAP4 POP POP POP POP JUMP JUMPDEST POP PUSH1 0x0 SWAP4 SWAP3 POP POP POP JUMP JUMPDEST PUSH1 0x0 DUP1 JUMPDEST PUSH1 0x3 SLOAD DUP2 LT ISZERO PUSH2 0x1CC5 JUMPI PUSH2 0x1CB3 PUSH1 0x3 DUP3 DUP2 SLOAD DUP2 LT PUSH2 0x198C JUMPI INVALID JUMPDEST ISZERO PUSH2 0x1CBD JUMPI PUSH1 0x1 SWAP2 POP JUMPDEST PUSH1 0x1 ADD PUSH2 0x1C99 JUMP JUMPDEST POP SWAP1 JUMP JUMPDEST PUSH1 0x40 MLOAD PUSH4 0x95EA7B3 PUSH1 0xE0 SHL DUP2 MSTORE PUSH1 0x0 SWAP1 PUSH20 0xE3F3869DDD41C23EFF3630F58E5BFA584C770D67 SWAP1 PUSH4 0x95EA7B3 SWAP1 PUSH2 0x1D19 SWAP1 PUSH20 0x7A250D5630B4CF539739DF2C5DACB4C659F2488D SWAP1 DUP7 SWAP1 PUSH1 0x4 ADD PUSH2 0x2867 JUMP JUMPDEST PUSH1 0x20 PUSH1 0x40 MLOAD DUP1 DUP4 SUB DUP2 PUSH1 0x0 DUP8 DUP1 EXTCODESIZE ISZERO DUP1 ISZERO PUSH2 0x1D33 JUMPI PUSH1 0x0 DUP1 REVERT JUMPDEST POP GAS CALL ISZERO DUP1 ISZERO PUSH2 0x1D47 JUMPI RETURNDATASIZE PUSH1 0x0 DUP1 RETURNDATACOPY RETURNDATASIZE PUSH1 0x0 REVERT JUMPDEST POP POP POP POP PUSH1 0x40 MLOAD RETURNDATASIZE PUSH1 0x1F NOT PUSH1 0x1F DUP3 ADD AND DUP3 ADD DUP1 PUSH1 0x40 MSTORE POP DUP2 ADD SWAP1 PUSH2 0x1D6B SWAP2 SWAP1 PUSH2 0x2648 JUMP JUMPDEST POP PUSH1 0x40 DUP1 MLOAD PUSH1 0x2 DUP1 DUP3 MSTORE PUSH1 0x60 DUP1 DUP4 ADD DUP5 MSTORE SWAP3 PUSH1 0x20 DUP4 ADD SWAP1 DUP1 CALLDATASIZE DUP4 CALLDATACOPY ADD SWAP1 POP POP SWAP1 POP PUSH20 0xE3F3869DDD41C23EFF3630F58E5BFA584C770D67 DUP2 PUSH1 0x0 DUP2 MLOAD DUP2 LT PUSH2 0x1DAE JUMPI INVALID JUMPDEST PUSH1 0x20 MUL PUSH1 0x20 ADD ADD SWAP1 PUSH1 0x1 PUSH1 0x1 PUSH1 0xA0 SHL SUB AND SWAP1 DUP2 PUSH1 0x1 PUSH1 0x1 PUSH1 0xA0 SHL SUB AND DUP2 MSTORE POP POP PUSH20 0xC02AAA39B223FE8D0A0E5C4F27EAD9083C756CC2 DUP2 PUSH1 0x1 DUP2 MLOAD DUP2 LT PUSH2 0x1DF0 JUMPI INVALID JUMPDEST PUSH1 0x1 PUSH1 0x1 PUSH1 0xA0 SHL SUB SWAP1 SWAP3 AND PUSH1 0x20 SWAP3 DUP4 MUL SWAP2 SWAP1 SWAP2 ADD SWAP1 SWAP2 ADD MSTORE PUSH1 0x60 PUSH20 0x7A250D5630B4CF539739DF2C5DACB4C659F2488D PUSH4 0x38ED1739 DUP6 PUSH1 0x0 DUP6 ADDRESS PUSH2 0x1E35 TIMESTAMP PUSH2 0x708 PUSH2 0x224C JUMP JUMPDEST PUSH1 0x40 MLOAD DUP7 PUSH4 0xFFFFFFFF AND PUSH1 0xE0 SHL DUP2 MSTORE PUSH1 0x4 ADD PUSH2 0x1E55 SWAP6 SWAP5 SWAP4 SWAP3 SWAP2 SWAP1 PUSH2 0x2C3F JUMP JUMPDEST PUSH1 0x0 PUSH1 0x40 MLOAD DUP1 DUP4 SUB DUP2 PUSH1 0x0 DUP8 DUP1 EXTCODESIZE ISZERO DUP1 ISZERO PUSH2 0x1E6F JUMPI PUSH1 0x0 DUP1 REVERT JUMPDEST POP GAS CALL ISZERO DUP1 ISZERO PUSH2 0x1E83 JUMPI RETURNDATASIZE PUSH1 0x0 DUP1 RETURNDATACOPY RETURNDATASIZE PUSH1 0x0 REVERT JUMPDEST POP POP POP POP PUSH1 0x40 MLOAD RETURNDATASIZE PUSH1 0x0 DUP3 RETURNDATACOPY PUSH1 0x1F RETURNDATASIZE SWAP1 DUP2 ADD PUSH1 0x1F NOT AND DUP3 ADD PUSH1 0x40 MSTORE PUSH2 0x1EAB SWAP2 SWAP1 DUP2 ADD SWAP1 PUSH2 0x256C JUMP JUMPDEST SWAP1 POP PUSH20 0xC02AAA39B223FE8D0A0E5C4F27EAD9083C756CC2 PUSH1 0x1 PUSH1 0x1 PUSH1 0xA0 SHL SUB AND PUSH4 0x2E1A7D4D DUP3 PUSH1 0x1 DUP2 MLOAD DUP2 LT PUSH2 0x1EDD JUMPI INVALID JUMPDEST PUSH1 0x20 MUL PUSH1 0x20 ADD ADD MLOAD PUSH1 0x40 MLOAD DUP3 PUSH4 0xFFFFFFFF AND PUSH1 0xE0 SHL DUP2 MSTORE PUSH1 0x4 ADD PUSH2 0x1F01 SWAP2 SWAP1 PUSH2 0x2C36 JUMP JUMPDEST PUSH1 0x0 PUSH1 0x40 MLOAD DUP1 DUP4 SUB DUP2 PUSH1 0x0 DUP8 DUP1 EXTCODESIZE ISZERO DUP1 ISZERO PUSH2 0x1F1B JUMPI PUSH1 0x0 DUP1 REVERT JUMPDEST POP GAS CALL ISZERO DUP1 ISZERO PUSH2 0x1F2F JUMPI RETURNDATASIZE PUSH1 0x0 DUP1 RETURNDATACOPY RETURNDATASIZE PUSH1 0x0 REVERT JUMPDEST POP POP POP POP DUP1 PUSH1 0x1 DUP2 MLOAD DUP2 LT PUSH2 0x1F40 JUMPI INVALID JUMPDEST PUSH1 0x20 MUL PUSH1 0x20 ADD ADD MLOAD SWAP3 POP POP POP SWAP2 SWAP1 POP JUMP JUMPDEST PUSH1 0x0 DUP1 PUSH1 0x0 PUSH2 0x1F5E PUSH2 0x2271 JUMP JUMPDEST SWAP1 POP DUP4 PUSH1 0x1 PUSH1 0x1 PUSH1 0xA0 SHL SUB AND PUSH4 0x5909C0D5 PUSH1 0x40 MLOAD DUP2 PUSH4 0xFFFFFFFF AND PUSH1 0xE0 SHL DUP2 MSTORE PUSH1 0x4 ADD PUSH1 0x20 PUSH1 0x40 MLOAD DUP1 DUP4 SUB DUP2 DUP7 DUP1 EXTCODESIZE ISZERO DUP1 ISZERO PUSH2 0x1F99 JUMPI PUSH1 0x0 DUP1 REVERT JUMPDEST POP GAS STATICCALL ISZERO DUP1 ISZERO PUSH2 0x1FAD JUMPI RETURNDATASIZE PUSH1 0x0 DUP1 RETURNDATACOPY RETURNDATASIZE PUSH1 0x0 REVERT JUMPDEST POP POP POP POP PUSH1 0x40 MLOAD RETURNDATASIZE PUSH1 0x1F NOT PUSH1 0x1F DUP3 ADD AND DUP3 ADD DUP1 PUSH1 0x40 MSTORE POP DUP2 ADD SWAP1 PUSH2 0x1FD1 SWAP2 SWAP1 PUSH2 0x26E5 JUMP JUMPDEST SWAP3 POP DUP4 PUSH1 0x1 PUSH1 0x1 PUSH1 0xA0 SHL SUB AND PUSH4 0x5A3D5493 PUSH1 0x40 MLOAD DUP2 PUSH4 0xFFFFFFFF AND PUSH1 0xE0 SHL DUP2 MSTORE PUSH1 0x4 ADD PUSH1 0x20 PUSH1 0x40 MLOAD DUP1 DUP4 SUB DUP2 DUP7 DUP1 EXTCODESIZE ISZERO DUP1 ISZERO PUSH2 0x200C JUMPI PUSH1 0x0 DUP1 REVERT JUMPDEST POP GAS STATICCALL ISZERO DUP1 ISZERO PUSH2 0x2020 JUMPI RETURNDATASIZE PUSH1 0x0 DUP1 RETURNDATACOPY RETURNDATASIZE PUSH1 0x0 REVERT JUMPDEST POP POP POP POP PUSH1 0x40 MLOAD RETURNDATASIZE PUSH1 0x1F NOT PUSH1 0x1F DUP3 ADD AND DUP3 ADD DUP1 PUSH1 0x40 MSTORE POP DUP2 ADD SWAP1 PUSH2 0x2044 SWAP2 SWAP1 PUSH2 0x26E5 JUMP JUMPDEST SWAP2 POP PUSH1 0x0 DUP1 PUSH1 0x0 DUP7 PUSH1 0x1 PUSH1 0x1 PUSH1 0xA0 SHL SUB AND PUSH4 0x902F1AC PUSH1 0x40 MLOAD DUP2 PUSH4 0xFFFFFFFF AND PUSH1 0xE0 SHL DUP2 MSTORE PUSH1 0x4 ADD PUSH1 0x60 PUSH1 0x40 MLOAD DUP1 DUP4 SUB DUP2 DUP7 DUP1 EXTCODESIZE ISZERO DUP1 ISZERO PUSH2 0x2084 JUMPI PUSH1 0x0 DUP1 REVERT JUMPDEST POP GAS STATICCALL ISZERO DUP1 ISZERO PUSH2 0x2098 JUMPI RETURNDATASIZE PUSH1 0x0 DUP1 RETURNDATACOPY RETURNDATASIZE PUSH1 0x0 REVERT JUMPDEST POP POP POP POP PUSH1 0x40 MLOAD RETURNDATASIZE PUSH1 0x1F NOT PUSH1 0x1F DUP3 ADD AND DUP3 ADD DUP1 PUSH1 0x40 MSTORE POP DUP2 ADD SWAP1 PUSH2 0x20BC SWAP2 SWAP1 PUSH2 0x2684 JUMP JUMPDEST SWAP3 POP SWAP3 POP SWAP3 POP DUP4 PUSH4 0xFFFFFFFF AND DUP2 PUSH4 0xFFFFFFFF AND EQ PUSH2 0x211C JUMPI DUP1 DUP5 SUB PUSH4 0xFFFFFFFF DUP2 AND PUSH2 0x20E9 DUP5 DUP7 PUSH2 0x227B JUMP JUMPDEST MLOAD PUSH1 0x1 PUSH1 0x1 PUSH1 0xE0 SHL SUB AND MUL SWAP7 SWAP1 SWAP7 ADD SWAP6 PUSH4 0xFFFFFFFF DUP2 AND PUSH2 0x210A DUP6 DUP6 PUSH2 0x227B JUMP JUMPDEST MLOAD PUSH1 0x1 PUSH1 0x1 PUSH1 0xE0 SHL SUB AND MUL SWAP6 SWAP1 SWAP6 ADD SWAP5 POP JUMPDEST POP POP POP SWAP2 SWAP4 SWAP1 SWAP3 POP JUMP JUMPDEST PUSH1 0x0 DUP3 PUSH2 0x2135 JUMPI POP PUSH1 0x0 PUSH2 0x12EE JUMP JUMPDEST DUP3 DUP3 MUL DUP3 DUP5 DUP3 DUP2 PUSH2 0x2142 JUMPI INVALID JUMPDEST DIV EQ PUSH2 0x12EB JUMPI PUSH1 0x40 MLOAD PUSH3 0x461BCD PUSH1 0xE5 SHL DUP2 MSTORE PUSH1 0x4 ADD PUSH2 0xB1A SWAP1 PUSH2 0x2A59 JUMP JUMPDEST PUSH1 0x0 DUP2 PUSH2 0x216C DUP5 PUSH2 0xB34 JUMP JUMPDEST MLOAD TIMESTAMP SUB GT ISZERO SWAP4 SWAP3 POP POP POP JUMP JUMPDEST PUSH1 0x0 PUSH2 0x12EB DUP4 DUP4 PUSH1 0x40 MLOAD DUP1 PUSH1 0x40 ADD PUSH1 0x40 MSTORE DUP1 PUSH1 0x1A DUP2 MSTORE PUSH1 0x20 ADD PUSH32 0x536166654D6174683A206469766973696F6E206279207A65726F000000000000 DUP2 MSTORE POP PUSH2 0x22F6 JUMP JUMPDEST PUSH1 0x0 DUP2 DUP5 DUP5 GT ISZERO PUSH2 0x21DE JUMPI PUSH1 0x40 MLOAD PUSH3 0x461BCD PUSH1 0xE5 SHL DUP2 MSTORE PUSH1 0x4 ADD PUSH2 0xB1A SWAP2 SWAP1 PUSH2 0x28E2 JUMP JUMPDEST POP POP POP SWAP1 SUB SWAP1 JUMP JUMPDEST PUSH2 0x21EE PUSH2 0x2360 JUMP JUMPDEST PUSH1 0x0 DUP3 ISZERO DUP1 PUSH2 0x2214 JUMPI POP POP DUP3 MLOAD PUSH1 0x1 PUSH1 0x1 PUSH1 0xE0 SHL SUB AND DUP3 DUP2 MUL SWAP1 DUP4 DUP3 DUP2 PUSH2 0x2211 JUMPI INVALID JUMPDEST DIV EQ JUMPDEST PUSH2 0x2230 JUMPI PUSH1 0x40 MLOAD PUSH3 0x461BCD PUSH1 0xE5 SHL DUP2 MSTORE PUSH1 0x4 ADD PUSH2 0xB1A SWAP1 PUSH2 0x2B34 JUMP JUMPDEST PUSH1 0x40 DUP1 MLOAD PUSH1 0x20 DUP2 ADD SWAP1 SWAP2 MSTORE SWAP1 DUP2 MSTORE SWAP4 SWAP3 POP POP POP JUMP JUMPDEST MLOAD PUSH1 0x70 SHR SWAP1 JUMP JUMPDEST PUSH1 0x0 DUP3 DUP3 ADD DUP4 DUP2 LT ISZERO PUSH2 0x12EB JUMPI PUSH1 0x40 MLOAD PUSH3 0x461BCD PUSH1 0xE5 SHL DUP2 MSTORE PUSH1 0x4 ADD PUSH2 0xB1A SWAP1 PUSH2 0x2935 JUMP JUMPDEST PUSH4 0xFFFFFFFF TIMESTAMP AND SWAP1 JUMP JUMPDEST PUSH2 0x2283 PUSH2 0x234E JUMP JUMPDEST PUSH1 0x0 DUP3 PUSH1 0x1 PUSH1 0x1 PUSH1 0x70 SHL SUB AND GT PUSH2 0x22AC JUMPI PUSH1 0x40 MLOAD PUSH3 0x461BCD PUSH1 0xE5 SHL DUP2 MSTORE PUSH1 0x4 ADD PUSH2 0xB1A SWAP1 PUSH2 0x2BAE JUMP JUMPDEST PUSH1 0x40 DUP1 MLOAD PUSH1 0x20 DUP2 ADD SWAP1 SWAP2 MSTORE DUP1 PUSH1 0x1 PUSH1 0x1 PUSH1 0x70 SHL SUB DUP5 AND PUSH14 0xFFFFFFFFFFFFFFFFFFFFFFFFFFFF PUSH1 0x70 SHL PUSH1 0x70 DUP8 SWAP1 SHL AND DUP2 PUSH2 0x22E1 JUMPI INVALID JUMPDEST DIV PUSH1 0x1 PUSH1 0x1 PUSH1 0xE0 SHL SUB AND DUP2 MSTORE POP SWAP1 POP SWAP3 SWAP2 POP POP JUMP JUMPDEST PUSH1 0x0 DUP2 DUP4 PUSH2 0x2317 JUMPI PUSH1 0x40 MLOAD PUSH3 0x461BCD PUSH1 0xE5 SHL DUP2 MSTORE PUSH1 0x4 ADD PUSH2 0xB1A SWAP2 SWAP1 PUSH2 0x28E2 JUMP JUMPDEST POP PUSH1 0x0 DUP4 DUP6 DUP2 PUSH2 0x2323 JUMPI INVALID JUMPDEST DIV SWAP6 SWAP5 POP POP POP POP POP JUMP JUMPDEST PUSH1 0x40 MLOAD DUP1 PUSH1 0x60 ADD PUSH1 0x40 MSTORE DUP1 PUSH1 0x0 DUP2 MSTORE PUSH1 0x20 ADD PUSH1 0x0 DUP2 MSTORE PUSH1 0x20 ADD PUSH1 0x0 DUP2 MSTORE POP SWAP1 JUMP JUMPDEST PUSH1 0x40 DUP1 MLOAD PUSH1 0x20 DUP2 ADD SWAP1 SWAP2 MSTORE PUSH1 0x0 DUP2 MSTORE SWAP1 JUMP JUMPDEST PUSH1 0x40 MLOAD DUP1 PUSH1 0x20 ADD PUSH1 0x40 MSTORE DUP1 PUSH1 0x0 DUP2 MSTORE POP SWAP1 JUMP JUMPDEST PUSH1 0x0 DUP3 PUSH1 0x1F DUP4 ADD SLT PUSH2 0x2383 JUMPI DUP1 DUP2 REVERT JUMPDEST DUP2 CALLDATALOAD PUSH2 0x2396 PUSH2 0x2391 DUP3 PUSH2 0x2CB8 JUMP JUMPDEST PUSH2 0x2C91 JUMP JUMPDEST DUP2 DUP2 MSTORE SWAP2 POP PUSH1 0x20 DUP1 DUP4 ADD SWAP1 DUP5 DUP2 ADD DUP2 DUP5 MUL DUP7 ADD DUP3 ADD DUP8 LT ISZERO PUSH2 0x23B7 JUMPI PUSH1 0x0 DUP1 REVERT JUMPDEST PUSH1 0x0 JUMPDEST DUP5 DUP2 LT ISZERO PUSH2 0x23D6 JUMPI DUP2 CALLDATALOAD DUP5 MSTORE SWAP3 DUP3 ADD SWAP3 SWAP1 DUP3 ADD SWAP1 PUSH1 0x1 ADD PUSH2 0x23BA JUMP JUMPDEST POP POP POP POP POP SWAP3 SWAP2 POP POP JUMP JUMPDEST PUSH1 0x0 PUSH1 0x20 DUP3 DUP5 SUB SLT ISZERO PUSH2 0x23F2 JUMPI DUP1 DUP2 REVERT JUMPDEST DUP2 CALLDATALOAD PUSH2 0x12EB DUP2 PUSH2 0x2CD8 JUMP JUMPDEST PUSH1 0x0 DUP1 PUSH1 0x40 DUP4 DUP6 SUB SLT ISZERO PUSH2 0x240F JUMPI DUP1 DUP2 REVERT JUMPDEST DUP3 CALLDATALOAD PUSH2 0x241A DUP2 PUSH2 0x2CD8 JUMP JUMPDEST SWAP2 POP PUSH1 0x20 DUP4 ADD CALLDATALOAD PUSH2 0x242A DUP2 PUSH2 0x2CD8 JUMP JUMPDEST DUP1 SWAP2 POP POP SWAP3 POP SWAP3 SWAP1 POP JUMP JUMPDEST PUSH1 0x0 DUP1 PUSH1 0x40 DUP4 DUP6 SUB SLT ISZERO PUSH2 0x2447 JUMPI DUP2 DUP3 REVERT JUMPDEST DUP3 CALLDATALOAD PUSH2 0x2452 DUP2 PUSH2 0x2CD8 JUMP JUMPDEST SWAP5 PUSH1 0x20 SWAP4 SWAP1 SWAP4 ADD CALLDATALOAD SWAP4 POP POP POP JUMP JUMPDEST PUSH1 0x0 DUP1 PUSH1 0x0 PUSH1 0x60 DUP5 DUP7 SUB SLT ISZERO PUSH2 0x2474 JUMPI DUP1 DUP2 REVERT JUMPDEST DUP4 CALLDATALOAD PUSH2 0x247F DUP2 PUSH2 0x2CD8 JUMP JUMPDEST SWAP3 POP PUSH1 0x20 DUP5 ADD CALLDATALOAD SWAP2 POP PUSH1 0x40 DUP5 ADD CALLDATALOAD PUSH2 0x2496 DUP2 PUSH2 0x2CD8 JUMP JUMPDEST DUP1 SWAP2 POP POP SWAP3 POP SWAP3 POP SWAP3 JUMP JUMPDEST PUSH1 0x0 DUP1 PUSH1 0x0 DUP1 PUSH1 0x80 DUP6 DUP8 SUB SLT ISZERO PUSH2 0x24B6 JUMPI DUP1 DUP2 REVERT JUMPDEST DUP5 CALLDATALOAD PUSH2 0x24C1 DUP2 PUSH2 0x2CD8 JUMP JUMPDEST SWAP4 POP PUSH1 0x20 DUP6 ADD CALLDATALOAD SWAP3 POP PUSH1 0x40 DUP6 ADD CALLDATALOAD PUSH2 0x24D8 DUP2 PUSH2 0x2CD8 JUMP JUMPDEST SWAP4 SWAP7 SWAP3 SWAP6 POP SWAP3 SWAP4 PUSH1 0x60 ADD CALLDATALOAD SWAP3 POP POP JUMP JUMPDEST PUSH1 0x0 DUP1 PUSH1 0x0 DUP1 PUSH1 0x0 PUSH1 0xA0 DUP7 DUP9 SUB SLT ISZERO PUSH2 0x24FF JUMPI DUP1 DUP2 REVERT JUMPDEST DUP6 CALLDATALOAD PUSH2 0x250A DUP2 PUSH2 0x2CD8 JUMP JUMPDEST SWAP5 POP PUSH1 0x20 DUP7 ADD CALLDATALOAD SWAP4 POP PUSH1 0x40 DUP7 ADD CALLDATALOAD PUSH2 0x2521 DUP2 PUSH2 0x2CD8 JUMP JUMPDEST SWAP5 SWAP8 SWAP4 SWAP7 POP SWAP4 SWAP5 PUSH1 0x60 DUP2 ADD CALLDATALOAD SWAP5 POP PUSH1 0x80 ADD CALLDATALOAD SWAP3 SWAP2 POP POP JUMP JUMPDEST PUSH1 0x0 PUSH1 0x20 DUP3 DUP5 SUB SLT ISZERO PUSH2 0x254A JUMPI DUP1 DUP2 REVERT JUMPDEST DUP2 CALLDATALOAD PUSH8 0xFFFFFFFFFFFFFFFF DUP2 GT ISZERO PUSH2 0x2560 JUMPI DUP2 DUP3 REVERT JUMPDEST PUSH2 0x12C2 DUP5 DUP3 DUP6 ADD PUSH2 0x2373 JUMP JUMPDEST PUSH1 0x0 PUSH1 0x20 DUP1 DUP4 DUP6 SUB SLT ISZERO PUSH2 0x257E JUMPI DUP2 DUP3 REVERT JUMPDEST DUP3 MLOAD PUSH8 0xFFFFFFFFFFFFFFFF DUP2 GT ISZERO PUSH2 0x2594 JUMPI DUP3 DUP4 REVERT JUMPDEST DUP4 ADD PUSH1 0x1F DUP2 ADD DUP6 SGT PUSH2 0x25A4 JUMPI DUP3 DUP4 REVERT JUMPDEST DUP1 MLOAD PUSH2 0x25B2 PUSH2 0x2391 DUP3 PUSH2 0x2CB8 JUMP JUMPDEST DUP2 DUP2 MSTORE DUP4 DUP2 ADD SWAP1 DUP4 DUP6 ADD DUP6 DUP5 MUL DUP6 ADD DUP7 ADD DUP10 LT ISZERO PUSH2 0x25CE JUMPI DUP7 DUP8 REVERT JUMPDEST DUP7 SWAP5 POP JUMPDEST DUP4 DUP6 LT ISZERO PUSH2 0x25F0 JUMPI DUP1 MLOAD DUP4 MSTORE PUSH1 0x1 SWAP5 SWAP1 SWAP5 ADD SWAP4 SWAP2 DUP6 ADD SWAP2 DUP6 ADD PUSH2 0x25D2 JUMP JUMPDEST POP SWAP8 SWAP7 POP POP POP POP POP POP POP JUMP JUMPDEST PUSH1 0x0 DUP1 PUSH1 0x0 PUSH1 0x60 DUP5 DUP7 SUB SLT ISZERO PUSH2 0x2610 JUMPI DUP3 DUP4 REVERT JUMPDEST DUP4 CALLDATALOAD PUSH8 0xFFFFFFFFFFFFFFFF DUP2 GT ISZERO PUSH2 0x2626 JUMPI DUP4 DUP5 REVERT JUMPDEST PUSH2 0x2632 DUP7 DUP3 DUP8 ADD PUSH2 0x2373 JUMP JUMPDEST SWAP7 PUSH1 0x20 DUP7 ADD CALLDATALOAD SWAP7 POP PUSH1 0x40 SWAP1 SWAP6 ADD CALLDATALOAD SWAP5 SWAP4 POP POP POP POP JUMP JUMPDEST PUSH1 0x0 PUSH1 0x20 DUP3 DUP5 SUB SLT ISZERO PUSH2 0x2659 JUMPI DUP1 DUP2 REVERT JUMPDEST DUP2 MLOAD DUP1 ISZERO ISZERO DUP2 EQ PUSH2 0x12EB JUMPI DUP2 DUP3 REVERT JUMPDEST PUSH1 0x0 PUSH1 0x20 DUP3 DUP5 SUB SLT ISZERO PUSH2 0x2679 JUMPI DUP1 DUP2 REVERT JUMPDEST DUP2 MLOAD PUSH2 0x12EB DUP2 PUSH2 0x2CD8 JUMP JUMPDEST PUSH1 0x0 DUP1 PUSH1 0x0 PUSH1 0x60 DUP5 DUP7 SUB SLT ISZERO PUSH2 0x2698 JUMPI DUP3 DUP4 REVERT JUMPDEST DUP4 MLOAD PUSH2 0x26A3 DUP2 PUSH2 0x2CED JUMP JUMPDEST PUSH1 0x20 DUP6 ADD MLOAD SWAP1 SWAP4 POP PUSH2 0x26B4 DUP2 PUSH2 0x2CED JUMP JUMPDEST PUSH1 0x40 DUP6 ADD MLOAD SWAP1 SWAP3 POP PUSH4 0xFFFFFFFF DUP2 AND DUP2 EQ PUSH2 0x2496 JUMPI DUP2 DUP3 REVERT JUMPDEST PUSH1 0x0 PUSH1 0x20 DUP3 DUP5 SUB SLT ISZERO PUSH2 0x26DE JUMPI DUP1 DUP2 REVERT JUMPDEST POP CALLDATALOAD SWAP2 SWAP1 POP JUMP JUMPDEST PUSH1 0x0 PUSH1 0x20 DUP3 DUP5 SUB SLT ISZERO PUSH2 0x26F6 JUMPI DUP1 DUP2 REVERT JUMPDEST POP MLOAD SWAP2 SWAP1 POP JUMP JUMPDEST PUSH1 0x0 DUP1 PUSH1 0x40 DUP4 DUP6 SUB SLT ISZERO PUSH2 0x270F JUMPI DUP2 DUP3 REVERT JUMPDEST POP POP DUP1 CALLDATALOAD SWAP3 PUSH1 0x20 SWAP1 SWAP2 ADD CALLDATALOAD SWAP2 POP JUMP JUMPDEST PUSH1 0x0 DUP1 PUSH1 0x0 PUSH1 0x60 DUP5 DUP7 SUB SLT ISZERO PUSH2 0x2732 JUMPI DUP1 DUP2 REVERT JUMPDEST POP POP DUP2 CALLDATALOAD SWAP4 PUSH1 0x20 DUP4 ADD CALLDATALOAD SWAP4 POP PUSH1 0x40 SWAP1 SWAP3 ADD CALLDATALOAD SWAP2 SWAP1 POP JUMP JUMPDEST PUSH1 0x0 DUP2 MLOAD DUP1 DUP5 MSTORE PUSH1 0x20 DUP1 DUP6 ADD SWAP5 POP DUP1 DUP5 ADD DUP4 JUMPDEST DUP4 DUP2 LT ISZERO PUSH2 0x2781 JUMPI DUP2 MLOAD PUSH1 0x1 PUSH1 0x1 PUSH1 0xA0 SHL SUB AND DUP8 MSTORE SWAP6 DUP3 ADD SWAP6 SWAP1 DUP3 ADD SWAP1 PUSH1 0x1 ADD PUSH2 0x275C JUMP JUMPDEST POP SWAP5 SWAP6 SWAP5 POP POP POP POP POP JUMP JUMPDEST PUSH12 0xFFFFFFFFFFFFFFFFFFFFFFFF NOT PUSH1 0x60 SWAP4 DUP5 SHL DUP2 AND DUP3 MSTORE SWAP2 SWAP1 SWAP3 SHL AND PUSH1 0x14 DUP3 ADD MSTORE PUSH1 0x28 ADD SWAP1 JUMP JUMPDEST PUSH1 0x1 PUSH1 0x1 PUSH1 0xF8 SHL SUB NOT DUP2 MSTORE PUSH1 0x60 SWAP3 SWAP1 SWAP3 SHL PUSH12 0xFFFFFFFFFFFFFFFFFFFFFFFF NOT AND PUSH1 0x1 DUP4 ADD MSTORE PUSH1 0x15 DUP3 ADD MSTORE PUSH32 0x96E8AC4277198FF8B6F785478AA9A39F403CB768DD02CBEE326C3E7DA348845F PUSH1 0x35 DUP3 ADD MSTORE PUSH1 0x55 ADD SWAP1 JUMP JUMPDEST PUSH1 0x1 PUSH1 0x1 PUSH1 0xA0 SHL SUB SWAP2 SWAP1 SWAP2 AND DUP2 MSTORE PUSH1 0x20 ADD SWAP1 JUMP JUMPDEST PUSH1 0x1 PUSH1 0x1 PUSH1 0xA0 SHL SUB SWAP5 SWAP1 SWAP5 AND DUP5 MSTORE PUSH1 0x20 DUP5 ADD SWAP3 SWAP1 SWAP3 MSTORE PUSH1 0x40 DUP4 ADD MSTORE PUSH1 0x60 DUP3 ADD MSTORE PUSH1 0x80 ADD SWAP1 JUMP JUMPDEST PUSH1 0x1 PUSH1 0x1 PUSH1 0xA0 SHL SUB SWAP4 DUP5 AND DUP2 MSTORE SWAP2 SWAP1 SWAP3 AND PUSH1 0x20 DUP3 ADD MSTORE PUSH1 0x40 DUP2 ADD SWAP2 SWAP1 SWAP2 MSTORE PUSH1 0x60 ADD SWAP1 JUMP JUMPDEST PUSH1 0x1 PUSH1 0x1 PUSH1 0xA0 SHL SUB SWAP3 SWAP1 SWAP3 AND DUP3 MSTORE PUSH1 0x20 DUP3 ADD MSTORE PUSH1 0x40 ADD SWAP1 JUMP JUMPDEST PUSH1 0x0 PUSH1 0x20 DUP3 MSTORE PUSH2 0x12EB PUSH1 0x20 DUP4 ADD DUP5 PUSH2 0x2749 JUMP JUMPDEST PUSH1 0x20 DUP1 DUP3 MSTORE DUP3 MLOAD DUP3 DUP3 ADD DUP2 SWAP1 MSTORE PUSH1 0x0 SWAP2 SWAP1 DUP5 DUP3 ADD SWAP1 PUSH1 0x40 DUP6 ADD SWAP1 DUP5 JUMPDEST DUP2 DUP2 LT ISZERO PUSH2 0x28CB JUMPI DUP4 MLOAD DUP4 MSTORE SWAP3 DUP5 ADD SWAP3 SWAP2 DUP5 ADD SWAP2 PUSH1 0x1 ADD PUSH2 0x28AF JUMP JUMPDEST POP SWAP1 SWAP7 SWAP6 POP POP POP POP POP POP JUMP JUMPDEST SWAP1 ISZERO ISZERO DUP2 MSTORE PUSH1 0x20 ADD SWAP1 JUMP JUMPDEST PUSH1 0x0 PUSH1 0x20 DUP1 DUP4 MSTORE DUP4 MLOAD DUP1 DUP3 DUP6 ADD MSTORE DUP3 JUMPDEST DUP2 DUP2 LT ISZERO PUSH2 0x290E JUMPI DUP6 DUP2 ADD DUP4 ADD MLOAD DUP6 DUP3 ADD PUSH1 0x40 ADD MSTORE DUP3 ADD PUSH2 0x28F2 JUMP JUMPDEST DUP2 DUP2 GT ISZERO PUSH2 0x291F JUMPI DUP4 PUSH1 0x40 DUP4 DUP8 ADD ADD MSTORE JUMPDEST POP PUSH1 0x1F ADD PUSH1 0x1F NOT AND SWAP3 SWAP1 SWAP3 ADD PUSH1 0x40 ADD SWAP4 SWAP3 POP POP POP JUMP JUMPDEST PUSH1 0x20 DUP1 DUP3 MSTORE PUSH1 0x1B SWAP1 DUP3 ADD MSTORE PUSH32 0x536166654D6174683A206164646974696F6E206F766572666C6F770000000000 PUSH1 0x40 DUP3 ADD MSTORE PUSH1 0x60 ADD SWAP1 JUMP JUMPDEST PUSH1 0x20 DUP1 DUP3 MSTORE PUSH1 0x1A SWAP1 DUP3 ADD MSTORE PUSH32 0x556E697377617056324F7261636C653A3A6164643A2021676F76000000000000 PUSH1 0x40 DUP3 ADD MSTORE PUSH1 0x60 ADD SWAP1 JUMP JUMPDEST PUSH1 0x20 DUP1 DUP3 MSTORE PUSH1 0x13 SWAP1 DUP3 ADD MSTORE PUSH19 0x39B2BA23B7BB32B93730B731B29D1010B3B7BB PUSH1 0x69 SHL PUSH1 0x40 DUP3 ADD MSTORE PUSH1 0x60 ADD SWAP1 JUMP JUMPDEST PUSH1 0x20 DUP1 DUP3 MSTORE PUSH1 0x25 SWAP1 DUP3 ADD MSTORE PUSH32 0x556E697377617056324C6962726172793A204944454E544943414C5F41444452 PUSH1 0x40 DUP3 ADD MSTORE PUSH5 0x4553534553 PUSH1 0xD8 SHL PUSH1 0x60 DUP3 ADD MSTORE PUSH1 0x80 ADD SWAP1 JUMP JUMPDEST PUSH1 0x20 DUP1 DUP3 MSTORE PUSH1 0x24 SWAP1 DUP3 ADD MSTORE PUSH32 0x556E697377617056324F7261636C653A3A71756F74653A207374616C65207072 PUSH1 0x40 DUP3 ADD MSTORE PUSH4 0x69636573 PUSH1 0xE0 SHL PUSH1 0x60 DUP3 ADD MSTORE PUSH1 0x80 ADD SWAP1 JUMP JUMPDEST PUSH1 0x20 DUP1 DUP3 MSTORE PUSH1 0x21 SWAP1 DUP3 ADD MSTORE PUSH32 0x536166654D6174683A206D756C7469706C69636174696F6E206F766572666C6F PUSH1 0x40 DUP3 ADD MSTORE PUSH1 0x77 PUSH1 0xF8 SHL PUSH1 0x60 DUP3 ADD MSTORE PUSH1 0x80 ADD SWAP1 JUMP JUMPDEST PUSH1 0x20 DUP1 DUP3 MSTORE PUSH1 0x24 SWAP1 DUP3 ADD MSTORE PUSH32 0x3A3A69734C6F636B65723A206C6F636B6572206973206E6F7420726567697374 PUSH1 0x40 DUP3 ADD MSTORE PUSH4 0x195C9959 PUSH1 0xE2 SHL PUSH1 0x60 DUP3 ADD MSTORE PUSH1 0x80 ADD SWAP1 JUMP JUMPDEST PUSH1 0x20 DUP1 DUP3 MSTORE PUSH1 0x5 SWAP1 DUP3 ADD MSTORE PUSH5 0x35B737BBB7 PUSH1 0xD9 SHL PUSH1 0x40 DUP3 ADD MSTORE PUSH1 0x60 ADD SWAP1 JUMP JUMPDEST PUSH1 0x20 DUP1 DUP3 MSTORE PUSH1 0x1D SWAP1 DUP3 ADD MSTORE PUSH32 0x616363657074476F7665726E616E63653A202170656E64696E67476F76000000 PUSH1 0x40 DUP3 ADD MSTORE PUSH1 0x60 ADD SWAP1 JUMP JUMPDEST PUSH1 0x20 DUP1 DUP3 MSTORE PUSH1 0x23 SWAP1 DUP3 ADD MSTORE PUSH32 0x4669786564506F696E743A204D554C5449504C49434154494F4E5F4F56455246 PUSH1 0x40 DUP3 ADD MSTORE PUSH3 0x4C4F57 PUSH1 0xE8 SHL PUSH1 0x60 DUP3 ADD MSTORE PUSH1 0x80 ADD SWAP1 JUMP JUMPDEST PUSH1 0x20 DUP1 DUP3 MSTORE PUSH1 0x1E SWAP1 DUP3 ADD MSTORE PUSH32 0x556E697377617056324C6962726172793A205A45524F5F414444524553530000 PUSH1 0x40 DUP3 ADD MSTORE PUSH1 0x60 ADD SWAP1 JUMP JUMPDEST PUSH1 0x20 DUP1 DUP3 MSTORE PUSH1 0x17 SWAP1 DUP3 ADD MSTORE PUSH32 0x4669786564506F696E743A204449565F42595F5A45524F000000000000000000 PUSH1 0x40 DUP3 ADD MSTORE PUSH1 0x60 ADD SWAP1 JUMP JUMPDEST PUSH1 0x20 DUP1 DUP3 MSTORE PUSH1 0x16 SWAP1 DUP3 ADD MSTORE PUSH22 0x556E697377617056324F7261636C653A2021776F726B PUSH1 0x50 SHL PUSH1 0x40 DUP3 ADD MSTORE PUSH1 0x60 ADD SWAP1 JUMP JUMPDEST DUP2 MLOAD DUP2 MSTORE PUSH1 0x20 DUP1 DUP4 ADD MLOAD SWAP1 DUP3 ADD MSTORE PUSH1 0x40 SWAP2 DUP3 ADD MLOAD SWAP2 DUP2 ADD SWAP2 SWAP1 SWAP2 MSTORE PUSH1 0x60 ADD SWAP1 JUMP JUMPDEST SWAP1 DUP2 MSTORE PUSH1 0x20 ADD SWAP1 JUMP JUMPDEST PUSH1 0x0 DUP7 DUP3 MSTORE DUP6 PUSH1 0x20 DUP4 ADD MSTORE PUSH1 0xA0 PUSH1 0x40 DUP4 ADD MSTORE PUSH2 0x2C5E PUSH1 0xA0 DUP4 ADD DUP7 PUSH2 0x2749 JUMP JUMPDEST PUSH1 0x1 PUSH1 0x1 PUSH1 0xA0 SHL SUB SWAP5 SWAP1 SWAP5 AND PUSH1 0x60 DUP4 ADD MSTORE POP PUSH1 0x80 ADD MSTORE SWAP4 SWAP3 POP POP POP JUMP JUMPDEST SWAP3 DUP4 MSTORE PUSH1 0x20 DUP4 ADD SWAP2 SWAP1 SWAP2 MSTORE PUSH1 0x40 DUP3 ADD MSTORE PUSH1 0x60 ADD SWAP1 JUMP JUMPDEST PUSH1 0x40 MLOAD DUP2 DUP2 ADD PUSH8 0xFFFFFFFFFFFFFFFF DUP2 GT DUP3 DUP3 LT OR ISZERO PUSH2 0x2CB0 JUMPI PUSH1 0x0 DUP1 REVERT JUMPDEST PUSH1 0x40 MSTORE SWAP2 SWAP1 POP JUMP JUMPDEST PUSH1 0x0 PUSH8 0xFFFFFFFFFFFFFFFF DUP3 GT ISZERO PUSH2 0x2CCE JUMPI DUP1 DUP2 REVERT JUMPDEST POP PUSH1 0x20 SWAP1 DUP2 MUL ADD SWAP1 JUMP JUMPDEST PUSH1 0x1 PUSH1 0x1 PUSH1 0xA0 SHL SUB DUP2 AND DUP2 EQ PUSH2 0xF5D JUMPI PUSH1 0x0 DUP1 REVERT JUMPDEST PUSH1 0x1 PUSH1 0x1 PUSH1 0x70 SHL SUB DUP2 AND DUP2 EQ PUSH2 0xF5D JUMPI PUSH1 0x0 DUP1 REVERT INVALID LOG2 PUSH5 0x6970667358 0x22 SLT KECCAK256 MSTORE DUP16 0xCE 0x22 SWAP6 PUSH28 0x62E47C82ADE84A5746A42772B4AA1802C77C32E36BC2549834786473 PUSH16 0x6C634300060C00330000000000000000 "
		},
		"gasEstimates": {
			"creation": {
				"codeDepositCost": "2315200",
				"executionCost": "43319",
				"totalCost": "2358519"
			},
			"external": {
				"LK3R()": "364",
				"UNI()": "297",
				"WETH()": "341",
				"acceptGovernance()": "22721",
				"add(address,address)": "infinite",
				"blackScholesEstimate(uint256,uint256,uint256)": "infinite",
				"current(address,uint256,address)": "infinite",
				"daily(address,uint256,address,uint256)": "infinite",
				"factory()": "319",
				"governance()": "1137",
				"hourly(address,uint256,address,uint256)": "infinite",
				"lastObservation(address)": "4100",
				"minKeep()": "1141",
				"observationLength(address)": "1401",
				"observations(address,uint256)": "3896",
				"pairFor(address,address)": "infinite",
				"pairForWETH(address)": "1250",
				"pairs()": "infinite",
				"pendingGovernance()": "1180",
				"periodSize()": "294",
				"prices(address,uint256,address,uint256)": "infinite",
				"quote(address,uint256,address,uint256)": "infinite",
				"realizedVolatility(address,uint256,address,uint256,uint256)": "infinite",
				"realizedVolatilityDaily(address,uint256,address)": "infinite",
				"realizedVolatilityHourly(address,uint256,address)": "infinite",
				"realizedVolatilityWeekly(address,uint256,address)": "infinite",
				"retBasedBlackScholesEstimate(uint256[],uint256,uint256)": "infinite",
				"sample(address,uint256,address,uint256,uint256)": "infinite",
				"setGovernance(address)": "22076",
				"setMinKeep(uint256)": "21175",
				"sqrt(uint256)": "infinite",
				"stddev(uint256[])": "infinite",
				"update(address,address)": "infinite",
				"updateFor(uint256,uint256)": "infinite",
				"updatePair(address)": "infinite",
				"weekly(address,uint256,address,uint256)": "infinite",
				"work()": "infinite",
				"workForFree()": "infinite",
				"workable()": "infinite",
				"workable(address)": "4154"
			},
			"internal": {
				"_swap(uint256)": "infinite",
				"_update(address)": "infinite",
				"_updateAll()": "infinite",
				"_valid(address,uint256)": "infinite",
				"computeAmountOut(uint256,uint256,uint256,uint256)": "infinite"
			}
		},
		"methodIdentifiers": {
			"LK3R()": "4d8ea0de",
			"UNI()": "541bcb76",
			"WETH()": "ad5c4648",
			"acceptGovernance()": "238efcbc",
			"add(address,address)": "52c28fab",
			"blackScholesEstimate(uint256,uint256,uint256)": "4411935e",
			"current(address,uint256,address)": "a75d39c2",
			"daily(address,uint256,address,uint256)": "4b71c33c",
			"factory()": "c45a0155",
			"governance()": "5aa6e675",
			"hourly(address,uint256,address,uint256)": "efa7dbbd",
			"lastObservation(address)": "202e1e43",
			"minKeep()": "11a9b128",
			"observationLength(address)": "81bfb885",
			"observations(address,uint256)": "02459966",
			"pairFor(address,address)": "96ed28f9",
			"pairForWETH(address)": "470838a0",
			"pairs()": "ffb0a4a0",
			"pendingGovernance()": "f39c38a0",
			"periodSize()": "e4463eb2",
			"prices(address,uint256,address,uint256)": "bc9c5941",
			"quote(address,uint256,address,uint256)": "ae6ec9b7",
			"realizedVolatility(address,uint256,address,uint256,uint256)": "b1f0cad1",
			"realizedVolatilityDaily(address,uint256,address)": "9119a8d5",
			"realizedVolatilityHourly(address,uint256,address)": "a10d0438",
			"realizedVolatilityWeekly(address,uint256,address)": "de4b5e07",
			"retBasedBlackScholesEstimate(uint256[],uint256,uint256)": "064141e5",
			"sample(address,uint256,address,uint256,uint256)": "0a793398",
			"setGovernance(address)": "ab033ea9",
			"setMinKeep(uint256)": "c88fa159",
			"sqrt(uint256)": "677342ce",
			"stddev(uint256[])": "8373a7ab",
			"update(address,address)": "c640752d",
			"updateFor(uint256,uint256)": "c9ff6f4d",
			"updatePair(address)": "1b56bbf9",
			"weekly(address,uint256,address,uint256)": "4761703c",
			"work()": "322e9f04",
			"workForFree()": "399b2fb9",
			"workable()": "80bb2bac",
			"workable(address)": "9f471303"
		}
	},
	"abi": [
		{
			"inputs": [],
			"stateMutability": "nonpayable",
			"type": "constructor"
		},
		{
			"inputs": [],
			"name": "LK3R",
			"outputs": [
				{
					"internalType": "contract ILock3r",
					"name": "",
					"type": "address"
				}
			],
			"stateMutability": "view",
			"type": "function"
		},
		{
			"inputs": [],
			"name": "UNI",
			"outputs": [
				{
					"internalType": "contract IUniswapV2Router",
					"name": "",
					"type": "address"
				}
			],
			"stateMutability": "view",
			"type": "function"
		},
		{
			"inputs": [],
			"name": "WETH",
			"outputs": [
				{
					"internalType": "contract WETH9",
					"name": "",
					"type": "address"
				}
			],
			"stateMutability": "view",
			"type": "function"
		},
		{
			"inputs": [],
			"name": "acceptGovernance",
			"outputs": [],
			"stateMutability": "nonpayable",
			"type": "function"
		},
		{
			"inputs": [
				{
					"internalType": "address",
					"name": "tokenA",
					"type": "address"
				},
				{
					"internalType": "address",
					"name": "tokenB",
					"type": "address"
				}
			],
			"name": "add",
			"outputs": [],
			"stateMutability": "nonpayable",
			"type": "function"
		},
		{
			"inputs": [
				{
					"internalType": "uint256",
					"name": "_vol",
					"type": "uint256"
				},
				{
					"internalType": "uint256",
					"name": "_underlying",
					"type": "uint256"
				},
				{
					"internalType": "uint256",
					"name": "_time",
					"type": "uint256"
				}
			],
			"name": "blackScholesEstimate",
			"outputs": [
				{
					"internalType": "uint256",
					"name": "estimate",
					"type": "uint256"
				}
			],
			"stateMutability": "pure",
			"type": "function"
		},
		{
			"inputs": [
				{
					"internalType": "address",
					"name": "tokenIn",
					"type": "address"
				},
				{
					"internalType": "uint256",
					"name": "amountIn",
					"type": "uint256"
				},
				{
					"internalType": "address",
					"name": "tokenOut",
					"type": "address"
				}
			],
			"name": "current",
			"outputs": [
				{
					"internalType": "uint256",
					"name": "amountOut",
					"type": "uint256"
				}
			],
			"stateMutability": "view",
			"type": "function"
		},
		{
			"inputs": [
				{
					"internalType": "address",
					"name": "tokenIn",
					"type": "address"
				},
				{
					"internalType": "uint256",
					"name": "amountIn",
					"type": "uint256"
				},
				{
					"internalType": "address",
					"name": "tokenOut",
					"type": "address"
				},
				{
					"internalType": "uint256",
					"name": "points",
					"type": "uint256"
				}
			],
			"name": "daily",
			"outputs": [
				{
					"internalType": "uint256[]",
					"name": "",
					"type": "uint256[]"
				}
			],
			"stateMutability": "view",
			"type": "function"
		},
		{
			"inputs": [],
			"name": "factory",
			"outputs": [
				{
					"internalType": "address",
					"name": "",
					"type": "address"
				}
			],
			"stateMutability": "view",
			"type": "function"
		},
		{
			"inputs": [],
			"name": "governance",
			"outputs": [
				{
					"internalType": "address",
					"name": "",
					"type": "address"
				}
			],
			"stateMutability": "view",
			"type": "function"
		},
		{
			"inputs": [
				{
					"internalType": "address",
					"name": "tokenIn",
					"type": "address"
				},
				{
					"internalType": "uint256",
					"name": "amountIn",
					"type": "uint256"
				},
				{
					"internalType": "address",
					"name": "tokenOut",
					"type": "address"
				},
				{
					"internalType": "uint256",
					"name": "points",
					"type": "uint256"
				}
			],
			"name": "hourly",
			"outputs": [
				{
					"internalType": "uint256[]",
					"name": "",
					"type": "uint256[]"
				}
			],
			"stateMutability": "view",
			"type": "function"
		},
		{
			"inputs": [
				{
					"internalType": "address",
					"name": "pair",
					"type": "address"
				}
			],
			"name": "lastObservation",
			"outputs": [
				{
					"components": [
						{
							"internalType": "uint256",
							"name": "timestamp",
							"type": "uint256"
						},
						{
							"internalType": "uint256",
							"name": "price0Cumulative",
							"type": "uint256"
						},
						{
							"internalType": "uint256",
							"name": "price1Cumulative",
							"type": "uint256"
						}
					],
					"internalType": "struct Lock3rOracle.Observation",
					"name": "",
					"type": "tuple"
				}
			],
			"stateMutability": "view",
			"type": "function"
		},
		{
			"inputs": [],
			"name": "minKeep",
			"outputs": [
				{
					"internalType": "uint256",
					"name": "",
					"type": "uint256"
				}
			],
			"stateMutability": "view",
			"type": "function"
		},
		{
			"inputs": [
				{
					"internalType": "address",
					"name": "pair",
					"type": "address"
				}
			],
			"name": "observationLength",
			"outputs": [
				{
					"internalType": "uint256",
					"name": "",
					"type": "uint256"
				}
			],
			"stateMutability": "view",
			"type": "function"
		},
		{
			"inputs": [
				{
					"internalType": "address",
					"name": "",
					"type": "address"
				},
				{
					"internalType": "uint256",
					"name": "",
					"type": "uint256"
				}
			],
			"name": "observations",
			"outputs": [
				{
					"internalType": "uint256",
					"name": "timestamp",
					"type": "uint256"
				},
				{
					"internalType": "uint256",
					"name": "price0Cumulative",
					"type": "uint256"
				},
				{
					"internalType": "uint256",
					"name": "price1Cumulative",
					"type": "uint256"
				}
			],
			"stateMutability": "view",
			"type": "function"
		},
		{
			"inputs": [
				{
					"internalType": "address",
					"name": "tokenA",
					"type": "address"
				},
				{
					"internalType": "address",
					"name": "tokenB",
					"type": "address"
				}
			],
			"name": "pairFor",
			"outputs": [
				{
					"internalType": "address",
					"name": "",
					"type": "address"
				}
			],
			"stateMutability": "pure",
			"type": "function"
		},
		{
			"inputs": [
				{
					"internalType": "address",
					"name": "tokenA",
					"type": "address"
				}
			],
			"name": "pairForWETH",
			"outputs": [
				{
					"internalType": "address",
					"name": "",
					"type": "address"
				}
			],
			"stateMutability": "pure",
			"type": "function"
		},
		{
			"inputs": [],
			"name": "pairs",
			"outputs": [
				{
					"internalType": "address[]",
					"name": "",
					"type": "address[]"
				}
			],
			"stateMutability": "view",
			"type": "function"
		},
		{
			"inputs": [],
			"name": "pendingGovernance",
			"outputs": [
				{
					"internalType": "address",
					"name": "",
					"type": "address"
				}
			],
			"stateMutability": "view",
			"type": "function"
		},
		{
			"inputs": [],
			"name": "periodSize",
			"outputs": [
				{
					"internalType": "uint256",
					"name": "",
					"type": "uint256"
				}
			],
			"stateMutability": "view",
			"type": "function"
		},
		{
			"inputs": [
				{
					"internalType": "address",
					"name": "tokenIn",
					"type": "address"
				},
				{
					"internalType": "uint256",
					"name": "amountIn",
					"type": "uint256"
				},
				{
					"internalType": "address",
					"name": "tokenOut",
					"type": "address"
				},
				{
					"internalType": "uint256",
					"name": "points",
					"type": "uint256"
				}
			],
			"name": "prices",
			"outputs": [
				{
					"internalType": "uint256[]",
					"name": "",
					"type": "uint256[]"
				}
			],
			"stateMutability": "view",
			"type": "function"
		},
		{
			"inputs": [
				{
					"internalType": "address",
					"name": "tokenIn",
					"type": "address"
				},
				{
					"internalType": "uint256",
					"name": "amountIn",
					"type": "uint256"
				},
				{
					"internalType": "address",
					"name": "tokenOut",
					"type": "address"
				},
				{
					"internalType": "uint256",
					"name": "granularity",
					"type": "uint256"
				}
			],
			"name": "quote",
			"outputs": [
				{
					"internalType": "uint256",
					"name": "amountOut",
					"type": "uint256"
				}
			],
			"stateMutability": "view",
			"type": "function"
		},
		{
			"inputs": [
				{
					"internalType": "address",
					"name": "tokenIn",
					"type": "address"
				},
				{
					"internalType": "uint256",
					"name": "amountIn",
					"type": "uint256"
				},
				{
					"internalType": "address",
					"name": "tokenOut",
					"type": "address"
				},
				{
					"internalType": "uint256",
					"name": "points",
					"type": "uint256"
				},
				{
					"internalType": "uint256",
					"name": "window",
					"type": "uint256"
				}
			],
			"name": "realizedVolatility",
			"outputs": [
				{
					"internalType": "uint256",
					"name": "",
					"type": "uint256"
				}
			],
			"stateMutability": "view",
			"type": "function"
		},
		{
			"inputs": [
				{
					"internalType": "address",
					"name": "tokenIn",
					"type": "address"
				},
				{
					"internalType": "uint256",
					"name": "amountIn",
					"type": "uint256"
				},
				{
					"internalType": "address",
					"name": "tokenOut",
					"type": "address"
				}
			],
			"name": "realizedVolatilityDaily",
			"outputs": [
				{
					"internalType": "uint256",
					"name": "",
					"type": "uint256"
				}
			],
			"stateMutability": "view",
			"type": "function"
		},
		{
			"inputs": [
				{
					"internalType": "address",
					"name": "tokenIn",
					"type": "address"
				},
				{
					"internalType": "uint256",
					"name": "amountIn",
					"type": "uint256"
				},
				{
					"internalType": "address",
					"name": "tokenOut",
					"type": "address"
				}
			],
			"name": "realizedVolatilityHourly",
			"outputs": [
				{
					"internalType": "uint256",
					"name": "",
					"type": "uint256"
				}
			],
			"stateMutability": "view",
			"type": "function"
		},
		{
			"inputs": [
				{
					"internalType": "address",
					"name": "tokenIn",
					"type": "address"
				},
				{
					"internalType": "uint256",
					"name": "amountIn",
					"type": "uint256"
				},
				{
					"internalType": "address",
					"name": "tokenOut",
					"type": "address"
				}
			],
			"name": "realizedVolatilityWeekly",
			"outputs": [
				{
					"internalType": "uint256",
					"name": "",
					"type": "uint256"
				}
			],
			"stateMutability": "view",
			"type": "function"
		},
		{
			"inputs": [
				{
					"internalType": "uint256[]",
					"name": "_numbers",
					"type": "uint256[]"
				},
				{
					"internalType": "uint256",
					"name": "_underlying",
					"type": "uint256"
				},
				{
					"internalType": "uint256",
					"name": "_time",
					"type": "uint256"
				}
			],
			"name": "retBasedBlackScholesEstimate",
			"outputs": [],
			"stateMutability": "pure",
			"type": "function"
		},
		{
			"inputs": [
				{
					"internalType": "address",
					"name": "tokenIn",
					"type": "address"
				},
				{
					"internalType": "uint256",
					"name": "amountIn",
					"type": "uint256"
				},
				{
					"internalType": "address",
					"name": "tokenOut",
					"type": "address"
				},
				{
					"internalType": "uint256",
					"name": "points",
					"type": "uint256"
				},
				{
					"internalType": "uint256",
					"name": "window",
					"type": "uint256"
				}
			],
			"name": "sample",
			"outputs": [
				{
					"internalType": "uint256[]",
					"name": "",
					"type": "uint256[]"
				}
			],
			"stateMutability": "view",
			"type": "function"
		},
		{
			"inputs": [
				{
					"internalType": "address",
					"name": "_governance",
					"type": "address"
				}
			],
			"name": "setGovernance",
			"outputs": [],
			"stateMutability": "nonpayable",
			"type": "function"
		},
		{
			"inputs": [
				{
					"internalType": "uint256",
					"name": "_keep",
					"type": "uint256"
				}
			],
			"name": "setMinKeep",
			"outputs": [],
			"stateMutability": "nonpayable",
			"type": "function"
		},
		{
			"inputs": [
				{
					"internalType": "uint256",
					"name": "x",
					"type": "uint256"
				}
			],
			"name": "sqrt",
			"outputs": [
				{
					"internalType": "uint256",
					"name": "",
					"type": "uint256"
				}
			],
			"stateMutability": "pure",
			"type": "function"
		},
		{
			"inputs": [
				{
					"internalType": "uint256[]",
					"name": "numbers",
					"type": "uint256[]"
				}
			],
			"name": "stddev",
			"outputs": [
				{
					"internalType": "uint256",
					"name": "sd",
					"type": "uint256"
				}
			],
			"stateMutability": "pure",
			"type": "function"
		},
		{
			"inputs": [
				{
					"internalType": "address",
					"name": "tokenA",
					"type": "address"
				},
				{
					"internalType": "address",
					"name": "tokenB",
					"type": "address"
				}
			],
			"name": "update",
			"outputs": [
				{
					"internalType": "bool",
					"name": "",
					"type": "bool"
				}
			],
			"stateMutability": "nonpayable",
			"type": "function"
		},
		{
			"inputs": [
				{
					"internalType": "uint256",
					"name": "i",
					"type": "uint256"
				},
				{
					"internalType": "uint256",
					"name": "length",
					"type": "uint256"
				}
			],
			"name": "updateFor",
			"outputs": [
				{
					"internalType": "bool",
					"name": "updated",
					"type": "bool"
				}
			],
			"stateMutability": "nonpayable",
			"type": "function"
		},
		{
			"inputs": [
				{
					"internalType": "address",
					"name": "pair",
					"type": "address"
				}
			],
			"name": "updatePair",
			"outputs": [
				{
					"internalType": "bool",
					"name": "",
					"type": "bool"
				}
			],
			"stateMutability": "nonpayable",
			"type": "function"
		},
		{
			"inputs": [
				{
					"internalType": "address",
					"name": "tokenIn",
					"type": "address"
				},
				{
					"internalType": "uint256",
					"name": "amountIn",
					"type": "uint256"
				},
				{
					"internalType": "address",
					"name": "tokenOut",
					"type": "address"
				},
				{
					"internalType": "uint256",
					"name": "points",
					"type": "uint256"
				}
			],
			"name": "weekly",
			"outputs": [
				{
					"internalType": "uint256[]",
					"name": "",
					"type": "uint256[]"
				}
			],
			"stateMutability": "view",
			"type": "function"
		},
		{
			"inputs": [],
			"name": "work",
			"outputs": [],
			"stateMutability": "nonpayable",
			"type": "function"
		},
		{
			"inputs": [],
			"name": "workForFree",
			"outputs": [],
			"stateMutability": "nonpayable",
			"type": "function"
		},
		{
			"inputs": [],
			"name": "workable",
			"outputs": [
				{
					"internalType": "bool",
					"name": "",
					"type": "bool"
				}
			],
			"stateMutability": "view",
			"type": "function"
		},
		{
			"inputs": [
				{
					"internalType": "address",
					"name": "pair",
					"type": "address"
				}
			],
			"name": "workable",
			"outputs": [
				{
					"internalType": "bool",
					"name": "",
					"type": "bool"
				}
			],
			"stateMutability": "view",
			"type": "function"
		},
		{
			"stateMutability": "payable",
			"type": "receive"
		}
	]
}