{
	"data": {
		"bytecode": {
			"linkReferences": {},
			"object": "608060405234801561001057600080fd5b50610615806100206000396000f3fe608060405234801561001057600080fd5b50600436106100935760003560e01c80638e686d56116100665780638e686d561461011f578063904440bd14610127578063dbbc4a571461012f578063ec342ad014610137578063fe10d7741461013f57610093565b80630421d7f2146100985780632a84797f146100d65780634d8ea0de146100de578063525ea63114610102575b600080fd5b6100c4600480360360408110156100ae57600080fd5b506001600160a01b038135169060200135610165565b60408051918252519081900360200190f35b6100c4610252565b6100e6610257565b604080516001600160a01b039092168252519081900360200190f35b6100c46004803603602081101561011857600080fd5b503561026f565b6100c461027b565b6100c4610288565b6100e6610308565b6100c4610320565b6100c46004803603602081101561015557600080fd5b50356001600160a01b0316610325565b6000806101eb73169e633a2d1e6c10dd91238ba11c4a708dfef37c6001600160a01b03166350d25bcd6040518163ffffffff1660e01b815260040160206040518083038186803b1580156101b857600080fd5b505afa1580156101cc573d6000803e3d6000fd5b505050506040513d60208110156101e257600080fd5b5051849061044a565b90506000610205600a6101ff84601961044a565b906104a9565b9050600061022461021587610325565b68056bc75e2d631000006104d4565b90506102468361024168056bc75e2d631000006101ff868661044a565b6104ea565b93505050505b92915050565b601981565b731ceb5cb57c4d4e2b2433641b95dd330a33185a4481565b600061024c3283610165565b68056bc75e2d6310000081565b600073169e633a2d1e6c10dd91238ba11c4a708dfef37c6001600160a01b03166350d25bcd6040518163ffffffff1660e01b815260040160206040518083038186803b1580156102d757600080fd5b505afa1580156102eb573d6000803e3d6000fd5b505050506040513d602081101561030157600080fd5b5051905090565b73169e633a2d1e6c10dd91238ba11c4a708dfef37c81565b600a81565b600061024c731ceb5cb57c4d4e2b2433641b95dd330a33185a446001600160a01b031663d8bff5a5846040518263ffffffff1660e01b815260040180826001600160a01b0316815260200191505060206040518083038186803b15801561038b57600080fd5b505afa15801561039f573d6000803e3d6000fd5b505050506040513d60208110156103b557600080fd5b50516040805163a39744b560e01b81526001600160a01b0386166004820152731ceb5cb57c4d4e2b2433641b95dd330a33185a4460248201819052915163a39744b591604480820192602092909190829003018186803b15801561041857600080fd5b505afa15801561042c573d6000803e3d6000fd5b505050506040513d602081101561044257600080fd5b5051906104fa565b6000826104595750600061024c565b8282028284828161046657fe5b04146104a2576040805162461bcd60e51b815260206004820152600660248201526536bab61d101560d11b604482015290519081900360640190fd5b9392505050565b60006104a28383604051806040016040528060068152602001656469763a202f60d01b81525061053d565b60008183106104e357816104a2565b5090919050565b6000818310156104e357816104a2565b6000828201838110156104a2576040805162461bcd60e51b81526020600482015260066024820152656164643a202b60d01b604482015290519081900360640190fd5b600081836105c95760405162461bcd60e51b81526004018080602001828103825283818151815260200191508051906020019080838360005b8381101561058e578181015183820152602001610576565b50505050905090810190601f1680156105bb5780820380516001836020036101000a031916815260200191505b509250505060405180910390fd5b5060008385816105d557fe5b049594505050505056fea2646970667358221220738364c7aeea172e8443b1d1a3049cff1b8b83025b2e2dd8caf611f547f7378e64736f6c634300060c0033",
			"opcodes": "PUSH1 0x80 PUSH1 0x40 MSTORE CALLVALUE DUP1 ISZERO PUSH2 0x10 JUMPI PUSH1 0x0 DUP1 REVERT JUMPDEST POP PUSH2 0x615 DUP1 PUSH2 0x20 PUSH1 0x0 CODECOPY PUSH1 0x0 RETURN INVALID PUSH1 0x80 PUSH1 0x40 MSTORE CALLVALUE DUP1 ISZERO PUSH2 0x10 JUMPI PUSH1 0x0 DUP1 REVERT JUMPDEST POP PUSH1 0x4 CALLDATASIZE LT PUSH2 0x93 JUMPI PUSH1 0x0 CALLDATALOAD PUSH1 0xE0 SHR DUP1 PUSH4 0x8E686D56 GT PUSH2 0x66 JUMPI DUP1 PUSH4 0x8E686D56 EQ PUSH2 0x11F JUMPI DUP1 PUSH4 0x904440BD EQ PUSH2 0x127 JUMPI DUP1 PUSH4 0xDBBC4A57 EQ PUSH2 0x12F JUMPI DUP1 PUSH4 0xEC342AD0 EQ PUSH2 0x137 JUMPI DUP1 PUSH4 0xFE10D774 EQ PUSH2 0x13F JUMPI PUSH2 0x93 JUMP JUMPDEST DUP1 PUSH4 0x421D7F2 EQ PUSH2 0x98 JUMPI DUP1 PUSH4 0x2A84797F EQ PUSH2 0xD6 JUMPI DUP1 PUSH4 0x4D8EA0DE EQ PUSH2 0xDE JUMPI DUP1 PUSH4 0x525EA631 EQ PUSH2 0x102 JUMPI JUMPDEST PUSH1 0x0 DUP1 REVERT JUMPDEST PUSH2 0xC4 PUSH1 0x4 DUP1 CALLDATASIZE SUB PUSH1 0x40 DUP2 LT ISZERO PUSH2 0xAE JUMPI PUSH1 0x0 DUP1 REVERT JUMPDEST POP PUSH1 0x1 PUSH1 0x1 PUSH1 0xA0 SHL SUB DUP2 CALLDATALOAD AND SWAP1 PUSH1 0x20 ADD CALLDATALOAD PUSH2 0x165 JUMP JUMPDEST PUSH1 0x40 DUP1 MLOAD SWAP2 DUP3 MSTORE MLOAD SWAP1 DUP2 SWAP1 SUB PUSH1 0x20 ADD SWAP1 RETURN JUMPDEST PUSH2 0xC4 PUSH2 0x252 JUMP JUMPDEST PUSH2 0xE6 PUSH2 0x257 JUMP JUMPDEST PUSH1 0x40 DUP1 MLOAD PUSH1 0x1 PUSH1 0x1 PUSH1 0xA0 SHL SUB SWAP1 SWAP3 AND DUP3 MSTORE MLOAD SWAP1 DUP2 SWAP1 SUB PUSH1 0x20 ADD SWAP1 RETURN JUMPDEST PUSH2 0xC4 PUSH1 0x4 DUP1 CALLDATASIZE SUB PUSH1 0x20 DUP2 LT ISZERO PUSH2 0x118 JUMPI PUSH1 0x0 DUP1 REVERT JUMPDEST POP CALLDATALOAD PUSH2 0x26F JUMP JUMPDEST PUSH2 0xC4 PUSH2 0x27B JUMP JUMPDEST PUSH2 0xC4 PUSH2 0x288 JUMP JUMPDEST PUSH2 0xE6 PUSH2 0x308 JUMP JUMPDEST PUSH2 0xC4 PUSH2 0x320 JUMP JUMPDEST PUSH2 0xC4 PUSH1 0x4 DUP1 CALLDATASIZE SUB PUSH1 0x20 DUP2 LT ISZERO PUSH2 0x155 JUMPI PUSH1 0x0 DUP1 REVERT JUMPDEST POP CALLDATALOAD PUSH1 0x1 PUSH1 0x1 PUSH1 0xA0 SHL SUB AND PUSH2 0x325 JUMP JUMPDEST PUSH1 0x0 DUP1 PUSH2 0x1EB PUSH20 0x169E633A2D1E6C10DD91238BA11C4A708DFEF37C PUSH1 0x1 PUSH1 0x1 PUSH1 0xA0 SHL SUB AND PUSH4 0x50D25BCD PUSH1 0x40 MLOAD DUP2 PUSH4 0xFFFFFFFF AND PUSH1 0xE0 SHL DUP2 MSTORE PUSH1 0x4 ADD PUSH1 0x20 PUSH1 0x40 MLOAD DUP1 DUP4 SUB DUP2 DUP7 DUP1 EXTCODESIZE ISZERO DUP1 ISZERO PUSH2 0x1B8 JUMPI PUSH1 0x0 DUP1 REVERT JUMPDEST POP GAS STATICCALL ISZERO DUP1 ISZERO PUSH2 0x1CC JUMPI RETURNDATASIZE PUSH1 0x0 DUP1 RETURNDATACOPY RETURNDATASIZE PUSH1 0x0 REVERT JUMPDEST POP POP POP POP PUSH1 0x40 MLOAD RETURNDATASIZE PUSH1 0x20 DUP2 LT ISZERO PUSH2 0x1E2 JUMPI PUSH1 0x0 DUP1 REVERT JUMPDEST POP MLOAD DUP5 SWAP1 PUSH2 0x44A JUMP JUMPDEST SWAP1 POP PUSH1 0x0 PUSH2 0x205 PUSH1 0xA PUSH2 0x1FF DUP5 PUSH1 0x19 PUSH2 0x44A JUMP JUMPDEST SWAP1 PUSH2 0x4A9 JUMP JUMPDEST SWAP1 POP PUSH1 0x0 PUSH2 0x224 PUSH2 0x215 DUP8 PUSH2 0x325 JUMP JUMPDEST PUSH9 0x56BC75E2D63100000 PUSH2 0x4D4 JUMP JUMPDEST SWAP1 POP PUSH2 0x246 DUP4 PUSH2 0x241 PUSH9 0x56BC75E2D63100000 PUSH2 0x1FF DUP7 DUP7 PUSH2 0x44A JUMP JUMPDEST PUSH2 0x4EA JUMP JUMPDEST SWAP4 POP POP POP POP JUMPDEST SWAP3 SWAP2 POP POP JUMP JUMPDEST PUSH1 0x19 DUP2 JUMP JUMPDEST PUSH20 0x1CEB5CB57C4D4E2B2433641B95DD330A33185A44 DUP2 JUMP JUMPDEST PUSH1 0x0 PUSH2 0x24C ORIGIN DUP4 PUSH2 0x165 JUMP JUMPDEST PUSH9 0x56BC75E2D63100000 DUP2 JUMP JUMPDEST PUSH1 0x0 PUSH20 0x169E633A2D1E6C10DD91238BA11C4A708DFEF37C PUSH1 0x1 PUSH1 0x1 PUSH1 0xA0 SHL SUB AND PUSH4 0x50D25BCD PUSH1 0x40 MLOAD DUP2 PUSH4 0xFFFFFFFF AND PUSH1 0xE0 SHL DUP2 MSTORE PUSH1 0x4 ADD PUSH1 0x20 PUSH1 0x40 MLOAD DUP1 DUP4 SUB DUP2 DUP7 DUP1 EXTCODESIZE ISZERO DUP1 ISZERO PUSH2 0x2D7 JUMPI PUSH1 0x0 DUP1 REVERT JUMPDEST POP GAS STATICCALL ISZERO DUP1 ISZERO PUSH2 0x2EB JUMPI RETURNDATASIZE PUSH1 0x0 DUP1 RETURNDATACOPY RETURNDATASIZE PUSH1 0x0 REVERT JUMPDEST POP POP POP POP PUSH1 0x40 MLOAD RETURNDATASIZE PUSH1 0x20 DUP2 LT ISZERO PUSH2 0x301 JUMPI PUSH1 0x0 DUP1 REVERT JUMPDEST POP MLOAD SWAP1 POP SWAP1 JUMP JUMPDEST PUSH20 0x169E633A2D1E6C10DD91238BA11C4A708DFEF37C DUP2 JUMP JUMPDEST PUSH1 0xA DUP2 JUMP JUMPDEST PUSH1 0x0 PUSH2 0x24C PUSH20 0x1CEB5CB57C4D4E2B2433641B95DD330A33185A44 PUSH1 0x1 PUSH1 0x1 PUSH1 0xA0 SHL SUB AND PUSH4 0xD8BFF5A5 DUP5 PUSH1 0x40 MLOAD DUP3 PUSH4 0xFFFFFFFF AND PUSH1 0xE0 SHL DUP2 MSTORE PUSH1 0x4 ADD DUP1 DUP3 PUSH1 0x1 PUSH1 0x1 PUSH1 0xA0 SHL SUB AND DUP2 MSTORE PUSH1 0x20 ADD SWAP2 POP POP PUSH1 0x20 PUSH1 0x40 MLOAD DUP1 DUP4 SUB DUP2 DUP7 DUP1 EXTCODESIZE ISZERO DUP1 ISZERO PUSH2 0x38B JUMPI PUSH1 0x0 DUP1 REVERT JUMPDEST POP GAS STATICCALL ISZERO DUP1 ISZERO PUSH2 0x39F JUMPI RETURNDATASIZE PUSH1 0x0 DUP1 RETURNDATACOPY RETURNDATASIZE PUSH1 0x0 REVERT JUMPDEST POP POP POP POP PUSH1 0x40 MLOAD RETURNDATASIZE PUSH1 0x20 DUP2 LT ISZERO PUSH2 0x3B5 JUMPI PUSH1 0x0 DUP1 REVERT JUMPDEST POP MLOAD PUSH1 0x40 DUP1 MLOAD PUSH4 0xA39744B5 PUSH1 0xE0 SHL DUP2 MSTORE PUSH1 0x1 PUSH1 0x1 PUSH1 0xA0 SHL SUB DUP7 AND PUSH1 0x4 DUP3 ADD MSTORE PUSH20 0x1CEB5CB57C4D4E2B2433641B95DD330A33185A44 PUSH1 0x24 DUP3 ADD DUP2 SWAP1 MSTORE SWAP2 MLOAD PUSH4 0xA39744B5 SWAP2 PUSH1 0x44 DUP1 DUP3 ADD SWAP3 PUSH1 0x20 SWAP3 SWAP1 SWAP2 SWAP1 DUP3 SWAP1 SUB ADD DUP2 DUP7 DUP1 EXTCODESIZE ISZERO DUP1 ISZERO PUSH2 0x418 JUMPI PUSH1 0x0 DUP1 REVERT JUMPDEST POP GAS STATICCALL ISZERO DUP1 ISZERO PUSH2 0x42C JUMPI RETURNDATASIZE PUSH1 0x0 DUP1 RETURNDATACOPY RETURNDATASIZE PUSH1 0x0 REVERT JUMPDEST POP POP POP POP PUSH1 0x40 MLOAD RETURNDATASIZE PUSH1 0x20 DUP2 LT ISZERO PUSH2 0x442 JUMPI PUSH1 0x0 DUP1 REVERT JUMPDEST POP MLOAD SWAP1 PUSH2 0x4FA JUMP JUMPDEST PUSH1 0x0 DUP3 PUSH2 0x459 JUMPI POP PUSH1 0x0 PUSH2 0x24C JUMP JUMPDEST DUP3 DUP3 MUL DUP3 DUP5 DUP3 DUP2 PUSH2 0x466 JUMPI INVALID JUMPDEST DIV EQ PUSH2 0x4A2 JUMPI PUSH1 0x40 DUP1 MLOAD PUSH3 0x461BCD PUSH1 0xE5 SHL DUP2 MSTORE PUSH1 0x20 PUSH1 0x4 DUP3 ADD MSTORE PUSH1 0x6 PUSH1 0x24 DUP3 ADD MSTORE PUSH6 0x36BAB61D1015 PUSH1 0xD1 SHL PUSH1 0x44 DUP3 ADD MSTORE SWAP1 MLOAD SWAP1 DUP2 SWAP1 SUB PUSH1 0x64 ADD SWAP1 REVERT JUMPDEST SWAP4 SWAP3 POP POP POP JUMP JUMPDEST PUSH1 0x0 PUSH2 0x4A2 DUP4 DUP4 PUSH1 0x40 MLOAD DUP1 PUSH1 0x40 ADD PUSH1 0x40 MSTORE DUP1 PUSH1 0x6 DUP2 MSTORE PUSH1 0x20 ADD PUSH6 0x6469763A202F PUSH1 0xD0 SHL DUP2 MSTORE POP PUSH2 0x53D JUMP JUMPDEST PUSH1 0x0 DUP2 DUP4 LT PUSH2 0x4E3 JUMPI DUP2 PUSH2 0x4A2 JUMP JUMPDEST POP SWAP1 SWAP2 SWAP1 POP JUMP JUMPDEST PUSH1 0x0 DUP2 DUP4 LT ISZERO PUSH2 0x4E3 JUMPI DUP2 PUSH2 0x4A2 JUMP JUMPDEST PUSH1 0x0 DUP3 DUP3 ADD DUP4 DUP2 LT ISZERO PUSH2 0x4A2 JUMPI PUSH1 0x40 DUP1 MLOAD PUSH3 0x461BCD PUSH1 0xE5 SHL DUP2 MSTORE PUSH1 0x20 PUSH1 0x4 DUP3 ADD MSTORE PUSH1 0x6 PUSH1 0x24 DUP3 ADD MSTORE PUSH6 0x6164643A202B PUSH1 0xD0 SHL PUSH1 0x44 DUP3 ADD MSTORE SWAP1 MLOAD SWAP1 DUP2 SWAP1 SUB PUSH1 0x64 ADD SWAP1 REVERT JUMPDEST PUSH1 0x0 DUP2 DUP4 PUSH2 0x5C9 JUMPI PUSH1 0x40 MLOAD PUSH3 0x461BCD PUSH1 0xE5 SHL DUP2 MSTORE PUSH1 0x4 ADD DUP1 DUP1 PUSH1 0x20 ADD DUP3 DUP2 SUB DUP3 MSTORE DUP4 DUP2 DUP2 MLOAD DUP2 MSTORE PUSH1 0x20 ADD SWAP2 POP DUP1 MLOAD SWAP1 PUSH1 0x20 ADD SWAP1 DUP1 DUP4 DUP4 PUSH1 0x0 JUMPDEST DUP4 DUP2 LT ISZERO PUSH2 0x58E JUMPI DUP2 DUP2 ADD MLOAD DUP4 DUP3 ADD MSTORE PUSH1 0x20 ADD PUSH2 0x576 JUMP JUMPDEST POP POP POP POP SWAP1 POP SWAP1 DUP2 ADD SWAP1 PUSH1 0x1F AND DUP1 ISZERO PUSH2 0x5BB JUMPI DUP1 DUP3 SUB DUP1 MLOAD PUSH1 0x1 DUP4 PUSH1 0x20 SUB PUSH2 0x100 EXP SUB NOT AND DUP2 MSTORE PUSH1 0x20 ADD SWAP2 POP JUMPDEST POP SWAP3 POP POP POP PUSH1 0x40 MLOAD DUP1 SWAP2 SUB SWAP1 REVERT JUMPDEST POP PUSH1 0x0 DUP4 DUP6 DUP2 PUSH2 0x5D5 JUMPI INVALID JUMPDEST DIV SWAP6 SWAP5 POP POP POP POP POP JUMP INVALID LOG2 PUSH5 0x6970667358 0x22 SLT KECCAK256 PUSH20 0x8364C7AEEA172E8443B1D1A3049CFF1B8B83025B 0x2E 0x2D 0xD8 0xCA 0xF6 GT CREATE2 SELFBALANCE 0xF7 CALLDATACOPY DUP15 PUSH5 0x736F6C6343 STOP MOD 0xC STOP CALLER "
		},
		"gasEstimates": {
			"creation": {
				"codeDepositCost": "311400",
				"executionCost": "349",
				"totalCost": "311749"
			},
			"external": {
				"BASE()": "264",
				"BOOST()": "221",
				"FASTGAS()": "263",
				"LK3R()": "264",
				"TARGETBOND()": "198",
				"bonds(address)": "infinite",
				"getFastGas()": "infinite",
				"getQuoteLimit(uint256)": "infinite",
				"getQuoteLimitFor(address,uint256)": "infinite"
			}
		},
		"methodIdentifiers": {
			"BASE()": "ec342ad0",
			"BOOST()": "2a84797f",
			"FASTGAS()": "dbbc4a57",
			"LK3R()": "4d8ea0de",
			"TARGETBOND()": "8e686d56",
			"bonds(address)": "fe10d774",
			"getFastGas()": "904440bd",
			"getQuoteLimit(uint256)": "525ea631",
			"getQuoteLimitFor(address,uint256)": "0421d7f2"
		}
	},
	"abi": [
		{
			"inputs": [],
			"name": "BASE",
			"outputs": [
				{
					"internalType": "uint256",
					"name": "",
					"type": "uint256"
				}
			],
			"stateMutability": "view",
			"type": "function"
		},
		{
			"inputs": [],
			"name": "BOOST",
			"outputs": [
				{
					"internalType": "uint256",
					"name": "",
					"type": "uint256"
				}
			],
			"stateMutability": "view",
			"type": "function"
		},
		{
			"inputs": [],
			"name": "FASTGAS",
			"outputs": [
				{
					"internalType": "contract IChainLinkFeed",
					"name": "",
					"type": "address"
				}
			],
			"stateMutability": "view",
			"type": "function"
		},
		{
			"inputs": [],
			"name": "LK3R",
			"outputs": [
				{
					"internalType": "contract ILock3rV1",
					"name": "",
					"type": "address"
				}
			],
			"stateMutability": "view",
			"type": "function"
		},
		{
			"inputs": [],
			"name": "TARGETBOND",
			"outputs": [
				{
					"internalType": "uint256",
					"name": "",
					"type": "uint256"
				}
			],
			"stateMutability": "view",
			"type": "function"
		},
		{
			"inputs": [
				{
					"internalType": "address",
					"name": "locker",
					"type": "address"
				}
			],
			"name": "bonds",
			"outputs": [
				{
					"internalType": "uint256",
					"name": "",
					"type": "uint256"
				}
			],
			"stateMutability": "view",
			"type": "function"
		},
		{
			"inputs": [],
			"name": "getFastGas",
			"outputs": [
				{
					"internalType": "uint256",
					"name": "",
					"type": "uint256"
				}
			],
			"stateMutability": "view",
			"type": "function"
		},
		{
			"inputs": [
				{
					"internalType": "uint256",
					"name": "gasUsed",
					"type": "uint256"
				}
			],
			"name": "getQuoteLimit",
			"outputs": [
				{
					"internalType": "uint256",
					"name": "",
					"type": "uint256"
				}
			],
			"stateMutability": "view",
			"type": "function"
		},
		{
			"inputs": [
				{
					"internalType": "address",
					"name": "origin",
					"type": "address"
				},
				{
					"internalType": "uint256",
					"name": "gasUsed",
					"type": "uint256"
				}
			],
			"name": "getQuoteLimitFor",
			"outputs": [
				{
					"internalType": "uint256",
					"name": "",
					"type": "uint256"
				}
			],
			"stateMutability": "view",
			"type": "function"
		}
	]
}