{
	"data": {
		"bytecode": {
			"linkReferences": {
				"localhost/Lock3r.sol": {
					"Lock3rV1Library": [
						{
							"length": 20,
							"start": 7189
						},
						{
							"length": 20,
							"start": 9904
						}
					]
				}
			},
			"object": "60a0604052692a5a058fc295ed0000006002556000600f553480156200002457600080fd5b506001600090815560208054336001600160a01b03199182168117835560228054909216811790915560025490835260078252604090922054620000739290916200017d811b620050d717901c565b3360008181526007602090815260408083209490945560025484519081529351929391927fddf252ad1be2c89b69c2b068fc378daa952ba7f163c4a11628f55a4df523b3ef9281900390910190a36040805180820190915260068152652637b1b599b960d11b6020909101527f797cfab58fcb15f590eb8e4252d5c228ff88f94f907e119e80c4393a946e8f357fff9dbcec6fef64c1aeb29e2d61f1af9293c5a09910e935b9ffa66bd97238d10e6200012b620001c8565b3060405160200180858152602001848152602001838152602001826001600160a01b031681526020019450505050506040516020818303038152906040528051906020012060808181525050620001cc565b600082820183811015620001c1576040805162461bcd60e51b81526020600482015260066024820152656164643a202b60d01b604482015290519081900360640190fd5b9392505050565b4690565b608051615fd4620001f160003980611c5a52806144115280614a5d5250615fd46000f3fe60806040526004361061050d5760003560e01c80637ecebe0011610297578063c3fc0e1d11610165578063e326ac43116100cc578063f39c38a011610085578063f39c38a0146116e9578063f57cb382146116fe578063f75f9f7b14611713578063f9f92be414611746578063fede700814611779578063ffb0a4a0146117be5761050d565b8063e326ac43146115b7578063e74f8239146115ea578063e7a324dc1461162d578063eb421f3b14611642578063ec342ad014611675578063f1127ed81461168a5761050d565b8063d505accf1161011e578063d505accf14611432578063d8bff5a514611490578063dd62ed3e146114c3578063de63298d146114fe578063deac354114611537578063def70844146115725761050d565b8063c3fc0e1d1461131b578063c5198abc14611354578063c57981b514611387578063ca1d209d1461139c578063ce6a0880146113c6578063d454019d146113ff5761050d565b8063a39744b511610209578063b0103b1a116101c2578063b0103b1a146111e9578063b4b5ea571461121c578063b600702a1461124f578063bb49096d14611282578063c1c1d21814610785578063c3cda520146112c75761050d565b8063a39744b5146110a6578063a457f6fe146110e1578063a515366a1461110b578063a5d059ca14611144578063a9059cbb1461117d578063ab033ea9146111b65761050d565b806388b4ac831161025b57806388b4ac8314610f4e5780638d9acd2e14610f91578063945dd26e14610fd457806395d89b41146110075780639af772841461101c5780639e3369b6146110575761050d565b80637ecebe0014610e795780638071198914610eac578063814ee60a14610edf5780638322fff214610ef457806383baa69314610f095761050d565b806342966c68116103df578063603c6860116103465780636dab5dcf116102ff5780636dab5dcf14610d355780636fcfff4514610d5b57806370a0823114610da757806374a8f10314610dda5780637724ff6814610e0d578063782d6fe114610e405761050d565b8063603c686014610bd757806361d027b314610c12578063637cd7f014610c2757806364bb43ee14610c6257806367da318414610c9557806368581ebd14610cd05761050d565b806355ea6c471161039857806355ea6c4714610ae1578063587cde1e14610b145780635aa6e67514610b475780635c19a95c14610b5c5780635feeb79414610b8f578063603b4d1414610bc25761050d565b806342966c68146109ae5780634395d8ba146109d857806344d96e9514610a1d5780634b3fde2114610a3257806351cff8d914610a6b57806352a4de2914610a9e5761050d565b806320606b70116104835780632ed6b75d1161043c5780632ed6b75d146108a657806330adf81f146108bb578063313ce567146108d057806337feca84146108fb578063392c4c6c146109365780633d1f0bb91461097b5761050d565b806320606b701461079a5780632119a62a146107af578063238efcbc146107e857806323b872dd146107fd5780632c8e7a21146108405780632ec63d7c146108735761050d565b806318160ddd116104d557806318160ddd1461069b5780631992d206146106b05780631b44555e146106f55780631b7a1fb2146107285780631c5a9d9c146107525780631df0de13146107855761050d565b806306fdde0314610512578063095ea7b31461059c5780630c33c522146105e95780631101eb411461062f5780631778e29c14610674575b600080fd5b34801561051e57600080fd5b506105276117d3565b6040805160208082528351818301528351919283929083019185019080838360005b83811015610561578181015183820152602001610549565b50505050905090810190601f16801561058e5780820380516001836020036101000a031916815260200191505b509250505060405180910390f35b3480156105a857600080fd5b506105d5600480360360408110156105bf57600080fd5b506001600160a01b0381351690602001356117f5565b604080519115158252519081900360200190f35b3480156105f557600080fd5b506106136004803603602081101561060c57600080fd5b503561185c565b604080516001600160a01b039092168252519081900360200190f35b34801561063b57600080fd5b506106726004803603606081101561065257600080fd5b506001600160a01b03813581169160208101359091169060400135611883565b005b34801561068057600080fd5b50610689611c58565b60408051918252519081900360200190f35b3480156106a757600080fd5b50610689611c7c565b3480156106bc57600080fd5b50610689600480360360608110156106d357600080fd5b506001600160a01b038135811691602081013582169160409091013516611c82565b34801561070157600080fd5b506106896004803603602081101561071857600080fd5b50356001600160a01b0316611ca5565b34801561073457600080fd5b506106136004803603602081101561074b57600080fd5b5035611cb7565b34801561075e57600080fd5b506106726004803603602081101561077557600080fd5b50356001600160a01b0316611cc4565b34801561079157600080fd5b50610689611eea565b3480156107a657600080fd5b50610689611ef1565b3480156107bb57600080fd5b50610672600480360360408110156107d257600080fd5b506001600160a01b038135169060200135611f15565b3480156107f457600080fd5b5061067261206d565b34801561080957600080fd5b506105d56004803603606081101561082057600080fd5b506001600160a01b038135811691602081013590911690604001356120f0565b34801561084c57600080fd5b506105d56004803603602081101561086357600080fd5b50356001600160a01b03166121d2565b34801561087f57600080fd5b506105d56004803603602081101561089657600080fd5b50356001600160a01b03166121e7565b3480156108b257600080fd5b5061061361220c565b3480156108c757600080fd5b5061068961221b565b3480156108dc57600080fd5b506108e561223f565b6040805160ff9092168252519081900360200190f35b34801561090757600080fd5b506106896004803603604081101561091e57600080fd5b506001600160a01b0381358116916020013516612244565b34801561094257600080fd5b506105d56004803603608081101561095957600080fd5b506001600160a01b038135169060208101359060408101359060600135612261565b34801561098757600080fd5b506105d56004803603602081101561099e57600080fd5b50356001600160a01b0316612323565b3480156109ba57600080fd5b50610672600480360360208110156109d157600080fd5b5035612338565b3480156109e457600080fd5b50610672600480360360608110156109fb57600080fd5b506001600160a01b038135811691602081013582169160409091013516612345565b348015610a2957600080fd5b5061068961269d565b348015610a3e57600080fd5b5061067260048036036040811015610a5557600080fd5b506001600160a01b0381351690602001356126a3565b348015610a7757600080fd5b5061067260048036036020811015610a8e57600080fd5b50356001600160a01b03166128de565b348015610aaa57600080fd5b5061067260048036036060811015610ac157600080fd5b506001600160a01b03813581169160208101359091169060400135612b22565b348015610aed57600080fd5b5061067260048036036020811015610b0457600080fd5b50356001600160a01b0316612e1f565b348015610b2057600080fd5b5061061360048036036020811015610b3757600080fd5b50356001600160a01b0316612ec6565b348015610b5357600080fd5b50610613612ee1565b348015610b6857600080fd5b5061067260048036036020811015610b7f57600080fd5b50356001600160a01b0316612ef0565b348015610b9b57600080fd5b5061067260048036036020811015610bb257600080fd5b50356001600160a01b0316612efa565b348015610bce57600080fd5b50610689612f83565b348015610be357600080fd5b5061067260048036036040811015610bfa57600080fd5b506001600160a01b0381358116916020013516612f8a565b348015610c1e57600080fd5b50610613613191565b348015610c3357600080fd5b5061068960048036036040811015610c4a57600080fd5b506001600160a01b03813581169160200135166131a0565b348015610c6e57600080fd5b5061067260048036036020811015610c8557600080fd5b50356001600160a01b03166131bd565b348015610ca157600080fd5b5061068960048036036040811015610cb857600080fd5b506001600160a01b0381358116916020013516613235565b348015610cdc57600080fd5b50610ce5613252565b60408051602080825283518183015283519192839290830191858101910280838360005b83811015610d21578181015183820152602001610d09565b505050509050019250505060405180910390f35b61067260048036036020811015610d4b57600080fd5b50356001600160a01b03166132b4565b348015610d6757600080fd5b50610d8e60048036036020811015610d7e57600080fd5b50356001600160a01b031661340a565b6040805163ffffffff9092168252519081900360200190f35b348015610db357600080fd5b5061068960048036036020811015610dca57600080fd5b50356001600160a01b0316613422565b348015610de657600080fd5b5061067260048036036020811015610dfd57600080fd5b50356001600160a01b031661343d565b348015610e1957600080fd5b5061068960048036036020811015610e3057600080fd5b50356001600160a01b03166134de565b348015610e4c57600080fd5b5061068960048036036040811015610e6357600080fd5b506001600160a01b0381351690602001356134f0565b348015610e8557600080fd5b5061068960048036036020811015610e9c57600080fd5b50356001600160a01b03166136ff565b348015610eb857600080fd5b5061067260048036036020811015610ecf57600080fd5b50356001600160a01b0316613711565b348015610eeb57600080fd5b50610ce56137c3565b348015610f0057600080fd5b50610613613823565b348015610f1557600080fd5b5061068960048036036060811015610f2c57600080fd5b506001600160a01b038135811691602081013582169160409091013516613828565b348015610f5a57600080fd5b5061067260048036036060811015610f7157600080fd5b506001600160a01b0381358116916020810135909116906040013561384b565b348015610f9d57600080fd5b5061067260048036036060811015610fb457600080fd5b506001600160a01b03813581169160208101359091169060400135613b01565b348015610fe057600080fd5b5061067260048036036020811015610ff757600080fd5b50356001600160a01b0316613c46565b34801561101357600080fd5b50610527613cbf565b34801561102857600080fd5b506106896004803603604081101561103f57600080fd5b506001600160a01b0381358116916020013516613cdf565b34801561106357600080fd5b506105d5600480360360a081101561107a57600080fd5b506001600160a01b03813581169160208101359091169060408101359060608101359060800135613cfc565b3480156110b257600080fd5b50610689600480360360408110156110c957600080fd5b506001600160a01b0381358116916020013516613dad565b3480156110ed57600080fd5b506106136004803603602081101561110457600080fd5b5035613dca565b34801561111757600080fd5b506106726004803603604081101561112e57600080fd5b506001600160a01b038135169060200135613dd7565b34801561115057600080fd5b506106726004803603604081101561116757600080fd5b506001600160a01b038135169060200135614060565b34801561118957600080fd5b506105d5600480360360408110156111a057600080fd5b506001600160a01b03813516906020013561414e565b3480156111c257600080fd5b50610672600480360360208110156111d957600080fd5b50356001600160a01b0316614164565b3480156111f557600080fd5b506105d56004803603602081101561120c57600080fd5b50356001600160a01b03166141db565b34801561122857600080fd5b506106896004803603602081101561123f57600080fd5b50356001600160a01b03166141f0565b34801561125b57600080fd5b506106726004803603602081101561127257600080fd5b50356001600160a01b0316614254565b34801561128e57600080fd5b50610689600480360360608110156112a557600080fd5b506001600160a01b038135811691602081013582169160409091013516614380565b3480156112d357600080fd5b50610672600480360360c08110156112ea57600080fd5b506001600160a01b038135169060208101359060408101359060ff6060820135169060808101359060a001356143a3565b34801561132757600080fd5b506106726004803603604081101561133e57600080fd5b506001600160a01b0381351690602001356145e1565b34801561136057600080fd5b506106726004803603602081101561137757600080fd5b50356001600160a01b031661472c565b34801561139357600080fd5b50610689614882565b3480156113a857600080fd5b50610672600480360360208110156113bf57600080fd5b5035614887565b3480156113d257600080fd5b50610672600480360360408110156113e957600080fd5b506001600160a01b0381351690602001356148ee565b34801561140b57600080fd5b506106896004803603602081101561142257600080fd5b50356001600160a01b03166149b4565b34801561143e57600080fd5b50610672600480360360e081101561145557600080fd5b506001600160a01b03813581169160208101359091169060408101359060608101359060ff6080820135169060a08101359060c001356149c6565b34801561149c57600080fd5b50610689600480360360208110156114b357600080fd5b50356001600160a01b0316614c6a565b3480156114cf57600080fd5b50610689600480360360408110156114e657600080fd5b506001600160a01b0381358116916020013516614c7c565b34801561150a57600080fd5b506106726004803603604081101561152157600080fd5b506001600160a01b038135169060200135614ca7565b34801561154357600080fd5b506106896004803603604081101561155a57600080fd5b506001600160a01b0381358116916020013516614d68565b34801561157e57600080fd5b506106896004803603606081101561159557600080fd5b506001600160a01b038135811691602081013582169160409091013516614d85565b3480156115c357600080fd5b50610689600480360360208110156115da57600080fd5b50356001600160a01b0316614da8565b3480156115f657600080fd5b506106726004803603606081101561160d57600080fd5b506001600160a01b03813581169160208101359091169060400135614dba565b34801561163957600080fd5b50610689614f0b565b34801561164e57600080fd5b506105d56004803603602081101561166557600080fd5b50356001600160a01b0316614f2f565b34801561168157600080fd5b50610689614f44565b34801561169657600080fd5b506116c9600480360360408110156116ad57600080fd5b5080356001600160a01b0316906020013563ffffffff16614f4a565b6040805163ffffffff909316835260208301919091528051918290030190f35b3480156116f557600080fd5b50610613614f77565b34801561170a57600080fd5b50610613614f86565b34801561171f57600080fd5b506106726004803603602081101561173657600080fd5b50356001600160a01b0316614f95565b34801561175257600080fd5b506105d56004803603602081101561176957600080fd5b50356001600160a01b031661503f565b34801561178557600080fd5b506106896004803603606081101561179c57600080fd5b506001600160a01b038135811691602081013582169160409091013516615054565b3480156117ca57600080fd5b50610ce5615077565b604051806040016040528060068152602001652637b1b599b960d11b81525081565b3360008181526006602090815260408083206001600160a01b038716808552908352818420869055815186815291519394909390927f8c5be1e5ebec7d5bd14f71427d1e84f3dd0314c0f7b2291e5b200ac8c7c3b925928290030190a35060015b92915050565b601f818154811061186957fe5b6000918252602090912001546001600160a01b0316905081565b336000908152601b602090815260408083206001600160a01b0387811685529083528184209086168452909152902054156118fe576040805162461bcd60e51b815260206004820152601660248201527518dc99591a5d0e881c195b991a5b99c818dc99591a5d60521b604482015290519081900360640190fd5b61190b42621275006150d7565b3360008181526017602090815260408083206001600160a01b0389811680865291845282852090891680865290845282852096909655938352601882528083209383529281528282209382529290925290205461196890826150d7565b3360008181526018602090815260408083206001600160a01b03898116808652918452828520908916808652818552838620889055958552601684528285209185529083528184209484529382529091205491905210156119fa5760405162461bcd60e51b815260040180806020018281038252602a815260200180615f4e602a913960400191505060405180910390fd5b6040805163cbc3ab5360e01b81526001600160a01b0385166004820152306024820152905160009173__$e041873269b845548bad8a66c3184c4182$__9163cbc3ab5391604480820192602092909190829003018186803b158015611a5e57600080fd5b505af4158015611a72573d6000803e3d6000fd5b505050506040513d6020811015611a8857600080fd5b5051604080516318160ddd60e01b81529051919250600091611b11916001600160a01b038816916318160ddd91600480820192602092909190829003018186803b158015611ad557600080fd5b505afa158015611ae9573d6000803e3d6000fd5b505050506040513d6020811015611aff57600080fd5b5051611b0b848661511a565b90615172565b6001600160a01b0385166000908152601560209081526040808320308452909152902054909150811115611b97576001600160a01b038416600090815260156020908152604080832030808552925290912054611b6e919061519d565b6001600160a01b0384166000908152601560209081526040808320308452909152812055611bf4565b611ba1308261519d565b6001600160a01b0384166000908152601560209081526040808320308452909152902054611bcf90826152b0565b6001600160a01b03851660009081526015602090815260408083203084529091529020555b336001600160a01b0316856001600160a01b0316856001600160a01b03167f6d962fe34dd0cf9a9df3e12a7b8ddfe5f790b3f11668553455d7b52db70a07be4387604051808381526020018281526020019250505060405180910390a45050505050565b7f000000000000000000000000000000000000000000000000000000000000000081565b60025481565b601b60209081526000938452604080852082529284528284209052825290205481565b60136020526000908152604090205481565b6025818154811061186957fe5b336000908152601d602052604090205460ff1615611d21576040805162461bcd60e51b81526020600482015260156024820152741858dd1a5d985d194e88189b1858dadb1a5cdd1959605a1b604482015290519081900360640190fd5b3360009081526009602090815260408083206001600160a01b038516845290915290205415801590611d7557503360009081526009602090815260408083206001600160a01b038516845290915290205442115b611dba576040805162461bcd60e51b815260206004820152601160248201527061637469766174653a20626f6e64696e6760781b604482015290519081900360640190fd5b33600090815260106020526040902054611e2d573360008181526010602090815260408083204290819055601e8054600181019091557f50bb669a95c7b50b7e8a6f09454034b2b14cf2b85c730dca9a539ca82cb6e3500180546001600160a01b03191690951790945560129091529020555b336000818152601c60209081526040808320805460ff19166001179055600c82528083206001600160a01b0386168452909152902054611e6e9183916152db565b336000818152600c602090815260408083206001600160a01b038616808552908352818420849055848452600d835281842090845282529182902054825143815242928101929092528183015290517f3d19c3fddbd0aeb7831c8a9983375778d0d4ec45185720eae1475d6a0647eb6e9181900360600190a250565b6203f48081565b7f797cfab58fcb15f590eb8e4252d5c228ff88f94f907e119e80c4393a946e8f3581565b3360009081526014602052604090205460ff16611f69576040805162461bcd60e51b815260206004820152600d60248201526c3932b1b2b4b83a1d1010b537b160991b604482015290519081900360640190fd5b604080518082018252601d81527f776f726b526563656970743a20696e7375666669656e742066756e647300000060208083019190915233600090815260158252838120600e82529091529190912054611fc4918390615378565b336000908152601560209081526040808320600e84528252808320939093556001600160a01b0385168083526012909152828220429055915183156108fc0291849190818181858888f19350505050158015612024573d6000803e3d6000fd5b506040805143815290516001600160a01b038416913391600e917fb1c0f4c56dd743039f597f2080e633454acc4867e980bf9263582a868dd9d0a4919081900360200190a45050565b6021546001600160a01b031633146120cc576040805162461bcd60e51b815260206004820152601d60248201527f616363657074476f7665726e616e63653a202170656e64696e67476f76000000604482015290519081900360640190fd5b602154602080546001600160a01b0319166001600160a01b03909216919091179055565b6001600160a01b03831660008181526006602090815260408083203380855292528220549192909190821480159061212a57506000198114155b156121bb57600061215685604051806060016040528060278152602001615f7860279139849190615378565b6001600160a01b0380891660008181526006602090815260408083209489168084529482529182902085905581518581529151949550929391927f8c5be1e5ebec7d5bd14f71427d1e84f3dd0314c0f7b2291e5b200ac8c7c3b92592918290030190a3505b6121c686868661540f565b50600195945050505050565b601c6020526000908152604090205460ff1681565b60005a602655506001600160a01b03166000908152601c602052604090205460ff1690565b6023546001600160a01b031681565b7f5fae9ec55a1e547936e0e74d606b44cd5f912f9adcd0bba561fea62d570259e981565b601281565b600960209081526000928352604080842090915290825290205481565b60005a6026556001600160a01b0385166000908152601c602052604090205460ff1680156122c657506001600160a01b0385166000908152600e6020908152604080832054600d83528184203085529092529091205485916122c391906150d7565b10155b80156122ea57506001600160a01b0385166000908152601360205260409020548311155b801561231a57506001600160a01b03851660009081526010602052604090205482906123179042906152b0565b10155b95945050505050565b60146020526000908152604090205460ff1681565b612342338261519d565b50565b6001600160a01b03821660009081526024602052604090205460ff166123ad576040805162461bcd60e51b815260206004820152601860248201527730b2322634b8bab4b234ba3caa37a537b11d1010b830b4b960411b604482015290519081900360640190fd5b6001600160a01b038084166000908152601a602090815260408083208685168452825280832093851683529290522054612420576040805162461bcd60e51b815260206004820152600f60248201526e18dc99591a5d0e881b9bc8189bdb99608a1b604482015290519081900360640190fd5b6001600160a01b038084166000908152601a6020908152604080832086851684528252808320938516835292905220544211612495576040805162461bcd60e51b815260206004820152600f60248201526e6372656469743a20626f6e64696e6760881b604482015290519081900360640190fd5b6040805163cbc3ab5360e01b81526001600160a01b0384166004820152306024820152905160009173__$e041873269b845548bad8a66c3184c4182$__9163cbc3ab5391604480820192602092909190829003018186803b1580156124f957600080fd5b505af415801561250d573d6000803e3d6000fd5b505050506040513d602081101561252357600080fd5b5051604080516318160ddd60e01b815290519192506000916125d7916001600160a01b038716916318160ddd91600480820192602092909190829003018186803b15801561257057600080fd5b505afa158015612584573d6000803e3d6000fd5b505050506040513d602081101561259a57600080fd5b50516001600160a01b038088166000908152601b602090815260408083208a85168452825280832093891683529290522054611b0b90859061511a565b90506125e330826155de565b6001600160a01b038316600090815260156020908152604080832030845290915290205461261190826150d7565b6001600160a01b038085166000818152601560209081526040808320308452825280832095909555898416808352601b8252858320948a168084529482528583208484528252858320929092558451438152908101869052845191947fa90666688fb32254f45a367c38fbcd5f2664432b061a4354d9d3c9a7abcbec5b92918290030190a45050505050565b600f5481565b3360009081526014602052604090205460ff166126fb576040805162461bcd60e51b81526020600482015260116024820152703bb7b935a932b1b2b4b83a1d1010b537b160791b604482015290519081900360640190fd5b6001546001600160a01b031663525ea6316127195a602654906152b0565b6040518263ffffffff1660e01b81526004018082815260200191505060206040518083038186803b15801561274d57600080fd5b505afa158015612761573d6000803e3d6000fd5b505050506040513d602081101561277757600080fd5b50518111156127c6576040805162461bcd60e51b81526020600482015260166024820152751ddbdc9ad49958d95a5c1d0e881b585e081b1a5b5a5d60521b604482015290519081900360640190fd5b604080518082018252601d81527f776f726b526563656970743a20696e7375666669656e742066756e6473000000602080830191909152336000908152601582528381203082529091529190912054612820918390615378565b33600090815260156020908152604080832030808552908352818420949094556001600160a01b0386168352601290915290204290556128619083836152db565b6001600160a01b03821660009081526013602052604090205461288490826150d7565b6001600160a01b03831660008181526013602090815260409182902093909355805143815290519192339230927fb1c0f4c56dd743039f597f2080e633454acc4867e980bf9263582a868dd9d0a492908290030190a45050565b60026000541415612924576040805162461bcd60e51b815260206004820152601f6024820152600080516020615f2e833981519152604482015290519081900360640190fd5b60026000908155338152600a602090815260408083206001600160a01b03851684529091529020541580159061297c5750336000908152600a602090815260408083206001600160a01b038516845290915290205442115b6129c3576040805162461bcd60e51b815260206004820152601360248201527277697468647261773a20756e626f6e64696e6760681b604482015290519081900360640190fd5b3360009081526011602052604090205460ff1615612a1d576040805162461bcd60e51b815260206004820152601260248201527177697468647261773a20646973707574657360701b604482015290519081900360640190fd5b6001600160a01b038116301415612a6257336000818152600b602090815260408083206001600160a01b0386168452909152902054612a5d91309161540f565b612a91565b336000818152600b602090815260408083206001600160a01b038616808552925290912054612a919290615708565b336000818152600b602090815260408083206001600160a01b038616845282529182902054825143815242928101929092528183015290517fbac746a470313079568cd81c87546028484b062a3909acd207dfb77bdb8554e59181900360600190a2336000908152600b602090815260408083206001600160a01b0394909416835292905290812081905560019055565b60026000541415612b68576040805162461bcd60e51b815260206004820152601f6024820152600080516020615f2e833981519152604482015290519081900360640190fd5b600260009081556001600160a01b03841681526024602052604090205460ff16612bd4576040805162461bcd60e51b815260206004820152601860248201527730b2322634b8bab4b234ba3caa37a537b11d1010b830b4b960411b604482015290519081900360640190fd5b612be96001600160a01b03841633308461575a565b3360009081526016602090815260408083206001600160a01b0387811685529083528184209086168452909152902054612c2390826150d7565b3360009081526016602090815260408083206001600160a01b0388811685529083528184209087168452909152902055612c60426203f4806150d7565b336000818152601a602090815260408083206001600160a01b0389811680865291845282852090891680865290845282852096909655938352601b825280832093835292815282822093825292909252902054612cbd90826150d7565b336000908152601b602090815260408083206001600160a01b038881168552908352818420908716845282528083209390935560149052205460ff16158015612d1d57506001600160a01b03821660009081526019602052604090205442115b15612db8576020546040805163dc380cbb60e01b81526001600160a01b0385811660048301529151919092169163dc380cbb91602480830192600092919082900301818387803b158015612d7057600080fd5b505af1158015612d84573d6000803e3d6000fd5b50505050612d9e62127500426150d790919063ffffffff16565b6001600160a01b0383166000908152601960205260409020555b336001600160a01b0316836001600160a01b0316836001600160a01b03167fe1cb44a16adbd63a44f65c279b23b8f447b2c6e120a2bc7f004758b446e05ed14385604051808381526020018281526020019250505060405180910390a45050600160005550565b6020546001600160a01b03163314612e6e576040805162461bcd60e51b815260206004820152600d60248201526c3932b9b7b63b329d1010b3b7bb60991b604482015290519081900360640190fd5b6001600160a01b038116600081815260116020908152604091829020805460ff19169055815143815291517f114efcb1a361e7489558ef294179353c3675c1ed09d34f33deb032e82041c52d9281900390910190a250565b6003602052600090815260409020546001600160a01b031681565b6020546001600160a01b031681565b61234233826157ba565b6001546123429082906001600160a01b031663525ea631612f1e5a602654906152b0565b6040518263ffffffff1660e01b81526004018082815260200191505060206040518083038186803b158015612f5257600080fd5b505afa158015612f66573d6000803e3d6000fd5b505050506040513d6020811015612f7c57600080fd5b50516126a3565b6212750081565b3360009081526017602090815260408083206001600160a01b0386811685529083528184209085168452909152902054612fff576040805162461bcd60e51b81526020600482015260116024820152701c995b5bdd99529bd88e881d5b989bdb99607a1b604482015290519081900360640190fd5b3360009081526017602090815260408083206001600160a01b03868116855290835281842090851684529091529020544211613079576040805162461bcd60e51b815260206004820152601460248201527372656d6f76654a6f623a20756e626f6e64696e6760601b604482015290519081900360640190fd5b3360008181526018602090815260408083206001600160a01b0387811680865291845282852090871680865290845282852054958552601684528285209185529083528184209084529091529020546130d290826152b0565b3360008181526016602090815260408083206001600160a01b03898116808652918452828520908916808652908452828520969096558484526018835281842081855283528184209584529490915281205561312f919083615708565b336001600160a01b0316836001600160a01b0316836001600160a01b03167fb69fc9f6d19ed402461251491f86c736bfcbe966e9584d3fb8a0057b313b69204385604051808381526020018281526020019250505060405180910390a4505050565b6022546001600160a01b031681565b601560209081526000928352604080842090915290825290205481565b6020546001600160a01b03163314613214576040805162461bcd60e51b81526020600482015260156024820152743932bb37b5b2a634b8bab4b234ba3c9d1010b3b7bb60591b604482015290519081900360640190fd5b6001600160a01b03166000908152602460205260409020805460ff19169055565b600b60209081526000928352604080842090915290825290205481565b6060601f8054806020026020016040519081016040528092919081815260200182805480156132aa57602002820191906000526020600020905b81546001600160a01b0316815260019091019060200180831161328c575b5050505050905090565b6001600160a01b03811660009081526014602052604090205460ff16613316576040805162461bcd60e51b815260206004820152601260248201527130b23221b932b234ba22aa241d1010b537b160711b604482015290519081900360640190fd5b6000613329612710611b0b34601e61511a565b905061336361333834836152b0565b6001600160a01b0384166000908152601560209081526040808320600e8452909152902054906150d7565b6001600160a01b038084166000908152601560209081526040808320600e8452825280832094909455549251929091169183156108fc0291849190818181858888f193505050501580156133bb573d6000803e3d6000fd5b5060408051438152346020820152815133926001600160a01b03861692600e927fb97975ea9bf5ae2173b9ea765214622396032aba11cd5cc1450c760ac80d059a929181900390910190a45050565b60056020526000908152604090205463ffffffff1681565b6001600160a01b031660009081526007602052604090205490565b6020546001600160a01b0316331461348a576040805162461bcd60e51b815260206004820152600b60248201526a39b630b9b41d1010b3b7bb60a91b604482015290519081900360640190fd5b6001600160a01b0381166000908152601c60209081526040808320805460ff19908116909155601d835281842080549091166001179055600d82528083203080855292529091205461234291908390614dba565b60196020526000908152604090205481565b6000438210613537576040805162461bcd60e51b815260206004820152600e60248201526d33b2ba283934b7b92b37ba32b99d60911b604482015290519081900360640190fd5b6001600160a01b03831660009081526005602052604090205463ffffffff1680613565576000915050611856565b6001600160a01b038416600090815260046020908152604080832063ffffffff6000198601811685529252909120541683106135d4576001600160a01b03841660009081526004602090815260408083206000199490940163ffffffff16835292905220600101549050611856565b6001600160a01b038416600090815260046020908152604080832083805290915290205463ffffffff1683101561360f576000915050611856565b600060001982015b8163ffffffff168163ffffffff1611156136c857600282820363ffffffff16048103613641615f16565b506001600160a01b038716600090815260046020908152604080832063ffffffff8086168552908352928190208151808301909252805490931680825260019093015491810191909152908714156136a3576020015194506118569350505050565b805163ffffffff168711156136ba578193506136c1565b6001820392505b5050613617565b506001600160a01b038516600090815260046020908152604080832063ffffffff9094168352929052206001015491505092915050565b60086020526000908152604090205481565b6020546001600160a01b03163314613762576040805162461bcd60e51b815260206004820152600f60248201526e3932b6b7bb32a537b11d1010b3b7bb60891b604482015290519081900360640190fd5b6001600160a01b038116600081815260146020908152604091829020805460ff191690558151438152339181019190915281517f2ca18fdfae50f1042480d285d21f6706aa6abbd567d60a044b5bec07ccfee648929181900390910190a250565b6060601e8054806020026020016040519081016040528092919081815260200182805480156132aa576020028201919060005260206000209081546001600160a01b0316815260019091019060200180831161328c575050505050905090565b600e81565b601860209081526000938452604080852082529284528284209052825290205481565b60026000541415613891576040805162461bcd60e51b815260206004820152601f6024820152600080516020615f2e833981519152604482015290519081900360640190fd5b600260009081556001600160a01b03831681526014602052604090205460ff166138f7576040805162461bcd60e51b815260206004820152601260248201527130b23221b932b234ba22aa241d1010b537b160711b604482015290519081900360640190fd5b6000836001600160a01b03166370a08231306040518263ffffffff1660e01b815260040180826001600160a01b0316815260200191505060206040518083038186803b15801561394657600080fd5b505afa15801561395a573d6000803e3d6000fd5b505050506040513d602081101561397057600080fd5b505190506139896001600160a01b03851633308561575a565b6000613a0e82866001600160a01b03166370a08231306040518263ffffffff1660e01b815260040180826001600160a01b0316815260200191505060206040518083038186803b1580156139dc57600080fd5b505afa1580156139f0573d6000803e3d6000fd5b505050506040513d6020811015613a0657600080fd5b5051906152b0565b90506000613a23612710611b0b84601e61511a565b9050613a5e613a3283836152b0565b6001600160a01b038088166000908152601560209081526040808320938c1683529290522054906150d7565b6001600160a01b0380871660009081526015602090815260408083208b85168085529083529220939093559154613a9792911683615708565b336001600160a01b0316856001600160a01b0316876001600160a01b03167fb97975ea9bf5ae2173b9ea765214622396032aba11cd5cc1450c760ac80d059a4386604051808381526020018281526020019250505060405180910390a45050600160005550505050565b3360009081526014602052604090205460ff16613b55576040805162461bcd60e51b815260206004820152600d60248201526c3932b1b2b4b83a1d1010b537b160991b604482015290519081900360640190fd5b604080518082018252601d81527f776f726b526563656970743a20696e7375666669656e742066756e6473000000602080830191909152336000908152601582528381206001600160a01b03881682529091529190912054613bb8918390615378565b3360009081526015602090815260408083206001600160a01b0388811680865291845282852095909555938616835260129091529020429055613bfc908383615708565b6040805143815290516001600160a01b03808516923392918716917fb1c0f4c56dd743039f597f2080e633454acc4867e980bf9263582a868dd9d0a49181900360200190a4505050565b6020546001600160a01b03163314613c9d576040805162461bcd60e51b815260206004820152601560248201527439b2ba2637b1b599b92432b63832b91d1010b3b7bb60591b604482015290519081900360640190fd5b600180546001600160a01b0319166001600160a01b0392909216919091179055565b60405180604001604052806004815260200163262599a960e11b81525081565b600a60209081526000928352604080842090915290825290205481565b60005a6026556001600160a01b0386166000908152601c602052604090205460ff168015613d4f57506001600160a01b038087166000908152600d60209081526040808320938916835292905220548411155b8015613d7357506001600160a01b0386166000908152601360205260409020548311155b8015613da357506001600160a01b0386166000908152601060205260409020548290613da09042906152b0565b10155b9695505050505050565b600d60209081526000928352604080842090915290825290205481565b601e818154811061186957fe5b60026000541415613e1d576040805162461bcd60e51b815260206004820152601f6024820152600080516020615f2e833981519152604482015290519081900360640190fd5b60026000908155338152601d602052604090205460ff1615613e7a576040805162461bcd60e51b8152602060048201526011602482015270189bdb990e88189b1858dadb1a5cdd1959607a1b604482015290519081900360640190fd5b613e87426203f4806150d7565b3360009081526009602090815260408083206001600160a01b038716808552925290912091909155301415613ec657613ec133308361540f565b613fad565b6000826001600160a01b03166370a08231306040518263ffffffff1660e01b815260040180826001600160a01b0316815260200191505060206040518083038186803b158015613f1557600080fd5b505afa158015613f29573d6000803e3d6000fd5b505050506040513d6020811015613f3f57600080fd5b50519050613f586001600160a01b03841633308561575a565b613fa981846001600160a01b03166370a08231306040518263ffffffff1660e01b815260040180826001600160a01b0316815260200191505060206040518083038186803b1580156139dc57600080fd5b9150505b336000908152600c602090815260408083206001600160a01b0386168452909152902054613fdb90826150d7565b336000818152600c602090815260408083206001600160a01b03881680855290835281842095909555838352600982528083209483529381529083902054835143815291820152808301849052915190917ff70597a6fefc4f533a2329cb1dce863f3661a889db77d6ded02cedeca504ba56919081900360600190a250506001600055565b61406d42621275006150d7565b336000818152600a602090815260408083206001600160a01b03881684529091529020919091556140a090839083615869565b336000908152600b602090815260408083206001600160a01b03861684529091529020546140ce90826150d7565b336000818152600b602090815260408083206001600160a01b03881680855290835281842095909555838352600a82528083209483529381529083902054835143815291820152808301849052915190917f565117769b73385ad12786409df21084e3cc400c84936d78734fda9fd499b23e919081900360600190a25050565b600061415b33848461540f565b50600192915050565b6020546001600160a01b031633146141b9576040805162461bcd60e51b815260206004820152601360248201527239b2ba23b7bb32b93730b731b29d1010b3b7bb60691b604482015290519081900360640190fd5b602180546001600160a01b0319166001600160a01b0392909216919091179055565b60116020526000908152604090205460ff1681565b6001600160a01b03811660009081526005602052604081205463ffffffff168061421b57600061424d565b6001600160a01b038316600090815260046020908152604080832063ffffffff60001986011684529091529020600101545b9392505050565b6020546001600160a01b031633146142ac576040805162461bcd60e51b815260206004820152601660248201527530b8383937bb32a634b8bab4b234ba3c9d1010b3b7bb60511b604482015290519081900360640190fd5b6001600160a01b03811660009081526024602052604090205460ff161561431a576040805162461bcd60e51b815260206004820152601760248201527f617070726f76654c69717569646974793a202170616972000000000000000000604482015290519081900360640190fd5b6001600160a01b03166000818152602460205260408120805460ff191660019081179091556025805491820181559091527f401968ff42a154441da5f6c4c935ac46b8671f0e062baaa62a7545ba53bb6e4c0180546001600160a01b0319169091179055565b601760209081526000938452604080852082529284528284209052825290205481565b604080517f1ac861a6a8532f3704e1768564a53a32774f00d6cf20ccbbdf60ab61378302bc6020808301919091526001600160a01b038916828401526060820188905260808083018890528351808403909101815260a08301845280519082012061190160f01b60c08401527f000000000000000000000000000000000000000000000000000000000000000060c284015260e2808401829052845180850390910181526101028401808652815191840191909120600091829052610122850180875281905260ff891661014286015261016285018890526101828501879052945191949390926001926101a280840193601f198301929081900390910190855afa1580156144b6573d6000803e3d6000fd5b5050604051601f1901519150506001600160a01b038116614513576040805162461bcd60e51b815260206004820152601260248201527164656c656761746542795369673a2073696760701b604482015290519081900360640190fd5b6001600160a01b0381166000908152600860205260409020805460018101909155881461457e576040805162461bcd60e51b815260206004820152601460248201527364656c656761746542795369673a206e6f6e636560601b604482015290519081900360640190fd5b864211156145cc576040805162461bcd60e51b815260206004820152601660248201527519195b1959d85d19509e54da59ce88195e1c1a5c995960521b604482015290519081900360640190fd5b6145d6818a6157ba565b505050505050505050565b6020546001600160a01b03163314614636576040805162461bcd60e51b815260206004820152601360248201527230b232262599a921b932b234ba1d1010b3b7bb60691b604482015290519081900360640190fd5b6001600160a01b03821660009081526014602052604090205460ff16614699576040805162461bcd60e51b815260206004820152601360248201527230b232262599a921b932b234ba1d1010b537b160691b604482015290519081900360640190fd5b6001600160a01b03821660009081526015602090815260408083203084529091529020546146c790826150d7565b6001600160a01b03831660008181526015602090815260408083203080855290835292819020949094558351438152908101859052835133947fb97975ea9bf5ae2173b9ea765214622396032aba11cd5cc1450c760ac80d059a928290030190a45050565b6020546001600160a01b0316331461477a576040805162461bcd60e51b815260206004820152600c60248201526b30b2322537b11d1010b3b7bb60a11b604482015290519081900360640190fd5b6001600160a01b03811660009081526014602052604090205460ff16156147dc576040805162461bcd60e51b815260206004820152601160248201527030b2322537b11d103537b11035b737bbb760791b604482015290519081900360640190fd5b6001600160a01b0381166000818152601460209081526040808320805460ff19166001908117909155601f805491820181559093527fa03837a25210ee280c2113ff4b77ca23440b19d4866cca721c801278fd08d80790920180546001600160a01b031916841790558151438152339181019190915281517f3d9884fbd11fce9188657c4bcfda7491d3316ce97bd234d981b7be1f012a852f929181900390910190a250565b601e81565b6020546001600160a01b031633146148d8576040805162461bcd60e51b815260206004820152600f60248201526e66756e643a2021747265617375727960881b604482015290519081900360640190fd5b602254612342906001600160a01b0316826155de565b6020546001600160a01b0316331461493e576040805162461bcd60e51b815260206004820152600e60248201526d30b2322b37ba32b99d1010b3b7bb60911b604482015290519081900360640190fd5b6001600160a01b0382166000908152600e602052604090205461496190826152b0565b6001600160a01b0383166000908152600e6020526040902055600f5461498790826152b0565b600f556001600160a01b038083166000908152600360205260408120546149b0921690836158fe565b5050565b60126020526000908152604090205481565b6001600160a01b0380881660008181526008602090815260408083208054600180820190925582517f5fae9ec55a1e547936e0e74d606b44cd5f912f9adcd0bba561fea62d570259e98186015280840196909652958c166060860152608085018b905260a085019590955260c08085018a90528151808603909101815260e08501825280519083012061190160f01b6101008601527f000000000000000000000000000000000000000000000000000000000000000061010286015261012280860182905282518087039091018152610142860180845281519185019190912090859052610162860180845281905260ff8a166101828701526101a286018990526101c2860188905291519095919491926101e2808401939192601f1981019281900390910190855afa158015614b01573d6000803e3d6000fd5b5050604051601f1901519150506001600160a01b038116614b5d576040805162461bcd60e51b81526020600482015260116024820152707065726d69743a207369676e617475726560781b604482015290519081900360640190fd5b896001600160a01b0316816001600160a01b031614614bba576040805162461bcd60e51b81526020600482015260146024820152731c195c9b5a5d0e881d5b985d5d1a1bdc9a5e995960621b604482015290519081900360640190fd5b86421115614c01576040805162461bcd60e51b815260206004820152600f60248201526e1c195c9b5a5d0e88195e1c1a5c9959608a1b604482015290519081900360640190fd5b6001600160a01b03808b166000818152600660209081526040808320948e16808452948252918290208c905581518c815291517f8c5be1e5ebec7d5bd14f71427d1e84f3dd0314c0f7b2291e5b200ac8c7c3b9259281900390910190a350505050505050505050565b600e6020526000908152604090205481565b6001600160a01b03918216600090815260066020908152604080832093909416825291909152205490565b6020546001600160a01b03163314614cf7576040805162461bcd60e51b815260206004820152600e60248201526d30b2322b37ba32b99d1010b3b7bb60911b604482015290519081900360640190fd5b6001600160a01b0382166000908152600e6020526040902054614d1a90826150d7565b6001600160a01b0383166000908152600e6020526040902055600f54614d4090826150d7565b600f556001600160a01b038083166000908152600360205260408120546149b09216836158fe565b600c60209081526000928352604080842090915290825290205481565b601660209081526000938452604080852082529284528284209052825290205481565b60106020526000908152604090205481565b60026000541415614e00576040805162461bcd60e51b815260206004820152601f6024820152600080516020615f2e833981519152604482015290519081900360640190fd5b60026000556020546001600160a01b03163314614e52576040805162461bcd60e51b815260206004820152600b60248201526a39b630b9b41d1010b3b7bb60a91b604482015290519081900360640190fd5b6001600160a01b038316301415614e8057602054614e7b9030906001600160a01b03168361540f565b614e9a565b602054614e9a906001600160a01b03858116911683615708565b614ea5838383615869565b6001600160a01b038216600081815260116020908152604091829020805460ff19169055815143815290810184905281513393927f69d77ad686558eb17abb37094210b53f1907605515734181c7b63538c5508ef7928290030190a35050600160005550565b7f1ac861a6a8532f3704e1768564a53a32774f00d6cf20ccbbdf60ab61378302bc81565b60246020526000908152604090205460ff1681565b61271081565b60046020908152600092835260408084209091529082529020805460019091015463ffffffff9091169082565b6021546001600160a01b031681565b6001546001600160a01b031681565b6020546001600160a01b03163314614fe4576040805162461bcd60e51b815260206004820152600d60248201526c3234b9b83aba329d1010b3b7bb60991b604482015290519081900360640190fd5b6001600160a01b038116600081815260116020908152604091829020805460ff19166001179055815143815291517fd80711f836d4a949bb6371b366f1839fb3b8a517841e9885fb2b73f7f974d7389281900390910190a250565b601d6020526000908152604090205460ff1681565b601a60209081526000938452604080852082529284528284209052825290205481565b606060258054806020026020016040519081016040528092919081815260200182805480156132aa576020028201919060005260206000209081546001600160a01b0316815260019091019060200180831161328c575050505050905090565b60008282018381101561424d576040805162461bcd60e51b81526020600482015260066024820152656164643a202b60d01b604482015290519081900360640190fd5b60008261512957506000611856565b8282028284828161513657fe5b041461424d576040805162461bcd60e51b815260206004820152600660248201526536bab61d101560d11b604482015290519081900360640190fd5b600061424d8383604051806040016040528060068152602001656469763a202f60d01b815250615a7c565b6001600160a01b0382166151ee576040805162461bcd60e51b81526020600482015260136024820152725f6275726e3a207a65726f206164647265737360681b604482015290519081900360640190fd5b60408051808201825260168152755f6275726e3a20657863656564732062616c616e636560501b6020808301919091526001600160a01b038516600090815260079091529190912054615242918390615378565b6001600160a01b03831660009081526007602052604090205560025461526890826152b0565b6002556040805182815290516000916001600160a01b038516917fddf252ad1be2c89b69c2b068fc378daa952ba7f163c4a11628f55a4df523b3ef9181900360200190a35050565b600061424d8383604051806040016040528060068152602001657375623a202d60d01b815250615378565b6001600160a01b038083166000908152600d602090815260408083209387168352929052205461530b90826150d7565b6001600160a01b038084166000908152600d602090815260408083209388168084529390915290209190915530141561537357600f5461534b90826150d7565b600f556001600160a01b038083166000908152600360205260408120546153739216836158fe565b505050565b600081848411156154075760405162461bcd60e51b81526004018080602001828103825283818151815260200191508051906020019080838360005b838110156153cc5781810151838201526020016153b4565b50505050905090810190601f1680156153f95780820380516001836020036101000a031916815260200191505b509250505060405180910390fd5b505050900390565b6001600160a01b03831661546a576040805162461bcd60e51b815260206004820152601d60248201527f5f7472616e73666572546f6b656e733a207a65726f2061646472657373000000604482015290519081900360640190fd5b6001600160a01b0382166154c5576040805162461bcd60e51b815260206004820152601d60248201527f5f7472616e73666572546f6b656e733a207a65726f2061646472657373000000604482015290519081900360640190fd5b60408051808201825260208082527f5f7472616e73666572546f6b656e733a20657863656564732062616c616e6365818301526001600160a01b03861660009081526007909152919091205461551c918390615378565b6001600160a01b0380851660009081526007602081815260408084209590955584518086018652601a81527f5f7472616e73666572546f6b656e733a206f766572666c6f7773000000000000818301529387168352529190912054615582918390615ae1565b6001600160a01b0380841660008181526007602090815260409182902094909455805185815290519193928716927fddf252ad1be2c89b69c2b068fc378daa952ba7f163c4a11628f55a4df523b3ef92918290030190a3505050565b6022546001600160a01b031660009081526007602052604090205481111561564d576040805162461bcd60e51b815260206004820152601960248201527f74726561737572793a20657863656564732062616c616e636500000000000000604482015290519081900360640190fd5b6001600160a01b03821660009081526007602052604090205461567090826150d7565b6001600160a01b0380841660009081526007602052604080822093909355602254909116815220546156a290826152b0565b602280546001600160a01b03908116600090815260076020908152604091829020949094559154825185815292518683169491909216927fddf252ad1be2c89b69c2b068fc378daa952ba7f163c4a11628f55a4df523b3ef929081900390910190a35050565b604080516001600160a01b038416602482015260448082018490528251808303909101815260649091019091526020810180516001600160e01b031663a9059cbb60e01b179052615373908490615b3f565b604080516001600160a01b0380861660248301528416604482015260648082018490528251808303909101815260849091019091526020810180516001600160e01b03166323b872dd60e01b1790526157b4908590615b3f565b50505050565b6001600160a01b03808316600081815260036020908152604080832054600d8352818420308552835281842054948452600e909252822054931692909161580191906150d7565b6001600160a01b0385811660008181526003602052604080822080546001600160a01b031916898616908117909155905194955093928616927f3134e8a2e6d97e929a7e54011ea5485d7d196dd5f0ba4d4ef95803e8e3fc257f9190a46157b48284836158fe565b6001600160a01b038083166000908152600d602090815260408083209387168352929052205461589990826152b0565b6001600160a01b038084166000908152600d602090815260408083209388168084529390915290209190915530141561537357600f546158d990826152b0565b600f556001600160a01b03808316600090815260036020526040812054615373921690835b816001600160a01b0316836001600160a01b0316141580156159205750600081115b15615373576001600160a01b038316156159eb576001600160a01b03831660009081526005602052604081205463ffffffff169081615960576000615992565b6001600160a01b038516600090815260046020908152604080832063ffffffff60001987011684529091529020600101545b905060006159d984604051806040016040528060168152602001755f6d6f7665566f7465733a20756e646572666c6f777360501b815250846153789092919063ffffffff16565b90506159e786848484615cfa565b5050505b6001600160a01b03821615615373576001600160a01b03821660009081526005602052604081205463ffffffff169081615a26576000615a58565b6001600160a01b038416600090815260046020908152604080832063ffffffff60001987011684529091529020600101545b90506000615a6682856150d7565b9050615a7485848484615cfa565b505050505050565b60008183615acb5760405162461bcd60e51b81526020600482018181528351602484015283519092839260449091019190850190808383600083156153cc5781810151838201526020016153b4565b506000838581615ad757fe5b0495945050505050565b60008383018285821015615b365760405162461bcd60e51b81526020600482018181528351602484015283519092839260449091019190850190808383600083156153cc5781810151838201526020016153b4565b50949350505050565b615b51826001600160a01b0316615e7c565b615b99576040805162461bcd60e51b815260206004820152601460248201527314d85999515490cc8c0e880858dbdb9d1c9858dd60621b604482015290519081900360640190fd5b60006060836001600160a01b0316836040518082805190602001908083835b60208310615bd75780518252601f199092019160209182019101615bb8565b6001836020036101000a0380198251168184511680821785525050505050509050019150506000604051808303816000865af19150503d8060008114615c39576040519150601f19603f3d011682016040523d82523d6000602084013e615c3e565b606091505b509150915081615c95576040805162461bcd60e51b815260206004820181905260248201527f5361666545524332303a206c6f772d6c6576656c2063616c6c206661696c6564604482015290519081900360640190fd5b8051156157b457808060200190516020811015615cb157600080fd5b50516157b4576040805162461bcd60e51b815260206004820152601360248201527214d85999515490cc8c0e88085cdd58d8d95959606a1b604482015290519081900360640190fd5b6000615d3b436040518060400160405280601981526020017f5f7772697465436865636b706f696e743a203332206269747300000000000000815250615eb8565b905060008463ffffffff16118015615d8457506001600160a01b038516600090815260046020908152604080832063ffffffff6000198901811685529252909120548282169116145b15615dc1576001600160a01b038516600090815260046020908152604080832063ffffffff60001989011684529091529020600101829055615e32565b60408051808201825263ffffffff808416825260208083018681526001600160a01b038a166000818152600484528681208b8616825284528681209551865490861663ffffffff19918216178755925160019687015590815260059092529390208054928801909116919092161790555b604080518481526020810184905281516001600160a01b038816927fdec2bacdd2f05b59de34da9b523dff8be42e5e38e818c82fdb0bae774387a724928290030190a25050505050565b6000813f7fc5d2460186f7233c927e7db2dcc703c0e500b653ca82273b7bfad8045d85a470818114801590615eb057508115155b949350505050565b6000816401000000008410615f0e5760405162461bcd60e51b81526020600482018181528351602484015283519092839260449091019190850190808383600083156153cc5781810151838201526020016153b4565b509192915050565b60408051808201909152600080825260208201529056fe5265656e7472616e637947756172643a207265656e7472616e742063616c6c00756e626f6e644c697175696469747946726f6d4a6f623a20696e73756666696369656e742066756e64737472616e7366657246726f6d3a2065786365656473207370656e64657220616c6c6f77616e6365a264697066735822122054511a4b03e18a8d8deb6c76a6b3dcf9424d00244f934eef32f45d2c34d43ebf64736f6c634300060c0033",
			"opcodes": "PUSH1 0xA0 PUSH1 0x40 MSTORE PUSH10 0x2A5A058FC295ED000000 PUSH1 0x2 SSTORE PUSH1 0x0 PUSH1 0xF SSTORE CALLVALUE DUP1 ISZERO PUSH3 0x24 JUMPI PUSH1 0x0 DUP1 REVERT JUMPDEST POP PUSH1 0x1 PUSH1 0x0 SWAP1 DUP2 SSTORE PUSH1 0x20 DUP1 SLOAD CALLER PUSH1 0x1 PUSH1 0x1 PUSH1 0xA0 SHL SUB NOT SWAP2 DUP3 AND DUP2 OR DUP4 SSTORE PUSH1 0x22 DUP1 SLOAD SWAP1 SWAP3 AND DUP2 OR SWAP1 SWAP2 SSTORE PUSH1 0x2 SLOAD SWAP1 DUP4 MSTORE PUSH1 0x7 DUP3 MSTORE PUSH1 0x40 SWAP1 SWAP3 KECCAK256 SLOAD PUSH3 0x73 SWAP3 SWAP1 SWAP2 PUSH3 0x17D DUP2 SHL PUSH3 0x50D7 OR SWAP1 SHR JUMP JUMPDEST CALLER PUSH1 0x0 DUP2 DUP2 MSTORE PUSH1 0x7 PUSH1 0x20 SWAP1 DUP2 MSTORE PUSH1 0x40 DUP1 DUP4 KECCAK256 SWAP5 SWAP1 SWAP5 SSTORE PUSH1 0x2 SLOAD DUP5 MLOAD SWAP1 DUP2 MSTORE SWAP4 MLOAD SWAP3 SWAP4 SWAP2 SWAP3 PUSH32 0xDDF252AD1BE2C89B69C2B068FC378DAA952BA7F163C4A11628F55A4DF523B3EF SWAP3 DUP2 SWAP1 SUB SWAP1 SWAP2 ADD SWAP1 LOG3 PUSH1 0x40 DUP1 MLOAD DUP1 DUP3 ADD SWAP1 SWAP2 MSTORE PUSH1 0x6 DUP2 MSTORE PUSH6 0x2637B1B599B9 PUSH1 0xD1 SHL PUSH1 0x20 SWAP1 SWAP2 ADD MSTORE PUSH32 0x797CFAB58FCB15F590EB8E4252D5C228FF88F94F907E119E80C4393A946E8F35 PUSH32 0xFF9DBCEC6FEF64C1AEB29E2D61F1AF9293C5A09910E935B9FFA66BD97238D10E PUSH3 0x12B PUSH3 0x1C8 JUMP JUMPDEST ADDRESS PUSH1 0x40 MLOAD PUSH1 0x20 ADD DUP1 DUP6 DUP2 MSTORE PUSH1 0x20 ADD DUP5 DUP2 MSTORE PUSH1 0x20 ADD DUP4 DUP2 MSTORE PUSH1 0x20 ADD DUP3 PUSH1 0x1 PUSH1 0x1 PUSH1 0xA0 SHL SUB AND DUP2 MSTORE PUSH1 0x20 ADD SWAP5 POP POP POP POP POP PUSH1 0x40 MLOAD PUSH1 0x20 DUP2 DUP4 SUB SUB DUP2 MSTORE SWAP1 PUSH1 0x40 MSTORE DUP1 MLOAD SWAP1 PUSH1 0x20 ADD KECCAK256 PUSH1 0x80 DUP2 DUP2 MSTORE POP POP PUSH3 0x1CC JUMP JUMPDEST PUSH1 0x0 DUP3 DUP3 ADD DUP4 DUP2 LT ISZERO PUSH3 0x1C1 JUMPI PUSH1 0x40 DUP1 MLOAD PUSH3 0x461BCD PUSH1 0xE5 SHL DUP2 MSTORE PUSH1 0x20 PUSH1 0x4 DUP3 ADD MSTORE PUSH1 0x6 PUSH1 0x24 DUP3 ADD MSTORE PUSH6 0x6164643A202B PUSH1 0xD0 SHL PUSH1 0x44 DUP3 ADD MSTORE SWAP1 MLOAD SWAP1 DUP2 SWAP1 SUB PUSH1 0x64 ADD SWAP1 REVERT JUMPDEST SWAP4 SWAP3 POP POP POP JUMP JUMPDEST CHAINID SWAP1 JUMP JUMPDEST PUSH1 0x80 MLOAD PUSH2 0x5FD4 PUSH3 0x1F1 PUSH1 0x0 CODECOPY DUP1 PUSH2 0x1C5A MSTORE DUP1 PUSH2 0x4411 MSTORE DUP1 PUSH2 0x4A5D MSTORE POP PUSH2 0x5FD4 PUSH1 0x0 RETURN INVALID PUSH1 0x80 PUSH1 0x40 MSTORE PUSH1 0x4 CALLDATASIZE LT PUSH2 0x50D JUMPI PUSH1 0x0 CALLDATALOAD PUSH1 0xE0 SHR DUP1 PUSH4 0x7ECEBE00 GT PUSH2 0x297 JUMPI DUP1 PUSH4 0xC3FC0E1D GT PUSH2 0x165 JUMPI DUP1 PUSH4 0xE326AC43 GT PUSH2 0xCC JUMPI DUP1 PUSH4 0xF39C38A0 GT PUSH2 0x85 JUMPI DUP1 PUSH4 0xF39C38A0 EQ PUSH2 0x16E9 JUMPI DUP1 PUSH4 0xF57CB382 EQ PUSH2 0x16FE JUMPI DUP1 PUSH4 0xF75F9F7B EQ PUSH2 0x1713 JUMPI DUP1 PUSH4 0xF9F92BE4 EQ PUSH2 0x1746 JUMPI DUP1 PUSH4 0xFEDE7008 EQ PUSH2 0x1779 JUMPI DUP1 PUSH4 0xFFB0A4A0 EQ PUSH2 0x17BE JUMPI PUSH2 0x50D JUMP JUMPDEST DUP1 PUSH4 0xE326AC43 EQ PUSH2 0x15B7 JUMPI DUP1 PUSH4 0xE74F8239 EQ PUSH2 0x15EA JUMPI DUP1 PUSH4 0xE7A324DC EQ PUSH2 0x162D JUMPI DUP1 PUSH4 0xEB421F3B EQ PUSH2 0x1642 JUMPI DUP1 PUSH4 0xEC342AD0 EQ PUSH2 0x1675 JUMPI DUP1 PUSH4 0xF1127ED8 EQ PUSH2 0x168A JUMPI PUSH2 0x50D JUMP JUMPDEST DUP1 PUSH4 0xD505ACCF GT PUSH2 0x11E JUMPI DUP1 PUSH4 0xD505ACCF EQ PUSH2 0x1432 JUMPI DUP1 PUSH4 0xD8BFF5A5 EQ PUSH2 0x1490 JUMPI DUP1 PUSH4 0xDD62ED3E EQ PUSH2 0x14C3 JUMPI DUP1 PUSH4 0xDE63298D EQ PUSH2 0x14FE JUMPI DUP1 PUSH4 0xDEAC3541 EQ PUSH2 0x1537 JUMPI DUP1 PUSH4 0xDEF70844 EQ PUSH2 0x1572 JUMPI PUSH2 0x50D JUMP JUMPDEST DUP1 PUSH4 0xC3FC0E1D EQ PUSH2 0x131B JUMPI DUP1 PUSH4 0xC5198ABC EQ PUSH2 0x1354 JUMPI DUP1 PUSH4 0xC57981B5 EQ PUSH2 0x1387 JUMPI DUP1 PUSH4 0xCA1D209D EQ PUSH2 0x139C JUMPI DUP1 PUSH4 0xCE6A0880 EQ PUSH2 0x13C6 JUMPI DUP1 PUSH4 0xD454019D EQ PUSH2 0x13FF JUMPI PUSH2 0x50D JUMP JUMPDEST DUP1 PUSH4 0xA39744B5 GT PUSH2 0x209 JUMPI DUP1 PUSH4 0xB0103B1A GT PUSH2 0x1C2 JUMPI DUP1 PUSH4 0xB0103B1A EQ PUSH2 0x11E9 JUMPI DUP1 PUSH4 0xB4B5EA57 EQ PUSH2 0x121C JUMPI DUP1 PUSH4 0xB600702A EQ PUSH2 0x124F JUMPI DUP1 PUSH4 0xBB49096D EQ PUSH2 0x1282 JUMPI DUP1 PUSH4 0xC1C1D218 EQ PUSH2 0x785 JUMPI DUP1 PUSH4 0xC3CDA520 EQ PUSH2 0x12C7 JUMPI PUSH2 0x50D JUMP JUMPDEST DUP1 PUSH4 0xA39744B5 EQ PUSH2 0x10A6 JUMPI DUP1 PUSH4 0xA457F6FE EQ PUSH2 0x10E1 JUMPI DUP1 PUSH4 0xA515366A EQ PUSH2 0x110B JUMPI DUP1 PUSH4 0xA5D059CA EQ PUSH2 0x1144 JUMPI DUP1 PUSH4 0xA9059CBB EQ PUSH2 0x117D JUMPI DUP1 PUSH4 0xAB033EA9 EQ PUSH2 0x11B6 JUMPI PUSH2 0x50D JUMP JUMPDEST DUP1 PUSH4 0x88B4AC83 GT PUSH2 0x25B JUMPI DUP1 PUSH4 0x88B4AC83 EQ PUSH2 0xF4E JUMPI DUP1 PUSH4 0x8D9ACD2E EQ PUSH2 0xF91 JUMPI DUP1 PUSH4 0x945DD26E EQ PUSH2 0xFD4 JUMPI DUP1 PUSH4 0x95D89B41 EQ PUSH2 0x1007 JUMPI DUP1 PUSH4 0x9AF77284 EQ PUSH2 0x101C JUMPI DUP1 PUSH4 0x9E3369B6 EQ PUSH2 0x1057 JUMPI PUSH2 0x50D JUMP JUMPDEST DUP1 PUSH4 0x7ECEBE00 EQ PUSH2 0xE79 JUMPI DUP1 PUSH4 0x80711989 EQ PUSH2 0xEAC JUMPI DUP1 PUSH4 0x814EE60A EQ PUSH2 0xEDF JUMPI DUP1 PUSH4 0x8322FFF2 EQ PUSH2 0xEF4 JUMPI DUP1 PUSH4 0x83BAA693 EQ PUSH2 0xF09 JUMPI PUSH2 0x50D JUMP JUMPDEST DUP1 PUSH4 0x42966C68 GT PUSH2 0x3DF JUMPI DUP1 PUSH4 0x603C6860 GT PUSH2 0x346 JUMPI DUP1 PUSH4 0x6DAB5DCF GT PUSH2 0x2FF JUMPI DUP1 PUSH4 0x6DAB5DCF EQ PUSH2 0xD35 JUMPI DUP1 PUSH4 0x6FCFFF45 EQ PUSH2 0xD5B JUMPI DUP1 PUSH4 0x70A08231 EQ PUSH2 0xDA7 JUMPI DUP1 PUSH4 0x74A8F103 EQ PUSH2 0xDDA JUMPI DUP1 PUSH4 0x7724FF68 EQ PUSH2 0xE0D JUMPI DUP1 PUSH4 0x782D6FE1 EQ PUSH2 0xE40 JUMPI PUSH2 0x50D JUMP JUMPDEST DUP1 PUSH4 0x603C6860 EQ PUSH2 0xBD7 JUMPI DUP1 PUSH4 0x61D027B3 EQ PUSH2 0xC12 JUMPI DUP1 PUSH4 0x637CD7F0 EQ PUSH2 0xC27 JUMPI DUP1 PUSH4 0x64BB43EE EQ PUSH2 0xC62 JUMPI DUP1 PUSH4 0x67DA3184 EQ PUSH2 0xC95 JUMPI DUP1 PUSH4 0x68581EBD EQ PUSH2 0xCD0 JUMPI PUSH2 0x50D JUMP JUMPDEST DUP1 PUSH4 0x55EA6C47 GT PUSH2 0x398 JUMPI DUP1 PUSH4 0x55EA6C47 EQ PUSH2 0xAE1 JUMPI DUP1 PUSH4 0x587CDE1E EQ PUSH2 0xB14 JUMPI DUP1 PUSH4 0x5AA6E675 EQ PUSH2 0xB47 JUMPI DUP1 PUSH4 0x5C19A95C EQ PUSH2 0xB5C JUMPI DUP1 PUSH4 0x5FEEB794 EQ PUSH2 0xB8F JUMPI DUP1 PUSH4 0x603B4D14 EQ PUSH2 0xBC2 JUMPI PUSH2 0x50D JUMP JUMPDEST DUP1 PUSH4 0x42966C68 EQ PUSH2 0x9AE JUMPI DUP1 PUSH4 0x4395D8BA EQ PUSH2 0x9D8 JUMPI DUP1 PUSH4 0x44D96E95 EQ PUSH2 0xA1D JUMPI DUP1 PUSH4 0x4B3FDE21 EQ PUSH2 0xA32 JUMPI DUP1 PUSH4 0x51CFF8D9 EQ PUSH2 0xA6B JUMPI DUP1 PUSH4 0x52A4DE29 EQ PUSH2 0xA9E JUMPI PUSH2 0x50D JUMP JUMPDEST DUP1 PUSH4 0x20606B70 GT PUSH2 0x483 JUMPI DUP1 PUSH4 0x2ED6B75D GT PUSH2 0x43C JUMPI DUP1 PUSH4 0x2ED6B75D EQ PUSH2 0x8A6 JUMPI DUP1 PUSH4 0x30ADF81F EQ PUSH2 0x8BB JUMPI DUP1 PUSH4 0x313CE567 EQ PUSH2 0x8D0 JUMPI DUP1 PUSH4 0x37FECA84 EQ PUSH2 0x8FB JUMPI DUP1 PUSH4 0x392C4C6C EQ PUSH2 0x936 JUMPI DUP1 PUSH4 0x3D1F0BB9 EQ PUSH2 0x97B JUMPI PUSH2 0x50D JUMP JUMPDEST DUP1 PUSH4 0x20606B70 EQ PUSH2 0x79A JUMPI DUP1 PUSH4 0x2119A62A EQ PUSH2 0x7AF JUMPI DUP1 PUSH4 0x238EFCBC EQ PUSH2 0x7E8 JUMPI DUP1 PUSH4 0x23B872DD EQ PUSH2 0x7FD JUMPI DUP1 PUSH4 0x2C8E7A21 EQ PUSH2 0x840 JUMPI DUP1 PUSH4 0x2EC63D7C EQ PUSH2 0x873 JUMPI PUSH2 0x50D JUMP JUMPDEST DUP1 PUSH4 0x18160DDD GT PUSH2 0x4D5 JUMPI DUP1 PUSH4 0x18160DDD EQ PUSH2 0x69B JUMPI DUP1 PUSH4 0x1992D206 EQ PUSH2 0x6B0 JUMPI DUP1 PUSH4 0x1B44555E EQ PUSH2 0x6F5 JUMPI DUP1 PUSH4 0x1B7A1FB2 EQ PUSH2 0x728 JUMPI DUP1 PUSH4 0x1C5A9D9C EQ PUSH2 0x752 JUMPI DUP1 PUSH4 0x1DF0DE13 EQ PUSH2 0x785 JUMPI PUSH2 0x50D JUMP JUMPDEST DUP1 PUSH4 0x6FDDE03 EQ PUSH2 0x512 JUMPI DUP1 PUSH4 0x95EA7B3 EQ PUSH2 0x59C JUMPI DUP1 PUSH4 0xC33C522 EQ PUSH2 0x5E9 JUMPI DUP1 PUSH4 0x1101EB41 EQ PUSH2 0x62F JUMPI DUP1 PUSH4 0x1778E29C EQ PUSH2 0x674 JUMPI JUMPDEST PUSH1 0x0 DUP1 REVERT JUMPDEST CALLVALUE DUP1 ISZERO PUSH2 0x51E JUMPI PUSH1 0x0 DUP1 REVERT JUMPDEST POP PUSH2 0x527 PUSH2 0x17D3 JUMP JUMPDEST PUSH1 0x40 DUP1 MLOAD PUSH1 0x20 DUP1 DUP3 MSTORE DUP4 MLOAD DUP2 DUP4 ADD MSTORE DUP4 MLOAD SWAP2 SWAP3 DUP4 SWAP3 SWAP1 DUP4 ADD SWAP2 DUP6 ADD SWAP1 DUP1 DUP4 DUP4 PUSH1 0x0 JUMPDEST DUP4 DUP2 LT ISZERO PUSH2 0x561 JUMPI DUP2 DUP2 ADD MLOAD DUP4 DUP3 ADD MSTORE PUSH1 0x20 ADD PUSH2 0x549 JUMP JUMPDEST POP POP POP POP SWAP1 POP SWAP1 DUP2 ADD SWAP1 PUSH1 0x1F AND DUP1 ISZERO PUSH2 0x58E JUMPI DUP1 DUP3 SUB DUP1 MLOAD PUSH1 0x1 DUP4 PUSH1 0x20 SUB PUSH2 0x100 EXP SUB NOT AND DUP2 MSTORE PUSH1 0x20 ADD SWAP2 POP JUMPDEST POP SWAP3 POP POP POP PUSH1 0x40 MLOAD DUP1 SWAP2 SUB SWAP1 RETURN JUMPDEST CALLVALUE DUP1 ISZERO PUSH2 0x5A8 JUMPI PUSH1 0x0 DUP1 REVERT JUMPDEST POP PUSH2 0x5D5 PUSH1 0x4 DUP1 CALLDATASIZE SUB PUSH1 0x40 DUP2 LT ISZERO PUSH2 0x5BF JUMPI PUSH1 0x0 DUP1 REVERT JUMPDEST POP PUSH1 0x1 PUSH1 0x1 PUSH1 0xA0 SHL SUB DUP2 CALLDATALOAD AND SWAP1 PUSH1 0x20 ADD CALLDATALOAD PUSH2 0x17F5 JUMP JUMPDEST PUSH1 0x40 DUP1 MLOAD SWAP2 ISZERO ISZERO DUP3 MSTORE MLOAD SWAP1 DUP2 SWAP1 SUB PUSH1 0x20 ADD SWAP1 RETURN JUMPDEST CALLVALUE DUP1 ISZERO PUSH2 0x5F5 JUMPI PUSH1 0x0 DUP1 REVERT JUMPDEST POP PUSH2 0x613 PUSH1 0x4 DUP1 CALLDATASIZE SUB PUSH1 0x20 DUP2 LT ISZERO PUSH2 0x60C JUMPI PUSH1 0x0 DUP1 REVERT JUMPDEST POP CALLDATALOAD PUSH2 0x185C JUMP JUMPDEST PUSH1 0x40 DUP1 MLOAD PUSH1 0x1 PUSH1 0x1 PUSH1 0xA0 SHL SUB SWAP1 SWAP3 AND DUP3 MSTORE MLOAD SWAP1 DUP2 SWAP1 SUB PUSH1 0x20 ADD SWAP1 RETURN JUMPDEST CALLVALUE DUP1 ISZERO PUSH2 0x63B JUMPI PUSH1 0x0 DUP1 REVERT JUMPDEST POP PUSH2 0x672 PUSH1 0x4 DUP1 CALLDATASIZE SUB PUSH1 0x60 DUP2 LT ISZERO PUSH2 0x652 JUMPI PUSH1 0x0 DUP1 REVERT JUMPDEST POP PUSH1 0x1 PUSH1 0x1 PUSH1 0xA0 SHL SUB DUP2 CALLDATALOAD DUP2 AND SWAP2 PUSH1 0x20 DUP2 ADD CALLDATALOAD SWAP1 SWAP2 AND SWAP1 PUSH1 0x40 ADD CALLDATALOAD PUSH2 0x1883 JUMP JUMPDEST STOP JUMPDEST CALLVALUE DUP1 ISZERO PUSH2 0x680 JUMPI PUSH1 0x0 DUP1 REVERT JUMPDEST POP PUSH2 0x689 PUSH2 0x1C58 JUMP JUMPDEST PUSH1 0x40 DUP1 MLOAD SWAP2 DUP3 MSTORE MLOAD SWAP1 DUP2 SWAP1 SUB PUSH1 0x20 ADD SWAP1 RETURN JUMPDEST CALLVALUE DUP1 ISZERO PUSH2 0x6A7 JUMPI PUSH1 0x0 DUP1 REVERT JUMPDEST POP PUSH2 0x689 PUSH2 0x1C7C JUMP JUMPDEST CALLVALUE DUP1 ISZERO PUSH2 0x6BC JUMPI PUSH1 0x0 DUP1 REVERT JUMPDEST POP PUSH2 0x689 PUSH1 0x4 DUP1 CALLDATASIZE SUB PUSH1 0x60 DUP2 LT ISZERO PUSH2 0x6D3 JUMPI PUSH1 0x0 DUP1 REVERT JUMPDEST POP PUSH1 0x1 PUSH1 0x1 PUSH1 0xA0 SHL SUB DUP2 CALLDATALOAD DUP2 AND SWAP2 PUSH1 0x20 DUP2 ADD CALLDATALOAD DUP3 AND SWAP2 PUSH1 0x40 SWAP1 SWAP2 ADD CALLDATALOAD AND PUSH2 0x1C82 JUMP JUMPDEST CALLVALUE DUP1 ISZERO PUSH2 0x701 JUMPI PUSH1 0x0 DUP1 REVERT JUMPDEST POP PUSH2 0x689 PUSH1 0x4 DUP1 CALLDATASIZE SUB PUSH1 0x20 DUP2 LT ISZERO PUSH2 0x718 JUMPI PUSH1 0x0 DUP1 REVERT JUMPDEST POP CALLDATALOAD PUSH1 0x1 PUSH1 0x1 PUSH1 0xA0 SHL SUB AND PUSH2 0x1CA5 JUMP JUMPDEST CALLVALUE DUP1 ISZERO PUSH2 0x734 JUMPI PUSH1 0x0 DUP1 REVERT JUMPDEST POP PUSH2 0x613 PUSH1 0x4 DUP1 CALLDATASIZE SUB PUSH1 0x20 DUP2 LT ISZERO PUSH2 0x74B JUMPI PUSH1 0x0 DUP1 REVERT JUMPDEST POP CALLDATALOAD PUSH2 0x1CB7 JUMP JUMPDEST CALLVALUE DUP1 ISZERO PUSH2 0x75E JUMPI PUSH1 0x0 DUP1 REVERT JUMPDEST POP PUSH2 0x672 PUSH1 0x4 DUP1 CALLDATASIZE SUB PUSH1 0x20 DUP2 LT ISZERO PUSH2 0x775 JUMPI PUSH1 0x0 DUP1 REVERT JUMPDEST POP CALLDATALOAD PUSH1 0x1 PUSH1 0x1 PUSH1 0xA0 SHL SUB AND PUSH2 0x1CC4 JUMP JUMPDEST CALLVALUE DUP1 ISZERO PUSH2 0x791 JUMPI PUSH1 0x0 DUP1 REVERT JUMPDEST POP PUSH2 0x689 PUSH2 0x1EEA JUMP JUMPDEST CALLVALUE DUP1 ISZERO PUSH2 0x7A6 JUMPI PUSH1 0x0 DUP1 REVERT JUMPDEST POP PUSH2 0x689 PUSH2 0x1EF1 JUMP JUMPDEST CALLVALUE DUP1 ISZERO PUSH2 0x7BB JUMPI PUSH1 0x0 DUP1 REVERT JUMPDEST POP PUSH2 0x672 PUSH1 0x4 DUP1 CALLDATASIZE SUB PUSH1 0x40 DUP2 LT ISZERO PUSH2 0x7D2 JUMPI PUSH1 0x0 DUP1 REVERT JUMPDEST POP PUSH1 0x1 PUSH1 0x1 PUSH1 0xA0 SHL SUB DUP2 CALLDATALOAD AND SWAP1 PUSH1 0x20 ADD CALLDATALOAD PUSH2 0x1F15 JUMP JUMPDEST CALLVALUE DUP1 ISZERO PUSH2 0x7F4 JUMPI PUSH1 0x0 DUP1 REVERT JUMPDEST POP PUSH2 0x672 PUSH2 0x206D JUMP JUMPDEST CALLVALUE DUP1 ISZERO PUSH2 0x809 JUMPI PUSH1 0x0 DUP1 REVERT JUMPDEST POP PUSH2 0x5D5 PUSH1 0x4 DUP1 CALLDATASIZE SUB PUSH1 0x60 DUP2 LT ISZERO PUSH2 0x820 JUMPI PUSH1 0x0 DUP1 REVERT JUMPDEST POP PUSH1 0x1 PUSH1 0x1 PUSH1 0xA0 SHL SUB DUP2 CALLDATALOAD DUP2 AND SWAP2 PUSH1 0x20 DUP2 ADD CALLDATALOAD SWAP1 SWAP2 AND SWAP1 PUSH1 0x40 ADD CALLDATALOAD PUSH2 0x20F0 JUMP JUMPDEST CALLVALUE DUP1 ISZERO PUSH2 0x84C JUMPI PUSH1 0x0 DUP1 REVERT JUMPDEST POP PUSH2 0x5D5 PUSH1 0x4 DUP1 CALLDATASIZE SUB PUSH1 0x20 DUP2 LT ISZERO PUSH2 0x863 JUMPI PUSH1 0x0 DUP1 REVERT JUMPDEST POP CALLDATALOAD PUSH1 0x1 PUSH1 0x1 PUSH1 0xA0 SHL SUB AND PUSH2 0x21D2 JUMP JUMPDEST CALLVALUE DUP1 ISZERO PUSH2 0x87F JUMPI PUSH1 0x0 DUP1 REVERT JUMPDEST POP PUSH2 0x5D5 PUSH1 0x4 DUP1 CALLDATASIZE SUB PUSH1 0x20 DUP2 LT ISZERO PUSH2 0x896 JUMPI PUSH1 0x0 DUP1 REVERT JUMPDEST POP CALLDATALOAD PUSH1 0x1 PUSH1 0x1 PUSH1 0xA0 SHL SUB AND PUSH2 0x21E7 JUMP JUMPDEST CALLVALUE DUP1 ISZERO PUSH2 0x8B2 JUMPI PUSH1 0x0 DUP1 REVERT JUMPDEST POP PUSH2 0x613 PUSH2 0x220C JUMP JUMPDEST CALLVALUE DUP1 ISZERO PUSH2 0x8C7 JUMPI PUSH1 0x0 DUP1 REVERT JUMPDEST POP PUSH2 0x689 PUSH2 0x221B JUMP JUMPDEST CALLVALUE DUP1 ISZERO PUSH2 0x8DC JUMPI PUSH1 0x0 DUP1 REVERT JUMPDEST POP PUSH2 0x8E5 PUSH2 0x223F JUMP JUMPDEST PUSH1 0x40 DUP1 MLOAD PUSH1 0xFF SWAP1 SWAP3 AND DUP3 MSTORE MLOAD SWAP1 DUP2 SWAP1 SUB PUSH1 0x20 ADD SWAP1 RETURN JUMPDEST CALLVALUE DUP1 ISZERO PUSH2 0x907 JUMPI PUSH1 0x0 DUP1 REVERT JUMPDEST POP PUSH2 0x689 PUSH1 0x4 DUP1 CALLDATASIZE SUB PUSH1 0x40 DUP2 LT ISZERO PUSH2 0x91E JUMPI PUSH1 0x0 DUP1 REVERT JUMPDEST POP PUSH1 0x1 PUSH1 0x1 PUSH1 0xA0 SHL SUB DUP2 CALLDATALOAD DUP2 AND SWAP2 PUSH1 0x20 ADD CALLDATALOAD AND PUSH2 0x2244 JUMP JUMPDEST CALLVALUE DUP1 ISZERO PUSH2 0x942 JUMPI PUSH1 0x0 DUP1 REVERT JUMPDEST POP PUSH2 0x5D5 PUSH1 0x4 DUP1 CALLDATASIZE SUB PUSH1 0x80 DUP2 LT ISZERO PUSH2 0x959 JUMPI PUSH1 0x0 DUP1 REVERT JUMPDEST POP PUSH1 0x1 PUSH1 0x1 PUSH1 0xA0 SHL SUB DUP2 CALLDATALOAD AND SWAP1 PUSH1 0x20 DUP2 ADD CALLDATALOAD SWAP1 PUSH1 0x40 DUP2 ADD CALLDATALOAD SWAP1 PUSH1 0x60 ADD CALLDATALOAD PUSH2 0x2261 JUMP JUMPDEST CALLVALUE DUP1 ISZERO PUSH2 0x987 JUMPI PUSH1 0x0 DUP1 REVERT JUMPDEST POP PUSH2 0x5D5 PUSH1 0x4 DUP1 CALLDATASIZE SUB PUSH1 0x20 DUP2 LT ISZERO PUSH2 0x99E JUMPI PUSH1 0x0 DUP1 REVERT JUMPDEST POP CALLDATALOAD PUSH1 0x1 PUSH1 0x1 PUSH1 0xA0 SHL SUB AND PUSH2 0x2323 JUMP JUMPDEST CALLVALUE DUP1 ISZERO PUSH2 0x9BA JUMPI PUSH1 0x0 DUP1 REVERT JUMPDEST POP PUSH2 0x672 PUSH1 0x4 DUP1 CALLDATASIZE SUB PUSH1 0x20 DUP2 LT ISZERO PUSH2 0x9D1 JUMPI PUSH1 0x0 DUP1 REVERT JUMPDEST POP CALLDATALOAD PUSH2 0x2338 JUMP JUMPDEST CALLVALUE DUP1 ISZERO PUSH2 0x9E4 JUMPI PUSH1 0x0 DUP1 REVERT JUMPDEST POP PUSH2 0x672 PUSH1 0x4 DUP1 CALLDATASIZE SUB PUSH1 0x60 DUP2 LT ISZERO PUSH2 0x9FB JUMPI PUSH1 0x0 DUP1 REVERT JUMPDEST POP PUSH1 0x1 PUSH1 0x1 PUSH1 0xA0 SHL SUB DUP2 CALLDATALOAD DUP2 AND SWAP2 PUSH1 0x20 DUP2 ADD CALLDATALOAD DUP3 AND SWAP2 PUSH1 0x40 SWAP1 SWAP2 ADD CALLDATALOAD AND PUSH2 0x2345 JUMP JUMPDEST CALLVALUE DUP1 ISZERO PUSH2 0xA29 JUMPI PUSH1 0x0 DUP1 REVERT JUMPDEST POP PUSH2 0x689 PUSH2 0x269D JUMP JUMPDEST CALLVALUE DUP1 ISZERO PUSH2 0xA3E JUMPI PUSH1 0x0 DUP1 REVERT JUMPDEST POP PUSH2 0x672 PUSH1 0x4 DUP1 CALLDATASIZE SUB PUSH1 0x40 DUP2 LT ISZERO PUSH2 0xA55 JUMPI PUSH1 0x0 DUP1 REVERT JUMPDEST POP PUSH1 0x1 PUSH1 0x1 PUSH1 0xA0 SHL SUB DUP2 CALLDATALOAD AND SWAP1 PUSH1 0x20 ADD CALLDATALOAD PUSH2 0x26A3 JUMP JUMPDEST CALLVALUE DUP1 ISZERO PUSH2 0xA77 JUMPI PUSH1 0x0 DUP1 REVERT JUMPDEST POP PUSH2 0x672 PUSH1 0x4 DUP1 CALLDATASIZE SUB PUSH1 0x20 DUP2 LT ISZERO PUSH2 0xA8E JUMPI PUSH1 0x0 DUP1 REVERT JUMPDEST POP CALLDATALOAD PUSH1 0x1 PUSH1 0x1 PUSH1 0xA0 SHL SUB AND PUSH2 0x28DE JUMP JUMPDEST CALLVALUE DUP1 ISZERO PUSH2 0xAAA JUMPI PUSH1 0x0 DUP1 REVERT JUMPDEST POP PUSH2 0x672 PUSH1 0x4 DUP1 CALLDATASIZE SUB PUSH1 0x60 DUP2 LT ISZERO PUSH2 0xAC1 JUMPI PUSH1 0x0 DUP1 REVERT JUMPDEST POP PUSH1 0x1 PUSH1 0x1 PUSH1 0xA0 SHL SUB DUP2 CALLDATALOAD DUP2 AND SWAP2 PUSH1 0x20 DUP2 ADD CALLDATALOAD SWAP1 SWAP2 AND SWAP1 PUSH1 0x40 ADD CALLDATALOAD PUSH2 0x2B22 JUMP JUMPDEST CALLVALUE DUP1 ISZERO PUSH2 0xAED JUMPI PUSH1 0x0 DUP1 REVERT JUMPDEST POP PUSH2 0x672 PUSH1 0x4 DUP1 CALLDATASIZE SUB PUSH1 0x20 DUP2 LT ISZERO PUSH2 0xB04 JUMPI PUSH1 0x0 DUP1 REVERT JUMPDEST POP CALLDATALOAD PUSH1 0x1 PUSH1 0x1 PUSH1 0xA0 SHL SUB AND PUSH2 0x2E1F JUMP JUMPDEST CALLVALUE DUP1 ISZERO PUSH2 0xB20 JUMPI PUSH1 0x0 DUP1 REVERT JUMPDEST POP PUSH2 0x613 PUSH1 0x4 DUP1 CALLDATASIZE SUB PUSH1 0x20 DUP2 LT ISZERO PUSH2 0xB37 JUMPI PUSH1 0x0 DUP1 REVERT JUMPDEST POP CALLDATALOAD PUSH1 0x1 PUSH1 0x1 PUSH1 0xA0 SHL SUB AND PUSH2 0x2EC6 JUMP JUMPDEST CALLVALUE DUP1 ISZERO PUSH2 0xB53 JUMPI PUSH1 0x0 DUP1 REVERT JUMPDEST POP PUSH2 0x613 PUSH2 0x2EE1 JUMP JUMPDEST CALLVALUE DUP1 ISZERO PUSH2 0xB68 JUMPI PUSH1 0x0 DUP1 REVERT JUMPDEST POP PUSH2 0x672 PUSH1 0x4 DUP1 CALLDATASIZE SUB PUSH1 0x20 DUP2 LT ISZERO PUSH2 0xB7F JUMPI PUSH1 0x0 DUP1 REVERT JUMPDEST POP CALLDATALOAD PUSH1 0x1 PUSH1 0x1 PUSH1 0xA0 SHL SUB AND PUSH2 0x2EF0 JUMP JUMPDEST CALLVALUE DUP1 ISZERO PUSH2 0xB9B JUMPI PUSH1 0x0 DUP1 REVERT JUMPDEST POP PUSH2 0x672 PUSH1 0x4 DUP1 CALLDATASIZE SUB PUSH1 0x20 DUP2 LT ISZERO PUSH2 0xBB2 JUMPI PUSH1 0x0 DUP1 REVERT JUMPDEST POP CALLDATALOAD PUSH1 0x1 PUSH1 0x1 PUSH1 0xA0 SHL SUB AND PUSH2 0x2EFA JUMP JUMPDEST CALLVALUE DUP1 ISZERO PUSH2 0xBCE JUMPI PUSH1 0x0 DUP1 REVERT JUMPDEST POP PUSH2 0x689 PUSH2 0x2F83 JUMP JUMPDEST CALLVALUE DUP1 ISZERO PUSH2 0xBE3 JUMPI PUSH1 0x0 DUP1 REVERT JUMPDEST POP PUSH2 0x672 PUSH1 0x4 DUP1 CALLDATASIZE SUB PUSH1 0x40 DUP2 LT ISZERO PUSH2 0xBFA JUMPI PUSH1 0x0 DUP1 REVERT JUMPDEST POP PUSH1 0x1 PUSH1 0x1 PUSH1 0xA0 SHL SUB DUP2 CALLDATALOAD DUP2 AND SWAP2 PUSH1 0x20 ADD CALLDATALOAD AND PUSH2 0x2F8A JUMP JUMPDEST CALLVALUE DUP1 ISZERO PUSH2 0xC1E JUMPI PUSH1 0x0 DUP1 REVERT JUMPDEST POP PUSH2 0x613 PUSH2 0x3191 JUMP JUMPDEST CALLVALUE DUP1 ISZERO PUSH2 0xC33 JUMPI PUSH1 0x0 DUP1 REVERT JUMPDEST POP PUSH2 0x689 PUSH1 0x4 DUP1 CALLDATASIZE SUB PUSH1 0x40 DUP2 LT ISZERO PUSH2 0xC4A JUMPI PUSH1 0x0 DUP1 REVERT JUMPDEST POP PUSH1 0x1 PUSH1 0x1 PUSH1 0xA0 SHL SUB DUP2 CALLDATALOAD DUP2 AND SWAP2 PUSH1 0x20 ADD CALLDATALOAD AND PUSH2 0x31A0 JUMP JUMPDEST CALLVALUE DUP1 ISZERO PUSH2 0xC6E JUMPI PUSH1 0x0 DUP1 REVERT JUMPDEST POP PUSH2 0x672 PUSH1 0x4 DUP1 CALLDATASIZE SUB PUSH1 0x20 DUP2 LT ISZERO PUSH2 0xC85 JUMPI PUSH1 0x0 DUP1 REVERT JUMPDEST POP CALLDATALOAD PUSH1 0x1 PUSH1 0x1 PUSH1 0xA0 SHL SUB AND PUSH2 0x31BD JUMP JUMPDEST CALLVALUE DUP1 ISZERO PUSH2 0xCA1 JUMPI PUSH1 0x0 DUP1 REVERT JUMPDEST POP PUSH2 0x689 PUSH1 0x4 DUP1 CALLDATASIZE SUB PUSH1 0x40 DUP2 LT ISZERO PUSH2 0xCB8 JUMPI PUSH1 0x0 DUP1 REVERT JUMPDEST POP PUSH1 0x1 PUSH1 0x1 PUSH1 0xA0 SHL SUB DUP2 CALLDATALOAD DUP2 AND SWAP2 PUSH1 0x20 ADD CALLDATALOAD AND PUSH2 0x3235 JUMP JUMPDEST CALLVALUE DUP1 ISZERO PUSH2 0xCDC JUMPI PUSH1 0x0 DUP1 REVERT JUMPDEST POP PUSH2 0xCE5 PUSH2 0x3252 JUMP JUMPDEST PUSH1 0x40 DUP1 MLOAD PUSH1 0x20 DUP1 DUP3 MSTORE DUP4 MLOAD DUP2 DUP4 ADD MSTORE DUP4 MLOAD SWAP2 SWAP3 DUP4 SWAP3 SWAP1 DUP4 ADD SWAP2 DUP6 DUP2 ADD SWAP2 MUL DUP1 DUP4 DUP4 PUSH1 0x0 JUMPDEST DUP4 DUP2 LT ISZERO PUSH2 0xD21 JUMPI DUP2 DUP2 ADD MLOAD DUP4 DUP3 ADD MSTORE PUSH1 0x20 ADD PUSH2 0xD09 JUMP JUMPDEST POP POP POP POP SWAP1 POP ADD SWAP3 POP POP POP PUSH1 0x40 MLOAD DUP1 SWAP2 SUB SWAP1 RETURN JUMPDEST PUSH2 0x672 PUSH1 0x4 DUP1 CALLDATASIZE SUB PUSH1 0x20 DUP2 LT ISZERO PUSH2 0xD4B JUMPI PUSH1 0x0 DUP1 REVERT JUMPDEST POP CALLDATALOAD PUSH1 0x1 PUSH1 0x1 PUSH1 0xA0 SHL SUB AND PUSH2 0x32B4 JUMP JUMPDEST CALLVALUE DUP1 ISZERO PUSH2 0xD67 JUMPI PUSH1 0x0 DUP1 REVERT JUMPDEST POP PUSH2 0xD8E PUSH1 0x4 DUP1 CALLDATASIZE SUB PUSH1 0x20 DUP2 LT ISZERO PUSH2 0xD7E JUMPI PUSH1 0x0 DUP1 REVERT JUMPDEST POP CALLDATALOAD PUSH1 0x1 PUSH1 0x1 PUSH1 0xA0 SHL SUB AND PUSH2 0x340A JUMP JUMPDEST PUSH1 0x40 DUP1 MLOAD PUSH4 0xFFFFFFFF SWAP1 SWAP3 AND DUP3 MSTORE MLOAD SWAP1 DUP2 SWAP1 SUB PUSH1 0x20 ADD SWAP1 RETURN JUMPDEST CALLVALUE DUP1 ISZERO PUSH2 0xDB3 JUMPI PUSH1 0x0 DUP1 REVERT JUMPDEST POP PUSH2 0x689 PUSH1 0x4 DUP1 CALLDATASIZE SUB PUSH1 0x20 DUP2 LT ISZERO PUSH2 0xDCA JUMPI PUSH1 0x0 DUP1 REVERT JUMPDEST POP CALLDATALOAD PUSH1 0x1 PUSH1 0x1 PUSH1 0xA0 SHL SUB AND PUSH2 0x3422 JUMP JUMPDEST CALLVALUE DUP1 ISZERO PUSH2 0xDE6 JUMPI PUSH1 0x0 DUP1 REVERT JUMPDEST POP PUSH2 0x672 PUSH1 0x4 DUP1 CALLDATASIZE SUB PUSH1 0x20 DUP2 LT ISZERO PUSH2 0xDFD JUMPI PUSH1 0x0 DUP1 REVERT JUMPDEST POP CALLDATALOAD PUSH1 0x1 PUSH1 0x1 PUSH1 0xA0 SHL SUB AND PUSH2 0x343D JUMP JUMPDEST CALLVALUE DUP1 ISZERO PUSH2 0xE19 JUMPI PUSH1 0x0 DUP1 REVERT JUMPDEST POP PUSH2 0x689 PUSH1 0x4 DUP1 CALLDATASIZE SUB PUSH1 0x20 DUP2 LT ISZERO PUSH2 0xE30 JUMPI PUSH1 0x0 DUP1 REVERT JUMPDEST POP CALLDATALOAD PUSH1 0x1 PUSH1 0x1 PUSH1 0xA0 SHL SUB AND PUSH2 0x34DE JUMP JUMPDEST CALLVALUE DUP1 ISZERO PUSH2 0xE4C JUMPI PUSH1 0x0 DUP1 REVERT JUMPDEST POP PUSH2 0x689 PUSH1 0x4 DUP1 CALLDATASIZE SUB PUSH1 0x40 DUP2 LT ISZERO PUSH2 0xE63 JUMPI PUSH1 0x0 DUP1 REVERT JUMPDEST POP PUSH1 0x1 PUSH1 0x1 PUSH1 0xA0 SHL SUB DUP2 CALLDATALOAD AND SWAP1 PUSH1 0x20 ADD CALLDATALOAD PUSH2 0x34F0 JUMP JUMPDEST CALLVALUE DUP1 ISZERO PUSH2 0xE85 JUMPI PUSH1 0x0 DUP1 REVERT JUMPDEST POP PUSH2 0x689 PUSH1 0x4 DUP1 CALLDATASIZE SUB PUSH1 0x20 DUP2 LT ISZERO PUSH2 0xE9C JUMPI PUSH1 0x0 DUP1 REVERT JUMPDEST POP CALLDATALOAD PUSH1 0x1 PUSH1 0x1 PUSH1 0xA0 SHL SUB AND PUSH2 0x36FF JUMP JUMPDEST CALLVALUE DUP1 ISZERO PUSH2 0xEB8 JUMPI PUSH1 0x0 DUP1 REVERT JUMPDEST POP PUSH2 0x672 PUSH1 0x4 DUP1 CALLDATASIZE SUB PUSH1 0x20 DUP2 LT ISZERO PUSH2 0xECF JUMPI PUSH1 0x0 DUP1 REVERT JUMPDEST POP CALLDATALOAD PUSH1 0x1 PUSH1 0x1 PUSH1 0xA0 SHL SUB AND PUSH2 0x3711 JUMP JUMPDEST CALLVALUE DUP1 ISZERO PUSH2 0xEEB JUMPI PUSH1 0x0 DUP1 REVERT JUMPDEST POP PUSH2 0xCE5 PUSH2 0x37C3 JUMP JUMPDEST CALLVALUE DUP1 ISZERO PUSH2 0xF00 JUMPI PUSH1 0x0 DUP1 REVERT JUMPDEST POP PUSH2 0x613 PUSH2 0x3823 JUMP JUMPDEST CALLVALUE DUP1 ISZERO PUSH2 0xF15 JUMPI PUSH1 0x0 DUP1 REVERT JUMPDEST POP PUSH2 0x689 PUSH1 0x4 DUP1 CALLDATASIZE SUB PUSH1 0x60 DUP2 LT ISZERO PUSH2 0xF2C JUMPI PUSH1 0x0 DUP1 REVERT JUMPDEST POP PUSH1 0x1 PUSH1 0x1 PUSH1 0xA0 SHL SUB DUP2 CALLDATALOAD DUP2 AND SWAP2 PUSH1 0x20 DUP2 ADD CALLDATALOAD DUP3 AND SWAP2 PUSH1 0x40 SWAP1 SWAP2 ADD CALLDATALOAD AND PUSH2 0x3828 JUMP JUMPDEST CALLVALUE DUP1 ISZERO PUSH2 0xF5A JUMPI PUSH1 0x0 DUP1 REVERT JUMPDEST POP PUSH2 0x672 PUSH1 0x4 DUP1 CALLDATASIZE SUB PUSH1 0x60 DUP2 LT ISZERO PUSH2 0xF71 JUMPI PUSH1 0x0 DUP1 REVERT JUMPDEST POP PUSH1 0x1 PUSH1 0x1 PUSH1 0xA0 SHL SUB DUP2 CALLDATALOAD DUP2 AND SWAP2 PUSH1 0x20 DUP2 ADD CALLDATALOAD SWAP1 SWAP2 AND SWAP1 PUSH1 0x40 ADD CALLDATALOAD PUSH2 0x384B JUMP JUMPDEST CALLVALUE DUP1 ISZERO PUSH2 0xF9D JUMPI PUSH1 0x0 DUP1 REVERT JUMPDEST POP PUSH2 0x672 PUSH1 0x4 DUP1 CALLDATASIZE SUB PUSH1 0x60 DUP2 LT ISZERO PUSH2 0xFB4 JUMPI PUSH1 0x0 DUP1 REVERT JUMPDEST POP PUSH1 0x1 PUSH1 0x1 PUSH1 0xA0 SHL SUB DUP2 CALLDATALOAD DUP2 AND SWAP2 PUSH1 0x20 DUP2 ADD CALLDATALOAD SWAP1 SWAP2 AND SWAP1 PUSH1 0x40 ADD CALLDATALOAD PUSH2 0x3B01 JUMP JUMPDEST CALLVALUE DUP1 ISZERO PUSH2 0xFE0 JUMPI PUSH1 0x0 DUP1 REVERT JUMPDEST POP PUSH2 0x672 PUSH1 0x4 DUP1 CALLDATASIZE SUB PUSH1 0x20 DUP2 LT ISZERO PUSH2 0xFF7 JUMPI PUSH1 0x0 DUP1 REVERT JUMPDEST POP CALLDATALOAD PUSH1 0x1 PUSH1 0x1 PUSH1 0xA0 SHL SUB AND PUSH2 0x3C46 JUMP JUMPDEST CALLVALUE DUP1 ISZERO PUSH2 0x1013 JUMPI PUSH1 0x0 DUP1 REVERT JUMPDEST POP PUSH2 0x527 PUSH2 0x3CBF JUMP JUMPDEST CALLVALUE DUP1 ISZERO PUSH2 0x1028 JUMPI PUSH1 0x0 DUP1 REVERT JUMPDEST POP PUSH2 0x689 PUSH1 0x4 DUP1 CALLDATASIZE SUB PUSH1 0x40 DUP2 LT ISZERO PUSH2 0x103F JUMPI PUSH1 0x0 DUP1 REVERT JUMPDEST POP PUSH1 0x1 PUSH1 0x1 PUSH1 0xA0 SHL SUB DUP2 CALLDATALOAD DUP2 AND SWAP2 PUSH1 0x20 ADD CALLDATALOAD AND PUSH2 0x3CDF JUMP JUMPDEST CALLVALUE DUP1 ISZERO PUSH2 0x1063 JUMPI PUSH1 0x0 DUP1 REVERT JUMPDEST POP PUSH2 0x5D5 PUSH1 0x4 DUP1 CALLDATASIZE SUB PUSH1 0xA0 DUP2 LT ISZERO PUSH2 0x107A JUMPI PUSH1 0x0 DUP1 REVERT JUMPDEST POP PUSH1 0x1 PUSH1 0x1 PUSH1 0xA0 SHL SUB DUP2 CALLDATALOAD DUP2 AND SWAP2 PUSH1 0x20 DUP2 ADD CALLDATALOAD SWAP1 SWAP2 AND SWAP1 PUSH1 0x40 DUP2 ADD CALLDATALOAD SWAP1 PUSH1 0x60 DUP2 ADD CALLDATALOAD SWAP1 PUSH1 0x80 ADD CALLDATALOAD PUSH2 0x3CFC JUMP JUMPDEST CALLVALUE DUP1 ISZERO PUSH2 0x10B2 JUMPI PUSH1 0x0 DUP1 REVERT JUMPDEST POP PUSH2 0x689 PUSH1 0x4 DUP1 CALLDATASIZE SUB PUSH1 0x40 DUP2 LT ISZERO PUSH2 0x10C9 JUMPI PUSH1 0x0 DUP1 REVERT JUMPDEST POP PUSH1 0x1 PUSH1 0x1 PUSH1 0xA0 SHL SUB DUP2 CALLDATALOAD DUP2 AND SWAP2 PUSH1 0x20 ADD CALLDATALOAD AND PUSH2 0x3DAD JUMP JUMPDEST CALLVALUE DUP1 ISZERO PUSH2 0x10ED JUMPI PUSH1 0x0 DUP1 REVERT JUMPDEST POP PUSH2 0x613 PUSH1 0x4 DUP1 CALLDATASIZE SUB PUSH1 0x20 DUP2 LT ISZERO PUSH2 0x1104 JUMPI PUSH1 0x0 DUP1 REVERT JUMPDEST POP CALLDATALOAD PUSH2 0x3DCA JUMP JUMPDEST CALLVALUE DUP1 ISZERO PUSH2 0x1117 JUMPI PUSH1 0x0 DUP1 REVERT JUMPDEST POP PUSH2 0x672 PUSH1 0x4 DUP1 CALLDATASIZE SUB PUSH1 0x40 DUP2 LT ISZERO PUSH2 0x112E JUMPI PUSH1 0x0 DUP1 REVERT JUMPDEST POP PUSH1 0x1 PUSH1 0x1 PUSH1 0xA0 SHL SUB DUP2 CALLDATALOAD AND SWAP1 PUSH1 0x20 ADD CALLDATALOAD PUSH2 0x3DD7 JUMP JUMPDEST CALLVALUE DUP1 ISZERO PUSH2 0x1150 JUMPI PUSH1 0x0 DUP1 REVERT JUMPDEST POP PUSH2 0x672 PUSH1 0x4 DUP1 CALLDATASIZE SUB PUSH1 0x40 DUP2 LT ISZERO PUSH2 0x1167 JUMPI PUSH1 0x0 DUP1 REVERT JUMPDEST POP PUSH1 0x1 PUSH1 0x1 PUSH1 0xA0 SHL SUB DUP2 CALLDATALOAD AND SWAP1 PUSH1 0x20 ADD CALLDATALOAD PUSH2 0x4060 JUMP JUMPDEST CALLVALUE DUP1 ISZERO PUSH2 0x1189 JUMPI PUSH1 0x0 DUP1 REVERT JUMPDEST POP PUSH2 0x5D5 PUSH1 0x4 DUP1 CALLDATASIZE SUB PUSH1 0x40 DUP2 LT ISZERO PUSH2 0x11A0 JUMPI PUSH1 0x0 DUP1 REVERT JUMPDEST POP PUSH1 0x1 PUSH1 0x1 PUSH1 0xA0 SHL SUB DUP2 CALLDATALOAD AND SWAP1 PUSH1 0x20 ADD CALLDATALOAD PUSH2 0x414E JUMP JUMPDEST CALLVALUE DUP1 ISZERO PUSH2 0x11C2 JUMPI PUSH1 0x0 DUP1 REVERT JUMPDEST POP PUSH2 0x672 PUSH1 0x4 DUP1 CALLDATASIZE SUB PUSH1 0x20 DUP2 LT ISZERO PUSH2 0x11D9 JUMPI PUSH1 0x0 DUP1 REVERT JUMPDEST POP CALLDATALOAD PUSH1 0x1 PUSH1 0x1 PUSH1 0xA0 SHL SUB AND PUSH2 0x4164 JUMP JUMPDEST CALLVALUE DUP1 ISZERO PUSH2 0x11F5 JUMPI PUSH1 0x0 DUP1 REVERT JUMPDEST POP PUSH2 0x5D5 PUSH1 0x4 DUP1 CALLDATASIZE SUB PUSH1 0x20 DUP2 LT ISZERO PUSH2 0x120C JUMPI PUSH1 0x0 DUP1 REVERT JUMPDEST POP CALLDATALOAD PUSH1 0x1 PUSH1 0x1 PUSH1 0xA0 SHL SUB AND PUSH2 0x41DB JUMP JUMPDEST CALLVALUE DUP1 ISZERO PUSH2 0x1228 JUMPI PUSH1 0x0 DUP1 REVERT JUMPDEST POP PUSH2 0x689 PUSH1 0x4 DUP1 CALLDATASIZE SUB PUSH1 0x20 DUP2 LT ISZERO PUSH2 0x123F JUMPI PUSH1 0x0 DUP1 REVERT JUMPDEST POP CALLDATALOAD PUSH1 0x1 PUSH1 0x1 PUSH1 0xA0 SHL SUB AND PUSH2 0x41F0 JUMP JUMPDEST CALLVALUE DUP1 ISZERO PUSH2 0x125B JUMPI PUSH1 0x0 DUP1 REVERT JUMPDEST POP PUSH2 0x672 PUSH1 0x4 DUP1 CALLDATASIZE SUB PUSH1 0x20 DUP2 LT ISZERO PUSH2 0x1272 JUMPI PUSH1 0x0 DUP1 REVERT JUMPDEST POP CALLDATALOAD PUSH1 0x1 PUSH1 0x1 PUSH1 0xA0 SHL SUB AND PUSH2 0x4254 JUMP JUMPDEST CALLVALUE DUP1 ISZERO PUSH2 0x128E JUMPI PUSH1 0x0 DUP1 REVERT JUMPDEST POP PUSH2 0x689 PUSH1 0x4 DUP1 CALLDATASIZE SUB PUSH1 0x60 DUP2 LT ISZERO PUSH2 0x12A5 JUMPI PUSH1 0x0 DUP1 REVERT JUMPDEST POP PUSH1 0x1 PUSH1 0x1 PUSH1 0xA0 SHL SUB DUP2 CALLDATALOAD DUP2 AND SWAP2 PUSH1 0x20 DUP2 ADD CALLDATALOAD DUP3 AND SWAP2 PUSH1 0x40 SWAP1 SWAP2 ADD CALLDATALOAD AND PUSH2 0x4380 JUMP JUMPDEST CALLVALUE DUP1 ISZERO PUSH2 0x12D3 JUMPI PUSH1 0x0 DUP1 REVERT JUMPDEST POP PUSH2 0x672 PUSH1 0x4 DUP1 CALLDATASIZE SUB PUSH1 0xC0 DUP2 LT ISZERO PUSH2 0x12EA JUMPI PUSH1 0x0 DUP1 REVERT JUMPDEST POP PUSH1 0x1 PUSH1 0x1 PUSH1 0xA0 SHL SUB DUP2 CALLDATALOAD AND SWAP1 PUSH1 0x20 DUP2 ADD CALLDATALOAD SWAP1 PUSH1 0x40 DUP2 ADD CALLDATALOAD SWAP1 PUSH1 0xFF PUSH1 0x60 DUP3 ADD CALLDATALOAD AND SWAP1 PUSH1 0x80 DUP2 ADD CALLDATALOAD SWAP1 PUSH1 0xA0 ADD CALLDATALOAD PUSH2 0x43A3 JUMP JUMPDEST CALLVALUE DUP1 ISZERO PUSH2 0x1327 JUMPI PUSH1 0x0 DUP1 REVERT JUMPDEST POP PUSH2 0x672 PUSH1 0x4 DUP1 CALLDATASIZE SUB PUSH1 0x40 DUP2 LT ISZERO PUSH2 0x133E JUMPI PUSH1 0x0 DUP1 REVERT JUMPDEST POP PUSH1 0x1 PUSH1 0x1 PUSH1 0xA0 SHL SUB DUP2 CALLDATALOAD AND SWAP1 PUSH1 0x20 ADD CALLDATALOAD PUSH2 0x45E1 JUMP JUMPDEST CALLVALUE DUP1 ISZERO PUSH2 0x1360 JUMPI PUSH1 0x0 DUP1 REVERT JUMPDEST POP PUSH2 0x672 PUSH1 0x4 DUP1 CALLDATASIZE SUB PUSH1 0x20 DUP2 LT ISZERO PUSH2 0x1377 JUMPI PUSH1 0x0 DUP1 REVERT JUMPDEST POP CALLDATALOAD PUSH1 0x1 PUSH1 0x1 PUSH1 0xA0 SHL SUB AND PUSH2 0x472C JUMP JUMPDEST CALLVALUE DUP1 ISZERO PUSH2 0x1393 JUMPI PUSH1 0x0 DUP1 REVERT JUMPDEST POP PUSH2 0x689 PUSH2 0x4882 JUMP JUMPDEST CALLVALUE DUP1 ISZERO PUSH2 0x13A8 JUMPI PUSH1 0x0 DUP1 REVERT JUMPDEST POP PUSH2 0x672 PUSH1 0x4 DUP1 CALLDATASIZE SUB PUSH1 0x20 DUP2 LT ISZERO PUSH2 0x13BF JUMPI PUSH1 0x0 DUP1 REVERT JUMPDEST POP CALLDATALOAD PUSH2 0x4887 JUMP JUMPDEST CALLVALUE DUP1 ISZERO PUSH2 0x13D2 JUMPI PUSH1 0x0 DUP1 REVERT JUMPDEST POP PUSH2 0x672 PUSH1 0x4 DUP1 CALLDATASIZE SUB PUSH1 0x40 DUP2 LT ISZERO PUSH2 0x13E9 JUMPI PUSH1 0x0 DUP1 REVERT JUMPDEST POP PUSH1 0x1 PUSH1 0x1 PUSH1 0xA0 SHL SUB DUP2 CALLDATALOAD AND SWAP1 PUSH1 0x20 ADD CALLDATALOAD PUSH2 0x48EE JUMP JUMPDEST CALLVALUE DUP1 ISZERO PUSH2 0x140B JUMPI PUSH1 0x0 DUP1 REVERT JUMPDEST POP PUSH2 0x689 PUSH1 0x4 DUP1 CALLDATASIZE SUB PUSH1 0x20 DUP2 LT ISZERO PUSH2 0x1422 JUMPI PUSH1 0x0 DUP1 REVERT JUMPDEST POP CALLDATALOAD PUSH1 0x1 PUSH1 0x1 PUSH1 0xA0 SHL SUB AND PUSH2 0x49B4 JUMP JUMPDEST CALLVALUE DUP1 ISZERO PUSH2 0x143E JUMPI PUSH1 0x0 DUP1 REVERT JUMPDEST POP PUSH2 0x672 PUSH1 0x4 DUP1 CALLDATASIZE SUB PUSH1 0xE0 DUP2 LT ISZERO PUSH2 0x1455 JUMPI PUSH1 0x0 DUP1 REVERT JUMPDEST POP PUSH1 0x1 PUSH1 0x1 PUSH1 0xA0 SHL SUB DUP2 CALLDATALOAD DUP2 AND SWAP2 PUSH1 0x20 DUP2 ADD CALLDATALOAD SWAP1 SWAP2 AND SWAP1 PUSH1 0x40 DUP2 ADD CALLDATALOAD SWAP1 PUSH1 0x60 DUP2 ADD CALLDATALOAD SWAP1 PUSH1 0xFF PUSH1 0x80 DUP3 ADD CALLDATALOAD AND SWAP1 PUSH1 0xA0 DUP2 ADD CALLDATALOAD SWAP1 PUSH1 0xC0 ADD CALLDATALOAD PUSH2 0x49C6 JUMP JUMPDEST CALLVALUE DUP1 ISZERO PUSH2 0x149C JUMPI PUSH1 0x0 DUP1 REVERT JUMPDEST POP PUSH2 0x689 PUSH1 0x4 DUP1 CALLDATASIZE SUB PUSH1 0x20 DUP2 LT ISZERO PUSH2 0x14B3 JUMPI PUSH1 0x0 DUP1 REVERT JUMPDEST POP CALLDATALOAD PUSH1 0x1 PUSH1 0x1 PUSH1 0xA0 SHL SUB AND PUSH2 0x4C6A JUMP JUMPDEST CALLVALUE DUP1 ISZERO PUSH2 0x14CF JUMPI PUSH1 0x0 DUP1 REVERT JUMPDEST POP PUSH2 0x689 PUSH1 0x4 DUP1 CALLDATASIZE SUB PUSH1 0x40 DUP2 LT ISZERO PUSH2 0x14E6 JUMPI PUSH1 0x0 DUP1 REVERT JUMPDEST POP PUSH1 0x1 PUSH1 0x1 PUSH1 0xA0 SHL SUB DUP2 CALLDATALOAD DUP2 AND SWAP2 PUSH1 0x20 ADD CALLDATALOAD AND PUSH2 0x4C7C JUMP JUMPDEST CALLVALUE DUP1 ISZERO PUSH2 0x150A JUMPI PUSH1 0x0 DUP1 REVERT JUMPDEST POP PUSH2 0x672 PUSH1 0x4 DUP1 CALLDATASIZE SUB PUSH1 0x40 DUP2 LT ISZERO PUSH2 0x1521 JUMPI PUSH1 0x0 DUP1 REVERT JUMPDEST POP PUSH1 0x1 PUSH1 0x1 PUSH1 0xA0 SHL SUB DUP2 CALLDATALOAD AND SWAP1 PUSH1 0x20 ADD CALLDATALOAD PUSH2 0x4CA7 JUMP JUMPDEST CALLVALUE DUP1 ISZERO PUSH2 0x1543 JUMPI PUSH1 0x0 DUP1 REVERT JUMPDEST POP PUSH2 0x689 PUSH1 0x4 DUP1 CALLDATASIZE SUB PUSH1 0x40 DUP2 LT ISZERO PUSH2 0x155A JUMPI PUSH1 0x0 DUP1 REVERT JUMPDEST POP PUSH1 0x1 PUSH1 0x1 PUSH1 0xA0 SHL SUB DUP2 CALLDATALOAD DUP2 AND SWAP2 PUSH1 0x20 ADD CALLDATALOAD AND PUSH2 0x4D68 JUMP JUMPDEST CALLVALUE DUP1 ISZERO PUSH2 0x157E JUMPI PUSH1 0x0 DUP1 REVERT JUMPDEST POP PUSH2 0x689 PUSH1 0x4 DUP1 CALLDATASIZE SUB PUSH1 0x60 DUP2 LT ISZERO PUSH2 0x1595 JUMPI PUSH1 0x0 DUP1 REVERT JUMPDEST POP PUSH1 0x1 PUSH1 0x1 PUSH1 0xA0 SHL SUB DUP2 CALLDATALOAD DUP2 AND SWAP2 PUSH1 0x20 DUP2 ADD CALLDATALOAD DUP3 AND SWAP2 PUSH1 0x40 SWAP1 SWAP2 ADD CALLDATALOAD AND PUSH2 0x4D85 JUMP JUMPDEST CALLVALUE DUP1 ISZERO PUSH2 0x15C3 JUMPI PUSH1 0x0 DUP1 REVERT JUMPDEST POP PUSH2 0x689 PUSH1 0x4 DUP1 CALLDATASIZE SUB PUSH1 0x20 DUP2 LT ISZERO PUSH2 0x15DA JUMPI PUSH1 0x0 DUP1 REVERT JUMPDEST POP CALLDATALOAD PUSH1 0x1 PUSH1 0x1 PUSH1 0xA0 SHL SUB AND PUSH2 0x4DA8 JUMP JUMPDEST CALLVALUE DUP1 ISZERO PUSH2 0x15F6 JUMPI PUSH1 0x0 DUP1 REVERT JUMPDEST POP PUSH2 0x672 PUSH1 0x4 DUP1 CALLDATASIZE SUB PUSH1 0x60 DUP2 LT ISZERO PUSH2 0x160D JUMPI PUSH1 0x0 DUP1 REVERT JUMPDEST POP PUSH1 0x1 PUSH1 0x1 PUSH1 0xA0 SHL SUB DUP2 CALLDATALOAD DUP2 AND SWAP2 PUSH1 0x20 DUP2 ADD CALLDATALOAD SWAP1 SWAP2 AND SWAP1 PUSH1 0x40 ADD CALLDATALOAD PUSH2 0x4DBA JUMP JUMPDEST CALLVALUE DUP1 ISZERO PUSH2 0x1639 JUMPI PUSH1 0x0 DUP1 REVERT JUMPDEST POP PUSH2 0x689 PUSH2 0x4F0B JUMP JUMPDEST CALLVALUE DUP1 ISZERO PUSH2 0x164E JUMPI PUSH1 0x0 DUP1 REVERT JUMPDEST POP PUSH2 0x5D5 PUSH1 0x4 DUP1 CALLDATASIZE SUB PUSH1 0x20 DUP2 LT ISZERO PUSH2 0x1665 JUMPI PUSH1 0x0 DUP1 REVERT JUMPDEST POP CALLDATALOAD PUSH1 0x1 PUSH1 0x1 PUSH1 0xA0 SHL SUB AND PUSH2 0x4F2F JUMP JUMPDEST CALLVALUE DUP1 ISZERO PUSH2 0x1681 JUMPI PUSH1 0x0 DUP1 REVERT JUMPDEST POP PUSH2 0x689 PUSH2 0x4F44 JUMP JUMPDEST CALLVALUE DUP1 ISZERO PUSH2 0x1696 JUMPI PUSH1 0x0 DUP1 REVERT JUMPDEST POP PUSH2 0x16C9 PUSH1 0x4 DUP1 CALLDATASIZE SUB PUSH1 0x40 DUP2 LT ISZERO PUSH2 0x16AD JUMPI PUSH1 0x0 DUP1 REVERT JUMPDEST POP DUP1 CALLDATALOAD PUSH1 0x1 PUSH1 0x1 PUSH1 0xA0 SHL SUB AND SWAP1 PUSH1 0x20 ADD CALLDATALOAD PUSH4 0xFFFFFFFF AND PUSH2 0x4F4A JUMP JUMPDEST PUSH1 0x40 DUP1 MLOAD PUSH4 0xFFFFFFFF SWAP1 SWAP4 AND DUP4 MSTORE PUSH1 0x20 DUP4 ADD SWAP2 SWAP1 SWAP2 MSTORE DUP1 MLOAD SWAP2 DUP3 SWAP1 SUB ADD SWAP1 RETURN JUMPDEST CALLVALUE DUP1 ISZERO PUSH2 0x16F5 JUMPI PUSH1 0x0 DUP1 REVERT JUMPDEST POP PUSH2 0x613 PUSH2 0x4F77 JUMP JUMPDEST CALLVALUE DUP1 ISZERO PUSH2 0x170A JUMPI PUSH1 0x0 DUP1 REVERT JUMPDEST POP PUSH2 0x613 PUSH2 0x4F86 JUMP JUMPDEST CALLVALUE DUP1 ISZERO PUSH2 0x171F JUMPI PUSH1 0x0 DUP1 REVERT JUMPDEST POP PUSH2 0x672 PUSH1 0x4 DUP1 CALLDATASIZE SUB PUSH1 0x20 DUP2 LT ISZERO PUSH2 0x1736 JUMPI PUSH1 0x0 DUP1 REVERT JUMPDEST POP CALLDATALOAD PUSH1 0x1 PUSH1 0x1 PUSH1 0xA0 SHL SUB AND PUSH2 0x4F95 JUMP JUMPDEST CALLVALUE DUP1 ISZERO PUSH2 0x1752 JUMPI PUSH1 0x0 DUP1 REVERT JUMPDEST POP PUSH2 0x5D5 PUSH1 0x4 DUP1 CALLDATASIZE SUB PUSH1 0x20 DUP2 LT ISZERO PUSH2 0x1769 JUMPI PUSH1 0x0 DUP1 REVERT JUMPDEST POP CALLDATALOAD PUSH1 0x1 PUSH1 0x1 PUSH1 0xA0 SHL SUB AND PUSH2 0x503F JUMP JUMPDEST CALLVALUE DUP1 ISZERO PUSH2 0x1785 JUMPI PUSH1 0x0 DUP1 REVERT JUMPDEST POP PUSH2 0x689 PUSH1 0x4 DUP1 CALLDATASIZE SUB PUSH1 0x60 DUP2 LT ISZERO PUSH2 0x179C JUMPI PUSH1 0x0 DUP1 REVERT JUMPDEST POP PUSH1 0x1 PUSH1 0x1 PUSH1 0xA0 SHL SUB DUP2 CALLDATALOAD DUP2 AND SWAP2 PUSH1 0x20 DUP2 ADD CALLDATALOAD DUP3 AND SWAP2 PUSH1 0x40 SWAP1 SWAP2 ADD CALLDATALOAD AND PUSH2 0x5054 JUMP JUMPDEST CALLVALUE DUP1 ISZERO PUSH2 0x17CA JUMPI PUSH1 0x0 DUP1 REVERT JUMPDEST POP PUSH2 0xCE5 PUSH2 0x5077 JUMP JUMPDEST PUSH1 0x40 MLOAD DUP1 PUSH1 0x40 ADD PUSH1 0x40 MSTORE DUP1 PUSH1 0x6 DUP2 MSTORE PUSH1 0x20 ADD PUSH6 0x2637B1B599B9 PUSH1 0xD1 SHL DUP2 MSTORE POP DUP2 JUMP JUMPDEST CALLER PUSH1 0x0 DUP2 DUP2 MSTORE PUSH1 0x6 PUSH1 0x20 SWAP1 DUP2 MSTORE PUSH1 0x40 DUP1 DUP4 KECCAK256 PUSH1 0x1 PUSH1 0x1 PUSH1 0xA0 SHL SUB DUP8 AND DUP1 DUP6 MSTORE SWAP1 DUP4 MSTORE DUP2 DUP5 KECCAK256 DUP7 SWAP1 SSTORE DUP2 MLOAD DUP7 DUP2 MSTORE SWAP2 MLOAD SWAP4 SWAP5 SWAP1 SWAP4 SWAP1 SWAP3 PUSH32 0x8C5BE1E5EBEC7D5BD14F71427D1E84F3DD0314C0F7B2291E5B200AC8C7C3B925 SWAP3 DUP3 SWAP1 SUB ADD SWAP1 LOG3 POP PUSH1 0x1 JUMPDEST SWAP3 SWAP2 POP POP JUMP JUMPDEST PUSH1 0x1F DUP2 DUP2 SLOAD DUP2 LT PUSH2 0x1869 JUMPI INVALID JUMPDEST PUSH1 0x0 SWAP2 DUP3 MSTORE PUSH1 0x20 SWAP1 SWAP2 KECCAK256 ADD SLOAD PUSH1 0x1 PUSH1 0x1 PUSH1 0xA0 SHL SUB AND SWAP1 POP DUP2 JUMP JUMPDEST CALLER PUSH1 0x0 SWAP1 DUP2 MSTORE PUSH1 0x1B PUSH1 0x20 SWAP1 DUP2 MSTORE PUSH1 0x40 DUP1 DUP4 KECCAK256 PUSH1 0x1 PUSH1 0x1 PUSH1 0xA0 SHL SUB DUP8 DUP2 AND DUP6 MSTORE SWAP1 DUP4 MSTORE DUP2 DUP5 KECCAK256 SWAP1 DUP7 AND DUP5 MSTORE SWAP1 SWAP2 MSTORE SWAP1 KECCAK256 SLOAD ISZERO PUSH2 0x18FE JUMPI PUSH1 0x40 DUP1 MLOAD PUSH3 0x461BCD PUSH1 0xE5 SHL DUP2 MSTORE PUSH1 0x20 PUSH1 0x4 DUP3 ADD MSTORE PUSH1 0x16 PUSH1 0x24 DUP3 ADD MSTORE PUSH22 0x18DC99591A5D0E881C195B991A5B99C818DC99591A5D PUSH1 0x52 SHL PUSH1 0x44 DUP3 ADD MSTORE SWAP1 MLOAD SWAP1 DUP2 SWAP1 SUB PUSH1 0x64 ADD SWAP1 REVERT JUMPDEST PUSH2 0x190B TIMESTAMP PUSH3 0x127500 PUSH2 0x50D7 JUMP JUMPDEST CALLER PUSH1 0x0 DUP2 DUP2 MSTORE PUSH1 0x17 PUSH1 0x20 SWAP1 DUP2 MSTORE PUSH1 0x40 DUP1 DUP4 KECCAK256 PUSH1 0x1 PUSH1 0x1 PUSH1 0xA0 SHL SUB DUP10 DUP2 AND DUP1 DUP7 MSTORE SWAP2 DUP5 MSTORE DUP3 DUP6 KECCAK256 SWAP1 DUP10 AND DUP1 DUP7 MSTORE SWAP1 DUP5 MSTORE DUP3 DUP6 KECCAK256 SWAP7 SWAP1 SWAP7 SSTORE SWAP4 DUP4 MSTORE PUSH1 0x18 DUP3 MSTORE DUP1 DUP4 KECCAK256 SWAP4 DUP4 MSTORE SWAP3 DUP2 MSTORE DUP3 DUP3 KECCAK256 SWAP4 DUP3 MSTORE SWAP3 SWAP1 SWAP3 MSTORE SWAP1 KECCAK256 SLOAD PUSH2 0x1968 SWAP1 DUP3 PUSH2 0x50D7 JUMP JUMPDEST CALLER PUSH1 0x0 DUP2 DUP2 MSTORE PUSH1 0x18 PUSH1 0x20 SWAP1 DUP2 MSTORE PUSH1 0x40 DUP1 DUP4 KECCAK256 PUSH1 0x1 PUSH1 0x1 PUSH1 0xA0 SHL SUB DUP10 DUP2 AND DUP1 DUP7 MSTORE SWAP2 DUP5 MSTORE DUP3 DUP6 KECCAK256 SWAP1 DUP10 AND DUP1 DUP7 MSTORE DUP2 DUP6 MSTORE DUP4 DUP7 KECCAK256 DUP9 SWAP1 SSTORE SWAP6 DUP6 MSTORE PUSH1 0x16 DUP5 MSTORE DUP3 DUP6 KECCAK256 SWAP2 DUP6 MSTORE SWAP1 DUP4 MSTORE DUP2 DUP5 KECCAK256 SWAP5 DUP5 MSTORE SWAP4 DUP3 MSTORE SWAP1 SWAP2 KECCAK256 SLOAD SWAP2 SWAP1 MSTORE LT ISZERO PUSH2 0x19FA JUMPI PUSH1 0x40 MLOAD PUSH3 0x461BCD PUSH1 0xE5 SHL DUP2 MSTORE PUSH1 0x4 ADD DUP1 DUP1 PUSH1 0x20 ADD DUP3 DUP2 SUB DUP3 MSTORE PUSH1 0x2A DUP2 MSTORE PUSH1 0x20 ADD DUP1 PUSH2 0x5F4E PUSH1 0x2A SWAP2 CODECOPY PUSH1 0x40 ADD SWAP2 POP POP PUSH1 0x40 MLOAD DUP1 SWAP2 SUB SWAP1 REVERT JUMPDEST PUSH1 0x40 DUP1 MLOAD PUSH4 0xCBC3AB53 PUSH1 0xE0 SHL DUP2 MSTORE PUSH1 0x1 PUSH1 0x1 PUSH1 0xA0 SHL SUB DUP6 AND PUSH1 0x4 DUP3 ADD MSTORE ADDRESS PUSH1 0x24 DUP3 ADD MSTORE SWAP1 MLOAD PUSH1 0x0 SWAP2 PUSH20 0x0 SWAP2 PUSH4 0xCBC3AB53 SWAP2 PUSH1 0x44 DUP1 DUP3 ADD SWAP3 PUSH1 0x20 SWAP3 SWAP1 SWAP2 SWAP1 DUP3 SWAP1 SUB ADD DUP2 DUP7 DUP1 EXTCODESIZE ISZERO DUP1 ISZERO PUSH2 0x1A5E JUMPI PUSH1 0x0 DUP1 REVERT JUMPDEST POP GAS DELEGATECALL ISZERO DUP1 ISZERO PUSH2 0x1A72 JUMPI RETURNDATASIZE PUSH1 0x0 DUP1 RETURNDATACOPY RETURNDATASIZE PUSH1 0x0 REVERT JUMPDEST POP POP POP POP PUSH1 0x40 MLOAD RETURNDATASIZE PUSH1 0x20 DUP2 LT ISZERO PUSH2 0x1A88 JUMPI PUSH1 0x0 DUP1 REVERT JUMPDEST POP MLOAD PUSH1 0x40 DUP1 MLOAD PUSH4 0x18160DDD PUSH1 0xE0 SHL DUP2 MSTORE SWAP1 MLOAD SWAP2 SWAP3 POP PUSH1 0x0 SWAP2 PUSH2 0x1B11 SWAP2 PUSH1 0x1 PUSH1 0x1 PUSH1 0xA0 SHL SUB DUP9 AND SWAP2 PUSH4 0x18160DDD SWAP2 PUSH1 0x4 DUP1 DUP3 ADD SWAP3 PUSH1 0x20 SWAP3 SWAP1 SWAP2 SWAP1 DUP3 SWAP1 SUB ADD DUP2 DUP7 DUP1 EXTCODESIZE ISZERO DUP1 ISZERO PUSH2 0x1AD5 JUMPI PUSH1 0x0 DUP1 REVERT JUMPDEST POP GAS STATICCALL ISZERO DUP1 ISZERO PUSH2 0x1AE9 JUMPI RETURNDATASIZE PUSH1 0x0 DUP1 RETURNDATACOPY RETURNDATASIZE PUSH1 0x0 REVERT JUMPDEST POP POP POP POP PUSH1 0x40 MLOAD RETURNDATASIZE PUSH1 0x20 DUP2 LT ISZERO PUSH2 0x1AFF JUMPI PUSH1 0x0 DUP1 REVERT JUMPDEST POP MLOAD PUSH2 0x1B0B DUP5 DUP7 PUSH2 0x511A JUMP JUMPDEST SWAP1 PUSH2 0x5172 JUMP JUMPDEST PUSH1 0x1 PUSH1 0x1 PUSH1 0xA0 SHL SUB DUP6 AND PUSH1 0x0 SWAP1 DUP2 MSTORE PUSH1 0x15 PUSH1 0x20 SWAP1 DUP2 MSTORE PUSH1 0x40 DUP1 DUP4 KECCAK256 ADDRESS DUP5 MSTORE SWAP1 SWAP2 MSTORE SWAP1 KECCAK256 SLOAD SWAP1 SWAP2 POP DUP2 GT ISZERO PUSH2 0x1B97 JUMPI PUSH1 0x1 PUSH1 0x1 PUSH1 0xA0 SHL SUB DUP5 AND PUSH1 0x0 SWAP1 DUP2 MSTORE PUSH1 0x15 PUSH1 0x20 SWAP1 DUP2 MSTORE PUSH1 0x40 DUP1 DUP4 KECCAK256 ADDRESS DUP1 DUP6 MSTORE SWAP3 MSTORE SWAP1 SWAP2 KECCAK256 SLOAD PUSH2 0x1B6E SWAP2 SWAP1 PUSH2 0x519D JUMP JUMPDEST PUSH1 0x1 PUSH1 0x1 PUSH1 0xA0 SHL SUB DUP5 AND PUSH1 0x0 SWAP1 DUP2 MSTORE PUSH1 0x15 PUSH1 0x20 SWAP1 DUP2 MSTORE PUSH1 0x40 DUP1 DUP4 KECCAK256 ADDRESS DUP5 MSTORE SWAP1 SWAP2 MSTORE DUP2 KECCAK256 SSTORE PUSH2 0x1BF4 JUMP JUMPDEST PUSH2 0x1BA1 ADDRESS DUP3 PUSH2 0x519D JUMP JUMPDEST PUSH1 0x1 PUSH1 0x1 PUSH1 0xA0 SHL SUB DUP5 AND PUSH1 0x0 SWAP1 DUP2 MSTORE PUSH1 0x15 PUSH1 0x20 SWAP1 DUP2 MSTORE PUSH1 0x40 DUP1 DUP4 KECCAK256 ADDRESS DUP5 MSTORE SWAP1 SWAP2 MSTORE SWAP1 KECCAK256 SLOAD PUSH2 0x1BCF SWAP1 DUP3 PUSH2 0x52B0 JUMP JUMPDEST PUSH1 0x1 PUSH1 0x1 PUSH1 0xA0 SHL SUB DUP6 AND PUSH1 0x0 SWAP1 DUP2 MSTORE PUSH1 0x15 PUSH1 0x20 SWAP1 DUP2 MSTORE PUSH1 0x40 DUP1 DUP4 KECCAK256 ADDRESS DUP5 MSTORE SWAP1 SWAP2 MSTORE SWAP1 KECCAK256 SSTORE JUMPDEST CALLER PUSH1 0x1 PUSH1 0x1 PUSH1 0xA0 SHL SUB AND DUP6 PUSH1 0x1 PUSH1 0x1 PUSH1 0xA0 SHL SUB AND DUP6 PUSH1 0x1 PUSH1 0x1 PUSH1 0xA0 SHL SUB AND PUSH32 0x6D962FE34DD0CF9A9DF3E12A7B8DDFE5F790B3F11668553455D7B52DB70A07BE NUMBER DUP8 PUSH1 0x40 MLOAD DUP1 DUP4 DUP2 MSTORE PUSH1 0x20 ADD DUP3 DUP2 MSTORE PUSH1 0x20 ADD SWAP3 POP POP POP PUSH1 0x40 MLOAD DUP1 SWAP2 SUB SWAP1 LOG4 POP POP POP POP POP JUMP JUMPDEST PUSH32 0x0 DUP2 JUMP JUMPDEST PUSH1 0x2 SLOAD DUP2 JUMP JUMPDEST PUSH1 0x1B PUSH1 0x20 SWAP1 DUP2 MSTORE PUSH1 0x0 SWAP4 DUP5 MSTORE PUSH1 0x40 DUP1 DUP6 KECCAK256 DUP3 MSTORE SWAP3 DUP5 MSTORE DUP3 DUP5 KECCAK256 SWAP1 MSTORE DUP3 MSTORE SWAP1 KECCAK256 SLOAD DUP2 JUMP JUMPDEST PUSH1 0x13 PUSH1 0x20 MSTORE PUSH1 0x0 SWAP1 DUP2 MSTORE PUSH1 0x40 SWAP1 KECCAK256 SLOAD DUP2 JUMP JUMPDEST PUSH1 0x25 DUP2 DUP2 SLOAD DUP2 LT PUSH2 0x1869 JUMPI INVALID JUMPDEST CALLER PUSH1 0x0 SWAP1 DUP2 MSTORE PUSH1 0x1D PUSH1 0x20 MSTORE PUSH1 0x40 SWAP1 KECCAK256 SLOAD PUSH1 0xFF AND ISZERO PUSH2 0x1D21 JUMPI PUSH1 0x40 DUP1 MLOAD PUSH3 0x461BCD PUSH1 0xE5 SHL DUP2 MSTORE PUSH1 0x20 PUSH1 0x4 DUP3 ADD MSTORE PUSH1 0x15 PUSH1 0x24 DUP3 ADD MSTORE PUSH21 0x1858DD1A5D985D194E88189B1858DADB1A5CDD1959 PUSH1 0x5A SHL PUSH1 0x44 DUP3 ADD MSTORE SWAP1 MLOAD SWAP1 DUP2 SWAP1 SUB PUSH1 0x64 ADD SWAP1 REVERT JUMPDEST CALLER PUSH1 0x0 SWAP1 DUP2 MSTORE PUSH1 0x9 PUSH1 0x20 SWAP1 DUP2 MSTORE PUSH1 0x40 DUP1 DUP4 KECCAK256 PUSH1 0x1 PUSH1 0x1 PUSH1 0xA0 SHL SUB DUP6 AND DUP5 MSTORE SWAP1 SWAP2 MSTORE SWAP1 KECCAK256 SLOAD ISZERO DUP1 ISZERO SWAP1 PUSH2 0x1D75 JUMPI POP CALLER PUSH1 0x0 SWAP1 DUP2 MSTORE PUSH1 0x9 PUSH1 0x20 SWAP1 DUP2 MSTORE PUSH1 0x40 DUP1 DUP4 KECCAK256 PUSH1 0x1 PUSH1 0x1 PUSH1 0xA0 SHL SUB DUP6 AND DUP5 MSTORE SWAP1 SWAP2 MSTORE SWAP1 KECCAK256 SLOAD TIMESTAMP GT JUMPDEST PUSH2 0x1DBA JUMPI PUSH1 0x40 DUP1 MLOAD PUSH3 0x461BCD PUSH1 0xE5 SHL DUP2 MSTORE PUSH1 0x20 PUSH1 0x4 DUP3 ADD MSTORE PUSH1 0x11 PUSH1 0x24 DUP3 ADD MSTORE PUSH17 0x61637469766174653A20626F6E64696E67 PUSH1 0x78 SHL PUSH1 0x44 DUP3 ADD MSTORE SWAP1 MLOAD SWAP1 DUP2 SWAP1 SUB PUSH1 0x64 ADD SWAP1 REVERT JUMPDEST CALLER PUSH1 0x0 SWAP1 DUP2 MSTORE PUSH1 0x10 PUSH1 0x20 MSTORE PUSH1 0x40 SWAP1 KECCAK256 SLOAD PUSH2 0x1E2D JUMPI CALLER PUSH1 0x0 DUP2 DUP2 MSTORE PUSH1 0x10 PUSH1 0x20 SWAP1 DUP2 MSTORE PUSH1 0x40 DUP1 DUP4 KECCAK256 TIMESTAMP SWAP1 DUP2 SWAP1 SSTORE PUSH1 0x1E DUP1 SLOAD PUSH1 0x1 DUP2 ADD SWAP1 SWAP2 SSTORE PUSH32 0x50BB669A95C7B50B7E8A6F09454034B2B14CF2B85C730DCA9A539CA82CB6E350 ADD DUP1 SLOAD PUSH1 0x1 PUSH1 0x1 PUSH1 0xA0 SHL SUB NOT AND SWAP1 SWAP6 OR SWAP1 SWAP5 SSTORE PUSH1 0x12 SWAP1 SWAP2 MSTORE SWAP1 KECCAK256 SSTORE JUMPDEST CALLER PUSH1 0x0 DUP2 DUP2 MSTORE PUSH1 0x1C PUSH1 0x20 SWAP1 DUP2 MSTORE PUSH1 0x40 DUP1 DUP4 KECCAK256 DUP1 SLOAD PUSH1 0xFF NOT AND PUSH1 0x1 OR SWAP1 SSTORE PUSH1 0xC DUP3 MSTORE DUP1 DUP4 KECCAK256 PUSH1 0x1 PUSH1 0x1 PUSH1 0xA0 SHL SUB DUP7 AND DUP5 MSTORE SWAP1 SWAP2 MSTORE SWAP1 KECCAK256 SLOAD PUSH2 0x1E6E SWAP2 DUP4 SWAP2 PUSH2 0x52DB JUMP JUMPDEST CALLER PUSH1 0x0 DUP2 DUP2 MSTORE PUSH1 0xC PUSH1 0x20 SWAP1 DUP2 MSTORE PUSH1 0x40 DUP1 DUP4 KECCAK256 PUSH1 0x1 PUSH1 0x1 PUSH1 0xA0 SHL SUB DUP7 AND DUP1 DUP6 MSTORE SWAP1 DUP4 MSTORE DUP2 DUP5 KECCAK256 DUP5 SWAP1 SSTORE DUP5 DUP5 MSTORE PUSH1 0xD DUP4 MSTORE DUP2 DUP5 KECCAK256 SWAP1 DUP5 MSTORE DUP3 MSTORE SWAP2 DUP3 SWAP1 KECCAK256 SLOAD DUP3 MLOAD NUMBER DUP2 MSTORE TIMESTAMP SWAP3 DUP2 ADD SWAP3 SWAP1 SWAP3 MSTORE DUP2 DUP4 ADD MSTORE SWAP1 MLOAD PUSH32 0x3D19C3FDDBD0AEB7831C8A9983375778D0D4EC45185720EAE1475D6A0647EB6E SWAP2 DUP2 SWAP1 SUB PUSH1 0x60 ADD SWAP1 LOG2 POP JUMP JUMPDEST PUSH3 0x3F480 DUP2 JUMP JUMPDEST PUSH32 0x797CFAB58FCB15F590EB8E4252D5C228FF88F94F907E119E80C4393A946E8F35 DUP2 JUMP JUMPDEST CALLER PUSH1 0x0 SWAP1 DUP2 MSTORE PUSH1 0x14 PUSH1 0x20 MSTORE PUSH1 0x40 SWAP1 KECCAK256 SLOAD PUSH1 0xFF AND PUSH2 0x1F69 JUMPI PUSH1 0x40 DUP1 MLOAD PUSH3 0x461BCD PUSH1 0xE5 SHL DUP2 MSTORE PUSH1 0x20 PUSH1 0x4 DUP3 ADD MSTORE PUSH1 0xD PUSH1 0x24 DUP3 ADD MSTORE PUSH13 0x3932B1B2B4B83A1D1010B537B1 PUSH1 0x99 SHL PUSH1 0x44 DUP3 ADD MSTORE SWAP1 MLOAD SWAP1 DUP2 SWAP1 SUB PUSH1 0x64 ADD SWAP1 REVERT JUMPDEST PUSH1 0x40 DUP1 MLOAD DUP1 DUP3 ADD DUP3 MSTORE PUSH1 0x1D DUP2 MSTORE PUSH32 0x776F726B526563656970743A20696E7375666669656E742066756E6473000000 PUSH1 0x20 DUP1 DUP4 ADD SWAP2 SWAP1 SWAP2 MSTORE CALLER PUSH1 0x0 SWAP1 DUP2 MSTORE PUSH1 0x15 DUP3 MSTORE DUP4 DUP2 KECCAK256 PUSH1 0xE DUP3 MSTORE SWAP1 SWAP2 MSTORE SWAP2 SWAP1 SWAP2 KECCAK256 SLOAD PUSH2 0x1FC4 SWAP2 DUP4 SWAP1 PUSH2 0x5378 JUMP JUMPDEST CALLER PUSH1 0x0 SWAP1 DUP2 MSTORE PUSH1 0x15 PUSH1 0x20 SWAP1 DUP2 MSTORE PUSH1 0x40 DUP1 DUP4 KECCAK256 PUSH1 0xE DUP5 MSTORE DUP3 MSTORE DUP1 DUP4 KECCAK256 SWAP4 SWAP1 SWAP4 SSTORE PUSH1 0x1 PUSH1 0x1 PUSH1 0xA0 SHL SUB DUP6 AND DUP1 DUP4 MSTORE PUSH1 0x12 SWAP1 SWAP2 MSTORE DUP3 DUP3 KECCAK256 TIMESTAMP SWAP1 SSTORE SWAP2 MLOAD DUP4 ISZERO PUSH2 0x8FC MUL SWAP2 DUP5 SWAP2 SWAP1 DUP2 DUP2 DUP2 DUP6 DUP9 DUP9 CALL SWAP4 POP POP POP POP ISZERO DUP1 ISZERO PUSH2 0x2024 JUMPI RETURNDATASIZE PUSH1 0x0 DUP1 RETURNDATACOPY RETURNDATASIZE PUSH1 0x0 REVERT JUMPDEST POP PUSH1 0x40 DUP1 MLOAD NUMBER DUP2 MSTORE SWAP1 MLOAD PUSH1 0x1 PUSH1 0x1 PUSH1 0xA0 SHL SUB DUP5 AND SWAP2 CALLER SWAP2 PUSH1 0xE SWAP2 PUSH32 0xB1C0F4C56DD743039F597F2080E633454ACC4867E980BF9263582A868DD9D0A4 SWAP2 SWAP1 DUP2 SWAP1 SUB PUSH1 0x20 ADD SWAP1 LOG4 POP POP JUMP JUMPDEST PUSH1 0x21 SLOAD PUSH1 0x1 PUSH1 0x1 PUSH1 0xA0 SHL SUB AND CALLER EQ PUSH2 0x20CC JUMPI PUSH1 0x40 DUP1 MLOAD PUSH3 0x461BCD PUSH1 0xE5 SHL DUP2 MSTORE PUSH1 0x20 PUSH1 0x4 DUP3 ADD MSTORE PUSH1 0x1D PUSH1 0x24 DUP3 ADD MSTORE PUSH32 0x616363657074476F7665726E616E63653A202170656E64696E67476F76000000 PUSH1 0x44 DUP3 ADD MSTORE SWAP1 MLOAD SWAP1 DUP2 SWAP1 SUB PUSH1 0x64 ADD SWAP1 REVERT JUMPDEST PUSH1 0x21 SLOAD PUSH1 0x20 DUP1 SLOAD PUSH1 0x1 PUSH1 0x1 PUSH1 0xA0 SHL SUB NOT AND PUSH1 0x1 PUSH1 0x1 PUSH1 0xA0 SHL SUB SWAP1 SWAP3 AND SWAP2 SWAP1 SWAP2 OR SWAP1 SSTORE JUMP JUMPDEST PUSH1 0x1 PUSH1 0x1 PUSH1 0xA0 SHL SUB DUP4 AND PUSH1 0x0 DUP2 DUP2 MSTORE PUSH1 0x6 PUSH1 0x20 SWAP1 DUP2 MSTORE PUSH1 0x40 DUP1 DUP4 KECCAK256 CALLER DUP1 DUP6 MSTORE SWAP3 MSTORE DUP3 KECCAK256 SLOAD SWAP2 SWAP3 SWAP1 SWAP2 SWAP1 DUP3 EQ DUP1 ISZERO SWAP1 PUSH2 0x212A JUMPI POP PUSH1 0x0 NOT DUP2 EQ ISZERO JUMPDEST ISZERO PUSH2 0x21BB JUMPI PUSH1 0x0 PUSH2 0x2156 DUP6 PUSH1 0x40 MLOAD DUP1 PUSH1 0x60 ADD PUSH1 0x40 MSTORE DUP1 PUSH1 0x27 DUP2 MSTORE PUSH1 0x20 ADD PUSH2 0x5F78 PUSH1 0x27 SWAP2 CODECOPY DUP5 SWAP2 SWAP1 PUSH2 0x5378 JUMP JUMPDEST PUSH1 0x1 PUSH1 0x1 PUSH1 0xA0 SHL SUB DUP1 DUP10 AND PUSH1 0x0 DUP2 DUP2 MSTORE PUSH1 0x6 PUSH1 0x20 SWAP1 DUP2 MSTORE PUSH1 0x40 DUP1 DUP4 KECCAK256 SWAP5 DUP10 AND DUP1 DUP5 MSTORE SWAP5 DUP3 MSTORE SWAP2 DUP3 SWAP1 KECCAK256 DUP6 SWAP1 SSTORE DUP2 MLOAD DUP6 DUP2 MSTORE SWAP2 MLOAD SWAP5 SWAP6 POP SWAP3 SWAP4 SWAP2 SWAP3 PUSH32 0x8C5BE1E5EBEC7D5BD14F71427D1E84F3DD0314C0F7B2291E5B200AC8C7C3B925 SWAP3 SWAP2 DUP3 SWAP1 SUB ADD SWAP1 LOG3 POP JUMPDEST PUSH2 0x21C6 DUP7 DUP7 DUP7 PUSH2 0x540F JUMP JUMPDEST POP PUSH1 0x1 SWAP6 SWAP5 POP POP POP POP POP JUMP JUMPDEST PUSH1 0x1C PUSH1 0x20 MSTORE PUSH1 0x0 SWAP1 DUP2 MSTORE PUSH1 0x40 SWAP1 KECCAK256 SLOAD PUSH1 0xFF AND DUP2 JUMP JUMPDEST PUSH1 0x0 GAS PUSH1 0x26 SSTORE POP PUSH1 0x1 PUSH1 0x1 PUSH1 0xA0 SHL SUB AND PUSH1 0x0 SWAP1 DUP2 MSTORE PUSH1 0x1C PUSH1 0x20 MSTORE PUSH1 0x40 SWAP1 KECCAK256 SLOAD PUSH1 0xFF AND SWAP1 JUMP JUMPDEST PUSH1 0x23 SLOAD PUSH1 0x1 PUSH1 0x1 PUSH1 0xA0 SHL SUB AND DUP2 JUMP JUMPDEST PUSH32 0x5FAE9EC55A1E547936E0E74D606B44CD5F912F9ADCD0BBA561FEA62D570259E9 DUP2 JUMP JUMPDEST PUSH1 0x12 DUP2 JUMP JUMPDEST PUSH1 0x9 PUSH1 0x20 SWAP1 DUP2 MSTORE PUSH1 0x0 SWAP3 DUP4 MSTORE PUSH1 0x40 DUP1 DUP5 KECCAK256 SWAP1 SWAP2 MSTORE SWAP1 DUP3 MSTORE SWAP1 KECCAK256 SLOAD DUP2 JUMP JUMPDEST PUSH1 0x0 GAS PUSH1 0x26 SSTORE PUSH1 0x1 PUSH1 0x1 PUSH1 0xA0 SHL SUB DUP6 AND PUSH1 0x0 SWAP1 DUP2 MSTORE PUSH1 0x1C PUSH1 0x20 MSTORE PUSH1 0x40 SWAP1 KECCAK256 SLOAD PUSH1 0xFF AND DUP1 ISZERO PUSH2 0x22C6 JUMPI POP PUSH1 0x1 PUSH1 0x1 PUSH1 0xA0 SHL SUB DUP6 AND PUSH1 0x0 SWAP1 DUP2 MSTORE PUSH1 0xE PUSH1 0x20 SWAP1 DUP2 MSTORE PUSH1 0x40 DUP1 DUP4 KECCAK256 SLOAD PUSH1 0xD DUP4 MSTORE DUP2 DUP5 KECCAK256 ADDRESS DUP6 MSTORE SWAP1 SWAP3 MSTORE SWAP1 SWAP2 KECCAK256 SLOAD DUP6 SWAP2 PUSH2 0x22C3 SWAP2 SWAP1 PUSH2 0x50D7 JUMP JUMPDEST LT ISZERO JUMPDEST DUP1 ISZERO PUSH2 0x22EA JUMPI POP PUSH1 0x1 PUSH1 0x1 PUSH1 0xA0 SHL SUB DUP6 AND PUSH1 0x0 SWAP1 DUP2 MSTORE PUSH1 0x13 PUSH1 0x20 MSTORE PUSH1 0x40 SWAP1 KECCAK256 SLOAD DUP4 GT ISZERO JUMPDEST DUP1 ISZERO PUSH2 0x231A JUMPI POP PUSH1 0x1 PUSH1 0x1 PUSH1 0xA0 SHL SUB DUP6 AND PUSH1 0x0 SWAP1 DUP2 MSTORE PUSH1 0x10 PUSH1 0x20 MSTORE PUSH1 0x40 SWAP1 KECCAK256 SLOAD DUP3 SWAP1 PUSH2 0x2317 SWAP1 TIMESTAMP SWAP1 PUSH2 0x52B0 JUMP JUMPDEST LT ISZERO JUMPDEST SWAP6 SWAP5 POP POP POP POP POP JUMP JUMPDEST PUSH1 0x14 PUSH1 0x20 MSTORE PUSH1 0x0 SWAP1 DUP2 MSTORE PUSH1 0x40 SWAP1 KECCAK256 SLOAD PUSH1 0xFF AND DUP2 JUMP JUMPDEST PUSH2 0x2342 CALLER DUP3 PUSH2 0x519D JUMP JUMPDEST POP JUMP JUMPDEST PUSH1 0x1 PUSH1 0x1 PUSH1 0xA0 SHL SUB DUP3 AND PUSH1 0x0 SWAP1 DUP2 MSTORE PUSH1 0x24 PUSH1 0x20 MSTORE PUSH1 0x40 SWAP1 KECCAK256 SLOAD PUSH1 0xFF AND PUSH2 0x23AD JUMPI PUSH1 0x40 DUP1 MLOAD PUSH3 0x461BCD PUSH1 0xE5 SHL DUP2 MSTORE PUSH1 0x20 PUSH1 0x4 DUP3 ADD MSTORE PUSH1 0x18 PUSH1 0x24 DUP3 ADD MSTORE PUSH24 0x30B2322634B8BAB4B234BA3CAA37A537B11D1010B830B4B9 PUSH1 0x41 SHL PUSH1 0x44 DUP3 ADD MSTORE SWAP1 MLOAD SWAP1 DUP2 SWAP1 SUB PUSH1 0x64 ADD SWAP1 REVERT JUMPDEST PUSH1 0x1 PUSH1 0x1 PUSH1 0xA0 SHL SUB DUP1 DUP5 AND PUSH1 0x0 SWAP1 DUP2 MSTORE PUSH1 0x1A PUSH1 0x20 SWAP1 DUP2 MSTORE PUSH1 0x40 DUP1 DUP4 KECCAK256 DUP7 DUP6 AND DUP5 MSTORE DUP3 MSTORE DUP1 DUP4 KECCAK256 SWAP4 DUP6 AND DUP4 MSTORE SWAP3 SWAP1 MSTORE KECCAK256 SLOAD PUSH2 0x2420 JUMPI PUSH1 0x40 DUP1 MLOAD PUSH3 0x461BCD PUSH1 0xE5 SHL DUP2 MSTORE PUSH1 0x20 PUSH1 0x4 DUP3 ADD MSTORE PUSH1 0xF PUSH1 0x24 DUP3 ADD MSTORE PUSH15 0x18DC99591A5D0E881B9BC8189BDB99 PUSH1 0x8A SHL PUSH1 0x44 DUP3 ADD MSTORE SWAP1 MLOAD SWAP1 DUP2 SWAP1 SUB PUSH1 0x64 ADD SWAP1 REVERT JUMPDEST PUSH1 0x1 PUSH1 0x1 PUSH1 0xA0 SHL SUB DUP1 DUP5 AND PUSH1 0x0 SWAP1 DUP2 MSTORE PUSH1 0x1A PUSH1 0x20 SWAP1 DUP2 MSTORE PUSH1 0x40 DUP1 DUP4 KECCAK256 DUP7 DUP6 AND DUP5 MSTORE DUP3 MSTORE DUP1 DUP4 KECCAK256 SWAP4 DUP6 AND DUP4 MSTORE SWAP3 SWAP1 MSTORE KECCAK256 SLOAD TIMESTAMP GT PUSH2 0x2495 JUMPI PUSH1 0x40 DUP1 MLOAD PUSH3 0x461BCD PUSH1 0xE5 SHL DUP2 MSTORE PUSH1 0x20 PUSH1 0x4 DUP3 ADD MSTORE PUSH1 0xF PUSH1 0x24 DUP3 ADD MSTORE PUSH15 0x6372656469743A20626F6E64696E67 PUSH1 0x88 SHL PUSH1 0x44 DUP3 ADD MSTORE SWAP1 MLOAD SWAP1 DUP2 SWAP1 SUB PUSH1 0x64 ADD SWAP1 REVERT JUMPDEST PUSH1 0x40 DUP1 MLOAD PUSH4 0xCBC3AB53 PUSH1 0xE0 SHL DUP2 MSTORE PUSH1 0x1 PUSH1 0x1 PUSH1 0xA0 SHL SUB DUP5 AND PUSH1 0x4 DUP3 ADD MSTORE ADDRESS PUSH1 0x24 DUP3 ADD MSTORE SWAP1 MLOAD PUSH1 0x0 SWAP2 PUSH20 0x0 SWAP2 PUSH4 0xCBC3AB53 SWAP2 PUSH1 0x44 DUP1 DUP3 ADD SWAP3 PUSH1 0x20 SWAP3 SWAP1 SWAP2 SWAP1 DUP3 SWAP1 SUB ADD DUP2 DUP7 DUP1 EXTCODESIZE ISZERO DUP1 ISZERO PUSH2 0x24F9 JUMPI PUSH1 0x0 DUP1 REVERT JUMPDEST POP GAS DELEGATECALL ISZERO DUP1 ISZERO PUSH2 0x250D JUMPI RETURNDATASIZE PUSH1 0x0 DUP1 RETURNDATACOPY RETURNDATASIZE PUSH1 0x0 REVERT JUMPDEST POP POP POP POP PUSH1 0x40 MLOAD RETURNDATASIZE PUSH1 0x20 DUP2 LT ISZERO PUSH2 0x2523 JUMPI PUSH1 0x0 DUP1 REVERT JUMPDEST POP MLOAD PUSH1 0x40 DUP1 MLOAD PUSH4 0x18160DDD PUSH1 0xE0 SHL DUP2 MSTORE SWAP1 MLOAD SWAP2 SWAP3 POP PUSH1 0x0 SWAP2 PUSH2 0x25D7 SWAP2 PUSH1 0x1 PUSH1 0x1 PUSH1 0xA0 SHL SUB DUP8 AND SWAP2 PUSH4 0x18160DDD SWAP2 PUSH1 0x4 DUP1 DUP3 ADD SWAP3 PUSH1 0x20 SWAP3 SWAP1 SWAP2 SWAP1 DUP3 SWAP1 SUB ADD DUP2 DUP7 DUP1 EXTCODESIZE ISZERO DUP1 ISZERO PUSH2 0x2570 JUMPI PUSH1 0x0 DUP1 REVERT JUMPDEST POP GAS STATICCALL ISZERO DUP1 ISZERO PUSH2 0x2584 JUMPI RETURNDATASIZE PUSH1 0x0 DUP1 RETURNDATACOPY RETURNDATASIZE PUSH1 0x0 REVERT JUMPDEST POP POP POP POP PUSH1 0x40 MLOAD RETURNDATASIZE PUSH1 0x20 DUP2 LT ISZERO PUSH2 0x259A JUMPI PUSH1 0x0 DUP1 REVERT JUMPDEST POP MLOAD PUSH1 0x1 PUSH1 0x1 PUSH1 0xA0 SHL SUB DUP1 DUP9 AND PUSH1 0x0 SWAP1 DUP2 MSTORE PUSH1 0x1B PUSH1 0x20 SWAP1 DUP2 MSTORE PUSH1 0x40 DUP1 DUP4 KECCAK256 DUP11 DUP6 AND DUP5 MSTORE DUP3 MSTORE DUP1 DUP4 KECCAK256 SWAP4 DUP10 AND DUP4 MSTORE SWAP3 SWAP1 MSTORE KECCAK256 SLOAD PUSH2 0x1B0B SWAP1 DUP6 SWAP1 PUSH2 0x511A JUMP JUMPDEST SWAP1 POP PUSH2 0x25E3 ADDRESS DUP3 PUSH2 0x55DE JUMP JUMPDEST PUSH1 0x1 PUSH1 0x1 PUSH1 0xA0 SHL SUB DUP4 AND PUSH1 0x0 SWAP1 DUP2 MSTORE PUSH1 0x15 PUSH1 0x20 SWAP1 DUP2 MSTORE PUSH1 0x40 DUP1 DUP4 KECCAK256 ADDRESS DUP5 MSTORE SWAP1 SWAP2 MSTORE SWAP1 KECCAK256 SLOAD PUSH2 0x2611 SWAP1 DUP3 PUSH2 0x50D7 JUMP JUMPDEST PUSH1 0x1 PUSH1 0x1 PUSH1 0xA0 SHL SUB DUP1 DUP6 AND PUSH1 0x0 DUP2 DUP2 MSTORE PUSH1 0x15 PUSH1 0x20 SWAP1 DUP2 MSTORE PUSH1 0x40 DUP1 DUP4 KECCAK256 ADDRESS DUP5 MSTORE DUP3 MSTORE DUP1 DUP4 KECCAK256 SWAP6 SWAP1 SWAP6 SSTORE DUP10 DUP5 AND DUP1 DUP4 MSTORE PUSH1 0x1B DUP3 MSTORE DUP6 DUP4 KECCAK256 SWAP5 DUP11 AND DUP1 DUP5 MSTORE SWAP5 DUP3 MSTORE DUP6 DUP4 KECCAK256 DUP5 DUP5 MSTORE DUP3 MSTORE DUP6 DUP4 KECCAK256 SWAP3 SWAP1 SWAP3 SSTORE DUP5 MLOAD NUMBER DUP2 MSTORE SWAP1 DUP2 ADD DUP7 SWAP1 MSTORE DUP5 MLOAD SWAP2 SWAP5 PUSH32 0xA90666688FB32254F45A367C38FBCD5F2664432B061A4354D9D3C9A7ABCBEC5B SWAP3 SWAP2 DUP3 SWAP1 SUB ADD SWAP1 LOG4 POP POP POP POP POP JUMP JUMPDEST PUSH1 0xF SLOAD DUP2 JUMP JUMPDEST CALLER PUSH1 0x0 SWAP1 DUP2 MSTORE PUSH1 0x14 PUSH1 0x20 MSTORE PUSH1 0x40 SWAP1 KECCAK256 SLOAD PUSH1 0xFF AND PUSH2 0x26FB JUMPI PUSH1 0x40 DUP1 MLOAD PUSH3 0x461BCD PUSH1 0xE5 SHL DUP2 MSTORE PUSH1 0x20 PUSH1 0x4 DUP3 ADD MSTORE PUSH1 0x11 PUSH1 0x24 DUP3 ADD MSTORE PUSH17 0x3BB7B935A932B1B2B4B83A1D1010B537B1 PUSH1 0x79 SHL PUSH1 0x44 DUP3 ADD MSTORE SWAP1 MLOAD SWAP1 DUP2 SWAP1 SUB PUSH1 0x64 ADD SWAP1 REVERT JUMPDEST PUSH1 0x1 SLOAD PUSH1 0x1 PUSH1 0x1 PUSH1 0xA0 SHL SUB AND PUSH4 0x525EA631 PUSH2 0x2719 GAS PUSH1 0x26 SLOAD SWAP1 PUSH2 0x52B0 JUMP JUMPDEST PUSH1 0x40 MLOAD DUP3 PUSH4 0xFFFFFFFF AND PUSH1 0xE0 SHL DUP2 MSTORE PUSH1 0x4 ADD DUP1 DUP3 DUP2 MSTORE PUSH1 0x20 ADD SWAP2 POP POP PUSH1 0x20 PUSH1 0x40 MLOAD DUP1 DUP4 SUB DUP2 DUP7 DUP1 EXTCODESIZE ISZERO DUP1 ISZERO PUSH2 0x274D JUMPI PUSH1 0x0 DUP1 REVERT JUMPDEST POP GAS STATICCALL ISZERO DUP1 ISZERO PUSH2 0x2761 JUMPI RETURNDATASIZE PUSH1 0x0 DUP1 RETURNDATACOPY RETURNDATASIZE PUSH1 0x0 REVERT JUMPDEST POP POP POP POP PUSH1 0x40 MLOAD RETURNDATASIZE PUSH1 0x20 DUP2 LT ISZERO PUSH2 0x2777 JUMPI PUSH1 0x0 DUP1 REVERT JUMPDEST POP MLOAD DUP2 GT ISZERO PUSH2 0x27C6 JUMPI PUSH1 0x40 DUP1 MLOAD PUSH3 0x461BCD PUSH1 0xE5 SHL DUP2 MSTORE PUSH1 0x20 PUSH1 0x4 DUP3 ADD MSTORE PUSH1 0x16 PUSH1 0x24 DUP3 ADD MSTORE PUSH22 0x1DDBDC9AD49958D95A5C1D0E881B585E081B1A5B5A5D PUSH1 0x52 SHL PUSH1 0x44 DUP3 ADD MSTORE SWAP1 MLOAD SWAP1 DUP2 SWAP1 SUB PUSH1 0x64 ADD SWAP1 REVERT JUMPDEST PUSH1 0x40 DUP1 MLOAD DUP1 DUP3 ADD DUP3 MSTORE PUSH1 0x1D DUP2 MSTORE PUSH32 0x776F726B526563656970743A20696E7375666669656E742066756E6473000000 PUSH1 0x20 DUP1 DUP4 ADD SWAP2 SWAP1 SWAP2 MSTORE CALLER PUSH1 0x0 SWAP1 DUP2 MSTORE PUSH1 0x15 DUP3 MSTORE DUP4 DUP2 KECCAK256 ADDRESS DUP3 MSTORE SWAP1 SWAP2 MSTORE SWAP2 SWAP1 SWAP2 KECCAK256 SLOAD PUSH2 0x2820 SWAP2 DUP4 SWAP1 PUSH2 0x5378 JUMP JUMPDEST CALLER PUSH1 0x0 SWAP1 DUP2 MSTORE PUSH1 0x15 PUSH1 0x20 SWAP1 DUP2 MSTORE PUSH1 0x40 DUP1 DUP4 KECCAK256 ADDRESS DUP1 DUP6 MSTORE SWAP1 DUP4 MSTORE DUP2 DUP5 KECCAK256 SWAP5 SWAP1 SWAP5 SSTORE PUSH1 0x1 PUSH1 0x1 PUSH1 0xA0 SHL SUB DUP7 AND DUP4 MSTORE PUSH1 0x12 SWAP1 SWAP2 MSTORE SWAP1 KECCAK256 TIMESTAMP SWAP1 SSTORE PUSH2 0x2861 SWAP1 DUP4 DUP4 PUSH2 0x52DB JUMP JUMPDEST PUSH1 0x1 PUSH1 0x1 PUSH1 0xA0 SHL SUB DUP3 AND PUSH1 0x0 SWAP1 DUP2 MSTORE PUSH1 0x13 PUSH1 0x20 MSTORE PUSH1 0x40 SWAP1 KECCAK256 SLOAD PUSH2 0x2884 SWAP1 DUP3 PUSH2 0x50D7 JUMP JUMPDEST PUSH1 0x1 PUSH1 0x1 PUSH1 0xA0 SHL SUB DUP4 AND PUSH1 0x0 DUP2 DUP2 MSTORE PUSH1 0x13 PUSH1 0x20 SWAP1 DUP2 MSTORE PUSH1 0x40 SWAP2 DUP3 SWAP1 KECCAK256 SWAP4 SWAP1 SWAP4 SSTORE DUP1 MLOAD NUMBER DUP2 MSTORE SWAP1 MLOAD SWAP2 SWAP3 CALLER SWAP3 ADDRESS SWAP3 PUSH32 0xB1C0F4C56DD743039F597F2080E633454ACC4867E980BF9263582A868DD9D0A4 SWAP3 SWAP1 DUP3 SWAP1 SUB ADD SWAP1 LOG4 POP POP JUMP JUMPDEST PUSH1 0x2 PUSH1 0x0 SLOAD EQ ISZERO PUSH2 0x2924 JUMPI PUSH1 0x40 DUP1 MLOAD PUSH3 0x461BCD PUSH1 0xE5 SHL DUP2 MSTORE PUSH1 0x20 PUSH1 0x4 DUP3 ADD MSTORE PUSH1 0x1F PUSH1 0x24 DUP3 ADD MSTORE PUSH1 0x0 DUP1 MLOAD PUSH1 0x20 PUSH2 0x5F2E DUP4 CODECOPY DUP2 MLOAD SWAP2 MSTORE PUSH1 0x44 DUP3 ADD MSTORE SWAP1 MLOAD SWAP1 DUP2 SWAP1 SUB PUSH1 0x64 ADD SWAP1 REVERT JUMPDEST PUSH1 0x2 PUSH1 0x0 SWAP1 DUP2 SSTORE CALLER DUP2 MSTORE PUSH1 0xA PUSH1 0x20 SWAP1 DUP2 MSTORE PUSH1 0x40 DUP1 DUP4 KECCAK256 PUSH1 0x1 PUSH1 0x1 PUSH1 0xA0 SHL SUB DUP6 AND DUP5 MSTORE SWAP1 SWAP2 MSTORE SWAP1 KECCAK256 SLOAD ISZERO DUP1 ISZERO SWAP1 PUSH2 0x297C JUMPI POP CALLER PUSH1 0x0 SWAP1 DUP2 MSTORE PUSH1 0xA PUSH1 0x20 SWAP1 DUP2 MSTORE PUSH1 0x40 DUP1 DUP4 KECCAK256 PUSH1 0x1 PUSH1 0x1 PUSH1 0xA0 SHL SUB DUP6 AND DUP5 MSTORE SWAP1 SWAP2 MSTORE SWAP1 KECCAK256 SLOAD TIMESTAMP GT JUMPDEST PUSH2 0x29C3 JUMPI PUSH1 0x40 DUP1 MLOAD PUSH3 0x461BCD PUSH1 0xE5 SHL DUP2 MSTORE PUSH1 0x20 PUSH1 0x4 DUP3 ADD MSTORE PUSH1 0x13 PUSH1 0x24 DUP3 ADD MSTORE PUSH19 0x77697468647261773A20756E626F6E64696E67 PUSH1 0x68 SHL PUSH1 0x44 DUP3 ADD MSTORE SWAP1 MLOAD SWAP1 DUP2 SWAP1 SUB PUSH1 0x64 ADD SWAP1 REVERT JUMPDEST CALLER PUSH1 0x0 SWAP1 DUP2 MSTORE PUSH1 0x11 PUSH1 0x20 MSTORE PUSH1 0x40 SWAP1 KECCAK256 SLOAD PUSH1 0xFF AND ISZERO PUSH2 0x2A1D JUMPI PUSH1 0x40 DUP1 MLOAD PUSH3 0x461BCD PUSH1 0xE5 SHL DUP2 MSTORE PUSH1 0x20 PUSH1 0x4 DUP3 ADD MSTORE PUSH1 0x12 PUSH1 0x24 DUP3 ADD MSTORE PUSH18 0x77697468647261773A206469737075746573 PUSH1 0x70 SHL PUSH1 0x44 DUP3 ADD MSTORE SWAP1 MLOAD SWAP1 DUP2 SWAP1 SUB PUSH1 0x64 ADD SWAP1 REVERT JUMPDEST PUSH1 0x1 PUSH1 0x1 PUSH1 0xA0 SHL SUB DUP2 AND ADDRESS EQ ISZERO PUSH2 0x2A62 JUMPI CALLER PUSH1 0x0 DUP2 DUP2 MSTORE PUSH1 0xB PUSH1 0x20 SWAP1 DUP2 MSTORE PUSH1 0x40 DUP1 DUP4 KECCAK256 PUSH1 0x1 PUSH1 0x1 PUSH1 0xA0 SHL SUB DUP7 AND DUP5 MSTORE SWAP1 SWAP2 MSTORE SWAP1 KECCAK256 SLOAD PUSH2 0x2A5D SWAP2 ADDRESS SWAP2 PUSH2 0x540F JUMP JUMPDEST PUSH2 0x2A91 JUMP JUMPDEST CALLER PUSH1 0x0 DUP2 DUP2 MSTORE PUSH1 0xB PUSH1 0x20 SWAP1 DUP2 MSTORE PUSH1 0x40 DUP1 DUP4 KECCAK256 PUSH1 0x1 PUSH1 0x1 PUSH1 0xA0 SHL SUB DUP7 AND DUP1 DUP6 MSTORE SWAP3 MSTORE SWAP1 SWAP2 KECCAK256 SLOAD PUSH2 0x2A91 SWAP3 SWAP1 PUSH2 0x5708 JUMP JUMPDEST CALLER PUSH1 0x0 DUP2 DUP2 MSTORE PUSH1 0xB PUSH1 0x20 SWAP1 DUP2 MSTORE PUSH1 0x40 DUP1 DUP4 KECCAK256 PUSH1 0x1 PUSH1 0x1 PUSH1 0xA0 SHL SUB DUP7 AND DUP5 MSTORE DUP3 MSTORE SWAP2 DUP3 SWAP1 KECCAK256 SLOAD DUP3 MLOAD NUMBER DUP2 MSTORE TIMESTAMP SWAP3 DUP2 ADD SWAP3 SWAP1 SWAP3 MSTORE DUP2 DUP4 ADD MSTORE SWAP1 MLOAD PUSH32 0xBAC746A470313079568CD81C87546028484B062A3909ACD207DFB77BDB8554E5 SWAP2 DUP2 SWAP1 SUB PUSH1 0x60 ADD SWAP1 LOG2 CALLER PUSH1 0x0 SWAP1 DUP2 MSTORE PUSH1 0xB PUSH1 0x20 SWAP1 DUP2 MSTORE PUSH1 0x40 DUP1 DUP4 KECCAK256 PUSH1 0x1 PUSH1 0x1 PUSH1 0xA0 SHL SUB SWAP5 SWAP1 SWAP5 AND DUP4 MSTORE SWAP3 SWAP1 MSTORE SWAP1 DUP2 KECCAK256 DUP2 SWAP1 SSTORE PUSH1 0x1 SWAP1 SSTORE JUMP JUMPDEST PUSH1 0x2 PUSH1 0x0 SLOAD EQ ISZERO PUSH2 0x2B68 JUMPI PUSH1 0x40 DUP1 MLOAD PUSH3 0x461BCD PUSH1 0xE5 SHL DUP2 MSTORE PUSH1 0x20 PUSH1 0x4 DUP3 ADD MSTORE PUSH1 0x1F PUSH1 0x24 DUP3 ADD MSTORE PUSH1 0x0 DUP1 MLOAD PUSH1 0x20 PUSH2 0x5F2E DUP4 CODECOPY DUP2 MLOAD SWAP2 MSTORE PUSH1 0x44 DUP3 ADD MSTORE SWAP1 MLOAD SWAP1 DUP2 SWAP1 SUB PUSH1 0x64 ADD SWAP1 REVERT JUMPDEST PUSH1 0x2 PUSH1 0x0 SWAP1 DUP2 SSTORE PUSH1 0x1 PUSH1 0x1 PUSH1 0xA0 SHL SUB DUP5 AND DUP2 MSTORE PUSH1 0x24 PUSH1 0x20 MSTORE PUSH1 0x40 SWAP1 KECCAK256 SLOAD PUSH1 0xFF AND PUSH2 0x2BD4 JUMPI PUSH1 0x40 DUP1 MLOAD PUSH3 0x461BCD PUSH1 0xE5 SHL DUP2 MSTORE PUSH1 0x20 PUSH1 0x4 DUP3 ADD MSTORE PUSH1 0x18 PUSH1 0x24 DUP3 ADD MSTORE PUSH24 0x30B2322634B8BAB4B234BA3CAA37A537B11D1010B830B4B9 PUSH1 0x41 SHL PUSH1 0x44 DUP3 ADD MSTORE SWAP1 MLOAD SWAP1 DUP2 SWAP1 SUB PUSH1 0x64 ADD SWAP1 REVERT JUMPDEST PUSH2 0x2BE9 PUSH1 0x1 PUSH1 0x1 PUSH1 0xA0 SHL SUB DUP5 AND CALLER ADDRESS DUP5 PUSH2 0x575A JUMP JUMPDEST CALLER PUSH1 0x0 SWAP1 DUP2 MSTORE PUSH1 0x16 PUSH1 0x20 SWAP1 DUP2 MSTORE PUSH1 0x40 DUP1 DUP4 KECCAK256 PUSH1 0x1 PUSH1 0x1 PUSH1 0xA0 SHL SUB DUP8 DUP2 AND DUP6 MSTORE SWAP1 DUP4 MSTORE DUP2 DUP5 KECCAK256 SWAP1 DUP7 AND DUP5 MSTORE SWAP1 SWAP2 MSTORE SWAP1 KECCAK256 SLOAD PUSH2 0x2C23 SWAP1 DUP3 PUSH2 0x50D7 JUMP JUMPDEST CALLER PUSH1 0x0 SWAP1 DUP2 MSTORE PUSH1 0x16 PUSH1 0x20 SWAP1 DUP2 MSTORE PUSH1 0x40 DUP1 DUP4 KECCAK256 PUSH1 0x1 PUSH1 0x1 PUSH1 0xA0 SHL SUB DUP9 DUP2 AND DUP6 MSTORE SWAP1 DUP4 MSTORE DUP2 DUP5 KECCAK256 SWAP1 DUP8 AND DUP5 MSTORE SWAP1 SWAP2 MSTORE SWAP1 KECCAK256 SSTORE PUSH2 0x2C60 TIMESTAMP PUSH3 0x3F480 PUSH2 0x50D7 JUMP JUMPDEST CALLER PUSH1 0x0 DUP2 DUP2 MSTORE PUSH1 0x1A PUSH1 0x20 SWAP1 DUP2 MSTORE PUSH1 0x40 DUP1 DUP4 KECCAK256 PUSH1 0x1 PUSH1 0x1 PUSH1 0xA0 SHL SUB DUP10 DUP2 AND DUP1 DUP7 MSTORE SWAP2 DUP5 MSTORE DUP3 DUP6 KECCAK256 SWAP1 DUP10 AND DUP1 DUP7 MSTORE SWAP1 DUP5 MSTORE DUP3 DUP6 KECCAK256 SWAP7 SWAP1 SWAP7 SSTORE SWAP4 DUP4 MSTORE PUSH1 0x1B DUP3 MSTORE DUP1 DUP4 KECCAK256 SWAP4 DUP4 MSTORE SWAP3 DUP2 MSTORE DUP3 DUP3 KECCAK256 SWAP4 DUP3 MSTORE SWAP3 SWAP1 SWAP3 MSTORE SWAP1 KECCAK256 SLOAD PUSH2 0x2CBD SWAP1 DUP3 PUSH2 0x50D7 JUMP JUMPDEST CALLER PUSH1 0x0 SWAP1 DUP2 MSTORE PUSH1 0x1B PUSH1 0x20 SWAP1 DUP2 MSTORE PUSH1 0x40 DUP1 DUP4 KECCAK256 PUSH1 0x1 PUSH1 0x1 PUSH1 0xA0 SHL SUB DUP9 DUP2 AND DUP6 MSTORE SWAP1 DUP4 MSTORE DUP2 DUP5 KECCAK256 SWAP1 DUP8 AND DUP5 MSTORE DUP3 MSTORE DUP1 DUP4 KECCAK256 SWAP4 SWAP1 SWAP4 SSTORE PUSH1 0x14 SWAP1 MSTORE KECCAK256 SLOAD PUSH1 0xFF AND ISZERO DUP1 ISZERO PUSH2 0x2D1D JUMPI POP PUSH1 0x1 PUSH1 0x1 PUSH1 0xA0 SHL SUB DUP3 AND PUSH1 0x0 SWAP1 DUP2 MSTORE PUSH1 0x19 PUSH1 0x20 MSTORE PUSH1 0x40 SWAP1 KECCAK256 SLOAD TIMESTAMP GT JUMPDEST ISZERO PUSH2 0x2DB8 JUMPI PUSH1 0x20 SLOAD PUSH1 0x40 DUP1 MLOAD PUSH4 0xDC380CBB PUSH1 0xE0 SHL DUP2 MSTORE PUSH1 0x1 PUSH1 0x1 PUSH1 0xA0 SHL SUB DUP6 DUP2 AND PUSH1 0x4 DUP4 ADD MSTORE SWAP2 MLOAD SWAP2 SWAP1 SWAP3 AND SWAP2 PUSH4 0xDC380CBB SWAP2 PUSH1 0x24 DUP1 DUP4 ADD SWAP3 PUSH1 0x0 SWAP3 SWAP2 SWAP1 DUP3 SWAP1 SUB ADD DUP2 DUP4 DUP8 DUP1 EXTCODESIZE ISZERO DUP1 ISZERO PUSH2 0x2D70 JUMPI PUSH1 0x0 DUP1 REVERT JUMPDEST POP GAS CALL ISZERO DUP1 ISZERO PUSH2 0x2D84 JUMPI RETURNDATASIZE PUSH1 0x0 DUP1 RETURNDATACOPY RETURNDATASIZE PUSH1 0x0 REVERT JUMPDEST POP POP POP POP PUSH2 0x2D9E PUSH3 0x127500 TIMESTAMP PUSH2 0x50D7 SWAP1 SWAP2 SWAP1 PUSH4 0xFFFFFFFF AND JUMP JUMPDEST PUSH1 0x1 PUSH1 0x1 PUSH1 0xA0 SHL SUB DUP4 AND PUSH1 0x0 SWAP1 DUP2 MSTORE PUSH1 0x19 PUSH1 0x20 MSTORE PUSH1 0x40 SWAP1 KECCAK256 SSTORE JUMPDEST CALLER PUSH1 0x1 PUSH1 0x1 PUSH1 0xA0 SHL SUB AND DUP4 PUSH1 0x1 PUSH1 0x1 PUSH1 0xA0 SHL SUB AND DUP4 PUSH1 0x1 PUSH1 0x1 PUSH1 0xA0 SHL SUB AND PUSH32 0xE1CB44A16ADBD63A44F65C279B23B8F447B2C6E120A2BC7F004758B446E05ED1 NUMBER DUP6 PUSH1 0x40 MLOAD DUP1 DUP4 DUP2 MSTORE PUSH1 0x20 ADD DUP3 DUP2 MSTORE PUSH1 0x20 ADD SWAP3 POP POP POP PUSH1 0x40 MLOAD DUP1 SWAP2 SUB SWAP1 LOG4 POP POP PUSH1 0x1 PUSH1 0x0 SSTORE POP JUMP JUMPDEST PUSH1 0x20 SLOAD PUSH1 0x1 PUSH1 0x1 PUSH1 0xA0 SHL SUB AND CALLER EQ PUSH2 0x2E6E JUMPI PUSH1 0x40 DUP1 MLOAD PUSH3 0x461BCD PUSH1 0xE5 SHL DUP2 MSTORE PUSH1 0x20 PUSH1 0x4 DUP3 ADD MSTORE PUSH1 0xD PUSH1 0x24 DUP3 ADD MSTORE PUSH13 0x3932B9B7B63B329D1010B3B7BB PUSH1 0x99 SHL PUSH1 0x44 DUP3 ADD MSTORE SWAP1 MLOAD SWAP1 DUP2 SWAP1 SUB PUSH1 0x64 ADD SWAP1 REVERT JUMPDEST PUSH1 0x1 PUSH1 0x1 PUSH1 0xA0 SHL SUB DUP2 AND PUSH1 0x0 DUP2 DUP2 MSTORE PUSH1 0x11 PUSH1 0x20 SWAP1 DUP2 MSTORE PUSH1 0x40 SWAP2 DUP3 SWAP1 KECCAK256 DUP1 SLOAD PUSH1 0xFF NOT AND SWAP1 SSTORE DUP2 MLOAD NUMBER DUP2 MSTORE SWAP2 MLOAD PUSH32 0x114EFCB1A361E7489558EF294179353C3675C1ED09D34F33DEB032E82041C52D SWAP3 DUP2 SWAP1 SUB SWAP1 SWAP2 ADD SWAP1 LOG2 POP JUMP JUMPDEST PUSH1 0x3 PUSH1 0x20 MSTORE PUSH1 0x0 SWAP1 DUP2 MSTORE PUSH1 0x40 SWAP1 KECCAK256 SLOAD PUSH1 0x1 PUSH1 0x1 PUSH1 0xA0 SHL SUB AND DUP2 JUMP JUMPDEST PUSH1 0x20 SLOAD PUSH1 0x1 PUSH1 0x1 PUSH1 0xA0 SHL SUB AND DUP2 JUMP JUMPDEST PUSH2 0x2342 CALLER DUP3 PUSH2 0x57BA JUMP JUMPDEST PUSH1 0x1 SLOAD PUSH2 0x2342 SWAP1 DUP3 SWAP1 PUSH1 0x1 PUSH1 0x1 PUSH1 0xA0 SHL SUB AND PUSH4 0x525EA631 PUSH2 0x2F1E GAS PUSH1 0x26 SLOAD SWAP1 PUSH2 0x52B0 JUMP JUMPDEST PUSH1 0x40 MLOAD DUP3 PUSH4 0xFFFFFFFF AND PUSH1 0xE0 SHL DUP2 MSTORE PUSH1 0x4 ADD DUP1 DUP3 DUP2 MSTORE PUSH1 0x20 ADD SWAP2 POP POP PUSH1 0x20 PUSH1 0x40 MLOAD DUP1 DUP4 SUB DUP2 DUP7 DUP1 EXTCODESIZE ISZERO DUP1 ISZERO PUSH2 0x2F52 JUMPI PUSH1 0x0 DUP1 REVERT JUMPDEST POP GAS STATICCALL ISZERO DUP1 ISZERO PUSH2 0x2F66 JUMPI RETURNDATASIZE PUSH1 0x0 DUP1 RETURNDATACOPY RETURNDATASIZE PUSH1 0x0 REVERT JUMPDEST POP POP POP POP PUSH1 0x40 MLOAD RETURNDATASIZE PUSH1 0x20 DUP2 LT ISZERO PUSH2 0x2F7C JUMPI PUSH1 0x0 DUP1 REVERT JUMPDEST POP MLOAD PUSH2 0x26A3 JUMP JUMPDEST PUSH3 0x127500 DUP2 JUMP JUMPDEST CALLER PUSH1 0x0 SWAP1 DUP2 MSTORE PUSH1 0x17 PUSH1 0x20 SWAP1 DUP2 MSTORE PUSH1 0x40 DUP1 DUP4 KECCAK256 PUSH1 0x1 PUSH1 0x1 PUSH1 0xA0 SHL SUB DUP7 DUP2 AND DUP6 MSTORE SWAP1 DUP4 MSTORE DUP2 DUP5 KECCAK256 SWAP1 DUP6 AND DUP5 MSTORE SWAP1 SWAP2 MSTORE SWAP1 KECCAK256 SLOAD PUSH2 0x2FFF JUMPI PUSH1 0x40 DUP1 MLOAD PUSH3 0x461BCD PUSH1 0xE5 SHL DUP2 MSTORE PUSH1 0x20 PUSH1 0x4 DUP3 ADD MSTORE PUSH1 0x11 PUSH1 0x24 DUP3 ADD MSTORE PUSH17 0x1C995B5BDD99529BD88E881D5B989BDB99 PUSH1 0x7A SHL PUSH1 0x44 DUP3 ADD MSTORE SWAP1 MLOAD SWAP1 DUP2 SWAP1 SUB PUSH1 0x64 ADD SWAP1 REVERT JUMPDEST CALLER PUSH1 0x0 SWAP1 DUP2 MSTORE PUSH1 0x17 PUSH1 0x20 SWAP1 DUP2 MSTORE PUSH1 0x40 DUP1 DUP4 KECCAK256 PUSH1 0x1 PUSH1 0x1 PUSH1 0xA0 SHL SUB DUP7 DUP2 AND DUP6 MSTORE SWAP1 DUP4 MSTORE DUP2 DUP5 KECCAK256 SWAP1 DUP6 AND DUP5 MSTORE SWAP1 SWAP2 MSTORE SWAP1 KECCAK256 SLOAD TIMESTAMP GT PUSH2 0x3079 JUMPI PUSH1 0x40 DUP1 MLOAD PUSH3 0x461BCD PUSH1 0xE5 SHL DUP2 MSTORE PUSH1 0x20 PUSH1 0x4 DUP3 ADD MSTORE PUSH1 0x14 PUSH1 0x24 DUP3 ADD MSTORE PUSH20 0x72656D6F76654A6F623A20756E626F6E64696E67 PUSH1 0x60 SHL PUSH1 0x44 DUP3 ADD MSTORE SWAP1 MLOAD SWAP1 DUP2 SWAP1 SUB PUSH1 0x64 ADD SWAP1 REVERT JUMPDEST CALLER PUSH1 0x0 DUP2 DUP2 MSTORE PUSH1 0x18 PUSH1 0x20 SWAP1 DUP2 MSTORE PUSH1 0x40 DUP1 DUP4 KECCAK256 PUSH1 0x1 PUSH1 0x1 PUSH1 0xA0 SHL SUB DUP8 DUP2 AND DUP1 DUP7 MSTORE SWAP2 DUP5 MSTORE DUP3 DUP6 KECCAK256 SWAP1 DUP8 AND DUP1 DUP7 MSTORE SWAP1 DUP5 MSTORE DUP3 DUP6 KECCAK256 SLOAD SWAP6 DUP6 MSTORE PUSH1 0x16 DUP5 MSTORE DUP3 DUP6 KECCAK256 SWAP2 DUP6 MSTORE SWAP1 DUP4 MSTORE DUP2 DUP5 KECCAK256 SWAP1 DUP5 MSTORE SWAP1 SWAP2 MSTORE SWAP1 KECCAK256 SLOAD PUSH2 0x30D2 SWAP1 DUP3 PUSH2 0x52B0 JUMP JUMPDEST CALLER PUSH1 0x0 DUP2 DUP2 MSTORE PUSH1 0x16 PUSH1 0x20 SWAP1 DUP2 MSTORE PUSH1 0x40 DUP1 DUP4 KECCAK256 PUSH1 0x1 PUSH1 0x1 PUSH1 0xA0 SHL SUB DUP10 DUP2 AND DUP1 DUP7 MSTORE SWAP2 DUP5 MSTORE DUP3 DUP6 KECCAK256 SWAP1 DUP10 AND DUP1 DUP7 MSTORE SWAP1 DUP5 MSTORE DUP3 DUP6 KECCAK256 SWAP7 SWAP1 SWAP7 SSTORE DUP5 DUP5 MSTORE PUSH1 0x18 DUP4 MSTORE DUP2 DUP5 KECCAK256 DUP2 DUP6 MSTORE DUP4 MSTORE DUP2 DUP5 KECCAK256 SWAP6 DUP5 MSTORE SWAP5 SWAP1 SWAP2 MSTORE DUP2 KECCAK256 SSTORE PUSH2 0x312F SWAP2 SWAP1 DUP4 PUSH2 0x5708 JUMP JUMPDEST CALLER PUSH1 0x1 PUSH1 0x1 PUSH1 0xA0 SHL SUB AND DUP4 PUSH1 0x1 PUSH1 0x1 PUSH1 0xA0 SHL SUB AND DUP4 PUSH1 0x1 PUSH1 0x1 PUSH1 0xA0 SHL SUB AND PUSH32 0xB69FC9F6D19ED402461251491F86C736BFCBE966E9584D3FB8A0057B313B6920 NUMBER DUP6 PUSH1 0x40 MLOAD DUP1 DUP4 DUP2 MSTORE PUSH1 0x20 ADD DUP3 DUP2 MSTORE PUSH1 0x20 ADD SWAP3 POP POP POP PUSH1 0x40 MLOAD DUP1 SWAP2 SUB SWAP1 LOG4 POP POP POP JUMP JUMPDEST PUSH1 0x22 SLOAD PUSH1 0x1 PUSH1 0x1 PUSH1 0xA0 SHL SUB AND DUP2 JUMP JUMPDEST PUSH1 0x15 PUSH1 0x20 SWAP1 DUP2 MSTORE PUSH1 0x0 SWAP3 DUP4 MSTORE PUSH1 0x40 DUP1 DUP5 KECCAK256 SWAP1 SWAP2 MSTORE SWAP1 DUP3 MSTORE SWAP1 KECCAK256 SLOAD DUP2 JUMP JUMPDEST PUSH1 0x20 SLOAD PUSH1 0x1 PUSH1 0x1 PUSH1 0xA0 SHL SUB AND CALLER EQ PUSH2 0x3214 JUMPI PUSH1 0x40 DUP1 MLOAD PUSH3 0x461BCD PUSH1 0xE5 SHL DUP2 MSTORE PUSH1 0x20 PUSH1 0x4 DUP3 ADD MSTORE PUSH1 0x15 PUSH1 0x24 DUP3 ADD MSTORE PUSH21 0x3932BB37B5B2A634B8BAB4B234BA3C9D1010B3B7BB PUSH1 0x59 SHL PUSH1 0x44 DUP3 ADD MSTORE SWAP1 MLOAD SWAP1 DUP2 SWAP1 SUB PUSH1 0x64 ADD SWAP1 REVERT JUMPDEST PUSH1 0x1 PUSH1 0x1 PUSH1 0xA0 SHL SUB AND PUSH1 0x0 SWAP1 DUP2 MSTORE PUSH1 0x24 PUSH1 0x20 MSTORE PUSH1 0x40 SWAP1 KECCAK256 DUP1 SLOAD PUSH1 0xFF NOT AND SWAP1 SSTORE JUMP JUMPDEST PUSH1 0xB PUSH1 0x20 SWAP1 DUP2 MSTORE PUSH1 0x0 SWAP3 DUP4 MSTORE PUSH1 0x40 DUP1 DUP5 KECCAK256 SWAP1 SWAP2 MSTORE SWAP1 DUP3 MSTORE SWAP1 KECCAK256 SLOAD DUP2 JUMP JUMPDEST PUSH1 0x60 PUSH1 0x1F DUP1 SLOAD DUP1 PUSH1 0x20 MUL PUSH1 0x20 ADD PUSH1 0x40 MLOAD SWAP1 DUP2 ADD PUSH1 0x40 MSTORE DUP1 SWAP3 SWAP2 SWAP1 DUP2 DUP2 MSTORE PUSH1 0x20 ADD DUP3 DUP1 SLOAD DUP1 ISZERO PUSH2 0x32AA JUMPI PUSH1 0x20 MUL DUP3 ADD SWAP2 SWAP1 PUSH1 0x0 MSTORE PUSH1 0x20 PUSH1 0x0 KECCAK256 SWAP1 JUMPDEST DUP2 SLOAD PUSH1 0x1 PUSH1 0x1 PUSH1 0xA0 SHL SUB AND DUP2 MSTORE PUSH1 0x1 SWAP1 SWAP2 ADD SWAP1 PUSH1 0x20 ADD DUP1 DUP4 GT PUSH2 0x328C JUMPI JUMPDEST POP POP POP POP POP SWAP1 POP SWAP1 JUMP JUMPDEST PUSH1 0x1 PUSH1 0x1 PUSH1 0xA0 SHL SUB DUP2 AND PUSH1 0x0 SWAP1 DUP2 MSTORE PUSH1 0x14 PUSH1 0x20 MSTORE PUSH1 0x40 SWAP1 KECCAK256 SLOAD PUSH1 0xFF AND PUSH2 0x3316 JUMPI PUSH1 0x40 DUP1 MLOAD PUSH3 0x461BCD PUSH1 0xE5 SHL DUP2 MSTORE PUSH1 0x20 PUSH1 0x4 DUP3 ADD MSTORE PUSH1 0x12 PUSH1 0x24 DUP3 ADD MSTORE PUSH18 0x30B23221B932B234BA22AA241D1010B537B1 PUSH1 0x71 SHL PUSH1 0x44 DUP3 ADD MSTORE SWAP1 MLOAD SWAP1 DUP2 SWAP1 SUB PUSH1 0x64 ADD SWAP1 REVERT JUMPDEST PUSH1 0x0 PUSH2 0x3329 PUSH2 0x2710 PUSH2 0x1B0B CALLVALUE PUSH1 0x1E PUSH2 0x511A JUMP JUMPDEST SWAP1 POP PUSH2 0x3363 PUSH2 0x3338 CALLVALUE DUP4 PUSH2 0x52B0 JUMP JUMPDEST PUSH1 0x1 PUSH1 0x1 PUSH1 0xA0 SHL SUB DUP5 AND PUSH1 0x0 SWAP1 DUP2 MSTORE PUSH1 0x15 PUSH1 0x20 SWAP1 DUP2 MSTORE PUSH1 0x40 DUP1 DUP4 KECCAK256 PUSH1 0xE DUP5 MSTORE SWAP1 SWAP2 MSTORE SWAP1 KECCAK256 SLOAD SWAP1 PUSH2 0x50D7 JUMP JUMPDEST PUSH1 0x1 PUSH1 0x1 PUSH1 0xA0 SHL SUB DUP1 DUP5 AND PUSH1 0x0 SWAP1 DUP2 MSTORE PUSH1 0x15 PUSH1 0x20 SWAP1 DUP2 MSTORE PUSH1 0x40 DUP1 DUP4 KECCAK256 PUSH1 0xE DUP5 MSTORE DUP3 MSTORE DUP1 DUP4 KECCAK256 SWAP5 SWAP1 SWAP5 SSTORE SLOAD SWAP3 MLOAD SWAP3 SWAP1 SWAP2 AND SWAP2 DUP4 ISZERO PUSH2 0x8FC MUL SWAP2 DUP5 SWAP2 SWAP1 DUP2 DUP2 DUP2 DUP6 DUP9 DUP9 CALL SWAP4 POP POP POP POP ISZERO DUP1 ISZERO PUSH2 0x33BB JUMPI RETURNDATASIZE PUSH1 0x0 DUP1 RETURNDATACOPY RETURNDATASIZE PUSH1 0x0 REVERT JUMPDEST POP PUSH1 0x40 DUP1 MLOAD NUMBER DUP2 MSTORE CALLVALUE PUSH1 0x20 DUP3 ADD MSTORE DUP2 MLOAD CALLER SWAP3 PUSH1 0x1 PUSH1 0x1 PUSH1 0xA0 SHL SUB DUP7 AND SWAP3 PUSH1 0xE SWAP3 PUSH32 0xB97975EA9BF5AE2173B9EA765214622396032ABA11CD5CC1450C760AC80D059A SWAP3 SWAP2 DUP2 SWAP1 SUB SWAP1 SWAP2 ADD SWAP1 LOG4 POP POP JUMP JUMPDEST PUSH1 0x5 PUSH1 0x20 MSTORE PUSH1 0x0 SWAP1 DUP2 MSTORE PUSH1 0x40 SWAP1 KECCAK256 SLOAD PUSH4 0xFFFFFFFF AND DUP2 JUMP JUMPDEST PUSH1 0x1 PUSH1 0x1 PUSH1 0xA0 SHL SUB AND PUSH1 0x0 SWAP1 DUP2 MSTORE PUSH1 0x7 PUSH1 0x20 MSTORE PUSH1 0x40 SWAP1 KECCAK256 SLOAD SWAP1 JUMP JUMPDEST PUSH1 0x20 SLOAD PUSH1 0x1 PUSH1 0x1 PUSH1 0xA0 SHL SUB AND CALLER EQ PUSH2 0x348A JUMPI PUSH1 0x40 DUP1 MLOAD PUSH3 0x461BCD PUSH1 0xE5 SHL DUP2 MSTORE PUSH1 0x20 PUSH1 0x4 DUP3 ADD MSTORE PUSH1 0xB PUSH1 0x24 DUP3 ADD MSTORE PUSH11 0x39B630B9B41D1010B3B7BB PUSH1 0xA9 SHL PUSH1 0x44 DUP3 ADD MSTORE SWAP1 MLOAD SWAP1 DUP2 SWAP1 SUB PUSH1 0x64 ADD SWAP1 REVERT JUMPDEST PUSH1 0x1 PUSH1 0x1 PUSH1 0xA0 SHL SUB DUP2 AND PUSH1 0x0 SWAP1 DUP2 MSTORE PUSH1 0x1C PUSH1 0x20 SWAP1 DUP2 MSTORE PUSH1 0x40 DUP1 DUP4 KECCAK256 DUP1 SLOAD PUSH1 0xFF NOT SWAP1 DUP2 AND SWAP1 SWAP2 SSTORE PUSH1 0x1D DUP4 MSTORE DUP2 DUP5 KECCAK256 DUP1 SLOAD SWAP1 SWAP2 AND PUSH1 0x1 OR SWAP1 SSTORE PUSH1 0xD DUP3 MSTORE DUP1 DUP4 KECCAK256 ADDRESS DUP1 DUP6 MSTORE SWAP3 MSTORE SWAP1 SWAP2 KECCAK256 SLOAD PUSH2 0x2342 SWAP2 SWAP1 DUP4 SWAP1 PUSH2 0x4DBA JUMP JUMPDEST PUSH1 0x19 PUSH1 0x20 MSTORE PUSH1 0x0 SWAP1 DUP2 MSTORE PUSH1 0x40 SWAP1 KECCAK256 SLOAD DUP2 JUMP JUMPDEST PUSH1 0x0 NUMBER DUP3 LT PUSH2 0x3537 JUMPI PUSH1 0x40 DUP1 MLOAD PUSH3 0x461BCD PUSH1 0xE5 SHL DUP2 MSTORE PUSH1 0x20 PUSH1 0x4 DUP3 ADD MSTORE PUSH1 0xE PUSH1 0x24 DUP3 ADD MSTORE PUSH14 0x33B2BA283934B7B92B37BA32B99D PUSH1 0x91 SHL PUSH1 0x44 DUP3 ADD MSTORE SWAP1 MLOAD SWAP1 DUP2 SWAP1 SUB PUSH1 0x64 ADD SWAP1 REVERT JUMPDEST PUSH1 0x1 PUSH1 0x1 PUSH1 0xA0 SHL SUB DUP4 AND PUSH1 0x0 SWAP1 DUP2 MSTORE PUSH1 0x5 PUSH1 0x20 MSTORE PUSH1 0x40 SWAP1 KECCAK256 SLOAD PUSH4 0xFFFFFFFF AND DUP1 PUSH2 0x3565 JUMPI PUSH1 0x0 SWAP2 POP POP PUSH2 0x1856 JUMP JUMPDEST PUSH1 0x1 PUSH1 0x1 PUSH1 0xA0 SHL SUB DUP5 AND PUSH1 0x0 SWAP1 DUP2 MSTORE PUSH1 0x4 PUSH1 0x20 SWAP1 DUP2 MSTORE PUSH1 0x40 DUP1 DUP4 KECCAK256 PUSH4 0xFFFFFFFF PUSH1 0x0 NOT DUP7 ADD DUP2 AND DUP6 MSTORE SWAP3 MSTORE SWAP1 SWAP2 KECCAK256 SLOAD AND DUP4 LT PUSH2 0x35D4 JUMPI PUSH1 0x1 PUSH1 0x1 PUSH1 0xA0 SHL SUB DUP5 AND PUSH1 0x0 SWAP1 DUP2 MSTORE PUSH1 0x4 PUSH1 0x20 SWAP1 DUP2 MSTORE PUSH1 0x40 DUP1 DUP4 KECCAK256 PUSH1 0x0 NOT SWAP5 SWAP1 SWAP5 ADD PUSH4 0xFFFFFFFF AND DUP4 MSTORE SWAP3 SWAP1 MSTORE KECCAK256 PUSH1 0x1 ADD SLOAD SWAP1 POP PUSH2 0x1856 JUMP JUMPDEST PUSH1 0x1 PUSH1 0x1 PUSH1 0xA0 SHL SUB DUP5 AND PUSH1 0x0 SWAP1 DUP2 MSTORE PUSH1 0x4 PUSH1 0x20 SWAP1 DUP2 MSTORE PUSH1 0x40 DUP1 DUP4 KECCAK256 DUP4 DUP1 MSTORE SWAP1 SWAP2 MSTORE SWAP1 KECCAK256 SLOAD PUSH4 0xFFFFFFFF AND DUP4 LT ISZERO PUSH2 0x360F JUMPI PUSH1 0x0 SWAP2 POP POP PUSH2 0x1856 JUMP JUMPDEST PUSH1 0x0 PUSH1 0x0 NOT DUP3 ADD JUMPDEST DUP2 PUSH4 0xFFFFFFFF AND DUP2 PUSH4 0xFFFFFFFF AND GT ISZERO PUSH2 0x36C8 JUMPI PUSH1 0x2 DUP3 DUP3 SUB PUSH4 0xFFFFFFFF AND DIV DUP2 SUB PUSH2 0x3641 PUSH2 0x5F16 JUMP JUMPDEST POP PUSH1 0x1 PUSH1 0x1 PUSH1 0xA0 SHL SUB DUP8 AND PUSH1 0x0 SWAP1 DUP2 MSTORE PUSH1 0x4 PUSH1 0x20 SWAP1 DUP2 MSTORE PUSH1 0x40 DUP1 DUP4 KECCAK256 PUSH4 0xFFFFFFFF DUP1 DUP7 AND DUP6 MSTORE SWAP1 DUP4 MSTORE SWAP3 DUP2 SWAP1 KECCAK256 DUP2 MLOAD DUP1 DUP4 ADD SWAP1 SWAP3 MSTORE DUP1 SLOAD SWAP1 SWAP4 AND DUP1 DUP3 MSTORE PUSH1 0x1 SWAP1 SWAP4 ADD SLOAD SWAP2 DUP2 ADD SWAP2 SWAP1 SWAP2 MSTORE SWAP1 DUP8 EQ ISZERO PUSH2 0x36A3 JUMPI PUSH1 0x20 ADD MLOAD SWAP5 POP PUSH2 0x1856 SWAP4 POP POP POP POP JUMP JUMPDEST DUP1 MLOAD PUSH4 0xFFFFFFFF AND DUP8 GT ISZERO PUSH2 0x36BA JUMPI DUP2 SWAP4 POP PUSH2 0x36C1 JUMP JUMPDEST PUSH1 0x1 DUP3 SUB SWAP3 POP JUMPDEST POP POP PUSH2 0x3617 JUMP JUMPDEST POP PUSH1 0x1 PUSH1 0x1 PUSH1 0xA0 SHL SUB DUP6 AND PUSH1 0x0 SWAP1 DUP2 MSTORE PUSH1 0x4 PUSH1 0x20 SWAP1 DUP2 MSTORE PUSH1 0x40 DUP1 DUP4 KECCAK256 PUSH4 0xFFFFFFFF SWAP1 SWAP5 AND DUP4 MSTORE SWAP3 SWAP1 MSTORE KECCAK256 PUSH1 0x1 ADD SLOAD SWAP2 POP POP SWAP3 SWAP2 POP POP JUMP JUMPDEST PUSH1 0x8 PUSH1 0x20 MSTORE PUSH1 0x0 SWAP1 DUP2 MSTORE PUSH1 0x40 SWAP1 KECCAK256 SLOAD DUP2 JUMP JUMPDEST PUSH1 0x20 SLOAD PUSH1 0x1 PUSH1 0x1 PUSH1 0xA0 SHL SUB AND CALLER EQ PUSH2 0x3762 JUMPI PUSH1 0x40 DUP1 MLOAD PUSH3 0x461BCD PUSH1 0xE5 SHL DUP2 MSTORE PUSH1 0x20 PUSH1 0x4 DUP3 ADD MSTORE PUSH1 0xF PUSH1 0x24 DUP3 ADD MSTORE PUSH15 0x3932B6B7BB32A537B11D1010B3B7BB PUSH1 0x89 SHL PUSH1 0x44 DUP3 ADD MSTORE SWAP1 MLOAD SWAP1 DUP2 SWAP1 SUB PUSH1 0x64 ADD SWAP1 REVERT JUMPDEST PUSH1 0x1 PUSH1 0x1 PUSH1 0xA0 SHL SUB DUP2 AND PUSH1 0x0 DUP2 DUP2 MSTORE PUSH1 0x14 PUSH1 0x20 SWAP1 DUP2 MSTORE PUSH1 0x40 SWAP2 DUP3 SWAP1 KECCAK256 DUP1 SLOAD PUSH1 0xFF NOT AND SWAP1 SSTORE DUP2 MLOAD NUMBER DUP2 MSTORE CALLER SWAP2 DUP2 ADD SWAP2 SWAP1 SWAP2 MSTORE DUP2 MLOAD PUSH32 0x2CA18FDFAE50F1042480D285D21F6706AA6ABBD567D60A044B5BEC07CCFEE648 SWAP3 SWAP2 DUP2 SWAP1 SUB SWAP1 SWAP2 ADD SWAP1 LOG2 POP JUMP JUMPDEST PUSH1 0x60 PUSH1 0x1E DUP1 SLOAD DUP1 PUSH1 0x20 MUL PUSH1 0x20 ADD PUSH1 0x40 MLOAD SWAP1 DUP2 ADD PUSH1 0x40 MSTORE DUP1 SWAP3 SWAP2 SWAP1 DUP2 DUP2 MSTORE PUSH1 0x20 ADD DUP3 DUP1 SLOAD DUP1 ISZERO PUSH2 0x32AA JUMPI PUSH1 0x20 MUL DUP3 ADD SWAP2 SWAP1 PUSH1 0x0 MSTORE PUSH1 0x20 PUSH1 0x0 KECCAK256 SWAP1 DUP2 SLOAD PUSH1 0x1 PUSH1 0x1 PUSH1 0xA0 SHL SUB AND DUP2 MSTORE PUSH1 0x1 SWAP1 SWAP2 ADD SWAP1 PUSH1 0x20 ADD DUP1 DUP4 GT PUSH2 0x328C JUMPI POP POP POP POP POP SWAP1 POP SWAP1 JUMP JUMPDEST PUSH1 0xE DUP2 JUMP JUMPDEST PUSH1 0x18 PUSH1 0x20 SWAP1 DUP2 MSTORE PUSH1 0x0 SWAP4 DUP5 MSTORE PUSH1 0x40 DUP1 DUP6 KECCAK256 DUP3 MSTORE SWAP3 DUP5 MSTORE DUP3 DUP5 KECCAK256 SWAP1 MSTORE DUP3 MSTORE SWAP1 KECCAK256 SLOAD DUP2 JUMP JUMPDEST PUSH1 0x2 PUSH1 0x0 SLOAD EQ ISZERO PUSH2 0x3891 JUMPI PUSH1 0x40 DUP1 MLOAD PUSH3 0x461BCD PUSH1 0xE5 SHL DUP2 MSTORE PUSH1 0x20 PUSH1 0x4 DUP3 ADD MSTORE PUSH1 0x1F PUSH1 0x24 DUP3 ADD MSTORE PUSH1 0x0 DUP1 MLOAD PUSH1 0x20 PUSH2 0x5F2E DUP4 CODECOPY DUP2 MLOAD SWAP2 MSTORE PUSH1 0x44 DUP3 ADD MSTORE SWAP1 MLOAD SWAP1 DUP2 SWAP1 SUB PUSH1 0x64 ADD SWAP1 REVERT JUMPDEST PUSH1 0x2 PUSH1 0x0 SWAP1 DUP2 SSTORE PUSH1 0x1 PUSH1 0x1 PUSH1 0xA0 SHL SUB DUP4 AND DUP2 MSTORE PUSH1 0x14 PUSH1 0x20 MSTORE PUSH1 0x40 SWAP1 KECCAK256 SLOAD PUSH1 0xFF AND PUSH2 0x38F7 JUMPI PUSH1 0x40 DUP1 MLOAD PUSH3 0x461BCD PUSH1 0xE5 SHL DUP2 MSTORE PUSH1 0x20 PUSH1 0x4 DUP3 ADD MSTORE PUSH1 0x12 PUSH1 0x24 DUP3 ADD MSTORE PUSH18 0x30B23221B932B234BA22AA241D1010B537B1 PUSH1 0x71 SHL PUSH1 0x44 DUP3 ADD MSTORE SWAP1 MLOAD SWAP1 DUP2 SWAP1 SUB PUSH1 0x64 ADD SWAP1 REVERT JUMPDEST PUSH1 0x0 DUP4 PUSH1 0x1 PUSH1 0x1 PUSH1 0xA0 SHL SUB AND PUSH4 0x70A08231 ADDRESS PUSH1 0x40 MLOAD DUP3 PUSH4 0xFFFFFFFF AND PUSH1 0xE0 SHL DUP2 MSTORE PUSH1 0x4 ADD DUP1 DUP3 PUSH1 0x1 PUSH1 0x1 PUSH1 0xA0 SHL SUB AND DUP2 MSTORE PUSH1 0x20 ADD SWAP2 POP POP PUSH1 0x20 PUSH1 0x40 MLOAD DUP1 DUP4 SUB DUP2 DUP7 DUP1 EXTCODESIZE ISZERO DUP1 ISZERO PUSH2 0x3946 JUMPI PUSH1 0x0 DUP1 REVERT JUMPDEST POP GAS STATICCALL ISZERO DUP1 ISZERO PUSH2 0x395A JUMPI RETURNDATASIZE PUSH1 0x0 DUP1 RETURNDATACOPY RETURNDATASIZE PUSH1 0x0 REVERT JUMPDEST POP POP POP POP PUSH1 0x40 MLOAD RETURNDATASIZE PUSH1 0x20 DUP2 LT ISZERO PUSH2 0x3970 JUMPI PUSH1 0x0 DUP1 REVERT JUMPDEST POP MLOAD SWAP1 POP PUSH2 0x3989 PUSH1 0x1 PUSH1 0x1 PUSH1 0xA0 SHL SUB DUP6 AND CALLER ADDRESS DUP6 PUSH2 0x575A JUMP JUMPDEST PUSH1 0x0 PUSH2 0x3A0E DUP3 DUP7 PUSH1 0x1 PUSH1 0x1 PUSH1 0xA0 SHL SUB AND PUSH4 0x70A08231 ADDRESS PUSH1 0x40 MLOAD DUP3 PUSH4 0xFFFFFFFF AND PUSH1 0xE0 SHL DUP2 MSTORE PUSH1 0x4 ADD DUP1 DUP3 PUSH1 0x1 PUSH1 0x1 PUSH1 0xA0 SHL SUB AND DUP2 MSTORE PUSH1 0x20 ADD SWAP2 POP POP PUSH1 0x20 PUSH1 0x40 MLOAD DUP1 DUP4 SUB DUP2 DUP7 DUP1 EXTCODESIZE ISZERO DUP1 ISZERO PUSH2 0x39DC JUMPI PUSH1 0x0 DUP1 REVERT JUMPDEST POP GAS STATICCALL ISZERO DUP1 ISZERO PUSH2 0x39F0 JUMPI RETURNDATASIZE PUSH1 0x0 DUP1 RETURNDATACOPY RETURNDATASIZE PUSH1 0x0 REVERT JUMPDEST POP POP POP POP PUSH1 0x40 MLOAD RETURNDATASIZE PUSH1 0x20 DUP2 LT ISZERO PUSH2 0x3A06 JUMPI PUSH1 0x0 DUP1 REVERT JUMPDEST POP MLOAD SWAP1 PUSH2 0x52B0 JUMP JUMPDEST SWAP1 POP PUSH1 0x0 PUSH2 0x3A23 PUSH2 0x2710 PUSH2 0x1B0B DUP5 PUSH1 0x1E PUSH2 0x511A JUMP JUMPDEST SWAP1 POP PUSH2 0x3A5E PUSH2 0x3A32 DUP4 DUP4 PUSH2 0x52B0 JUMP JUMPDEST PUSH1 0x1 PUSH1 0x1 PUSH1 0xA0 SHL SUB DUP1 DUP9 AND PUSH1 0x0 SWAP1 DUP2 MSTORE PUSH1 0x15 PUSH1 0x20 SWAP1 DUP2 MSTORE PUSH1 0x40 DUP1 DUP4 KECCAK256 SWAP4 DUP13 AND DUP4 MSTORE SWAP3 SWAP1 MSTORE KECCAK256 SLOAD SWAP1 PUSH2 0x50D7 JUMP JUMPDEST PUSH1 0x1 PUSH1 0x1 PUSH1 0xA0 SHL SUB DUP1 DUP8 AND PUSH1 0x0 SWAP1 DUP2 MSTORE PUSH1 0x15 PUSH1 0x20 SWAP1 DUP2 MSTORE PUSH1 0x40 DUP1 DUP4 KECCAK256 DUP12 DUP6 AND DUP1 DUP6 MSTORE SWAP1 DUP4 MSTORE SWAP3 KECCAK256 SWAP4 SWAP1 SWAP4 SSTORE SWAP2 SLOAD PUSH2 0x3A97 SWAP3 SWAP2 AND DUP4 PUSH2 0x5708 JUMP JUMPDEST CALLER PUSH1 0x1 PUSH1 0x1 PUSH1 0xA0 SHL SUB AND DUP6 PUSH1 0x1 PUSH1 0x1 PUSH1 0xA0 SHL SUB AND DUP8 PUSH1 0x1 PUSH1 0x1 PUSH1 0xA0 SHL SUB AND PUSH32 0xB97975EA9BF5AE2173B9EA765214622396032ABA11CD5CC1450C760AC80D059A NUMBER DUP7 PUSH1 0x40 MLOAD DUP1 DUP4 DUP2 MSTORE PUSH1 0x20 ADD DUP3 DUP2 MSTORE PUSH1 0x20 ADD SWAP3 POP POP POP PUSH1 0x40 MLOAD DUP1 SWAP2 SUB SWAP1 LOG4 POP POP PUSH1 0x1 PUSH1 0x0 SSTORE POP POP POP POP JUMP JUMPDEST CALLER PUSH1 0x0 SWAP1 DUP2 MSTORE PUSH1 0x14 PUSH1 0x20 MSTORE PUSH1 0x40 SWAP1 KECCAK256 SLOAD PUSH1 0xFF AND PUSH2 0x3B55 JUMPI PUSH1 0x40 DUP1 MLOAD PUSH3 0x461BCD PUSH1 0xE5 SHL DUP2 MSTORE PUSH1 0x20 PUSH1 0x4 DUP3 ADD MSTORE PUSH1 0xD PUSH1 0x24 DUP3 ADD MSTORE PUSH13 0x3932B1B2B4B83A1D1010B537B1 PUSH1 0x99 SHL PUSH1 0x44 DUP3 ADD MSTORE SWAP1 MLOAD SWAP1 DUP2 SWAP1 SUB PUSH1 0x64 ADD SWAP1 REVERT JUMPDEST PUSH1 0x40 DUP1 MLOAD DUP1 DUP3 ADD DUP3 MSTORE PUSH1 0x1D DUP2 MSTORE PUSH32 0x776F726B526563656970743A20696E7375666669656E742066756E6473000000 PUSH1 0x20 DUP1 DUP4 ADD SWAP2 SWAP1 SWAP2 MSTORE CALLER PUSH1 0x0 SWAP1 DUP2 MSTORE PUSH1 0x15 DUP3 MSTORE DUP4 DUP2 KECCAK256 PUSH1 0x1 PUSH1 0x1 PUSH1 0xA0 SHL SUB DUP9 AND DUP3 MSTORE SWAP1 SWAP2 MSTORE SWAP2 SWAP1 SWAP2 KECCAK256 SLOAD PUSH2 0x3BB8 SWAP2 DUP4 SWAP1 PUSH2 0x5378 JUMP JUMPDEST CALLER PUSH1 0x0 SWAP1 DUP2 MSTORE PUSH1 0x15 PUSH1 0x20 SWAP1 DUP2 MSTORE PUSH1 0x40 DUP1 DUP4 KECCAK256 PUSH1 0x1 PUSH1 0x1 PUSH1 0xA0 SHL SUB DUP9 DUP2 AND DUP1 DUP7 MSTORE SWAP2 DUP5 MSTORE DUP3 DUP6 KECCAK256 SWAP6 SWAP1 SWAP6 SSTORE SWAP4 DUP7 AND DUP4 MSTORE PUSH1 0x12 SWAP1 SWAP2 MSTORE SWAP1 KECCAK256 TIMESTAMP SWAP1 SSTORE PUSH2 0x3BFC SWAP1 DUP4 DUP4 PUSH2 0x5708 JUMP JUMPDEST PUSH1 0x40 DUP1 MLOAD NUMBER DUP2 MSTORE SWAP1 MLOAD PUSH1 0x1 PUSH1 0x1 PUSH1 0xA0 SHL SUB DUP1 DUP6 AND SWAP3 CALLER SWAP3 SWAP2 DUP8 AND SWAP2 PUSH32 0xB1C0F4C56DD743039F597F2080E633454ACC4867E980BF9263582A868DD9D0A4 SWAP2 DUP2 SWAP1 SUB PUSH1 0x20 ADD SWAP1 LOG4 POP POP POP JUMP JUMPDEST PUSH1 0x20 SLOAD PUSH1 0x1 PUSH1 0x1 PUSH1 0xA0 SHL SUB AND CALLER EQ PUSH2 0x3C9D JUMPI PUSH1 0x40 DUP1 MLOAD PUSH3 0x461BCD PUSH1 0xE5 SHL DUP2 MSTORE PUSH1 0x20 PUSH1 0x4 DUP3 ADD MSTORE PUSH1 0x15 PUSH1 0x24 DUP3 ADD MSTORE PUSH21 0x39B2BA2637B1B599B92432B63832B91D1010B3B7BB PUSH1 0x59 SHL PUSH1 0x44 DUP3 ADD MSTORE SWAP1 MLOAD SWAP1 DUP2 SWAP1 SUB PUSH1 0x64 ADD SWAP1 REVERT JUMPDEST PUSH1 0x1 DUP1 SLOAD PUSH1 0x1 PUSH1 0x1 PUSH1 0xA0 SHL SUB NOT AND PUSH1 0x1 PUSH1 0x1 PUSH1 0xA0 SHL SUB SWAP3 SWAP1 SWAP3 AND SWAP2 SWAP1 SWAP2 OR SWAP1 SSTORE JUMP JUMPDEST PUSH1 0x40 MLOAD DUP1 PUSH1 0x40 ADD PUSH1 0x40 MSTORE DUP1 PUSH1 0x4 DUP2 MSTORE PUSH1 0x20 ADD PUSH4 0x262599A9 PUSH1 0xE1 SHL DUP2 MSTORE POP DUP2 JUMP JUMPDEST PUSH1 0xA PUSH1 0x20 SWAP1 DUP2 MSTORE PUSH1 0x0 SWAP3 DUP4 MSTORE PUSH1 0x40 DUP1 DUP5 KECCAK256 SWAP1 SWAP2 MSTORE SWAP1 DUP3 MSTORE SWAP1 KECCAK256 SLOAD DUP2 JUMP JUMPDEST PUSH1 0x0 GAS PUSH1 0x26 SSTORE PUSH1 0x1 PUSH1 0x1 PUSH1 0xA0 SHL SUB DUP7 AND PUSH1 0x0 SWAP1 DUP2 MSTORE PUSH1 0x1C PUSH1 0x20 MSTORE PUSH1 0x40 SWAP1 KECCAK256 SLOAD PUSH1 0xFF AND DUP1 ISZERO PUSH2 0x3D4F JUMPI POP PUSH1 0x1 PUSH1 0x1 PUSH1 0xA0 SHL SUB DUP1 DUP8 AND PUSH1 0x0 SWAP1 DUP2 MSTORE PUSH1 0xD PUSH1 0x20 SWAP1 DUP2 MSTORE PUSH1 0x40 DUP1 DUP4 KECCAK256 SWAP4 DUP10 AND DUP4 MSTORE SWAP3 SWAP1 MSTORE KECCAK256 SLOAD DUP5 GT ISZERO JUMPDEST DUP1 ISZERO PUSH2 0x3D73 JUMPI POP PUSH1 0x1 PUSH1 0x1 PUSH1 0xA0 SHL SUB DUP7 AND PUSH1 0x0 SWAP1 DUP2 MSTORE PUSH1 0x13 PUSH1 0x20 MSTORE PUSH1 0x40 SWAP1 KECCAK256 SLOAD DUP4 GT ISZERO JUMPDEST DUP1 ISZERO PUSH2 0x3DA3 JUMPI POP PUSH1 0x1 PUSH1 0x1 PUSH1 0xA0 SHL SUB DUP7 AND PUSH1 0x0 SWAP1 DUP2 MSTORE PUSH1 0x10 PUSH1 0x20 MSTORE PUSH1 0x40 SWAP1 KECCAK256 SLOAD DUP3 SWAP1 PUSH2 0x3DA0 SWAP1 TIMESTAMP SWAP1 PUSH2 0x52B0 JUMP JUMPDEST LT ISZERO JUMPDEST SWAP7 SWAP6 POP POP POP POP POP POP JUMP JUMPDEST PUSH1 0xD PUSH1 0x20 SWAP1 DUP2 MSTORE PUSH1 0x0 SWAP3 DUP4 MSTORE PUSH1 0x40 DUP1 DUP5 KECCAK256 SWAP1 SWAP2 MSTORE SWAP1 DUP3 MSTORE SWAP1 KECCAK256 SLOAD DUP2 JUMP JUMPDEST PUSH1 0x1E DUP2 DUP2 SLOAD DUP2 LT PUSH2 0x1869 JUMPI INVALID JUMPDEST PUSH1 0x2 PUSH1 0x0 SLOAD EQ ISZERO PUSH2 0x3E1D JUMPI PUSH1 0x40 DUP1 MLOAD PUSH3 0x461BCD PUSH1 0xE5 SHL DUP2 MSTORE PUSH1 0x20 PUSH1 0x4 DUP3 ADD MSTORE PUSH1 0x1F PUSH1 0x24 DUP3 ADD MSTORE PUSH1 0x0 DUP1 MLOAD PUSH1 0x20 PUSH2 0x5F2E DUP4 CODECOPY DUP2 MLOAD SWAP2 MSTORE PUSH1 0x44 DUP3 ADD MSTORE SWAP1 MLOAD SWAP1 DUP2 SWAP1 SUB PUSH1 0x64 ADD SWAP1 REVERT JUMPDEST PUSH1 0x2 PUSH1 0x0 SWAP1 DUP2 SSTORE CALLER DUP2 MSTORE PUSH1 0x1D PUSH1 0x20 MSTORE PUSH1 0x40 SWAP1 KECCAK256 SLOAD PUSH1 0xFF AND ISZERO PUSH2 0x3E7A JUMPI PUSH1 0x40 DUP1 MLOAD PUSH3 0x461BCD PUSH1 0xE5 SHL DUP2 MSTORE PUSH1 0x20 PUSH1 0x4 DUP3 ADD MSTORE PUSH1 0x11 PUSH1 0x24 DUP3 ADD MSTORE PUSH17 0x189BDB990E88189B1858DADB1A5CDD1959 PUSH1 0x7A SHL PUSH1 0x44 DUP3 ADD MSTORE SWAP1 MLOAD SWAP1 DUP2 SWAP1 SUB PUSH1 0x64 ADD SWAP1 REVERT JUMPDEST PUSH2 0x3E87 TIMESTAMP PUSH3 0x3F480 PUSH2 0x50D7 JUMP JUMPDEST CALLER PUSH1 0x0 SWAP1 DUP2 MSTORE PUSH1 0x9 PUSH1 0x20 SWAP1 DUP2 MSTORE PUSH1 0x40 DUP1 DUP4 KECCAK256 PUSH1 0x1 PUSH1 0x1 PUSH1 0xA0 SHL SUB DUP8 AND DUP1 DUP6 MSTORE SWAP3 MSTORE SWAP1 SWAP2 KECCAK256 SWAP2 SWAP1 SWAP2 SSTORE ADDRESS EQ ISZERO PUSH2 0x3EC6 JUMPI PUSH2 0x3EC1 CALLER ADDRESS DUP4 PUSH2 0x540F JUMP JUMPDEST PUSH2 0x3FAD JUMP JUMPDEST PUSH1 0x0 DUP3 PUSH1 0x1 PUSH1 0x1 PUSH1 0xA0 SHL SUB AND PUSH4 0x70A08231 ADDRESS PUSH1 0x40 MLOAD DUP3 PUSH4 0xFFFFFFFF AND PUSH1 0xE0 SHL DUP2 MSTORE PUSH1 0x4 ADD DUP1 DUP3 PUSH1 0x1 PUSH1 0x1 PUSH1 0xA0 SHL SUB AND DUP2 MSTORE PUSH1 0x20 ADD SWAP2 POP POP PUSH1 0x20 PUSH1 0x40 MLOAD DUP1 DUP4 SUB DUP2 DUP7 DUP1 EXTCODESIZE ISZERO DUP1 ISZERO PUSH2 0x3F15 JUMPI PUSH1 0x0 DUP1 REVERT JUMPDEST POP GAS STATICCALL ISZERO DUP1 ISZERO PUSH2 0x3F29 JUMPI RETURNDATASIZE PUSH1 0x0 DUP1 RETURNDATACOPY RETURNDATASIZE PUSH1 0x0 REVERT JUMPDEST POP POP POP POP PUSH1 0x40 MLOAD RETURNDATASIZE PUSH1 0x20 DUP2 LT ISZERO PUSH2 0x3F3F JUMPI PUSH1 0x0 DUP1 REVERT JUMPDEST POP MLOAD SWAP1 POP PUSH2 0x3F58 PUSH1 0x1 PUSH1 0x1 PUSH1 0xA0 SHL SUB DUP5 AND CALLER ADDRESS DUP6 PUSH2 0x575A JUMP JUMPDEST PUSH2 0x3FA9 DUP2 DUP5 PUSH1 0x1 PUSH1 0x1 PUSH1 0xA0 SHL SUB AND PUSH4 0x70A08231 ADDRESS PUSH1 0x40 MLOAD DUP3 PUSH4 0xFFFFFFFF AND PUSH1 0xE0 SHL DUP2 MSTORE PUSH1 0x4 ADD DUP1 DUP3 PUSH1 0x1 PUSH1 0x1 PUSH1 0xA0 SHL SUB AND DUP2 MSTORE PUSH1 0x20 ADD SWAP2 POP POP PUSH1 0x20 PUSH1 0x40 MLOAD DUP1 DUP4 SUB DUP2 DUP7 DUP1 EXTCODESIZE ISZERO DUP1 ISZERO PUSH2 0x39DC JUMPI PUSH1 0x0 DUP1 REVERT JUMPDEST SWAP2 POP POP JUMPDEST CALLER PUSH1 0x0 SWAP1 DUP2 MSTORE PUSH1 0xC PUSH1 0x20 SWAP1 DUP2 MSTORE PUSH1 0x40 DUP1 DUP4 KECCAK256 PUSH1 0x1 PUSH1 0x1 PUSH1 0xA0 SHL SUB DUP7 AND DUP5 MSTORE SWAP1 SWAP2 MSTORE SWAP1 KECCAK256 SLOAD PUSH2 0x3FDB SWAP1 DUP3 PUSH2 0x50D7 JUMP JUMPDEST CALLER PUSH1 0x0 DUP2 DUP2 MSTORE PUSH1 0xC PUSH1 0x20 SWAP1 DUP2 MSTORE PUSH1 0x40 DUP1 DUP4 KECCAK256 PUSH1 0x1 PUSH1 0x1 PUSH1 0xA0 SHL SUB DUP9 AND DUP1 DUP6 MSTORE SWAP1 DUP4 MSTORE DUP2 DUP5 KECCAK256 SWAP6 SWAP1 SWAP6 SSTORE DUP4 DUP4 MSTORE PUSH1 0x9 DUP3 MSTORE DUP1 DUP4 KECCAK256 SWAP5 DUP4 MSTORE SWAP4 DUP2 MSTORE SWAP1 DUP4 SWAP1 KECCAK256 SLOAD DUP4 MLOAD NUMBER DUP2 MSTORE SWAP2 DUP3 ADD MSTORE DUP1 DUP4 ADD DUP5 SWAP1 MSTORE SWAP2 MLOAD SWAP1 SWAP2 PUSH32 0xF70597A6FEFC4F533A2329CB1DCE863F3661A889DB77D6DED02CEDECA504BA56 SWAP2 SWAP1 DUP2 SWAP1 SUB PUSH1 0x60 ADD SWAP1 LOG2 POP POP PUSH1 0x1 PUSH1 0x0 SSTORE JUMP JUMPDEST PUSH2 0x406D TIMESTAMP PUSH3 0x127500 PUSH2 0x50D7 JUMP JUMPDEST CALLER PUSH1 0x0 DUP2 DUP2 MSTORE PUSH1 0xA PUSH1 0x20 SWAP1 DUP2 MSTORE PUSH1 0x40 DUP1 DUP4 KECCAK256 PUSH1 0x1 PUSH1 0x1 PUSH1 0xA0 SHL SUB DUP9 AND DUP5 MSTORE SWAP1 SWAP2 MSTORE SWAP1 KECCAK256 SWAP2 SWAP1 SWAP2 SSTORE PUSH2 0x40A0 SWAP1 DUP4 SWAP1 DUP4 PUSH2 0x5869 JUMP JUMPDEST CALLER PUSH1 0x0 SWAP1 DUP2 MSTORE PUSH1 0xB PUSH1 0x20 SWAP1 DUP2 MSTORE PUSH1 0x40 DUP1 DUP4 KECCAK256 PUSH1 0x1 PUSH1 0x1 PUSH1 0xA0 SHL SUB DUP7 AND DUP5 MSTORE SWAP1 SWAP2 MSTORE SWAP1 KECCAK256 SLOAD PUSH2 0x40CE SWAP1 DUP3 PUSH2 0x50D7 JUMP JUMPDEST CALLER PUSH1 0x0 DUP2 DUP2 MSTORE PUSH1 0xB PUSH1 0x20 SWAP1 DUP2 MSTORE PUSH1 0x40 DUP1 DUP4 KECCAK256 PUSH1 0x1 PUSH1 0x1 PUSH1 0xA0 SHL SUB DUP9 AND DUP1 DUP6 MSTORE SWAP1 DUP4 MSTORE DUP2 DUP5 KECCAK256 SWAP6 SWAP1 SWAP6 SSTORE DUP4 DUP4 MSTORE PUSH1 0xA DUP3 MSTORE DUP1 DUP4 KECCAK256 SWAP5 DUP4 MSTORE SWAP4 DUP2 MSTORE SWAP1 DUP4 SWAP1 KECCAK256 SLOAD DUP4 MLOAD NUMBER DUP2 MSTORE SWAP2 DUP3 ADD MSTORE DUP1 DUP4 ADD DUP5 SWAP1 MSTORE SWAP2 MLOAD SWAP1 SWAP2 PUSH32 0x565117769B73385AD12786409DF21084E3CC400C84936D78734FDA9FD499B23E SWAP2 SWAP1 DUP2 SWAP1 SUB PUSH1 0x60 ADD SWAP1 LOG2 POP POP JUMP JUMPDEST PUSH1 0x0 PUSH2 0x415B CALLER DUP5 DUP5 PUSH2 0x540F JUMP JUMPDEST POP PUSH1 0x1 SWAP3 SWAP2 POP POP JUMP JUMPDEST PUSH1 0x20 SLOAD PUSH1 0x1 PUSH1 0x1 PUSH1 0xA0 SHL SUB AND CALLER EQ PUSH2 0x41B9 JUMPI PUSH1 0x40 DUP1 MLOAD PUSH3 0x461BCD PUSH1 0xE5 SHL DUP2 MSTORE PUSH1 0x20 PUSH1 0x4 DUP3 ADD MSTORE PUSH1 0x13 PUSH1 0x24 DUP3 ADD MSTORE PUSH19 0x39B2BA23B7BB32B93730B731B29D1010B3B7BB PUSH1 0x69 SHL PUSH1 0x44 DUP3 ADD MSTORE SWAP1 MLOAD SWAP1 DUP2 SWAP1 SUB PUSH1 0x64 ADD SWAP1 REVERT JUMPDEST PUSH1 0x21 DUP1 SLOAD PUSH1 0x1 PUSH1 0x1 PUSH1 0xA0 SHL SUB NOT AND PUSH1 0x1 PUSH1 0x1 PUSH1 0xA0 SHL SUB SWAP3 SWAP1 SWAP3 AND SWAP2 SWAP1 SWAP2 OR SWAP1 SSTORE JUMP JUMPDEST PUSH1 0x11 PUSH1 0x20 MSTORE PUSH1 0x0 SWAP1 DUP2 MSTORE PUSH1 0x40 SWAP1 KECCAK256 SLOAD PUSH1 0xFF AND DUP2 JUMP JUMPDEST PUSH1 0x1 PUSH1 0x1 PUSH1 0xA0 SHL SUB DUP2 AND PUSH1 0x0 SWAP1 DUP2 MSTORE PUSH1 0x5 PUSH1 0x20 MSTORE PUSH1 0x40 DUP2 KECCAK256 SLOAD PUSH4 0xFFFFFFFF AND DUP1 PUSH2 0x421B JUMPI PUSH1 0x0 PUSH2 0x424D JUMP JUMPDEST PUSH1 0x1 PUSH1 0x1 PUSH1 0xA0 SHL SUB DUP4 AND PUSH1 0x0 SWAP1 DUP2 MSTORE PUSH1 0x4 PUSH1 0x20 SWAP1 DUP2 MSTORE PUSH1 0x40 DUP1 DUP4 KECCAK256 PUSH4 0xFFFFFFFF PUSH1 0x0 NOT DUP7 ADD AND DUP5 MSTORE SWAP1 SWAP2 MSTORE SWAP1 KECCAK256 PUSH1 0x1 ADD SLOAD JUMPDEST SWAP4 SWAP3 POP POP POP JUMP JUMPDEST PUSH1 0x20 SLOAD PUSH1 0x1 PUSH1 0x1 PUSH1 0xA0 SHL SUB AND CALLER EQ PUSH2 0x42AC JUMPI PUSH1 0x40 DUP1 MLOAD PUSH3 0x461BCD PUSH1 0xE5 SHL DUP2 MSTORE PUSH1 0x20 PUSH1 0x4 DUP3 ADD MSTORE PUSH1 0x16 PUSH1 0x24 DUP3 ADD MSTORE PUSH22 0x30B8383937BB32A634B8BAB4B234BA3C9D1010B3B7BB PUSH1 0x51 SHL PUSH1 0x44 DUP3 ADD MSTORE SWAP1 MLOAD SWAP1 DUP2 SWAP1 SUB PUSH1 0x64 ADD SWAP1 REVERT JUMPDEST PUSH1 0x1 PUSH1 0x1 PUSH1 0xA0 SHL SUB DUP2 AND PUSH1 0x0 SWAP1 DUP2 MSTORE PUSH1 0x24 PUSH1 0x20 MSTORE PUSH1 0x40 SWAP1 KECCAK256 SLOAD PUSH1 0xFF AND ISZERO PUSH2 0x431A JUMPI PUSH1 0x40 DUP1 MLOAD PUSH3 0x461BCD PUSH1 0xE5 SHL DUP2 MSTORE PUSH1 0x20 PUSH1 0x4 DUP3 ADD MSTORE PUSH1 0x17 PUSH1 0x24 DUP3 ADD MSTORE PUSH32 0x617070726F76654C69717569646974793A202170616972000000000000000000 PUSH1 0x44 DUP3 ADD MSTORE SWAP1 MLOAD SWAP1 DUP2 SWAP1 SUB PUSH1 0x64 ADD SWAP1 REVERT JUMPDEST PUSH1 0x1 PUSH1 0x1 PUSH1 0xA0 SHL SUB AND PUSH1 0x0 DUP2 DUP2 MSTORE PUSH1 0x24 PUSH1 0x20 MSTORE PUSH1 0x40 DUP2 KECCAK256 DUP1 SLOAD PUSH1 0xFF NOT AND PUSH1 0x1 SWAP1 DUP2 OR SWAP1 SWAP2 SSTORE PUSH1 0x25 DUP1 SLOAD SWAP2 DUP3 ADD DUP2 SSTORE SWAP1 SWAP2 MSTORE PUSH32 0x401968FF42A154441DA5F6C4C935AC46B8671F0E062BAAA62A7545BA53BB6E4C ADD DUP1 SLOAD PUSH1 0x1 PUSH1 0x1 PUSH1 0xA0 SHL SUB NOT AND SWAP1 SWAP2 OR SWAP1 SSTORE JUMP JUMPDEST PUSH1 0x17 PUSH1 0x20 SWAP1 DUP2 MSTORE PUSH1 0x0 SWAP4 DUP5 MSTORE PUSH1 0x40 DUP1 DUP6 KECCAK256 DUP3 MSTORE SWAP3 DUP5 MSTORE DUP3 DUP5 KECCAK256 SWAP1 MSTORE DUP3 MSTORE SWAP1 KECCAK256 SLOAD DUP2 JUMP JUMPDEST PUSH1 0x40 DUP1 MLOAD PUSH32 0x1AC861A6A8532F3704E1768564A53A32774F00D6CF20CCBBDF60AB61378302BC PUSH1 0x20 DUP1 DUP4 ADD SWAP2 SWAP1 SWAP2 MSTORE PUSH1 0x1 PUSH1 0x1 PUSH1 0xA0 SHL SUB DUP10 AND DUP3 DUP5 ADD MSTORE PUSH1 0x60 DUP3 ADD DUP9 SWAP1 MSTORE PUSH1 0x80 DUP1 DUP4 ADD DUP9 SWAP1 MSTORE DUP4 MLOAD DUP1 DUP5 SUB SWAP1 SWAP2 ADD DUP2 MSTORE PUSH1 0xA0 DUP4 ADD DUP5 MSTORE DUP1 MLOAD SWAP1 DUP3 ADD KECCAK256 PUSH2 0x1901 PUSH1 0xF0 SHL PUSH1 0xC0 DUP5 ADD MSTORE PUSH32 0x0 PUSH1 0xC2 DUP5 ADD MSTORE PUSH1 0xE2 DUP1 DUP5 ADD DUP3 SWAP1 MSTORE DUP5 MLOAD DUP1 DUP6 SUB SWAP1 SWAP2 ADD DUP2 MSTORE PUSH2 0x102 DUP5 ADD DUP1 DUP7 MSTORE DUP2 MLOAD SWAP2 DUP5 ADD SWAP2 SWAP1 SWAP2 KECCAK256 PUSH1 0x0 SWAP2 DUP3 SWAP1 MSTORE PUSH2 0x122 DUP6 ADD DUP1 DUP8 MSTORE DUP2 SWAP1 MSTORE PUSH1 0xFF DUP10 AND PUSH2 0x142 DUP7 ADD MSTORE PUSH2 0x162 DUP6 ADD DUP9 SWAP1 MSTORE PUSH2 0x182 DUP6 ADD DUP8 SWAP1 MSTORE SWAP5 MLOAD SWAP2 SWAP5 SWAP4 SWAP1 SWAP3 PUSH1 0x1 SWAP3 PUSH2 0x1A2 DUP1 DUP5 ADD SWAP4 PUSH1 0x1F NOT DUP4 ADD SWAP3 SWAP1 DUP2 SWAP1 SUB SWAP1 SWAP2 ADD SWAP1 DUP6 GAS STATICCALL ISZERO DUP1 ISZERO PUSH2 0x44B6 JUMPI RETURNDATASIZE PUSH1 0x0 DUP1 RETURNDATACOPY RETURNDATASIZE PUSH1 0x0 REVERT JUMPDEST POP POP PUSH1 0x40 MLOAD PUSH1 0x1F NOT ADD MLOAD SWAP2 POP POP PUSH1 0x1 PUSH1 0x1 PUSH1 0xA0 SHL SUB DUP2 AND PUSH2 0x4513 JUMPI PUSH1 0x40 DUP1 MLOAD PUSH3 0x461BCD PUSH1 0xE5 SHL DUP2 MSTORE PUSH1 0x20 PUSH1 0x4 DUP3 ADD MSTORE PUSH1 0x12 PUSH1 0x24 DUP3 ADD MSTORE PUSH18 0x64656C656761746542795369673A20736967 PUSH1 0x70 SHL PUSH1 0x44 DUP3 ADD MSTORE SWAP1 MLOAD SWAP1 DUP2 SWAP1 SUB PUSH1 0x64 ADD SWAP1 REVERT JUMPDEST PUSH1 0x1 PUSH1 0x1 PUSH1 0xA0 SHL SUB DUP2 AND PUSH1 0x0 SWAP1 DUP2 MSTORE PUSH1 0x8 PUSH1 0x20 MSTORE PUSH1 0x40 SWAP1 KECCAK256 DUP1 SLOAD PUSH1 0x1 DUP2 ADD SWAP1 SWAP2 SSTORE DUP9 EQ PUSH2 0x457E JUMPI PUSH1 0x40 DUP1 MLOAD PUSH3 0x461BCD PUSH1 0xE5 SHL DUP2 MSTORE PUSH1 0x20 PUSH1 0x4 DUP3 ADD MSTORE PUSH1 0x14 PUSH1 0x24 DUP3 ADD MSTORE PUSH20 0x64656C656761746542795369673A206E6F6E6365 PUSH1 0x60 SHL PUSH1 0x44 DUP3 ADD MSTORE SWAP1 MLOAD SWAP1 DUP2 SWAP1 SUB PUSH1 0x64 ADD SWAP1 REVERT JUMPDEST DUP7 TIMESTAMP GT ISZERO PUSH2 0x45CC JUMPI PUSH1 0x40 DUP1 MLOAD PUSH3 0x461BCD PUSH1 0xE5 SHL DUP2 MSTORE PUSH1 0x20 PUSH1 0x4 DUP3 ADD MSTORE PUSH1 0x16 PUSH1 0x24 DUP3 ADD MSTORE PUSH22 0x19195B1959D85D19509E54DA59CE88195E1C1A5C9959 PUSH1 0x52 SHL PUSH1 0x44 DUP3 ADD MSTORE SWAP1 MLOAD SWAP1 DUP2 SWAP1 SUB PUSH1 0x64 ADD SWAP1 REVERT JUMPDEST PUSH2 0x45D6 DUP2 DUP11 PUSH2 0x57BA JUMP JUMPDEST POP POP POP POP POP POP POP POP POP JUMP JUMPDEST PUSH1 0x20 SLOAD PUSH1 0x1 PUSH1 0x1 PUSH1 0xA0 SHL SUB AND CALLER EQ PUSH2 0x4636 JUMPI PUSH1 0x40 DUP1 MLOAD PUSH3 0x461BCD PUSH1 0xE5 SHL DUP2 MSTORE PUSH1 0x20 PUSH1 0x4 DUP3 ADD MSTORE PUSH1 0x13 PUSH1 0x24 DUP3 ADD MSTORE PUSH19 0x30B232262599A921B932B234BA1D1010B3B7BB PUSH1 0x69 SHL PUSH1 0x44 DUP3 ADD MSTORE SWAP1 MLOAD SWAP1 DUP2 SWAP1 SUB PUSH1 0x64 ADD SWAP1 REVERT JUMPDEST PUSH1 0x1 PUSH1 0x1 PUSH1 0xA0 SHL SUB DUP3 AND PUSH1 0x0 SWAP1 DUP2 MSTORE PUSH1 0x14 PUSH1 0x20 MSTORE PUSH1 0x40 SWAP1 KECCAK256 SLOAD PUSH1 0xFF AND PUSH2 0x4699 JUMPI PUSH1 0x40 DUP1 MLOAD PUSH3 0x461BCD PUSH1 0xE5 SHL DUP2 MSTORE PUSH1 0x20 PUSH1 0x4 DUP3 ADD MSTORE PUSH1 0x13 PUSH1 0x24 DUP3 ADD MSTORE PUSH19 0x30B232262599A921B932B234BA1D1010B537B1 PUSH1 0x69 SHL PUSH1 0x44 DUP3 ADD MSTORE SWAP1 MLOAD SWAP1 DUP2 SWAP1 SUB PUSH1 0x64 ADD SWAP1 REVERT JUMPDEST PUSH1 0x1 PUSH1 0x1 PUSH1 0xA0 SHL SUB DUP3 AND PUSH1 0x0 SWAP1 DUP2 MSTORE PUSH1 0x15 PUSH1 0x20 SWAP1 DUP2 MSTORE PUSH1 0x40 DUP1 DUP4 KECCAK256 ADDRESS DUP5 MSTORE SWAP1 SWAP2 MSTORE SWAP1 KECCAK256 SLOAD PUSH2 0x46C7 SWAP1 DUP3 PUSH2 0x50D7 JUMP JUMPDEST PUSH1 0x1 PUSH1 0x1 PUSH1 0xA0 SHL SUB DUP4 AND PUSH1 0x0 DUP2 DUP2 MSTORE PUSH1 0x15 PUSH1 0x20 SWAP1 DUP2 MSTORE PUSH1 0x40 DUP1 DUP4 KECCAK256 ADDRESS DUP1 DUP6 MSTORE SWAP1 DUP4 MSTORE SWAP3 DUP2 SWAP1 KECCAK256 SWAP5 SWAP1 SWAP5 SSTORE DUP4 MLOAD NUMBER DUP2 MSTORE SWAP1 DUP2 ADD DUP6 SWAP1 MSTORE DUP4 MLOAD CALLER SWAP5 PUSH32 0xB97975EA9BF5AE2173B9EA765214622396032ABA11CD5CC1450C760AC80D059A SWAP3 DUP3 SWAP1 SUB ADD SWAP1 LOG4 POP POP JUMP JUMPDEST PUSH1 0x20 SLOAD PUSH1 0x1 PUSH1 0x1 PUSH1 0xA0 SHL SUB AND CALLER EQ PUSH2 0x477A JUMPI PUSH1 0x40 DUP1 MLOAD PUSH3 0x461BCD PUSH1 0xE5 SHL DUP2 MSTORE PUSH1 0x20 PUSH1 0x4 DUP3 ADD MSTORE PUSH1 0xC PUSH1 0x24 DUP3 ADD MSTORE PUSH12 0x30B2322537B11D1010B3B7BB PUSH1 0xA1 SHL PUSH1 0x44 DUP3 ADD MSTORE SWAP1 MLOAD SWAP1 DUP2 SWAP1 SUB PUSH1 0x64 ADD SWAP1 REVERT JUMPDEST PUSH1 0x1 PUSH1 0x1 PUSH1 0xA0 SHL SUB DUP2 AND PUSH1 0x0 SWAP1 DUP2 MSTORE PUSH1 0x14 PUSH1 0x20 MSTORE PUSH1 0x40 SWAP1 KECCAK256 SLOAD PUSH1 0xFF AND ISZERO PUSH2 0x47DC JUMPI PUSH1 0x40 DUP1 MLOAD PUSH3 0x461BCD PUSH1 0xE5 SHL DUP2 MSTORE PUSH1 0x20 PUSH1 0x4 DUP3 ADD MSTORE PUSH1 0x11 PUSH1 0x24 DUP3 ADD MSTORE PUSH17 0x30B2322537B11D103537B11035B737BBB7 PUSH1 0x79 SHL PUSH1 0x44 DUP3 ADD MSTORE SWAP1 MLOAD SWAP1 DUP2 SWAP1 SUB PUSH1 0x64 ADD SWAP1 REVERT JUMPDEST PUSH1 0x1 PUSH1 0x1 PUSH1 0xA0 SHL SUB DUP2 AND PUSH1 0x0 DUP2 DUP2 MSTORE PUSH1 0x14 PUSH1 0x20 SWAP1 DUP2 MSTORE PUSH1 0x40 DUP1 DUP4 KECCAK256 DUP1 SLOAD PUSH1 0xFF NOT AND PUSH1 0x1 SWAP1 DUP2 OR SWAP1 SWAP2 SSTORE PUSH1 0x1F DUP1 SLOAD SWAP2 DUP3 ADD DUP2 SSTORE SWAP1 SWAP4 MSTORE PUSH32 0xA03837A25210EE280C2113FF4B77CA23440B19D4866CCA721C801278FD08D807 SWAP1 SWAP3 ADD DUP1 SLOAD PUSH1 0x1 PUSH1 0x1 PUSH1 0xA0 SHL SUB NOT AND DUP5 OR SWAP1 SSTORE DUP2 MLOAD NUMBER DUP2 MSTORE CALLER SWAP2 DUP2 ADD SWAP2 SWAP1 SWAP2 MSTORE DUP2 MLOAD PUSH32 0x3D9884FBD11FCE9188657C4BCFDA7491D3316CE97BD234D981B7BE1F012A852F SWAP3 SWAP2 DUP2 SWAP1 SUB SWAP1 SWAP2 ADD SWAP1 LOG2 POP JUMP JUMPDEST PUSH1 0x1E DUP2 JUMP JUMPDEST PUSH1 0x20 SLOAD PUSH1 0x1 PUSH1 0x1 PUSH1 0xA0 SHL SUB AND CALLER EQ PUSH2 0x48D8 JUMPI PUSH1 0x40 DUP1 MLOAD PUSH3 0x461BCD PUSH1 0xE5 SHL DUP2 MSTORE PUSH1 0x20 PUSH1 0x4 DUP3 ADD MSTORE PUSH1 0xF PUSH1 0x24 DUP3 ADD MSTORE PUSH15 0x66756E643A20217472656173757279 PUSH1 0x88 SHL PUSH1 0x44 DUP3 ADD MSTORE SWAP1 MLOAD SWAP1 DUP2 SWAP1 SUB PUSH1 0x64 ADD SWAP1 REVERT JUMPDEST PUSH1 0x22 SLOAD PUSH2 0x2342 SWAP1 PUSH1 0x1 PUSH1 0x1 PUSH1 0xA0 SHL SUB AND DUP3 PUSH2 0x55DE JUMP JUMPDEST PUSH1 0x20 SLOAD PUSH1 0x1 PUSH1 0x1 PUSH1 0xA0 SHL SUB AND CALLER EQ PUSH2 0x493E JUMPI PUSH1 0x40 DUP1 MLOAD PUSH3 0x461BCD PUSH1 0xE5 SHL DUP2 MSTORE PUSH1 0x20 PUSH1 0x4 DUP3 ADD MSTORE PUSH1 0xE PUSH1 0x24 DUP3 ADD MSTORE PUSH14 0x30B2322B37BA32B99D1010B3B7BB PUSH1 0x91 SHL PUSH1 0x44 DUP3 ADD MSTORE SWAP1 MLOAD SWAP1 DUP2 SWAP1 SUB PUSH1 0x64 ADD SWAP1 REVERT JUMPDEST PUSH1 0x1 PUSH1 0x1 PUSH1 0xA0 SHL SUB DUP3 AND PUSH1 0x0 SWAP1 DUP2 MSTORE PUSH1 0xE PUSH1 0x20 MSTORE PUSH1 0x40 SWAP1 KECCAK256 SLOAD PUSH2 0x4961 SWAP1 DUP3 PUSH2 0x52B0 JUMP JUMPDEST PUSH1 0x1 PUSH1 0x1 PUSH1 0xA0 SHL SUB DUP4 AND PUSH1 0x0 SWAP1 DUP2 MSTORE PUSH1 0xE PUSH1 0x20 MSTORE PUSH1 0x40 SWAP1 KECCAK256 SSTORE PUSH1 0xF SLOAD PUSH2 0x4987 SWAP1 DUP3 PUSH2 0x52B0 JUMP JUMPDEST PUSH1 0xF SSTORE PUSH1 0x1 PUSH1 0x1 PUSH1 0xA0 SHL SUB DUP1 DUP4 AND PUSH1 0x0 SWAP1 DUP2 MSTORE PUSH1 0x3 PUSH1 0x20 MSTORE PUSH1 0x40 DUP2 KECCAK256 SLOAD PUSH2 0x49B0 SWAP3 AND SWAP1 DUP4 PUSH2 0x58FE JUMP JUMPDEST POP POP JUMP JUMPDEST PUSH1 0x12 PUSH1 0x20 MSTORE PUSH1 0x0 SWAP1 DUP2 MSTORE PUSH1 0x40 SWAP1 KECCAK256 SLOAD DUP2 JUMP JUMPDEST PUSH1 0x1 PUSH1 0x1 PUSH1 0xA0 SHL SUB DUP1 DUP9 AND PUSH1 0x0 DUP2 DUP2 MSTORE PUSH1 0x8 PUSH1 0x20 SWAP1 DUP2 MSTORE PUSH1 0x40 DUP1 DUP4 KECCAK256 DUP1 SLOAD PUSH1 0x1 DUP1 DUP3 ADD SWAP1 SWAP3 SSTORE DUP3 MLOAD PUSH32 0x5FAE9EC55A1E547936E0E74D606B44CD5F912F9ADCD0BBA561FEA62D570259E9 DUP2 DUP7 ADD MSTORE DUP1 DUP5 ADD SWAP7 SWAP1 SWAP7 MSTORE SWAP6 DUP13 AND PUSH1 0x60 DUP7 ADD MSTORE PUSH1 0x80 DUP6 ADD DUP12 SWAP1 MSTORE PUSH1 0xA0 DUP6 ADD SWAP6 SWAP1 SWAP6 MSTORE PUSH1 0xC0 DUP1 DUP6 ADD DUP11 SWAP1 MSTORE DUP2 MLOAD DUP1 DUP7 SUB SWAP1 SWAP2 ADD DUP2 MSTORE PUSH1 0xE0 DUP6 ADD DUP3 MSTORE DUP1 MLOAD SWAP1 DUP4 ADD KECCAK256 PUSH2 0x1901 PUSH1 0xF0 SHL PUSH2 0x100 DUP7 ADD MSTORE PUSH32 0x0 PUSH2 0x102 DUP7 ADD MSTORE PUSH2 0x122 DUP1 DUP7 ADD DUP3 SWAP1 MSTORE DUP3 MLOAD DUP1 DUP8 SUB SWAP1 SWAP2 ADD DUP2 MSTORE PUSH2 0x142 DUP7 ADD DUP1 DUP5 MSTORE DUP2 MLOAD SWAP2 DUP6 ADD SWAP2 SWAP1 SWAP2 KECCAK256 SWAP1 DUP6 SWAP1 MSTORE PUSH2 0x162 DUP7 ADD DUP1 DUP5 MSTORE DUP2 SWAP1 MSTORE PUSH1 0xFF DUP11 AND PUSH2 0x182 DUP8 ADD MSTORE PUSH2 0x1A2 DUP7 ADD DUP10 SWAP1 MSTORE PUSH2 0x1C2 DUP7 ADD DUP9 SWAP1 MSTORE SWAP2 MLOAD SWAP1 SWAP6 SWAP2 SWAP5 SWAP2 SWAP3 PUSH2 0x1E2 DUP1 DUP5 ADD SWAP4 SWAP2 SWAP3 PUSH1 0x1F NOT DUP2 ADD SWAP3 DUP2 SWAP1 SUB SWAP1 SWAP2 ADD SWAP1 DUP6 GAS STATICCALL ISZERO DUP1 ISZERO PUSH2 0x4B01 JUMPI RETURNDATASIZE PUSH1 0x0 DUP1 RETURNDATACOPY RETURNDATASIZE PUSH1 0x0 REVERT JUMPDEST POP POP PUSH1 0x40 MLOAD PUSH1 0x1F NOT ADD MLOAD SWAP2 POP POP PUSH1 0x1 PUSH1 0x1 PUSH1 0xA0 SHL SUB DUP2 AND PUSH2 0x4B5D JUMPI PUSH1 0x40 DUP1 MLOAD PUSH3 0x461BCD PUSH1 0xE5 SHL DUP2 MSTORE PUSH1 0x20 PUSH1 0x4 DUP3 ADD MSTORE PUSH1 0x11 PUSH1 0x24 DUP3 ADD MSTORE PUSH17 0x7065726D69743A207369676E6174757265 PUSH1 0x78 SHL PUSH1 0x44 DUP3 ADD MSTORE SWAP1 MLOAD SWAP1 DUP2 SWAP1 SUB PUSH1 0x64 ADD SWAP1 REVERT JUMPDEST DUP10 PUSH1 0x1 PUSH1 0x1 PUSH1 0xA0 SHL SUB AND DUP2 PUSH1 0x1 PUSH1 0x1 PUSH1 0xA0 SHL SUB AND EQ PUSH2 0x4BBA JUMPI PUSH1 0x40 DUP1 MLOAD PUSH3 0x461BCD PUSH1 0xE5 SHL DUP2 MSTORE PUSH1 0x20 PUSH1 0x4 DUP3 ADD MSTORE PUSH1 0x14 PUSH1 0x24 DUP3 ADD MSTORE PUSH20 0x1C195C9B5A5D0E881D5B985D5D1A1BDC9A5E9959 PUSH1 0x62 SHL PUSH1 0x44 DUP3 ADD MSTORE SWAP1 MLOAD SWAP1 DUP2 SWAP1 SUB PUSH1 0x64 ADD SWAP1 REVERT JUMPDEST DUP7 TIMESTAMP GT ISZERO PUSH2 0x4C01 JUMPI PUSH1 0x40 DUP1 MLOAD PUSH3 0x461BCD PUSH1 0xE5 SHL DUP2 MSTORE PUSH1 0x20 PUSH1 0x4 DUP3 ADD MSTORE PUSH1 0xF PUSH1 0x24 DUP3 ADD MSTORE PUSH15 0x1C195C9B5A5D0E88195E1C1A5C9959 PUSH1 0x8A SHL PUSH1 0x44 DUP3 ADD MSTORE SWAP1 MLOAD SWAP1 DUP2 SWAP1 SUB PUSH1 0x64 ADD SWAP1 REVERT JUMPDEST PUSH1 0x1 PUSH1 0x1 PUSH1 0xA0 SHL SUB DUP1 DUP12 AND PUSH1 0x0 DUP2 DUP2 MSTORE PUSH1 0x6 PUSH1 0x20 SWAP1 DUP2 MSTORE PUSH1 0x40 DUP1 DUP4 KECCAK256 SWAP5 DUP15 AND DUP1 DUP5 MSTORE SWAP5 DUP3 MSTORE SWAP2 DUP3 SWAP1 KECCAK256 DUP13 SWAP1 SSTORE DUP2 MLOAD DUP13 DUP2 MSTORE SWAP2 MLOAD PUSH32 0x8C5BE1E5EBEC7D5BD14F71427D1E84F3DD0314C0F7B2291E5B200AC8C7C3B925 SWAP3 DUP2 SWAP1 SUB SWAP1 SWAP2 ADD SWAP1 LOG3 POP POP POP POP POP POP POP POP POP POP JUMP JUMPDEST PUSH1 0xE PUSH1 0x20 MSTORE PUSH1 0x0 SWAP1 DUP2 MSTORE PUSH1 0x40 SWAP1 KECCAK256 SLOAD DUP2 JUMP JUMPDEST PUSH1 0x1 PUSH1 0x1 PUSH1 0xA0 SHL SUB SWAP2 DUP3 AND PUSH1 0x0 SWAP1 DUP2 MSTORE PUSH1 0x6 PUSH1 0x20 SWAP1 DUP2 MSTORE PUSH1 0x40 DUP1 DUP4 KECCAK256 SWAP4 SWAP1 SWAP5 AND DUP3 MSTORE SWAP2 SWAP1 SWAP2 MSTORE KECCAK256 SLOAD SWAP1 JUMP JUMPDEST PUSH1 0x20 SLOAD PUSH1 0x1 PUSH1 0x1 PUSH1 0xA0 SHL SUB AND CALLER EQ PUSH2 0x4CF7 JUMPI PUSH1 0x40 DUP1 MLOAD PUSH3 0x461BCD PUSH1 0xE5 SHL DUP2 MSTORE PUSH1 0x20 PUSH1 0x4 DUP3 ADD MSTORE PUSH1 0xE PUSH1 0x24 DUP3 ADD MSTORE PUSH14 0x30B2322B37BA32B99D1010B3B7BB PUSH1 0x91 SHL PUSH1 0x44 DUP3 ADD MSTORE SWAP1 MLOAD SWAP1 DUP2 SWAP1 SUB PUSH1 0x64 ADD SWAP1 REVERT JUMPDEST PUSH1 0x1 PUSH1 0x1 PUSH1 0xA0 SHL SUB DUP3 AND PUSH1 0x0 SWAP1 DUP2 MSTORE PUSH1 0xE PUSH1 0x20 MSTORE PUSH1 0x40 SWAP1 KECCAK256 SLOAD PUSH2 0x4D1A SWAP1 DUP3 PUSH2 0x50D7 JUMP JUMPDEST PUSH1 0x1 PUSH1 0x1 PUSH1 0xA0 SHL SUB DUP4 AND PUSH1 0x0 SWAP1 DUP2 MSTORE PUSH1 0xE PUSH1 0x20 MSTORE PUSH1 0x40 SWAP1 KECCAK256 SSTORE PUSH1 0xF SLOAD PUSH2 0x4D40 SWAP1 DUP3 PUSH2 0x50D7 JUMP JUMPDEST PUSH1 0xF SSTORE PUSH1 0x1 PUSH1 0x1 PUSH1 0xA0 SHL SUB DUP1 DUP4 AND PUSH1 0x0 SWAP1 DUP2 MSTORE PUSH1 0x3 PUSH1 0x20 MSTORE PUSH1 0x40 DUP2 KECCAK256 SLOAD PUSH2 0x49B0 SWAP3 AND DUP4 PUSH2 0x58FE JUMP JUMPDEST PUSH1 0xC PUSH1 0x20 SWAP1 DUP2 MSTORE PUSH1 0x0 SWAP3 DUP4 MSTORE PUSH1 0x40 DUP1 DUP5 KECCAK256 SWAP1 SWAP2 MSTORE SWAP1 DUP3 MSTORE SWAP1 KECCAK256 SLOAD DUP2 JUMP JUMPDEST PUSH1 0x16 PUSH1 0x20 SWAP1 DUP2 MSTORE PUSH1 0x0 SWAP4 DUP5 MSTORE PUSH1 0x40 DUP1 DUP6 KECCAK256 DUP3 MSTORE SWAP3 DUP5 MSTORE DUP3 DUP5 KECCAK256 SWAP1 MSTORE DUP3 MSTORE SWAP1 KECCAK256 SLOAD DUP2 JUMP JUMPDEST PUSH1 0x10 PUSH1 0x20 MSTORE PUSH1 0x0 SWAP1 DUP2 MSTORE PUSH1 0x40 SWAP1 KECCAK256 SLOAD DUP2 JUMP JUMPDEST PUSH1 0x2 PUSH1 0x0 SLOAD EQ ISZERO PUSH2 0x4E00 JUMPI PUSH1 0x40 DUP1 MLOAD PUSH3 0x461BCD PUSH1 0xE5 SHL DUP2 MSTORE PUSH1 0x20 PUSH1 0x4 DUP3 ADD MSTORE PUSH1 0x1F PUSH1 0x24 DUP3 ADD MSTORE PUSH1 0x0 DUP1 MLOAD PUSH1 0x20 PUSH2 0x5F2E DUP4 CODECOPY DUP2 MLOAD SWAP2 MSTORE PUSH1 0x44 DUP3 ADD MSTORE SWAP1 MLOAD SWAP1 DUP2 SWAP1 SUB PUSH1 0x64 ADD SWAP1 REVERT JUMPDEST PUSH1 0x2 PUSH1 0x0 SSTORE PUSH1 0x20 SLOAD PUSH1 0x1 PUSH1 0x1 PUSH1 0xA0 SHL SUB AND CALLER EQ PUSH2 0x4E52 JUMPI PUSH1 0x40 DUP1 MLOAD PUSH3 0x461BCD PUSH1 0xE5 SHL DUP2 MSTORE PUSH1 0x20 PUSH1 0x4 DUP3 ADD MSTORE PUSH1 0xB PUSH1 0x24 DUP3 ADD MSTORE PUSH11 0x39B630B9B41D1010B3B7BB PUSH1 0xA9 SHL PUSH1 0x44 DUP3 ADD MSTORE SWAP1 MLOAD SWAP1 DUP2 SWAP1 SUB PUSH1 0x64 ADD SWAP1 REVERT JUMPDEST PUSH1 0x1 PUSH1 0x1 PUSH1 0xA0 SHL SUB DUP4 AND ADDRESS EQ ISZERO PUSH2 0x4E80 JUMPI PUSH1 0x20 SLOAD PUSH2 0x4E7B SWAP1 ADDRESS SWAP1 PUSH1 0x1 PUSH1 0x1 PUSH1 0xA0 SHL SUB AND DUP4 PUSH2 0x540F JUMP JUMPDEST PUSH2 0x4E9A JUMP JUMPDEST PUSH1 0x20 SLOAD PUSH2 0x4E9A SWAP1 PUSH1 0x1 PUSH1 0x1 PUSH1 0xA0 SHL SUB DUP6 DUP2 AND SWAP2 AND DUP4 PUSH2 0x5708 JUMP JUMPDEST PUSH2 0x4EA5 DUP4 DUP4 DUP4 PUSH2 0x5869 JUMP JUMPDEST PUSH1 0x1 PUSH1 0x1 PUSH1 0xA0 SHL SUB DUP3 AND PUSH1 0x0 DUP2 DUP2 MSTORE PUSH1 0x11 PUSH1 0x20 SWAP1 DUP2 MSTORE PUSH1 0x40 SWAP2 DUP3 SWAP1 KECCAK256 DUP1 SLOAD PUSH1 0xFF NOT AND SWAP1 SSTORE DUP2 MLOAD NUMBER DUP2 MSTORE SWAP1 DUP2 ADD DUP5 SWAP1 MSTORE DUP2 MLOAD CALLER SWAP4 SWAP3 PUSH32 0x69D77AD686558EB17ABB37094210B53F1907605515734181C7B63538C5508EF7 SWAP3 DUP3 SWAP1 SUB ADD SWAP1 LOG3 POP POP PUSH1 0x1 PUSH1 0x0 SSTORE POP JUMP JUMPDEST PUSH32 0x1AC861A6A8532F3704E1768564A53A32774F00D6CF20CCBBDF60AB61378302BC DUP2 JUMP JUMPDEST PUSH1 0x24 PUSH1 0x20 MSTORE PUSH1 0x0 SWAP1 DUP2 MSTORE PUSH1 0x40 SWAP1 KECCAK256 SLOAD PUSH1 0xFF AND DUP2 JUMP JUMPDEST PUSH2 0x2710 DUP2 JUMP JUMPDEST PUSH1 0x4 PUSH1 0x20 SWAP1 DUP2 MSTORE PUSH1 0x0 SWAP3 DUP4 MSTORE PUSH1 0x40 DUP1 DUP5 KECCAK256 SWAP1 SWAP2 MSTORE SWAP1 DUP3 MSTORE SWAP1 KECCAK256 DUP1 SLOAD PUSH1 0x1 SWAP1 SWAP2 ADD SLOAD PUSH4 0xFFFFFFFF SWAP1 SWAP2 AND SWAP1 DUP3 JUMP JUMPDEST PUSH1 0x21 SLOAD PUSH1 0x1 PUSH1 0x1 PUSH1 0xA0 SHL SUB AND DUP2 JUMP JUMPDEST PUSH1 0x1 SLOAD PUSH1 0x1 PUSH1 0x1 PUSH1 0xA0 SHL SUB AND DUP2 JUMP JUMPDEST PUSH1 0x20 SLOAD PUSH1 0x1 PUSH1 0x1 PUSH1 0xA0 SHL SUB AND CALLER EQ PUSH2 0x4FE4 JUMPI PUSH1 0x40 DUP1 MLOAD PUSH3 0x461BCD PUSH1 0xE5 SHL DUP2 MSTORE PUSH1 0x20 PUSH1 0x4 DUP3 ADD MSTORE PUSH1 0xD PUSH1 0x24 DUP3 ADD MSTORE PUSH13 0x3234B9B83ABA329D1010B3B7BB PUSH1 0x99 SHL PUSH1 0x44 DUP3 ADD MSTORE SWAP1 MLOAD SWAP1 DUP2 SWAP1 SUB PUSH1 0x64 ADD SWAP1 REVERT JUMPDEST PUSH1 0x1 PUSH1 0x1 PUSH1 0xA0 SHL SUB DUP2 AND PUSH1 0x0 DUP2 DUP2 MSTORE PUSH1 0x11 PUSH1 0x20 SWAP1 DUP2 MSTORE PUSH1 0x40 SWAP2 DUP3 SWAP1 KECCAK256 DUP1 SLOAD PUSH1 0xFF NOT AND PUSH1 0x1 OR SWAP1 SSTORE DUP2 MLOAD NUMBER DUP2 MSTORE SWAP2 MLOAD PUSH32 0xD80711F836D4A949BB6371B366F1839FB3B8A517841E9885FB2B73F7F974D738 SWAP3 DUP2 SWAP1 SUB SWAP1 SWAP2 ADD SWAP1 LOG2 POP JUMP JUMPDEST PUSH1 0x1D PUSH1 0x20 MSTORE PUSH1 0x0 SWAP1 DUP2 MSTORE PUSH1 0x40 SWAP1 KECCAK256 SLOAD PUSH1 0xFF AND DUP2 JUMP JUMPDEST PUSH1 0x1A PUSH1 0x20 SWAP1 DUP2 MSTORE PUSH1 0x0 SWAP4 DUP5 MSTORE PUSH1 0x40 DUP1 DUP6 KECCAK256 DUP3 MSTORE SWAP3 DUP5 MSTORE DUP3 DUP5 KECCAK256 SWAP1 MSTORE DUP3 MSTORE SWAP1 KECCAK256 SLOAD DUP2 JUMP JUMPDEST PUSH1 0x60 PUSH1 0x25 DUP1 SLOAD DUP1 PUSH1 0x20 MUL PUSH1 0x20 ADD PUSH1 0x40 MLOAD SWAP1 DUP2 ADD PUSH1 0x40 MSTORE DUP1 SWAP3 SWAP2 SWAP1 DUP2 DUP2 MSTORE PUSH1 0x20 ADD DUP3 DUP1 SLOAD DUP1 ISZERO PUSH2 0x32AA JUMPI PUSH1 0x20 MUL DUP3 ADD SWAP2 SWAP1 PUSH1 0x0 MSTORE PUSH1 0x20 PUSH1 0x0 KECCAK256 SWAP1 DUP2 SLOAD PUSH1 0x1 PUSH1 0x1 PUSH1 0xA0 SHL SUB AND DUP2 MSTORE PUSH1 0x1 SWAP1 SWAP2 ADD SWAP1 PUSH1 0x20 ADD DUP1 DUP4 GT PUSH2 0x328C JUMPI POP POP POP POP POP SWAP1 POP SWAP1 JUMP JUMPDEST PUSH1 0x0 DUP3 DUP3 ADD DUP4 DUP2 LT ISZERO PUSH2 0x424D JUMPI PUSH1 0x40 DUP1 MLOAD PUSH3 0x461BCD PUSH1 0xE5 SHL DUP2 MSTORE PUSH1 0x20 PUSH1 0x4 DUP3 ADD MSTORE PUSH1 0x6 PUSH1 0x24 DUP3 ADD MSTORE PUSH6 0x6164643A202B PUSH1 0xD0 SHL PUSH1 0x44 DUP3 ADD MSTORE SWAP1 MLOAD SWAP1 DUP2 SWAP1 SUB PUSH1 0x64 ADD SWAP1 REVERT JUMPDEST PUSH1 0x0 DUP3 PUSH2 0x5129 JUMPI POP PUSH1 0x0 PUSH2 0x1856 JUMP JUMPDEST DUP3 DUP3 MUL DUP3 DUP5 DUP3 DUP2 PUSH2 0x5136 JUMPI INVALID JUMPDEST DIV EQ PUSH2 0x424D JUMPI PUSH1 0x40 DUP1 MLOAD PUSH3 0x461BCD PUSH1 0xE5 SHL DUP2 MSTORE PUSH1 0x20 PUSH1 0x4 DUP3 ADD MSTORE PUSH1 0x6 PUSH1 0x24 DUP3 ADD MSTORE PUSH6 0x36BAB61D1015 PUSH1 0xD1 SHL PUSH1 0x44 DUP3 ADD MSTORE SWAP1 MLOAD SWAP1 DUP2 SWAP1 SUB PUSH1 0x64 ADD SWAP1 REVERT JUMPDEST PUSH1 0x0 PUSH2 0x424D DUP4 DUP4 PUSH1 0x40 MLOAD DUP1 PUSH1 0x40 ADD PUSH1 0x40 MSTORE DUP1 PUSH1 0x6 DUP2 MSTORE PUSH1 0x20 ADD PUSH6 0x6469763A202F PUSH1 0xD0 SHL DUP2 MSTORE POP PUSH2 0x5A7C JUMP JUMPDEST PUSH1 0x1 PUSH1 0x1 PUSH1 0xA0 SHL SUB DUP3 AND PUSH2 0x51EE JUMPI PUSH1 0x40 DUP1 MLOAD PUSH3 0x461BCD PUSH1 0xE5 SHL DUP2 MSTORE PUSH1 0x20 PUSH1 0x4 DUP3 ADD MSTORE PUSH1 0x13 PUSH1 0x24 DUP3 ADD MSTORE PUSH19 0x5F6275726E3A207A65726F2061646472657373 PUSH1 0x68 SHL PUSH1 0x44 DUP3 ADD MSTORE SWAP1 MLOAD SWAP1 DUP2 SWAP1 SUB PUSH1 0x64 ADD SWAP1 REVERT JUMPDEST PUSH1 0x40 DUP1 MLOAD DUP1 DUP3 ADD DUP3 MSTORE PUSH1 0x16 DUP2 MSTORE PUSH22 0x5F6275726E3A20657863656564732062616C616E6365 PUSH1 0x50 SHL PUSH1 0x20 DUP1 DUP4 ADD SWAP2 SWAP1 SWAP2 MSTORE PUSH1 0x1 PUSH1 0x1 PUSH1 0xA0 SHL SUB DUP6 AND PUSH1 0x0 SWAP1 DUP2 MSTORE PUSH1 0x7 SWAP1 SWAP2 MSTORE SWAP2 SWAP1 SWAP2 KECCAK256 SLOAD PUSH2 0x5242 SWAP2 DUP4 SWAP1 PUSH2 0x5378 JUMP JUMPDEST PUSH1 0x1 PUSH1 0x1 PUSH1 0xA0 SHL SUB DUP4 AND PUSH1 0x0 SWAP1 DUP2 MSTORE PUSH1 0x7 PUSH1 0x20 MSTORE PUSH1 0x40 SWAP1 KECCAK256 SSTORE PUSH1 0x2 SLOAD PUSH2 0x5268 SWAP1 DUP3 PUSH2 0x52B0 JUMP JUMPDEST PUSH1 0x2 SSTORE PUSH1 0x40 DUP1 MLOAD DUP3 DUP2 MSTORE SWAP1 MLOAD PUSH1 0x0 SWAP2 PUSH1 0x1 PUSH1 0x1 PUSH1 0xA0 SHL SUB DUP6 AND SWAP2 PUSH32 0xDDF252AD1BE2C89B69C2B068FC378DAA952BA7F163C4A11628F55A4DF523B3EF SWAP2 DUP2 SWAP1 SUB PUSH1 0x20 ADD SWAP1 LOG3 POP POP JUMP JUMPDEST PUSH1 0x0 PUSH2 0x424D DUP4 DUP4 PUSH1 0x40 MLOAD DUP1 PUSH1 0x40 ADD PUSH1 0x40 MSTORE DUP1 PUSH1 0x6 DUP2 MSTORE PUSH1 0x20 ADD PUSH6 0x7375623A202D PUSH1 0xD0 SHL DUP2 MSTORE POP PUSH2 0x5378 JUMP JUMPDEST PUSH1 0x1 PUSH1 0x1 PUSH1 0xA0 SHL SUB DUP1 DUP4 AND PUSH1 0x0 SWAP1 DUP2 MSTORE PUSH1 0xD PUSH1 0x20 SWAP1 DUP2 MSTORE PUSH1 0x40 DUP1 DUP4 KECCAK256 SWAP4 DUP8 AND DUP4 MSTORE SWAP3 SWAP1 MSTORE KECCAK256 SLOAD PUSH2 0x530B SWAP1 DUP3 PUSH2 0x50D7 JUMP JUMPDEST PUSH1 0x1 PUSH1 0x1 PUSH1 0xA0 SHL SUB DUP1 DUP5 AND PUSH1 0x0 SWAP1 DUP2 MSTORE PUSH1 0xD PUSH1 0x20 SWAP1 DUP2 MSTORE PUSH1 0x40 DUP1 DUP4 KECCAK256 SWAP4 DUP9 AND DUP1 DUP5 MSTORE SWAP4 SWAP1 SWAP2 MSTORE SWAP1 KECCAK256 SWAP2 SWAP1 SWAP2 SSTORE ADDRESS EQ ISZERO PUSH2 0x5373 JUMPI PUSH1 0xF SLOAD PUSH2 0x534B SWAP1 DUP3 PUSH2 0x50D7 JUMP JUMPDEST PUSH1 0xF SSTORE PUSH1 0x1 PUSH1 0x1 PUSH1 0xA0 SHL SUB DUP1 DUP4 AND PUSH1 0x0 SWAP1 DUP2 MSTORE PUSH1 0x3 PUSH1 0x20 MSTORE PUSH1 0x40 DUP2 KECCAK256 SLOAD PUSH2 0x5373 SWAP3 AND DUP4 PUSH2 0x58FE JUMP JUMPDEST POP POP POP JUMP JUMPDEST PUSH1 0x0 DUP2 DUP5 DUP5 GT ISZERO PUSH2 0x5407 JUMPI PUSH1 0x40 MLOAD PUSH3 0x461BCD PUSH1 0xE5 SHL DUP2 MSTORE PUSH1 0x4 ADD DUP1 DUP1 PUSH1 0x20 ADD DUP3 DUP2 SUB DUP3 MSTORE DUP4 DUP2 DUP2 MLOAD DUP2 MSTORE PUSH1 0x20 ADD SWAP2 POP DUP1 MLOAD SWAP1 PUSH1 0x20 ADD SWAP1 DUP1 DUP4 DUP4 PUSH1 0x0 JUMPDEST DUP4 DUP2 LT ISZERO PUSH2 0x53CC JUMPI DUP2 DUP2 ADD MLOAD DUP4 DUP3 ADD MSTORE PUSH1 0x20 ADD PUSH2 0x53B4 JUMP JUMPDEST POP POP POP POP SWAP1 POP SWAP1 DUP2 ADD SWAP1 PUSH1 0x1F AND DUP1 ISZERO PUSH2 0x53F9 JUMPI DUP1 DUP3 SUB DUP1 MLOAD PUSH1 0x1 DUP4 PUSH1 0x20 SUB PUSH2 0x100 EXP SUB NOT AND DUP2 MSTORE PUSH1 0x20 ADD SWAP2 POP JUMPDEST POP SWAP3 POP POP POP PUSH1 0x40 MLOAD DUP1 SWAP2 SUB SWAP1 REVERT JUMPDEST POP POP POP SWAP1 SUB SWAP1 JUMP JUMPDEST PUSH1 0x1 PUSH1 0x1 PUSH1 0xA0 SHL SUB DUP4 AND PUSH2 0x546A JUMPI PUSH1 0x40 DUP1 MLOAD PUSH3 0x461BCD PUSH1 0xE5 SHL DUP2 MSTORE PUSH1 0x20 PUSH1 0x4 DUP3 ADD MSTORE PUSH1 0x1D PUSH1 0x24 DUP3 ADD MSTORE PUSH32 0x5F7472616E73666572546F6B656E733A207A65726F2061646472657373000000 PUSH1 0x44 DUP3 ADD MSTORE SWAP1 MLOAD SWAP1 DUP2 SWAP1 SUB PUSH1 0x64 ADD SWAP1 REVERT JUMPDEST PUSH1 0x1 PUSH1 0x1 PUSH1 0xA0 SHL SUB DUP3 AND PUSH2 0x54C5 JUMPI PUSH1 0x40 DUP1 MLOAD PUSH3 0x461BCD PUSH1 0xE5 SHL DUP2 MSTORE PUSH1 0x20 PUSH1 0x4 DUP3 ADD MSTORE PUSH1 0x1D PUSH1 0x24 DUP3 ADD MSTORE PUSH32 0x5F7472616E73666572546F6B656E733A207A65726F2061646472657373000000 PUSH1 0x44 DUP3 ADD MSTORE SWAP1 MLOAD SWAP1 DUP2 SWAP1 SUB PUSH1 0x64 ADD SWAP1 REVERT JUMPDEST PUSH1 0x40 DUP1 MLOAD DUP1 DUP3 ADD DUP3 MSTORE PUSH1 0x20 DUP1 DUP3 MSTORE PUSH32 0x5F7472616E73666572546F6B656E733A20657863656564732062616C616E6365 DUP2 DUP4 ADD MSTORE PUSH1 0x1 PUSH1 0x1 PUSH1 0xA0 SHL SUB DUP7 AND PUSH1 0x0 SWAP1 DUP2 MSTORE PUSH1 0x7 SWAP1 SWAP2 MSTORE SWAP2 SWAP1 SWAP2 KECCAK256 SLOAD PUSH2 0x551C SWAP2 DUP4 SWAP1 PUSH2 0x5378 JUMP JUMPDEST PUSH1 0x1 PUSH1 0x1 PUSH1 0xA0 SHL SUB DUP1 DUP6 AND PUSH1 0x0 SWAP1 DUP2 MSTORE PUSH1 0x7 PUSH1 0x20 DUP2 DUP2 MSTORE PUSH1 0x40 DUP1 DUP5 KECCAK256 SWAP6 SWAP1 SWAP6 SSTORE DUP5 MLOAD DUP1 DUP7 ADD DUP7 MSTORE PUSH1 0x1A DUP2 MSTORE PUSH32 0x5F7472616E73666572546F6B656E733A206F766572666C6F7773000000000000 DUP2 DUP4 ADD MSTORE SWAP4 DUP8 AND DUP4 MSTORE MSTORE SWAP2 SWAP1 SWAP2 KECCAK256 SLOAD PUSH2 0x5582 SWAP2 DUP4 SWAP1 PUSH2 0x5AE1 JUMP JUMPDEST PUSH1 0x1 PUSH1 0x1 PUSH1 0xA0 SHL SUB DUP1 DUP5 AND PUSH1 0x0 DUP2 DUP2 MSTORE PUSH1 0x7 PUSH1 0x20 SWAP1 DUP2 MSTORE PUSH1 0x40 SWAP2 DUP3 SWAP1 KECCAK256 SWAP5 SWAP1 SWAP5 SSTORE DUP1 MLOAD DUP6 DUP2 MSTORE SWAP1 MLOAD SWAP2 SWAP4 SWAP3 DUP8 AND SWAP3 PUSH32 0xDDF252AD1BE2C89B69C2B068FC378DAA952BA7F163C4A11628F55A4DF523B3EF SWAP3 SWAP2 DUP3 SWAP1 SUB ADD SWAP1 LOG3 POP POP POP JUMP JUMPDEST PUSH1 0x22 SLOAD PUSH1 0x1 PUSH1 0x1 PUSH1 0xA0 SHL SUB AND PUSH1 0x0 SWAP1 DUP2 MSTORE PUSH1 0x7 PUSH1 0x20 MSTORE PUSH1 0x40 SWAP1 KECCAK256 SLOAD DUP2 GT ISZERO PUSH2 0x564D JUMPI PUSH1 0x40 DUP1 MLOAD PUSH3 0x461BCD PUSH1 0xE5 SHL DUP2 MSTORE PUSH1 0x20 PUSH1 0x4 DUP3 ADD MSTORE PUSH1 0x19 PUSH1 0x24 DUP3 ADD MSTORE PUSH32 0x74726561737572793A20657863656564732062616C616E636500000000000000 PUSH1 0x44 DUP3 ADD MSTORE SWAP1 MLOAD SWAP1 DUP2 SWAP1 SUB PUSH1 0x64 ADD SWAP1 REVERT JUMPDEST PUSH1 0x1 PUSH1 0x1 PUSH1 0xA0 SHL SUB DUP3 AND PUSH1 0x0 SWAP1 DUP2 MSTORE PUSH1 0x7 PUSH1 0x20 MSTORE PUSH1 0x40 SWAP1 KECCAK256 SLOAD PUSH2 0x5670 SWAP1 DUP3 PUSH2 0x50D7 JUMP JUMPDEST PUSH1 0x1 PUSH1 0x1 PUSH1 0xA0 SHL SUB DUP1 DUP5 AND PUSH1 0x0 SWAP1 DUP2 MSTORE PUSH1 0x7 PUSH1 0x20 MSTORE PUSH1 0x40 DUP1 DUP3 KECCAK256 SWAP4 SWAP1 SWAP4 SSTORE PUSH1 0x22 SLOAD SWAP1 SWAP2 AND DUP2 MSTORE KECCAK256 SLOAD PUSH2 0x56A2 SWAP1 DUP3 PUSH2 0x52B0 JUMP JUMPDEST PUSH1 0x22 DUP1 SLOAD PUSH1 0x1 PUSH1 0x1 PUSH1 0xA0 SHL SUB SWAP1 DUP2 AND PUSH1 0x0 SWAP1 DUP2 MSTORE PUSH1 0x7 PUSH1 0x20 SWAP1 DUP2 MSTORE PUSH1 0x40 SWAP2 DUP3 SWAP1 KECCAK256 SWAP5 SWAP1 SWAP5 SSTORE SWAP2 SLOAD DUP3 MLOAD DUP6 DUP2 MSTORE SWAP3 MLOAD DUP7 DUP4 AND SWAP5 SWAP2 SWAP1 SWAP3 AND SWAP3 PUSH32 0xDDF252AD1BE2C89B69C2B068FC378DAA952BA7F163C4A11628F55A4DF523B3EF SWAP3 SWAP1 DUP2 SWAP1 SUB SWAP1 SWAP2 ADD SWAP1 LOG3 POP POP JUMP JUMPDEST PUSH1 0x40 DUP1 MLOAD PUSH1 0x1 PUSH1 0x1 PUSH1 0xA0 SHL SUB DUP5 AND PUSH1 0x24 DUP3 ADD MSTORE PUSH1 0x44 DUP1 DUP3 ADD DUP5 SWAP1 MSTORE DUP3 MLOAD DUP1 DUP4 SUB SWAP1 SWAP2 ADD DUP2 MSTORE PUSH1 0x64 SWAP1 SWAP2 ADD SWAP1 SWAP2 MSTORE PUSH1 0x20 DUP2 ADD DUP1 MLOAD PUSH1 0x1 PUSH1 0x1 PUSH1 0xE0 SHL SUB AND PUSH4 0xA9059CBB PUSH1 0xE0 SHL OR SWAP1 MSTORE PUSH2 0x5373 SWAP1 DUP5 SWAP1 PUSH2 0x5B3F JUMP JUMPDEST PUSH1 0x40 DUP1 MLOAD PUSH1 0x1 PUSH1 0x1 PUSH1 0xA0 SHL SUB DUP1 DUP7 AND PUSH1 0x24 DUP4 ADD MSTORE DUP5 AND PUSH1 0x44 DUP3 ADD MSTORE PUSH1 0x64 DUP1 DUP3 ADD DUP5 SWAP1 MSTORE DUP3 MLOAD DUP1 DUP4 SUB SWAP1 SWAP2 ADD DUP2 MSTORE PUSH1 0x84 SWAP1 SWAP2 ADD SWAP1 SWAP2 MSTORE PUSH1 0x20 DUP2 ADD DUP1 MLOAD PUSH1 0x1 PUSH1 0x1 PUSH1 0xE0 SHL SUB AND PUSH4 0x23B872DD PUSH1 0xE0 SHL OR SWAP1 MSTORE PUSH2 0x57B4 SWAP1 DUP6 SWAP1 PUSH2 0x5B3F JUMP JUMPDEST POP POP POP POP JUMP JUMPDEST PUSH1 0x1 PUSH1 0x1 PUSH1 0xA0 SHL SUB DUP1 DUP4 AND PUSH1 0x0 DUP2 DUP2 MSTORE PUSH1 0x3 PUSH1 0x20 SWAP1 DUP2 MSTORE PUSH1 0x40 DUP1 DUP4 KECCAK256 SLOAD PUSH1 0xD DUP4 MSTORE DUP2 DUP5 KECCAK256 ADDRESS DUP6 MSTORE DUP4 MSTORE DUP2 DUP5 KECCAK256 SLOAD SWAP5 DUP5 MSTORE PUSH1 0xE SWAP1 SWAP3 MSTORE DUP3 KECCAK256 SLOAD SWAP4 AND SWAP3 SWAP1 SWAP2 PUSH2 0x5801 SWAP2 SWAP1 PUSH2 0x50D7 JUMP JUMPDEST PUSH1 0x1 PUSH1 0x1 PUSH1 0xA0 SHL SUB DUP6 DUP2 AND PUSH1 0x0 DUP2 DUP2 MSTORE PUSH1 0x3 PUSH1 0x20 MSTORE PUSH1 0x40 DUP1 DUP3 KECCAK256 DUP1 SLOAD PUSH1 0x1 PUSH1 0x1 PUSH1 0xA0 SHL SUB NOT AND DUP10 DUP7 AND SWAP1 DUP2 OR SWAP1 SWAP2 SSTORE SWAP1 MLOAD SWAP5 SWAP6 POP SWAP4 SWAP3 DUP7 AND SWAP3 PUSH32 0x3134E8A2E6D97E929A7E54011EA5485D7D196DD5F0BA4D4EF95803E8E3FC257F SWAP2 SWAP1 LOG4 PUSH2 0x57B4 DUP3 DUP5 DUP4 PUSH2 0x58FE JUMP JUMPDEST PUSH1 0x1 PUSH1 0x1 PUSH1 0xA0 SHL SUB DUP1 DUP4 AND PUSH1 0x0 SWAP1 DUP2 MSTORE PUSH1 0xD PUSH1 0x20 SWAP1 DUP2 MSTORE PUSH1 0x40 DUP1 DUP4 KECCAK256 SWAP4 DUP8 AND DUP4 MSTORE SWAP3 SWAP1 MSTORE KECCAK256 SLOAD PUSH2 0x5899 SWAP1 DUP3 PUSH2 0x52B0 JUMP JUMPDEST PUSH1 0x1 PUSH1 0x1 PUSH1 0xA0 SHL SUB DUP1 DUP5 AND PUSH1 0x0 SWAP1 DUP2 MSTORE PUSH1 0xD PUSH1 0x20 SWAP1 DUP2 MSTORE PUSH1 0x40 DUP1 DUP4 KECCAK256 SWAP4 DUP9 AND DUP1 DUP5 MSTORE SWAP4 SWAP1 SWAP2 MSTORE SWAP1 KECCAK256 SWAP2 SWAP1 SWAP2 SSTORE ADDRESS EQ ISZERO PUSH2 0x5373 JUMPI PUSH1 0xF SLOAD PUSH2 0x58D9 SWAP1 DUP3 PUSH2 0x52B0 JUMP JUMPDEST PUSH1 0xF SSTORE PUSH1 0x1 PUSH1 0x1 PUSH1 0xA0 SHL SUB DUP1 DUP4 AND PUSH1 0x0 SWAP1 DUP2 MSTORE PUSH1 0x3 PUSH1 0x20 MSTORE PUSH1 0x40 DUP2 KECCAK256 SLOAD PUSH2 0x5373 SWAP3 AND SWAP1 DUP4 JUMPDEST DUP2 PUSH1 0x1 PUSH1 0x1 PUSH1 0xA0 SHL SUB AND DUP4 PUSH1 0x1 PUSH1 0x1 PUSH1 0xA0 SHL SUB AND EQ ISZERO DUP1 ISZERO PUSH2 0x5920 JUMPI POP PUSH1 0x0 DUP2 GT JUMPDEST ISZERO PUSH2 0x5373 JUMPI PUSH1 0x1 PUSH1 0x1 PUSH1 0xA0 SHL SUB DUP4 AND ISZERO PUSH2 0x59EB JUMPI PUSH1 0x1 PUSH1 0x1 PUSH1 0xA0 SHL SUB DUP4 AND PUSH1 0x0 SWAP1 DUP2 MSTORE PUSH1 0x5 PUSH1 0x20 MSTORE PUSH1 0x40 DUP2 KECCAK256 SLOAD PUSH4 0xFFFFFFFF AND SWAP1 DUP2 PUSH2 0x5960 JUMPI PUSH1 0x0 PUSH2 0x5992 JUMP JUMPDEST PUSH1 0x1 PUSH1 0x1 PUSH1 0xA0 SHL SUB DUP6 AND PUSH1 0x0 SWAP1 DUP2 MSTORE PUSH1 0x4 PUSH1 0x20 SWAP1 DUP2 MSTORE PUSH1 0x40 DUP1 DUP4 KECCAK256 PUSH4 0xFFFFFFFF PUSH1 0x0 NOT DUP8 ADD AND DUP5 MSTORE SWAP1 SWAP2 MSTORE SWAP1 KECCAK256 PUSH1 0x1 ADD SLOAD JUMPDEST SWAP1 POP PUSH1 0x0 PUSH2 0x59D9 DUP5 PUSH1 0x40 MLOAD DUP1 PUSH1 0x40 ADD PUSH1 0x40 MSTORE DUP1 PUSH1 0x16 DUP2 MSTORE PUSH1 0x20 ADD PUSH22 0x5F6D6F7665566F7465733A20756E646572666C6F7773 PUSH1 0x50 SHL DUP2 MSTORE POP DUP5 PUSH2 0x5378 SWAP1 SWAP3 SWAP2 SWAP1 PUSH4 0xFFFFFFFF AND JUMP JUMPDEST SWAP1 POP PUSH2 0x59E7 DUP7 DUP5 DUP5 DUP5 PUSH2 0x5CFA JUMP JUMPDEST POP POP POP JUMPDEST PUSH1 0x1 PUSH1 0x1 PUSH1 0xA0 SHL SUB DUP3 AND ISZERO PUSH2 0x5373 JUMPI PUSH1 0x1 PUSH1 0x1 PUSH1 0xA0 SHL SUB DUP3 AND PUSH1 0x0 SWAP1 DUP2 MSTORE PUSH1 0x5 PUSH1 0x20 MSTORE PUSH1 0x40 DUP2 KECCAK256 SLOAD PUSH4 0xFFFFFFFF AND SWAP1 DUP2 PUSH2 0x5A26 JUMPI PUSH1 0x0 PUSH2 0x5A58 JUMP JUMPDEST PUSH1 0x1 PUSH1 0x1 PUSH1 0xA0 SHL SUB DUP5 AND PUSH1 0x0 SWAP1 DUP2 MSTORE PUSH1 0x4 PUSH1 0x20 SWAP1 DUP2 MSTORE PUSH1 0x40 DUP1 DUP4 KECCAK256 PUSH4 0xFFFFFFFF PUSH1 0x0 NOT DUP8 ADD AND DUP5 MSTORE SWAP1 SWAP2 MSTORE SWAP1 KECCAK256 PUSH1 0x1 ADD SLOAD JUMPDEST SWAP1 POP PUSH1 0x0 PUSH2 0x5A66 DUP3 DUP6 PUSH2 0x50D7 JUMP JUMPDEST SWAP1 POP PUSH2 0x5A74 DUP6 DUP5 DUP5 DUP5 PUSH2 0x5CFA JUMP JUMPDEST POP POP POP POP POP POP JUMP JUMPDEST PUSH1 0x0 DUP2 DUP4 PUSH2 0x5ACB JUMPI PUSH1 0x40 MLOAD PUSH3 0x461BCD PUSH1 0xE5 SHL DUP2 MSTORE PUSH1 0x20 PUSH1 0x4 DUP3 ADD DUP2 DUP2 MSTORE DUP4 MLOAD PUSH1 0x24 DUP5 ADD MSTORE DUP4 MLOAD SWAP1 SWAP3 DUP4 SWAP3 PUSH1 0x44 SWAP1 SWAP2 ADD SWAP2 SWAP1 DUP6 ADD SWAP1 DUP1 DUP4 DUP4 PUSH1 0x0 DUP4 ISZERO PUSH2 0x53CC JUMPI DUP2 DUP2 ADD MLOAD DUP4 DUP3 ADD MSTORE PUSH1 0x20 ADD PUSH2 0x53B4 JUMP JUMPDEST POP PUSH1 0x0 DUP4 DUP6 DUP2 PUSH2 0x5AD7 JUMPI INVALID JUMPDEST DIV SWAP6 SWAP5 POP POP POP POP POP JUMP JUMPDEST PUSH1 0x0 DUP4 DUP4 ADD DUP3 DUP6 DUP3 LT ISZERO PUSH2 0x5B36 JUMPI PUSH1 0x40 MLOAD PUSH3 0x461BCD PUSH1 0xE5 SHL DUP2 MSTORE PUSH1 0x20 PUSH1 0x4 DUP3 ADD DUP2 DUP2 MSTORE DUP4 MLOAD PUSH1 0x24 DUP5 ADD MSTORE DUP4 MLOAD SWAP1 SWAP3 DUP4 SWAP3 PUSH1 0x44 SWAP1 SWAP2 ADD SWAP2 SWAP1 DUP6 ADD SWAP1 DUP1 DUP4 DUP4 PUSH1 0x0 DUP4 ISZERO PUSH2 0x53CC JUMPI DUP2 DUP2 ADD MLOAD DUP4 DUP3 ADD MSTORE PUSH1 0x20 ADD PUSH2 0x53B4 JUMP JUMPDEST POP SWAP5 SWAP4 POP POP POP POP JUMP JUMPDEST PUSH2 0x5B51 DUP3 PUSH1 0x1 PUSH1 0x1 PUSH1 0xA0 SHL SUB AND PUSH2 0x5E7C JUMP JUMPDEST PUSH2 0x5B99 JUMPI PUSH1 0x40 DUP1 MLOAD PUSH3 0x461BCD PUSH1 0xE5 SHL DUP2 MSTORE PUSH1 0x20 PUSH1 0x4 DUP3 ADD MSTORE PUSH1 0x14 PUSH1 0x24 DUP3 ADD MSTORE PUSH20 0x14D85999515490CC8C0E880858DBDB9D1C9858DD PUSH1 0x62 SHL PUSH1 0x44 DUP3 ADD MSTORE SWAP1 MLOAD SWAP1 DUP2 SWAP1 SUB PUSH1 0x64 ADD SWAP1 REVERT JUMPDEST PUSH1 0x0 PUSH1 0x60 DUP4 PUSH1 0x1 PUSH1 0x1 PUSH1 0xA0 SHL SUB AND DUP4 PUSH1 0x40 MLOAD DUP1 DUP3 DUP1 MLOAD SWAP1 PUSH1 0x20 ADD SWAP1 DUP1 DUP4 DUP4 JUMPDEST PUSH1 0x20 DUP4 LT PUSH2 0x5BD7 JUMPI DUP1 MLOAD DUP3 MSTORE PUSH1 0x1F NOT SWAP1 SWAP3 ADD SWAP2 PUSH1 0x20 SWAP2 DUP3 ADD SWAP2 ADD PUSH2 0x5BB8 JUMP JUMPDEST PUSH1 0x1 DUP4 PUSH1 0x20 SUB PUSH2 0x100 EXP SUB DUP1 NOT DUP3 MLOAD AND DUP2 DUP5 MLOAD AND DUP1 DUP3 OR DUP6 MSTORE POP POP POP POP POP POP SWAP1 POP ADD SWAP2 POP POP PUSH1 0x0 PUSH1 0x40 MLOAD DUP1 DUP4 SUB DUP2 PUSH1 0x0 DUP7 GAS CALL SWAP2 POP POP RETURNDATASIZE DUP1 PUSH1 0x0 DUP2 EQ PUSH2 0x5C39 JUMPI PUSH1 0x40 MLOAD SWAP2 POP PUSH1 0x1F NOT PUSH1 0x3F RETURNDATASIZE ADD AND DUP3 ADD PUSH1 0x40 MSTORE RETURNDATASIZE DUP3 MSTORE RETURNDATASIZE PUSH1 0x0 PUSH1 0x20 DUP5 ADD RETURNDATACOPY PUSH2 0x5C3E JUMP JUMPDEST PUSH1 0x60 SWAP2 POP JUMPDEST POP SWAP2 POP SWAP2 POP DUP2 PUSH2 0x5C95 JUMPI PUSH1 0x40 DUP1 MLOAD PUSH3 0x461BCD PUSH1 0xE5 SHL DUP2 MSTORE PUSH1 0x20 PUSH1 0x4 DUP3 ADD DUP2 SWAP1 MSTORE PUSH1 0x24 DUP3 ADD MSTORE PUSH32 0x5361666545524332303A206C6F772D6C6576656C2063616C6C206661696C6564 PUSH1 0x44 DUP3 ADD MSTORE SWAP1 MLOAD SWAP1 DUP2 SWAP1 SUB PUSH1 0x64 ADD SWAP1 REVERT JUMPDEST DUP1 MLOAD ISZERO PUSH2 0x57B4 JUMPI DUP1 DUP1 PUSH1 0x20 ADD SWAP1 MLOAD PUSH1 0x20 DUP2 LT ISZERO PUSH2 0x5CB1 JUMPI PUSH1 0x0 DUP1 REVERT JUMPDEST POP MLOAD PUSH2 0x57B4 JUMPI PUSH1 0x40 DUP1 MLOAD PUSH3 0x461BCD PUSH1 0xE5 SHL DUP2 MSTORE PUSH1 0x20 PUSH1 0x4 DUP3 ADD MSTORE PUSH1 0x13 PUSH1 0x24 DUP3 ADD MSTORE PUSH19 0x14D85999515490CC8C0E88085CDD58D8D95959 PUSH1 0x6A SHL PUSH1 0x44 DUP3 ADD MSTORE SWAP1 MLOAD SWAP1 DUP2 SWAP1 SUB PUSH1 0x64 ADD SWAP1 REVERT JUMPDEST PUSH1 0x0 PUSH2 0x5D3B NUMBER PUSH1 0x40 MLOAD DUP1 PUSH1 0x40 ADD PUSH1 0x40 MSTORE DUP1 PUSH1 0x19 DUP2 MSTORE PUSH1 0x20 ADD PUSH32 0x5F7772697465436865636B706F696E743A203332206269747300000000000000 DUP2 MSTORE POP PUSH2 0x5EB8 JUMP JUMPDEST SWAP1 POP PUSH1 0x0 DUP5 PUSH4 0xFFFFFFFF AND GT DUP1 ISZERO PUSH2 0x5D84 JUMPI POP PUSH1 0x1 PUSH1 0x1 PUSH1 0xA0 SHL SUB DUP6 AND PUSH1 0x0 SWAP1 DUP2 MSTORE PUSH1 0x4 PUSH1 0x20 SWAP1 DUP2 MSTORE PUSH1 0x40 DUP1 DUP4 KECCAK256 PUSH4 0xFFFFFFFF PUSH1 0x0 NOT DUP10 ADD DUP2 AND DUP6 MSTORE SWAP3 MSTORE SWAP1 SWAP2 KECCAK256 SLOAD DUP3 DUP3 AND SWAP2 AND EQ JUMPDEST ISZERO PUSH2 0x5DC1 JUMPI PUSH1 0x1 PUSH1 0x1 PUSH1 0xA0 SHL SUB DUP6 AND PUSH1 0x0 SWAP1 DUP2 MSTORE PUSH1 0x4 PUSH1 0x20 SWAP1 DUP2 MSTORE PUSH1 0x40 DUP1 DUP4 KECCAK256 PUSH4 0xFFFFFFFF PUSH1 0x0 NOT DUP10 ADD AND DUP5 MSTORE SWAP1 SWAP2 MSTORE SWAP1 KECCAK256 PUSH1 0x1 ADD DUP3 SWAP1 SSTORE PUSH2 0x5E32 JUMP JUMPDEST PUSH1 0x40 DUP1 MLOAD DUP1 DUP3 ADD DUP3 MSTORE PUSH4 0xFFFFFFFF DUP1 DUP5 AND DUP3 MSTORE PUSH1 0x20 DUP1 DUP4 ADD DUP7 DUP2 MSTORE PUSH1 0x1 PUSH1 0x1 PUSH1 0xA0 SHL SUB DUP11 AND PUSH1 0x0 DUP2 DUP2 MSTORE PUSH1 0x4 DUP5 MSTORE DUP7 DUP2 KECCAK256 DUP12 DUP7 AND DUP3 MSTORE DUP5 MSTORE DUP7 DUP2 KECCAK256 SWAP6 MLOAD DUP7 SLOAD SWAP1 DUP7 AND PUSH4 0xFFFFFFFF NOT SWAP2 DUP3 AND OR DUP8 SSTORE SWAP3 MLOAD PUSH1 0x1 SWAP7 DUP8 ADD SSTORE SWAP1 DUP2 MSTORE PUSH1 0x5 SWAP1 SWAP3 MSTORE SWAP4 SWAP1 KECCAK256 DUP1 SLOAD SWAP3 DUP9 ADD SWAP1 SWAP2 AND SWAP2 SWAP1 SWAP3 AND OR SWAP1 SSTORE JUMPDEST PUSH1 0x40 DUP1 MLOAD DUP5 DUP2 MSTORE PUSH1 0x20 DUP2 ADD DUP5 SWAP1 MSTORE DUP2 MLOAD PUSH1 0x1 PUSH1 0x1 PUSH1 0xA0 SHL SUB DUP9 AND SWAP3 PUSH32 0xDEC2BACDD2F05B59DE34DA9B523DFF8BE42E5E38E818C82FDB0BAE774387A724 SWAP3 DUP3 SWAP1 SUB ADD SWAP1 LOG2 POP POP POP POP POP JUMP JUMPDEST PUSH1 0x0 DUP2 EXTCODEHASH PUSH32 0xC5D2460186F7233C927E7DB2DCC703C0E500B653CA82273B7BFAD8045D85A470 DUP2 DUP2 EQ DUP1 ISZERO SWAP1 PUSH2 0x5EB0 JUMPI POP DUP2 ISZERO ISZERO JUMPDEST SWAP5 SWAP4 POP POP POP POP JUMP JUMPDEST PUSH1 0x0 DUP2 PUSH5 0x100000000 DUP5 LT PUSH2 0x5F0E JUMPI PUSH1 0x40 MLOAD PUSH3 0x461BCD PUSH1 0xE5 SHL DUP2 MSTORE PUSH1 0x20 PUSH1 0x4 DUP3 ADD DUP2 DUP2 MSTORE DUP4 MLOAD PUSH1 0x24 DUP5 ADD MSTORE DUP4 MLOAD SWAP1 SWAP3 DUP4 SWAP3 PUSH1 0x44 SWAP1 SWAP2 ADD SWAP2 SWAP1 DUP6 ADD SWAP1 DUP1 DUP4 DUP4 PUSH1 0x0 DUP4 ISZERO PUSH2 0x53CC JUMPI DUP2 DUP2 ADD MLOAD DUP4 DUP3 ADD MSTORE PUSH1 0x20 ADD PUSH2 0x53B4 JUMP JUMPDEST POP SWAP2 SWAP3 SWAP2 POP POP JUMP JUMPDEST PUSH1 0x40 DUP1 MLOAD DUP1 DUP3 ADD SWAP1 SWAP2 MSTORE PUSH1 0x0 DUP1 DUP3 MSTORE PUSH1 0x20 DUP3 ADD MSTORE SWAP1 JUMP INVALID MSTORE PUSH6 0x656E7472616E PUSH4 0x79477561 PUSH19 0x643A207265656E7472616E742063616C6C0075 PUSH15 0x626F6E644C69717569646974794672 PUSH16 0x6D4A6F623A20696E7375666669636965 PUSH15 0x742066756E64737472616E73666572 CHAINID PUSH19 0x6F6D3A2065786365656473207370656E646572 KECCAK256 PUSH2 0x6C6C PUSH16 0x77616E6365A264697066735822122054 MLOAD BYTE 0x4B SUB 0xE1 DUP11 DUP14 DUP14 0xEB PUSH13 0x76A6B3DCF9424D00244F934EEF ORIGIN DELEGATECALL 0x5D 0x2C CALLVALUE 0xD4 RETURNDATACOPY 0xBF PUSH5 0x736F6C6343 STOP MOD 0xC STOP CALLER "
		},
		"gasEstimates": {
			"creation": {
				"codeDepositCost": "4906400",
				"executionCost": "infinite",
				"totalCost": "infinite"
			},
			"external": {
				"BASE()": "353",
				"BOND()": "353",
				"DELEGATION_TYPEHASH()": "309",
				"DOMAINSEPARATOR()": "infinite",
				"DOMAIN_TYPEHASH()": "267",
				"ETH()": "354",
				"FEE()": "310",
				"LIQUIDITYBOND()": "377",
				"LK3RH()": "1125",
				"PERMIT_TYPEHASH()": "288",
				"UNBOND()": "376",
				"acceptGovernance()": "22766",
				"activate(address)": "infinite",
				"addCredit(address,address,uint256)": "infinite",
				"addCreditETH(address)": "infinite",
				"addJob(address)": "66369",
				"addLK3RCredit(address,uint256)": "25721",
				"addLiquidityToJob(address,address,uint256)": "infinite",
				"addVotes(address,uint256)": "infinite",
				"allowance(address,address)": "1361",
				"applyCreditToJob(address,address,address)": "infinite",
				"approve(address,uint256)": "22370",
				"approveLiquidity(address)": "64654",
				"balanceOf(address)": "1253",
				"blacklist(address)": "1268",
				"bond(address,uint256)": "infinite",
				"bondings(address,address)": "1351",
				"bonds(address,address)": "1285",
				"burn(uint256)": "infinite",
				"checkpoints(address,uint32)": "2257",
				"credits(address,address)": "1329",
				"decimals()": "319",
				"delegate(address)": "infinite",
				"delegateBySig(address,uint256,uint256,uint8,bytes32,bytes32)": "infinite",
				"delegates(address)": "1253",
				"dispute(address)": "23513",
				"disputes(address)": "1203",
				"firstSeen(address)": "1191",
				"fund(uint256)": "infinite",
				"getCurrentVotes(address)": "2250",
				"getJobs()": "infinite",
				"getLockers()": "infinite",
				"getPriorVotes(address,uint256)": "infinite",
				"governance()": "1149",
				"isBondedLocker(address,address,uint256,uint256,uint256)": "infinite",
				"isLocker(address)": "21343",
				"isMinLocker(address,uint256,uint256,uint256)": "infinite",
				"jobList(uint256)": "2084",
				"jobProposalDelay(address)": "1279",
				"jobs(address)": "1314",
				"lastJob(address)": "1302",
				"liquidityAccepted(address)": "1269",
				"liquidityAmount(address,address,address)": "1392",
				"liquidityAmountsUnbonding(address,address,address)": "1458",
				"liquidityApplied(address,address,address)": "1455",
				"liquidityPairs(uint256)": "2105",
				"liquidityProvided(address,address,address)": "1478",
				"liquidityUnbonding(address,address,address)": "1434",
				"lockerList(uint256)": "2060",
				"lockers(address)": "1293",
				"name()": "infinite",
				"nonces(address)": "1193",
				"numCheckpoints(address)": "1228",
				"pairs()": "infinite",
				"partialUnbonding(address,address)": "1373",
				"pendingGovernance()": "1103",
				"pendingTreasury()": "1105",
				"pendingbonds(address,address)": "1372",
				"permit(address,address,uint256,uint256,uint8,bytes32,bytes32)": "infinite",
				"receipt(address,address,uint256)": "infinite",
				"receiptETH(address,uint256)": "infinite",
				"removeJob(address)": "23773",
				"removeLiquidityFromJob(address,address)": "infinite",
				"removeVotes(address,uint256)": "infinite",
				"resolve(address)": "23465",
				"revoke(address)": "infinite",
				"revokeLiquidity(address)": "22080",
				"setGovernance(address)": "22091",
				"setLock3rHelper(address)": "22025",
				"slash(address,address,uint256)": "infinite",
				"symbol()": "infinite",
				"totalBonded()": "1111",
				"totalSupply()": "1067",
				"transfer(address,uint256)": "44642",
				"transferFrom(address,address,uint256)": "infinite",
				"treasury()": "1127",
				"unbond(address,uint256)": "infinite",
				"unbondLiquidityFromJob(address,address,uint256)": "infinite",
				"unbondings(address,address)": "1373",
				"votes(address)": "1213",
				"withdraw(address)": "infinite",
				"workCompleted(address)": "1237",
				"workReceipt(address,uint256)": "infinite",
				"worked(address)": "infinite"
			},
			"internal": {
				"_bond(address,address,uint256)": "infinite",
				"_burn(address,uint256)": "infinite",
				"_delegate(address,address)": "infinite",
				"_fund(address,uint256)": "infinite",
				"_getChainId()": "infinite",
				"_moveDelegates(address,address,uint256)": "infinite",
				"_transferTokens(address,address,uint256)": "infinite",
				"_unbond(address,address,uint256)": "infinite",
				"_writeCheckpoint(address,uint32,uint256,uint256)": "infinite",
				"safe32(uint256,string memory)": "infinite"
			}
		},
		"methodIdentifiers": {
			"BASE()": "ec342ad0",
			"BOND()": "c1c1d218",
			"DELEGATION_TYPEHASH()": "e7a324dc",
			"DOMAINSEPARATOR()": "1778e29c",
			"DOMAIN_TYPEHASH()": "20606b70",
			"ETH()": "8322fff2",
			"FEE()": "c57981b5",
			"LIQUIDITYBOND()": "1df0de13",
			"LK3RH()": "f57cb382",
			"PERMIT_TYPEHASH()": "30adf81f",
			"UNBOND()": "603b4d14",
			"acceptGovernance()": "238efcbc",
			"activate(address)": "1c5a9d9c",
			"addCredit(address,address,uint256)": "88b4ac83",
			"addCreditETH(address)": "6dab5dcf",
			"addJob(address)": "c5198abc",
			"addLK3RCredit(address,uint256)": "c3fc0e1d",
			"addLiquidityToJob(address,address,uint256)": "52a4de29",
			"addVotes(address,uint256)": "de63298d",
			"allowance(address,address)": "dd62ed3e",
			"applyCreditToJob(address,address,address)": "4395d8ba",
			"approve(address,uint256)": "095ea7b3",
			"approveLiquidity(address)": "b600702a",
			"balanceOf(address)": "70a08231",
			"blacklist(address)": "f9f92be4",
			"bond(address,uint256)": "a515366a",
			"bondings(address,address)": "37feca84",
			"bonds(address,address)": "a39744b5",
			"burn(uint256)": "42966c68",
			"checkpoints(address,uint32)": "f1127ed8",
			"credits(address,address)": "637cd7f0",
			"decimals()": "313ce567",
			"delegate(address)": "5c19a95c",
			"delegateBySig(address,uint256,uint256,uint8,bytes32,bytes32)": "c3cda520",
			"delegates(address)": "587cde1e",
			"dispute(address)": "f75f9f7b",
			"disputes(address)": "b0103b1a",
			"firstSeen(address)": "e326ac43",
			"fund(uint256)": "ca1d209d",
			"getCurrentVotes(address)": "b4b5ea57",
			"getJobs()": "68581ebd",
			"getLockers()": "814ee60a",
			"getPriorVotes(address,uint256)": "782d6fe1",
			"governance()": "5aa6e675",
			"isBondedLocker(address,address,uint256,uint256,uint256)": "9e3369b6",
			"isLocker(address)": "2ec63d7c",
			"isMinLocker(address,uint256,uint256,uint256)": "392c4c6c",
			"jobList(uint256)": "0c33c522",
			"jobProposalDelay(address)": "7724ff68",
			"jobs(address)": "3d1f0bb9",
			"lastJob(address)": "d454019d",
			"liquidityAccepted(address)": "eb421f3b",
			"liquidityAmount(address,address,address)": "1992d206",
			"liquidityAmountsUnbonding(address,address,address)": "83baa693",
			"liquidityApplied(address,address,address)": "fede7008",
			"liquidityPairs(uint256)": "1b7a1fb2",
			"liquidityProvided(address,address,address)": "def70844",
			"liquidityUnbonding(address,address,address)": "bb49096d",
			"lockerList(uint256)": "a457f6fe",
			"lockers(address)": "2c8e7a21",
			"name()": "06fdde03",
			"nonces(address)": "7ecebe00",
			"numCheckpoints(address)": "6fcfff45",
			"pairs()": "ffb0a4a0",
			"partialUnbonding(address,address)": "67da3184",
			"pendingGovernance()": "f39c38a0",
			"pendingTreasury()": "2ed6b75d",
			"pendingbonds(address,address)": "deac3541",
			"permit(address,address,uint256,uint256,uint8,bytes32,bytes32)": "d505accf",
			"receipt(address,address,uint256)": "8d9acd2e",
			"receiptETH(address,uint256)": "2119a62a",
			"removeJob(address)": "80711989",
			"removeLiquidityFromJob(address,address)": "603c6860",
			"removeVotes(address,uint256)": "ce6a0880",
			"resolve(address)": "55ea6c47",
			"revoke(address)": "74a8f103",
			"revokeLiquidity(address)": "64bb43ee",
			"setGovernance(address)": "ab033ea9",
			"setLock3rHelper(address)": "945dd26e",
			"slash(address,address,uint256)": "e74f8239",
			"symbol()": "95d89b41",
			"totalBonded()": "44d96e95",
			"totalSupply()": "18160ddd",
			"transfer(address,uint256)": "a9059cbb",
			"transferFrom(address,address,uint256)": "23b872dd",
			"treasury()": "61d027b3",
			"unbond(address,uint256)": "a5d059ca",
			"unbondLiquidityFromJob(address,address,uint256)": "1101eb41",
			"unbondings(address,address)": "9af77284",
			"votes(address)": "d8bff5a5",
			"withdraw(address)": "51cff8d9",
			"workCompleted(address)": "1b44555e",
			"workReceipt(address,uint256)": "4b3fde21",
			"worked(address)": "5feeb794"
		}
	},
	"abi": [
		{
			"inputs": [],
			"stateMutability": "nonpayable",
			"type": "constructor"
		},
		{
			"anonymous": false,
			"inputs": [
				{
					"indexed": true,
					"internalType": "address",
					"name": "credit",
					"type": "address"
				},
				{
					"indexed": true,
					"internalType": "address",
					"name": "job",
					"type": "address"
				},
				{
					"indexed": true,
					"internalType": "address",
					"name": "creditor",
					"type": "address"
				},
				{
					"indexed": false,
					"internalType": "uint256",
					"name": "block",
					"type": "uint256"
				},
				{
					"indexed": false,
					"internalType": "uint256",
					"name": "amount",
					"type": "uint256"
				}
			],
			"name": "AddCredit",
			"type": "event"
		},
		{
			"anonymous": false,
			"inputs": [
				{
					"indexed": true,
					"internalType": "address",
					"name": "job",
					"type": "address"
				},
				{
					"indexed": true,
					"internalType": "address",
					"name": "liquidity",
					"type": "address"
				},
				{
					"indexed": true,
					"internalType": "address",
					"name": "provider",
					"type": "address"
				},
				{
					"indexed": false,
					"internalType": "uint256",
					"name": "block",
					"type": "uint256"
				},
				{
					"indexed": false,
					"internalType": "uint256",
					"name": "credit",
					"type": "uint256"
				}
			],
			"name": "ApplyCredit",
			"type": "event"
		},
		{
			"anonymous": false,
			"inputs": [
				{
					"indexed": true,
					"internalType": "address",
					"name": "owner",
					"type": "address"
				},
				{
					"indexed": true,
					"internalType": "address",
					"name": "spender",
					"type": "address"
				},
				{
					"indexed": false,
					"internalType": "uint256",
					"name": "amount",
					"type": "uint256"
				}
			],
			"name": "Approval",
			"type": "event"
		},
		{
			"anonymous": false,
			"inputs": [
				{
					"indexed": true,
					"internalType": "address",
					"name": "delegator",
					"type": "address"
				},
				{
					"indexed": true,
					"internalType": "address",
					"name": "fromDelegate",
					"type": "address"
				},
				{
					"indexed": true,
					"internalType": "address",
					"name": "toDelegate",
					"type": "address"
				}
			],
			"name": "DelegateChanged",
			"type": "event"
		},
		{
			"anonymous": false,
			"inputs": [
				{
					"indexed": true,
					"internalType": "address",
					"name": "delegate",
					"type": "address"
				},
				{
					"indexed": false,
					"internalType": "uint256",
					"name": "previousBalance",
					"type": "uint256"
				},
				{
					"indexed": false,
					"internalType": "uint256",
					"name": "newBalance",
					"type": "uint256"
				}
			],
			"name": "DelegateVotesChanged",
			"type": "event"
		},
		{
			"anonymous": false,
			"inputs": [
				{
					"indexed": true,
					"internalType": "address",
					"name": "job",
					"type": "address"
				},
				{
					"indexed": false,
					"internalType": "uint256",
					"name": "block",
					"type": "uint256"
				},
				{
					"indexed": false,
					"internalType": "address",
					"name": "governance",
					"type": "address"
				}
			],
			"name": "JobAdded",
			"type": "event"
		},
		{
			"anonymous": false,
			"inputs": [
				{
					"indexed": true,
					"internalType": "address",
					"name": "job",
					"type": "address"
				},
				{
					"indexed": false,
					"internalType": "uint256",
					"name": "block",
					"type": "uint256"
				},
				{
					"indexed": false,
					"internalType": "address",
					"name": "governance",
					"type": "address"
				}
			],
			"name": "JobRemoved",
			"type": "event"
		},
		{
			"anonymous": false,
			"inputs": [
				{
					"indexed": true,
					"internalType": "address",
					"name": "locker",
					"type": "address"
				},
				{
					"indexed": false,
					"internalType": "uint256",
					"name": "block",
					"type": "uint256"
				},
				{
					"indexed": false,
					"internalType": "uint256",
					"name": "activated",
					"type": "uint256"
				},
				{
					"indexed": false,
					"internalType": "uint256",
					"name": "bond",
					"type": "uint256"
				}
			],
			"name": "LockerBonded",
			"type": "event"
		},
		{
			"anonymous": false,
			"inputs": [
				{
					"indexed": true,
					"internalType": "address",
					"name": "locker",
					"type": "address"
				},
				{
					"indexed": false,
					"internalType": "uint256",
					"name": "block",
					"type": "uint256"
				},
				{
					"indexed": false,
					"internalType": "uint256",
					"name": "active",
					"type": "uint256"
				},
				{
					"indexed": false,
					"internalType": "uint256",
					"name": "bond",
					"type": "uint256"
				}
			],
			"name": "LockerBonding",
			"type": "event"
		},
		{
			"anonymous": false,
			"inputs": [
				{
					"indexed": true,
					"internalType": "address",
					"name": "locker",
					"type": "address"
				},
				{
					"indexed": false,
					"internalType": "uint256",
					"name": "block",
					"type": "uint256"
				}
			],
			"name": "LockerDispute",
			"type": "event"
		},
		{
			"anonymous": false,
			"inputs": [
				{
					"indexed": true,
					"internalType": "address",
					"name": "locker",
					"type": "address"
				},
				{
					"indexed": false,
					"internalType": "uint256",
					"name": "block",
					"type": "uint256"
				}
			],
			"name": "LockerResolved",
			"type": "event"
		},
		{
			"anonymous": false,
			"inputs": [
				{
					"indexed": true,
					"internalType": "address",
					"name": "locker",
					"type": "address"
				},
				{
					"indexed": true,
					"internalType": "address",
					"name": "slasher",
					"type": "address"
				},
				{
					"indexed": false,
					"internalType": "uint256",
					"name": "block",
					"type": "uint256"
				},
				{
					"indexed": false,
					"internalType": "uint256",
					"name": "slash",
					"type": "uint256"
				}
			],
			"name": "LockerSlashed",
			"type": "event"
		},
		{
			"anonymous": false,
			"inputs": [
				{
					"indexed": true,
					"internalType": "address",
					"name": "locker",
					"type": "address"
				},
				{
					"indexed": false,
					"internalType": "uint256",
					"name": "block",
					"type": "uint256"
				},
				{
					"indexed": false,
					"internalType": "uint256",
					"name": "deactive",
					"type": "uint256"
				},
				{
					"indexed": false,
					"internalType": "uint256",
					"name": "bond",
					"type": "uint256"
				}
			],
			"name": "LockerUnbonding",
			"type": "event"
		},
		{
			"anonymous": false,
			"inputs": [
				{
					"indexed": true,
					"internalType": "address",
					"name": "locker",
					"type": "address"
				},
				{
					"indexed": false,
					"internalType": "uint256",
					"name": "block",
					"type": "uint256"
				},
				{
					"indexed": false,
					"internalType": "uint256",
					"name": "deactivated",
					"type": "uint256"
				},
				{
					"indexed": false,
					"internalType": "uint256",
					"name": "bond",
					"type": "uint256"
				}
			],
			"name": "LockerUnbound",
			"type": "event"
		},
		{
			"anonymous": false,
			"inputs": [
				{
					"indexed": true,
					"internalType": "address",
					"name": "credit",
					"type": "address"
				},
				{
					"indexed": true,
					"internalType": "address",
					"name": "job",
					"type": "address"
				},
				{
					"indexed": true,
					"internalType": "address",
					"name": "locker",
					"type": "address"
				},
				{
					"indexed": false,
					"internalType": "uint256",
					"name": "block",
					"type": "uint256"
				}
			],
			"name": "LockerWorked",
			"type": "event"
		},
		{
			"anonymous": false,
			"inputs": [
				{
					"indexed": true,
					"internalType": "address",
					"name": "job",
					"type": "address"
				},
				{
					"indexed": true,
					"internalType": "address",
					"name": "liquidity",
					"type": "address"
				},
				{
					"indexed": true,
					"internalType": "address",
					"name": "provider",
					"type": "address"
				},
				{
					"indexed": false,
					"internalType": "uint256",
					"name": "block",
					"type": "uint256"
				},
				{
					"indexed": false,
					"internalType": "uint256",
					"name": "credit",
					"type": "uint256"
				}
			],
			"name": "RemoveJob",
			"type": "event"
		},
		{
			"anonymous": false,
			"inputs": [
				{
					"indexed": true,
					"internalType": "address",
					"name": "job",
					"type": "address"
				},
				{
					"indexed": true,
					"internalType": "address",
					"name": "liquidity",
					"type": "address"
				},
				{
					"indexed": true,
					"internalType": "address",
					"name": "provider",
					"type": "address"
				},
				{
					"indexed": false,
					"internalType": "uint256",
					"name": "block",
					"type": "uint256"
				},
				{
					"indexed": false,
					"internalType": "uint256",
					"name": "credit",
					"type": "uint256"
				}
			],
			"name": "SubmitJob",
			"type": "event"
		},
		{
			"anonymous": false,
			"inputs": [
				{
					"indexed": true,
					"internalType": "address",
					"name": "from",
					"type": "address"
				},
				{
					"indexed": true,
					"internalType": "address",
					"name": "to",
					"type": "address"
				},
				{
					"indexed": false,
					"internalType": "uint256",
					"name": "amount",
					"type": "uint256"
				}
			],
			"name": "Transfer",
			"type": "event"
		},
		{
			"anonymous": false,
			"inputs": [
				{
					"indexed": true,
					"internalType": "address",
					"name": "job",
					"type": "address"
				},
				{
					"indexed": true,
					"internalType": "address",
					"name": "liquidity",
					"type": "address"
				},
				{
					"indexed": true,
					"internalType": "address",
					"name": "provider",
					"type": "address"
				},
				{
					"indexed": false,
					"internalType": "uint256",
					"name": "block",
					"type": "uint256"
				},
				{
					"indexed": false,
					"internalType": "uint256",
					"name": "credit",
					"type": "uint256"
				}
			],
			"name": "UnbondJob",
			"type": "event"
		},
		{
			"inputs": [],
			"name": "BASE",
			"outputs": [
				{
					"internalType": "uint256",
					"name": "",
					"type": "uint256"
				}
			],
			"stateMutability": "view",
			"type": "function"
		},
		{
			"inputs": [],
			"name": "BOND",
			"outputs": [
				{
					"internalType": "uint256",
					"name": "",
					"type": "uint256"
				}
			],
			"stateMutability": "view",
			"type": "function"
		},
		{
			"inputs": [],
			"name": "DELEGATION_TYPEHASH",
			"outputs": [
				{
					"internalType": "bytes32",
					"name": "",
					"type": "bytes32"
				}
			],
			"stateMutability": "view",
			"type": "function"
		},
		{
			"inputs": [],
			"name": "DOMAINSEPARATOR",
			"outputs": [
				{
					"internalType": "bytes32",
					"name": "",
					"type": "bytes32"
				}
			],
			"stateMutability": "view",
			"type": "function"
		},
		{
			"inputs": [],
			"name": "DOMAIN_TYPEHASH",
			"outputs": [
				{
					"internalType": "bytes32",
					"name": "",
					"type": "bytes32"
				}
			],
			"stateMutability": "view",
			"type": "function"
		},
		{
			"inputs": [],
			"name": "ETH",
			"outputs": [
				{
					"internalType": "address",
					"name": "",
					"type": "address"
				}
			],
			"stateMutability": "view",
			"type": "function"
		},
		{
			"inputs": [],
			"name": "FEE",
			"outputs": [
				{
					"internalType": "uint256",
					"name": "",
					"type": "uint256"
				}
			],
			"stateMutability": "view",
			"type": "function"
		},
		{
			"inputs": [],
			"name": "LIQUIDITYBOND",
			"outputs": [
				{
					"internalType": "uint256",
					"name": "",
					"type": "uint256"
				}
			],
			"stateMutability": "view",
			"type": "function"
		},
		{
			"inputs": [],
			"name": "LK3RH",
			"outputs": [
				{
					"internalType": "contract ILock3rV1Helper",
					"name": "",
					"type": "address"
				}
			],
			"stateMutability": "view",
			"type": "function"
		},
		{
			"inputs": [],
			"name": "PERMIT_TYPEHASH",
			"outputs": [
				{
					"internalType": "bytes32",
					"name": "",
					"type": "bytes32"
				}
			],
			"stateMutability": "view",
			"type": "function"
		},
		{
			"inputs": [],
			"name": "UNBOND",
			"outputs": [
				{
					"internalType": "uint256",
					"name": "",
					"type": "uint256"
				}
			],
			"stateMutability": "view",
			"type": "function"
		},
		{
			"inputs": [],
			"name": "acceptGovernance",
			"outputs": [],
			"stateMutability": "nonpayable",
			"type": "function"
		},
		{
			"inputs": [
				{
					"internalType": "address",
					"name": "bonding",
					"type": "address"
				}
			],
			"name": "activate",
			"outputs": [],
			"stateMutability": "nonpayable",
			"type": "function"
		},
		{
			"inputs": [
				{
					"internalType": "address",
					"name": "credit",
					"type": "address"
				},
				{
					"internalType": "address",
					"name": "job",
					"type": "address"
				},
				{
					"internalType": "uint256",
					"name": "amount",
					"type": "uint256"
				}
			],
			"name": "addCredit",
			"outputs": [],
			"stateMutability": "nonpayable",
			"type": "function"
		},
		{
			"inputs": [
				{
					"internalType": "address",
					"name": "job",
					"type": "address"
				}
			],
			"name": "addCreditETH",
			"outputs": [],
			"stateMutability": "payable",
			"type": "function"
		},
		{
			"inputs": [
				{
					"internalType": "address",
					"name": "job",
					"type": "address"
				}
			],
			"name": "addJob",
			"outputs": [],
			"stateMutability": "nonpayable",
			"type": "function"
		},
		{
			"inputs": [
				{
					"internalType": "address",
					"name": "job",
					"type": "address"
				},
				{
					"internalType": "uint256",
					"name": "amount",
					"type": "uint256"
				}
			],
			"name": "addLK3RCredit",
			"outputs": [],
			"stateMutability": "nonpayable",
			"type": "function"
		},
		{
			"inputs": [
				{
					"internalType": "address",
					"name": "liquidity",
					"type": "address"
				},
				{
					"internalType": "address",
					"name": "job",
					"type": "address"
				},
				{
					"internalType": "uint256",
					"name": "amount",
					"type": "uint256"
				}
			],
			"name": "addLiquidityToJob",
			"outputs": [],
			"stateMutability": "nonpayable",
			"type": "function"
		},
		{
			"inputs": [
				{
					"internalType": "address",
					"name": "voter",
					"type": "address"
				},
				{
					"internalType": "uint256",
					"name": "amount",
					"type": "uint256"
				}
			],
			"name": "addVotes",
			"outputs": [],
			"stateMutability": "nonpayable",
			"type": "function"
		},
		{
			"inputs": [
				{
					"internalType": "address",
					"name": "account",
					"type": "address"
				},
				{
					"internalType": "address",
					"name": "spender",
					"type": "address"
				}
			],
			"name": "allowance",
			"outputs": [
				{
					"internalType": "uint256",
					"name": "",
					"type": "uint256"
				}
			],
			"stateMutability": "view",
			"type": "function"
		},
		{
			"inputs": [
				{
					"internalType": "address",
					"name": "provider",
					"type": "address"
				},
				{
					"internalType": "address",
					"name": "liquidity",
					"type": "address"
				},
				{
					"internalType": "address",
					"name": "job",
					"type": "address"
				}
			],
			"name": "applyCreditToJob",
			"outputs": [],
			"stateMutability": "nonpayable",
			"type": "function"
		},
		{
			"inputs": [
				{
					"internalType": "address",
					"name": "spender",
					"type": "address"
				},
				{
					"internalType": "uint256",
					"name": "amount",
					"type": "uint256"
				}
			],
			"name": "approve",
			"outputs": [
				{
					"internalType": "bool",
					"name": "",
					"type": "bool"
				}
			],
			"stateMutability": "nonpayable",
			"type": "function"
		},
		{
			"inputs": [
				{
					"internalType": "address",
					"name": "liquidity",
					"type": "address"
				}
			],
			"name": "approveLiquidity",
			"outputs": [],
			"stateMutability": "nonpayable",
			"type": "function"
		},
		{
			"inputs": [
				{
					"internalType": "address",
					"name": "account",
					"type": "address"
				}
			],
			"name": "balanceOf",
			"outputs": [
				{
					"internalType": "uint256",
					"name": "",
					"type": "uint256"
				}
			],
			"stateMutability": "view",
			"type": "function"
		},
		{
			"inputs": [
				{
					"internalType": "address",
					"name": "",
					"type": "address"
				}
			],
			"name": "blacklist",
			"outputs": [
				{
					"internalType": "bool",
					"name": "",
					"type": "bool"
				}
			],
			"stateMutability": "view",
			"type": "function"
		},
		{
			"inputs": [
				{
					"internalType": "address",
					"name": "bonding",
					"type": "address"
				},
				{
					"internalType": "uint256",
					"name": "amount",
					"type": "uint256"
				}
			],
			"name": "bond",
			"outputs": [],
			"stateMutability": "nonpayable",
			"type": "function"
		},
		{
			"inputs": [
				{
					"internalType": "address",
					"name": "",
					"type": "address"
				},
				{
					"internalType": "address",
					"name": "",
					"type": "address"
				}
			],
			"name": "bondings",
			"outputs": [
				{
					"internalType": "uint256",
					"name": "",
					"type": "uint256"
				}
			],
			"stateMutability": "view",
			"type": "function"
		},
		{
			"inputs": [
				{
					"internalType": "address",
					"name": "",
					"type": "address"
				},
				{
					"internalType": "address",
					"name": "",
					"type": "address"
				}
			],
			"name": "bonds",
			"outputs": [
				{
					"internalType": "uint256",
					"name": "",
					"type": "uint256"
				}
			],
			"stateMutability": "view",
			"type": "function"
		},
		{
			"inputs": [
				{
					"internalType": "uint256",
					"name": "amount",
					"type": "uint256"
				}
			],
			"name": "burn",
			"outputs": [],
			"stateMutability": "nonpayable",
			"type": "function"
		},
		{
			"inputs": [
				{
					"internalType": "address",
					"name": "",
					"type": "address"
				},
				{
					"internalType": "uint32",
					"name": "",
					"type": "uint32"
				}
			],
			"name": "checkpoints",
			"outputs": [
				{
					"internalType": "uint32",
					"name": "fromBlock",
					"type": "uint32"
				},
				{
					"internalType": "uint256",
					"name": "votes",
					"type": "uint256"
				}
			],
			"stateMutability": "view",
			"type": "function"
		},
		{
			"inputs": [
				{
					"internalType": "address",
					"name": "",
					"type": "address"
				},
				{
					"internalType": "address",
					"name": "",
					"type": "address"
				}
			],
			"name": "credits",
			"outputs": [
				{
					"internalType": "uint256",
					"name": "",
					"type": "uint256"
				}
			],
			"stateMutability": "view",
			"type": "function"
		},
		{
			"inputs": [],
			"name": "decimals",
			"outputs": [
				{
					"internalType": "uint8",
					"name": "",
					"type": "uint8"
				}
			],
			"stateMutability": "view",
			"type": "function"
		},
		{
			"inputs": [
				{
					"internalType": "address",
					"name": "delegatee",
					"type": "address"
				}
			],
			"name": "delegate",
			"outputs": [],
			"stateMutability": "nonpayable",
			"type": "function"
		},
		{
			"inputs": [
				{
					"internalType": "address",
					"name": "delegatee",
					"type": "address"
				},
				{
					"internalType": "uint256",
					"name": "nonce",
					"type": "uint256"
				},
				{
					"internalType": "uint256",
					"name": "expiry",
					"type": "uint256"
				},
				{
					"internalType": "uint8",
					"name": "v",
					"type": "uint8"
				},
				{
					"internalType": "bytes32",
					"name": "r",
					"type": "bytes32"
				},
				{
					"internalType": "bytes32",
					"name": "s",
					"type": "bytes32"
				}
			],
			"name": "delegateBySig",
			"outputs": [],
			"stateMutability": "nonpayable",
			"type": "function"
		},
		{
			"inputs": [
				{
					"internalType": "address",
					"name": "",
					"type": "address"
				}
			],
			"name": "delegates",
			"outputs": [
				{
					"internalType": "address",
					"name": "",
					"type": "address"
				}
			],
			"stateMutability": "view",
			"type": "function"
		},
		{
			"inputs": [
				{
					"internalType": "address",
					"name": "locker",
					"type": "address"
				}
			],
			"name": "dispute",
			"outputs": [],
			"stateMutability": "nonpayable",
			"type": "function"
		},
		{
			"inputs": [
				{
					"internalType": "address",
					"name": "",
					"type": "address"
				}
			],
			"name": "disputes",
			"outputs": [
				{
					"internalType": "bool",
					"name": "",
					"type": "bool"
				}
			],
			"stateMutability": "view",
			"type": "function"
		},
		{
			"inputs": [
				{
					"internalType": "address",
					"name": "",
					"type": "address"
				}
			],
			"name": "firstSeen",
			"outputs": [
				{
					"internalType": "uint256",
					"name": "",
					"type": "uint256"
				}
			],
			"stateMutability": "view",
			"type": "function"
		},
		{
			"inputs": [
				{
					"internalType": "uint256",
					"name": "amount",
					"type": "uint256"
				}
			],
			"name": "fund",
			"outputs": [],
			"stateMutability": "nonpayable",
			"type": "function"
		},
		{
			"inputs": [
				{
					"internalType": "address",
					"name": "account",
					"type": "address"
				}
			],
			"name": "getCurrentVotes",
			"outputs": [
				{
					"internalType": "uint256",
					"name": "",
					"type": "uint256"
				}
			],
			"stateMutability": "view",
			"type": "function"
		},
		{
			"inputs": [],
			"name": "getJobs",
			"outputs": [
				{
					"internalType": "address[]",
					"name": "",
					"type": "address[]"
				}
			],
			"stateMutability": "view",
			"type": "function"
		},
		{
			"inputs": [],
			"name": "getLockers",
			"outputs": [
				{
					"internalType": "address[]",
					"name": "",
					"type": "address[]"
				}
			],
			"stateMutability": "view",
			"type": "function"
		},
		{
			"inputs": [
				{
					"internalType": "address",
					"name": "account",
					"type": "address"
				},
				{
					"internalType": "uint256",
					"name": "blockNumber",
					"type": "uint256"
				}
			],
			"name": "getPriorVotes",
			"outputs": [
				{
					"internalType": "uint256",
					"name": "",
					"type": "uint256"
				}
			],
			"stateMutability": "view",
			"type": "function"
		},
		{
			"inputs": [],
			"name": "governance",
			"outputs": [
				{
					"internalType": "address",
					"name": "",
					"type": "address"
				}
			],
			"stateMutability": "view",
			"type": "function"
		},
		{
			"inputs": [
				{
					"internalType": "address",
					"name": "locker",
					"type": "address"
				},
				{
					"internalType": "address",
					"name": "bond",
					"type": "address"
				},
				{
					"internalType": "uint256",
					"name": "minBond",
					"type": "uint256"
				},
				{
					"internalType": "uint256",
					"name": "earned",
					"type": "uint256"
				},
				{
					"internalType": "uint256",
					"name": "age",
					"type": "uint256"
				}
			],
			"name": "isBondedLocker",
			"outputs": [
				{
					"internalType": "bool",
					"name": "",
					"type": "bool"
				}
			],
			"stateMutability": "nonpayable",
			"type": "function"
		},
		{
			"inputs": [
				{
					"internalType": "address",
					"name": "locker",
					"type": "address"
				}
			],
			"name": "isLocker",
			"outputs": [
				{
					"internalType": "bool",
					"name": "",
					"type": "bool"
				}
			],
			"stateMutability": "nonpayable",
			"type": "function"
		},
		{
			"inputs": [
				{
					"internalType": "address",
					"name": "locker",
					"type": "address"
				},
				{
					"internalType": "uint256",
					"name": "minBond",
					"type": "uint256"
				},
				{
					"internalType": "uint256",
					"name": "earned",
					"type": "uint256"
				},
				{
					"internalType": "uint256",
					"name": "age",
					"type": "uint256"
				}
			],
			"name": "isMinLocker",
			"outputs": [
				{
					"internalType": "bool",
					"name": "",
					"type": "bool"
				}
			],
			"stateMutability": "nonpayable",
			"type": "function"
		},
		{
			"inputs": [
				{
					"internalType": "uint256",
					"name": "",
					"type": "uint256"
				}
			],
			"name": "jobList",
			"outputs": [
				{
					"internalType": "address",
					"name": "",
					"type": "address"
				}
			],
			"stateMutability": "view",
			"type": "function"
		},
		{
			"inputs": [
				{
					"internalType": "address",
					"name": "",
					"type": "address"
				}
			],
			"name": "jobProposalDelay",
			"outputs": [
				{
					"internalType": "uint256",
					"name": "",
					"type": "uint256"
				}
			],
			"stateMutability": "view",
			"type": "function"
		},
		{
			"inputs": [
				{
					"internalType": "address",
					"name": "",
					"type": "address"
				}
			],
			"name": "jobs",
			"outputs": [
				{
					"internalType": "bool",
					"name": "",
					"type": "bool"
				}
			],
			"stateMutability": "view",
			"type": "function"
		},
		{
			"inputs": [
				{
					"internalType": "address",
					"name": "",
					"type": "address"
				}
			],
			"name": "lastJob",
			"outputs": [
				{
					"internalType": "uint256",
					"name": "",
					"type": "uint256"
				}
			],
			"stateMutability": "view",
			"type": "function"
		},
		{
			"inputs": [
				{
					"internalType": "address",
					"name": "",
					"type": "address"
				}
			],
			"name": "liquidityAccepted",
			"outputs": [
				{
					"internalType": "bool",
					"name": "",
					"type": "bool"
				}
			],
			"stateMutability": "view",
			"type": "function"
		},
		{
			"inputs": [
				{
					"internalType": "address",
					"name": "",
					"type": "address"
				},
				{
					"internalType": "address",
					"name": "",
					"type": "address"
				},
				{
					"internalType": "address",
					"name": "",
					"type": "address"
				}
			],
			"name": "liquidityAmount",
			"outputs": [
				{
					"internalType": "uint256",
					"name": "",
					"type": "uint256"
				}
			],
			"stateMutability": "view",
			"type": "function"
		},
		{
			"inputs": [
				{
					"internalType": "address",
					"name": "",
					"type": "address"
				},
				{
					"internalType": "address",
					"name": "",
					"type": "address"
				},
				{
					"internalType": "address",
					"name": "",
					"type": "address"
				}
			],
			"name": "liquidityAmountsUnbonding",
			"outputs": [
				{
					"internalType": "uint256",
					"name": "",
					"type": "uint256"
				}
			],
			"stateMutability": "view",
			"type": "function"
		},
		{
			"inputs": [
				{
					"internalType": "address",
					"name": "",
					"type": "address"
				},
				{
					"internalType": "address",
					"name": "",
					"type": "address"
				},
				{
					"internalType": "address",
					"name": "",
					"type": "address"
				}
			],
			"name": "liquidityApplied",
			"outputs": [
				{
					"internalType": "uint256",
					"name": "",
					"type": "uint256"
				}
			],
			"stateMutability": "view",
			"type": "function"
		},
		{
			"inputs": [
				{
					"internalType": "uint256",
					"name": "",
					"type": "uint256"
				}
			],
			"name": "liquidityPairs",
			"outputs": [
				{
					"internalType": "address",
					"name": "",
					"type": "address"
				}
			],
			"stateMutability": "view",
			"type": "function"
		},
		{
			"inputs": [
				{
					"internalType": "address",
					"name": "",
					"type": "address"
				},
				{
					"internalType": "address",
					"name": "",
					"type": "address"
				},
				{
					"internalType": "address",
					"name": "",
					"type": "address"
				}
			],
			"name": "liquidityProvided",
			"outputs": [
				{
					"internalType": "uint256",
					"name": "",
					"type": "uint256"
				}
			],
			"stateMutability": "view",
			"type": "function"
		},
		{
			"inputs": [
				{
					"internalType": "address",
					"name": "",
					"type": "address"
				},
				{
					"internalType": "address",
					"name": "",
					"type": "address"
				},
				{
					"internalType": "address",
					"name": "",
					"type": "address"
				}
			],
			"name": "liquidityUnbonding",
			"outputs": [
				{
					"internalType": "uint256",
					"name": "",
					"type": "uint256"
				}
			],
			"stateMutability": "view",
			"type": "function"
		},
		{
			"inputs": [
				{
					"internalType": "uint256",
					"name": "",
					"type": "uint256"
				}
			],
			"name": "lockerList",
			"outputs": [
				{
					"internalType": "address",
					"name": "",
					"type": "address"
				}
			],
			"stateMutability": "view",
			"type": "function"
		},
		{
			"inputs": [
				{
					"internalType": "address",
					"name": "",
					"type": "address"
				}
			],
			"name": "lockers",
			"outputs": [
				{
					"internalType": "bool",
					"name": "",
					"type": "bool"
				}
			],
			"stateMutability": "view",
			"type": "function"
		},
		{
			"inputs": [],
			"name": "name",
			"outputs": [
				{
					"internalType": "string",
					"name": "",
					"type": "string"
				}
			],
			"stateMutability": "view",
			"type": "function"
		},
		{
			"inputs": [
				{
					"internalType": "address",
					"name": "",
					"type": "address"
				}
			],
			"name": "nonces",
			"outputs": [
				{
					"internalType": "uint256",
					"name": "",
					"type": "uint256"
				}
			],
			"stateMutability": "view",
			"type": "function"
		},
		{
			"inputs": [
				{
					"internalType": "address",
					"name": "",
					"type": "address"
				}
			],
			"name": "numCheckpoints",
			"outputs": [
				{
					"internalType": "uint32",
					"name": "",
					"type": "uint32"
				}
			],
			"stateMutability": "view",
			"type": "function"
		},
		{
			"inputs": [],
			"name": "pairs",
			"outputs": [
				{
					"internalType": "address[]",
					"name": "",
					"type": "address[]"
				}
			],
			"stateMutability": "view",
			"type": "function"
		},
		{
			"inputs": [
				{
					"internalType": "address",
					"name": "",
					"type": "address"
				},
				{
					"internalType": "address",
					"name": "",
					"type": "address"
				}
			],
			"name": "partialUnbonding",
			"outputs": [
				{
					"internalType": "uint256",
					"name": "",
					"type": "uint256"
				}
			],
			"stateMutability": "view",
			"type": "function"
		},
		{
			"inputs": [],
			"name": "pendingGovernance",
			"outputs": [
				{
					"internalType": "address",
					"name": "",
					"type": "address"
				}
			],
			"stateMutability": "view",
			"type": "function"
		},
		{
			"inputs": [],
			"name": "pendingTreasury",
			"outputs": [
				{
					"internalType": "address",
					"name": "",
					"type": "address"
				}
			],
			"stateMutability": "view",
			"type": "function"
		},
		{
			"inputs": [
				{
					"internalType": "address",
					"name": "",
					"type": "address"
				},
				{
					"internalType": "address",
					"name": "",
					"type": "address"
				}
			],
			"name": "pendingbonds",
			"outputs": [
				{
					"internalType": "uint256",
					"name": "",
					"type": "uint256"
				}
			],
			"stateMutability": "view",
			"type": "function"
		},
		{
			"inputs": [
				{
					"internalType": "address",
					"name": "owner",
					"type": "address"
				},
				{
					"internalType": "address",
					"name": "spender",
					"type": "address"
				},
				{
					"internalType": "uint256",
					"name": "amount",
					"type": "uint256"
				},
				{
					"internalType": "uint256",
					"name": "deadline",
					"type": "uint256"
				},
				{
					"internalType": "uint8",
					"name": "v",
					"type": "uint8"
				},
				{
					"internalType": "bytes32",
					"name": "r",
					"type": "bytes32"
				},
				{
					"internalType": "bytes32",
					"name": "s",
					"type": "bytes32"
				}
			],
			"name": "permit",
			"outputs": [],
			"stateMutability": "nonpayable",
			"type": "function"
		},
		{
			"inputs": [
				{
					"internalType": "address",
					"name": "credit",
					"type": "address"
				},
				{
					"internalType": "address",
					"name": "locker",
					"type": "address"
				},
				{
					"internalType": "uint256",
					"name": "amount",
					"type": "uint256"
				}
			],
			"name": "receipt",
			"outputs": [],
			"stateMutability": "nonpayable",
			"type": "function"
		},
		{
			"inputs": [
				{
					"internalType": "address",
					"name": "locker",
					"type": "address"
				},
				{
					"internalType": "uint256",
					"name": "amount",
					"type": "uint256"
				}
			],
			"name": "receiptETH",
			"outputs": [],
			"stateMutability": "nonpayable",
			"type": "function"
		},
		{
			"inputs": [
				{
					"internalType": "address",
					"name": "job",
					"type": "address"
				}
			],
			"name": "removeJob",
			"outputs": [],
			"stateMutability": "nonpayable",
			"type": "function"
		},
		{
			"inputs": [
				{
					"internalType": "address",
					"name": "liquidity",
					"type": "address"
				},
				{
					"internalType": "address",
					"name": "job",
					"type": "address"
				}
			],
			"name": "removeLiquidityFromJob",
			"outputs": [],
			"stateMutability": "nonpayable",
			"type": "function"
		},
		{
			"inputs": [
				{
					"internalType": "address",
					"name": "voter",
					"type": "address"
				},
				{
					"internalType": "uint256",
					"name": "amount",
					"type": "uint256"
				}
			],
			"name": "removeVotes",
			"outputs": [],
			"stateMutability": "nonpayable",
			"type": "function"
		},
		{
			"inputs": [
				{
					"internalType": "address",
					"name": "locker",
					"type": "address"
				}
			],
			"name": "resolve",
			"outputs": [],
			"stateMutability": "nonpayable",
			"type": "function"
		},
		{
			"inputs": [
				{
					"internalType": "address",
					"name": "locker",
					"type": "address"
				}
			],
			"name": "revoke",
			"outputs": [],
			"stateMutability": "nonpayable",
			"type": "function"
		},
		{
			"inputs": [
				{
					"internalType": "address",
					"name": "liquidity",
					"type": "address"
				}
			],
			"name": "revokeLiquidity",
			"outputs": [],
			"stateMutability": "nonpayable",
			"type": "function"
		},
		{
			"inputs": [
				{
					"internalType": "address",
					"name": "_governance",
					"type": "address"
				}
			],
			"name": "setGovernance",
			"outputs": [],
			"stateMutability": "nonpayable",
			"type": "function"
		},
		{
			"inputs": [
				{
					"internalType": "contract ILock3rV1Helper",
					"name": "_lk3rh",
					"type": "address"
				}
			],
			"name": "setLock3rHelper",
			"outputs": [],
			"stateMutability": "nonpayable",
			"type": "function"
		},
		{
			"inputs": [
				{
					"internalType": "address",
					"name": "bonded",
					"type": "address"
				},
				{
					"internalType": "address",
					"name": "locker",
					"type": "address"
				},
				{
					"internalType": "uint256",
					"name": "amount",
					"type": "uint256"
				}
			],
			"name": "slash",
			"outputs": [],
			"stateMutability": "nonpayable",
			"type": "function"
		},
		{
			"inputs": [],
			"name": "symbol",
			"outputs": [
				{
					"internalType": "string",
					"name": "",
					"type": "string"
				}
			],
			"stateMutability": "view",
			"type": "function"
		},
		{
			"inputs": [],
			"name": "totalBonded",
			"outputs": [
				{
					"internalType": "uint256",
					"name": "",
					"type": "uint256"
				}
			],
			"stateMutability": "view",
			"type": "function"
		},
		{
			"inputs": [],
			"name": "totalSupply",
			"outputs": [
				{
					"internalType": "uint256",
					"name": "",
					"type": "uint256"
				}
			],
			"stateMutability": "view",
			"type": "function"
		},
		{
			"inputs": [
				{
					"internalType": "address",
					"name": "dst",
					"type": "address"
				},
				{
					"internalType": "uint256",
					"name": "amount",
					"type": "uint256"
				}
			],
			"name": "transfer",
			"outputs": [
				{
					"internalType": "bool",
					"name": "",
					"type": "bool"
				}
			],
			"stateMutability": "nonpayable",
			"type": "function"
		},
		{
			"inputs": [
				{
					"internalType": "address",
					"name": "src",
					"type": "address"
				},
				{
					"internalType": "address",
					"name": "dst",
					"type": "address"
				},
				{
					"internalType": "uint256",
					"name": "amount",
					"type": "uint256"
				}
			],
			"name": "transferFrom",
			"outputs": [
				{
					"internalType": "bool",
					"name": "",
					"type": "bool"
				}
			],
			"stateMutability": "nonpayable",
			"type": "function"
		},
		{
			"inputs": [],
			"name": "treasury",
			"outputs": [
				{
					"internalType": "address",
					"name": "",
					"type": "address"
				}
			],
			"stateMutability": "view",
			"type": "function"
		},
		{
			"inputs": [
				{
					"internalType": "address",
					"name": "bonding",
					"type": "address"
				},
				{
					"internalType": "uint256",
					"name": "amount",
					"type": "uint256"
				}
			],
			"name": "unbond",
			"outputs": [],
			"stateMutability": "nonpayable",
			"type": "function"
		},
		{
			"inputs": [
				{
					"internalType": "address",
					"name": "liquidity",
					"type": "address"
				},
				{
					"internalType": "address",
					"name": "job",
					"type": "address"
				},
				{
					"internalType": "uint256",
					"name": "amount",
					"type": "uint256"
				}
			],
			"name": "unbondLiquidityFromJob",
			"outputs": [],
			"stateMutability": "nonpayable",
			"type": "function"
		},
		{
			"inputs": [
				{
					"internalType": "address",
					"name": "",
					"type": "address"
				},
				{
					"internalType": "address",
					"name": "",
					"type": "address"
				}
			],
			"name": "unbondings",
			"outputs": [
				{
					"internalType": "uint256",
					"name": "",
					"type": "uint256"
				}
			],
			"stateMutability": "view",
			"type": "function"
		},
		{
			"inputs": [
				{
					"internalType": "address",
					"name": "",
					"type": "address"
				}
			],
			"name": "votes",
			"outputs": [
				{
					"internalType": "uint256",
					"name": "",
					"type": "uint256"
				}
			],
			"stateMutability": "view",
			"type": "function"
		},
		{
			"inputs": [
				{
					"internalType": "address",
					"name": "bonding",
					"type": "address"
				}
			],
			"name": "withdraw",
			"outputs": [],
			"stateMutability": "nonpayable",
			"type": "function"
		},
		{
			"inputs": [
				{
					"internalType": "address",
					"name": "",
					"type": "address"
				}
			],
			"name": "workCompleted",
			"outputs": [
				{
					"internalType": "uint256",
					"name": "",
					"type": "uint256"
				}
			],
			"stateMutability": "view",
			"type": "function"
		},
		{
			"inputs": [
				{
					"internalType": "address",
					"name": "locker",
					"type": "address"
				},
				{
					"internalType": "uint256",
					"name": "amount",
					"type": "uint256"
				}
			],
			"name": "workReceipt",
			"outputs": [],
			"stateMutability": "nonpayable",
			"type": "function"
		},
		{
			"inputs": [
				{
					"internalType": "address",
					"name": "locker",
					"type": "address"
				}
			],
			"name": "worked",
			"outputs": [],
			"stateMutability": "nonpayable",
			"type": "function"
		}
	]
}