{
	"data": {
		"bytecode": {
			"linkReferences": {},
			"object": "6101a4610026600b82828239805160001a60731461001957fe5b30600052607381538281f3fe730000000000000000000000000000000000000000301460806040526004361061006c5760003560e01c8063313ce56714610071578063864029e714610095578063907af6c0146100b35780639d8e2177146100d1578063d5e5e6e6146100ef578063def4419d1461010d575b600080fd5b610079610131565b604051808260ff1660ff16815260200191505060405180910390f35b61009d610136565b6040518082815260200191505060405180910390f35b6100bb610141565b6040518082815260200191505060405180910390f35b6100d9610150565b6040518082815260200191505060405180910390f35b6100f761015b565b6040518082815260200191505060405180910390f35b61011561016a565b604051808260ff1660ff16815260200191505060405180910390f35b601281565b601b60ff16600a0a81565b6000601260ff16600a0a905090565b601260ff16600a0a81565b6000601b60ff16600a0a905090565b601b8156fea265627a7a72315820a44942a1b0239026760af02133cfc41714cf4202e6f37511bdbcb516c3f7181064736f6c63430005110032",
			"opcodes": "PUSH2 0x1A4 PUSH2 0x26 PUSH1 0xB DUP3 DUP3 DUP3 CODECOPY DUP1 MLOAD PUSH1 0x0 BYTE PUSH1 0x73 EQ PUSH2 0x19 JUMPI INVALID JUMPDEST ADDRESS PUSH1 0x0 MSTORE PUSH1 0x73 DUP2 MSTORE8 DUP3 DUP2 RETURN INVALID PUSH20 0x0 ADDRESS EQ PUSH1 0x80 PUSH1 0x40 MSTORE PUSH1 0x4 CALLDATASIZE LT PUSH2 0x6C JUMPI PUSH1 0x0 CALLDATALOAD PUSH1 0xE0 SHR DUP1 PUSH4 0x313CE567 EQ PUSH2 0x71 JUMPI DUP1 PUSH4 0x864029E7 EQ PUSH2 0x95 JUMPI DUP1 PUSH4 0x907AF6C0 EQ PUSH2 0xB3 JUMPI DUP1 PUSH4 0x9D8E2177 EQ PUSH2 0xD1 JUMPI DUP1 PUSH4 0xD5E5E6E6 EQ PUSH2 0xEF JUMPI DUP1 PUSH4 0xDEF4419D EQ PUSH2 0x10D JUMPI JUMPDEST PUSH1 0x0 DUP1 REVERT JUMPDEST PUSH2 0x79 PUSH2 0x131 JUMP JUMPDEST PUSH1 0x40 MLOAD DUP1 DUP3 PUSH1 0xFF AND PUSH1 0xFF AND DUP2 MSTORE PUSH1 0x20 ADD SWAP2 POP POP PUSH1 0x40 MLOAD DUP1 SWAP2 SUB SWAP1 RETURN JUMPDEST PUSH2 0x9D PUSH2 0x136 JUMP JUMPDEST PUSH1 0x40 MLOAD DUP1 DUP3 DUP2 MSTORE PUSH1 0x20 ADD SWAP2 POP POP PUSH1 0x40 MLOAD DUP1 SWAP2 SUB SWAP1 RETURN JUMPDEST PUSH2 0xBB PUSH2 0x141 JUMP JUMPDEST PUSH1 0x40 MLOAD DUP1 DUP3 DUP2 MSTORE PUSH1 0x20 ADD SWAP2 POP POP PUSH1 0x40 MLOAD DUP1 SWAP2 SUB SWAP1 RETURN JUMPDEST PUSH2 0xD9 PUSH2 0x150 JUMP JUMPDEST PUSH1 0x40 MLOAD DUP1 DUP3 DUP2 MSTORE PUSH1 0x20 ADD SWAP2 POP POP PUSH1 0x40 MLOAD DUP1 SWAP2 SUB SWAP1 RETURN JUMPDEST PUSH2 0xF7 PUSH2 0x15B JUMP JUMPDEST PUSH1 0x40 MLOAD DUP1 DUP3 DUP2 MSTORE PUSH1 0x20 ADD SWAP2 POP POP PUSH1 0x40 MLOAD DUP1 SWAP2 SUB SWAP1 RETURN JUMPDEST PUSH2 0x115 PUSH2 0x16A JUMP JUMPDEST PUSH1 0x40 MLOAD DUP1 DUP3 PUSH1 0xFF AND PUSH1 0xFF AND DUP2 MSTORE PUSH1 0x20 ADD SWAP2 POP POP PUSH1 0x40 MLOAD DUP1 SWAP2 SUB SWAP1 RETURN JUMPDEST PUSH1 0x12 DUP2 JUMP JUMPDEST PUSH1 0x1B PUSH1 0xFF AND PUSH1 0xA EXP DUP2 JUMP JUMPDEST PUSH1 0x0 PUSH1 0x12 PUSH1 0xFF AND PUSH1 0xA EXP SWAP1 POP SWAP1 JUMP JUMPDEST PUSH1 0x12 PUSH1 0xFF AND PUSH1 0xA EXP DUP2 JUMP JUMPDEST PUSH1 0x0 PUSH1 0x1B PUSH1 0xFF AND PUSH1 0xA EXP SWAP1 POP SWAP1 JUMP JUMPDEST PUSH1 0x1B DUP2 JUMP INVALID LOG2 PUSH6 0x627A7A723158 KECCAK256 LOG4 0x49 TIMESTAMP LOG1 0xB0 0x23 SWAP1 0x26 PUSH23 0xAF02133CFC41714CF4202E6F37511BDBCB516C3F71810 PUSH5 0x736F6C6343 STOP SDIV GT STOP ORIGIN "
		},
		"gasEstimates": {
			"creation": {
				"codeDepositCost": "84000",
				"executionCost": "160",
				"totalCost": "84160"
			},
			"external": {
				"PRECISE_UNIT()": "258",
				"UNIT()": "302",
				"decimals()": "179",
				"highPrecisionDecimals()": "289",
				"preciseUnit()": "332",
				"unit()": "288"
			},
			"internal": {
				"_divideDecimalRound(uint256,uint256,uint256)": "infinite",
				"_multiplyDecimalRound(uint256,uint256,uint256)": "infinite",
				"decimalToPreciseDecimal(uint256)": "infinite",
				"divideDecimal(uint256,uint256)": "infinite",
				"divideDecimalRound(uint256,uint256)": "infinite",
				"divideDecimalRoundPrecise(uint256,uint256)": "infinite",
				"multiplyDecimal(uint256,uint256)": "infinite",
				"multiplyDecimalRound(uint256,uint256)": "infinite",
				"multiplyDecimalRoundPrecise(uint256,uint256)": "infinite",
				"preciseDecimalToDecimal(uint256)": "infinite"
			}
		},
		"methodIdentifiers": {
			"PRECISE_UNIT()": "864029e7",
			"UNIT()": "9d8e2177",
			"decimals()": "313ce567",
			"highPrecisionDecimals()": "def4419d",
			"preciseUnit()": "d5e5e6e6",
			"unit()": "907af6c0"
		}
	},
	"abi": [
		{
			"constant": true,
			"inputs": [],
			"name": "PRECISE_UNIT",
			"outputs": [
				{
					"internalType": "uint256",
					"name": "",
					"type": "uint256"
				}
			],
			"payable": false,
			"stateMutability": "view",
			"type": "function"
		},
		{
			"constant": true,
			"inputs": [],
			"name": "UNIT",
			"outputs": [
				{
					"internalType": "uint256",
					"name": "",
					"type": "uint256"
				}
			],
			"payable": false,
			"stateMutability": "view",
			"type": "function"
		},
		{
			"constant": true,
			"inputs": [],
			"name": "decimals",
			"outputs": [
				{
					"internalType": "uint8",
					"name": "",
					"type": "uint8"
				}
			],
			"payable": false,
			"stateMutability": "view",
			"type": "function"
		},
		{
			"constant": true,
			"inputs": [],
			"name": "highPrecisionDecimals",
			"outputs": [
				{
					"internalType": "uint8",
					"name": "",
					"type": "uint8"
				}
			],
			"payable": false,
			"stateMutability": "view",
			"type": "function"
		},
		{
			"constant": true,
			"inputs": [],
			"name": "preciseUnit",
			"outputs": [
				{
					"internalType": "uint256",
					"name": "",
					"type": "uint256"
				}
			],
			"payable": false,
			"stateMutability": "view",
			"type": "function"
		},
		{
			"constant": true,
			"inputs": [],
			"name": "unit",
			"outputs": [
				{
					"internalType": "uint256",
					"name": "",
					"type": "uint256"
				}
			],
			"payable": false,
			"stateMutability": "view",
			"type": "function"
		}
	]
}